:020000040800F2
:10000000E8980020DD010008250400089503000899
:100010002104000875020008570B000800000000CA
:100020000000000000000000000000004501000882
:100030007902000800000000890100088507000817
:10004000F7010008F7010008F7010008F7010008B0
:10005000F7010008F7010008F7010008F7010008A0
:10006000F7010008F7010008F7010008F701000890
:10007000F7010008F7010008F7010008F701000880
:10008000F7010008F7010008F7010008F701000870
:10009000F7010008F7010008F7010008F701000860
:1000A000F7010008F7010008F7010008F701000850
:1000B000F7010008F7010008F7010008F701000840
:1000C000F7010008F7010008F7010008F701000830
:1000D000F701000851080008F7010008F7010008BF
:1000E000F7010008F7010008F7010008F701000810
:1000F000F7010008F7010008F7010008F701000800
:10010000F7010008F7010008F7010008F7010008EF
:10011000F7010008F7010008F7010008F7010008DF
:10012000F7010008F7010008F7010008F7010008CF
:10013000DFF80CD000F08CF800480047A10D000853
:10014000E8980020224B19680868B0E8F00F80F3A7
:100150000988BFF36F8F4FF0000080F311884EF0D5
:100160000D0E70470000000006480068006880F32C
:10017000088862B661B6BFF34F8FBFF36F8F00DFA1
:1001800000BF00BF08ED00E0EFF30980BFF36F8F01
:100190000F4B1A6820E9F00F106008B54FF05000BF
:1001A00080F31188BFF34F8FBFF36F8F02F04AF8CF
:1001B0004FF0000080F31188BDE808401968086816
:1001C000B0E8F00F80F30988BFF36F8F704700BF6E
:1001D00048000020EFF30580704700000648804784
:1001E00006480047FEE7FEE7FEE7FEE7FEE7FEE71C
:1001F000FEE7FEE7FEE7FEE7F10700083101000831
:1002000040EA01039B0703D009E008C9121F08C098
:10021000042AFAD203E011F8013B00F8013B521E18
:10022000F9D2704730B50B46014600202022012448
:1002300009E021FA02F59D4205D303FA02F5491BB4
:1002400004FA02F52844151EA2F10102F1DC30BDCA
:10025000064C074D06E0E06840F0010394E8070013
:1002600098471034AC42F6D3FFF766FFC42F00085E
:10027000E42F000800BFFEE770472DE9F041024679
:1002800000250026002000230024002791F803C049
:100290000CF00F0591F803C00CF0100CBCF1000F2E
:1002A00003D091F802C04CEA050591F800C0BCF1FA
:1002B000000F31D0146800202BE04FF0010C0CFA35
:1002C00000F3B1F800C00CEA03069E4220D183007F
:1002D0004FF00F0C0CFA03F7BC4305FA03FC4CEA91
:1002E000040491F803C0BCF1280F06D14FF0010CB3
:1002F0000CFA00FCC2F814C00AE091F803C0BCF18B
:10030000480F05D14FF0010C0CFA00FCC2F810C0E8
:10031000401C0828D1D31460B1F800C0BCF1FF0F15
:1003200034DD546800202EE000F1080C4FF0010885
:1003300008FA0CF3B1F800C00CEA03069E4221D182
:1003400083004FF00F0C0CFA03F7BC4305FA03FCD3
:100350004CEA040491F803C0BCF1280F05D100F168
:10036000080C08FA0CF8C2F8148091F803C0BCF12C
:10037000480F07D100F1080C4FF0010808FA0CF8FB
:10038000C2F81080401C0828CED35460BDE8F0812C
:100390000161704700BFFEE708B50121442000F06D
:1003A00085F80120ADF8000028208DF8030069468B
:1003B0000648FFF762FF1C20ADF8000048208DF8CA
:1003C000030069460248FFF758FF08BD00080140D6
:1003D0000018014008B50121482000F067F82020EE
:1003E000ADF8000010208DF8030003208DF8020006
:1003F00069460948FFF741FF20210748FFF7C8FF7A
:100400002020ADF8000069460448FFF736FF2021A0
:100410000248FFF7BDFF08BD000C01400018014075
:1004200000BFFEE77047000070B5002100230F22D7
:10043000C47804B3154C246804F4E064C4F5E064A3
:10044000210AC1F10403CA40447804FA03F1847814
:100450001440214309010E4C0678A155047804F09C
:100460001F050124AC4005786D11AD0005F1E025B4
:10047000C5F8004109E0047804F01F050124AC40F0
:10048000044D0678761145F8264070BD0CED00E06D
:1004900000E400E080E100E002490143024A11600B
:1004A000704700000000FA050CED00E029B1064A93
:1004B00092690243044B9A6104E0034A92698243C1
:1004C000014B9A61704700000010024030B50021D6
:1004D0000022002400232D4D6D6805F00C0121B190
:1004E000042905D0082923D105E0294D056022E023
:1004F000274D05601FE0254D6D6805F47012234DF2
:100500006D6805F48034022505EB92421CB9214D3B
:10051000554305600BE01D4D6D6805F400351DB1B8
:100520001C4D5543056002E0194D5543056002E03E
:10053000174D056000BF00BF144D6D6805F0F00158
:100540000909154D6B5C0568DD4045600F4D6D6810
:1005500005F4E061090A104D6B5C4568DD4085607B
:100560000A4D6D6805F46051C90A0B4D6B5C456816
:10057000DD40C560054D6D6805F44041890B074DB0
:100580006B5CC568B5FBF3F5056130BD001002403A
:1005900000127A0000093D00180000202800002009
:1005A00010B500F001F810BD0CB5002001900090CE
:1005B0003348006840F480303149086000BF30485B
:1005C000006800F4003000900198401C01900098F1
:1005D00018B90198B0F5A06FF1D12948006800F46E
:1005E000003010B10120009001E000200090009840
:1005F000012843D12348006840F0100021490860D9
:100600000846006820F0030008600846006840F0D3
:10061000020008601A484068194948600846406866
:1006200048600846406840F480604860084640687A
:1006300020F47C1048600846406840F4E8104860A8
:100640000846006840F08070086000BF0C480068F1
:1006500000F000700028F9D00948406820F003003D
:10066000074948600846406840F00200486000BF03
:100670000348406800F00C000828F9D10CBD0000C8
:10068000001002400020024070B505460C4800688A
:10069000401C0B49086002F0EBF904460948006869
:1006A00008B9012000E000200649086004480168FC
:1006B00005A000F053FA21460BA000F04FFA70BDE0
:1006C00010000020940123425377746D72315F4310
:1006D000616C6C6261636BBAAFCAFDD6B4D0D020D6
:1006E000256420B4CE0A0000B5CEB4F0B6A8CAB1D5
:1006F000C6F7CAFDD6B53D25640A000070B50546AB
:1007000008480068401C0749086002F0B1F9044637
:100710000448016804A000F021FA21460AA000F074
:100720001DFA70BD140000205377746D72325F4360
:10073000616C6C6261636BBAAFCAFDD6B4D0D02075
:10074000256420B4CE0A0000B5CEB4F0B6A8CAB174
:10075000C6F7CAFDD6B53D25640A0000042808D1B5
:100760004FF0E021096941F004014FF0E0221161EE
:1007700007E04FF0E021096921F004014FF0E02289
:100780001161704710B502F063F9012801D001F042
:10079000FDFD10BD70B505460420FFF7DFFF1048D2
:1007A00000681049B0FBF1F00F4908700C48006870
:1007B0000C49B0FBF1F44FF47A70444301200B492B
:1007C00008804FF0E020006940F002004FF0E02187
:1007D000086108464461006940F00100086170BD8D
:1007E0002C00002040420F0040000020420000206A
:1007F00010B51348006840F0010011490860084630
:100800004068104908400E494860084600680E4993
:1008100008400B4908600846006820F48020086002
:100820000846406820F4FE0048604FF41F008860CE
:10083000FFF7B6FE4FF000600449086010BD0000ED
:10084000001002400000FFF8FFFFF6FE08ED00E098
:1008500010B540F225511D4800F0B8F810B31B4800
:1008600000F070F9C4B21A48008800F40040C8B91A
:100870001748008800F4804060B10A2C03D00020A3
:100880001349088020E01248008840F400401049D5
:10089000088019E00D2C06D10D48008840F48040F6
:1008A0000B49088010E00A480088C0F30D00094990
:1008B0000C5407480088401C0549088008460088F9
:1008C000C72801DD0020088010BD0000003801406D
:1008D00044000020C000002010B586B0044601216D
:1008E0000420FFF7E3FD01218803FFF7DFFD4FF44C
:1008F0000070ADF8140003208DF8160018208DF854
:10090000170005A91E48FFF7B8FC4FF48060ADF84A
:10091000140004208DF8170005A91948FFF7ADFC55
:1009200001940020ADF80800ADF80A00ADF80C0005
:10093000ADF810000C20ADF80E0001A9114800F030
:1009400095F801210F4800F028F840210D4800F0EB
:100950001BF8012240F225510A4800F061F82520D9
:100960008DF8000003208DF801008DF802000120B1
:100970008DF803006846FFF757FD06B010BD000074
:10098000000801400038014001F40072B2F5007F18
:1009900000D100BFCA430280704721B1828942F46E
:1009A0000052828104E082894DF6FF731A408281F1
:1009B000704702460020B1F5007F00D100BF1388C8
:1009C0000B400BB1012000E00020704770B50246DB
:1009D000002400230025002040F66A16B14200D111
:1009E00000BFC1F3421501F01F03012606FA03F30D
:1009F000012D02D19689334006E0022D02D1168ADC
:100A0000334001E0968A33400C12012606FA04F4C2
:100A10001688344013B10CB1012000E0002070BDF5
:100A2000F0B50346002400260025002040F66A1792
:100A3000B94200D100BF1846C1F3421401F01F06AD
:100A4000012707FA06F5012C01D10C3004E0022C35
:100A500001D1103000E014301AB107682F4307604D
:100A600002E00768AF430760F0BD00002DE9F047E2
:100A700086B005460E460024A24600BFA1460027C8
:100A8000B08900B100BF2F462C8A4CF6FF7004409D
:100A9000F08804432C82AC894EF6F3100440B088F1
:100AA00031890843718908430443AC81AC8A4FF60D
:100AB000FF400440B0890443AC8201A8FFF706FD63
:100AC0001F48874202D1DDF810A001E0DDF80CA03C
:100AD000A88900F4004040B10AEBCA0000EB0A10FC
:100AE00031684900B0FBF1F807E00AEBCA0000EBFF
:100AF0000A1031688900B0FBF1F86420B8FBF0F00F
:100B000004012009642101FB1089A88900F4004038
:100B100040B1322000EBC900B0FBF1F000F007005B
:100B2000044308E0322000EB09106421B0FBF1F02F
:100B300000F00F0004432C8106B0BDE8F0870000F0
:100B40000038014001468888C0F308007047C1F3AF
:100B500008028280704700BFFEE700000FB4054B1B
:100B600010B503A9044A029800F018F810BC5DF80B
:100B700014FB0000550D0008BC00002002E008C86E
:100B8000121F08C1002AFAD170477047002001E007
:100B900001C1121F002AFBD1704700002DE9FF4F51
:100BA0008BB09A460F460546002606E025280BD056
:100BB00052460D9990476D1C761C28780028F5D177
:100BC0000FB03046BDE8F08F0024A04601226049F6
:100BD00000E0044315F8013F203B02FA03F008420D
:100BE000F7D128782E2817D115F8010F44F0040406
:100BF0002A280ED06FF02F022878A0F130010929A1
:100C00000AD808EB880102EB410100EB01086D1CDA
:100C1000F2E757F8048B6D1C287869283ED006DC73
:100C20000028CDD063280BD0642804D136E0732887
:100C300010D075284BD052460D999047761C85E010
:100C400017F8040B8DF8000000208DF80100E9462C
:100C5000012003E057F8049B4FF0FF3061074FF08D
:100C6000000401D40AE0641C44450DDA8442FADB36
:100C700019F804100029F6D106E0641C8442FCDB5C
:100C800019F804100029F8D1264404E019F8010BE2
:100C900052460D999047641EF8D257E001CF4FF0AD
:100CA0000A0B002802DA40422D2102E0210504D57A
:100CB0002B218DF82410012103E0E10705D020212C
:100CC000F7E70DF1200908910CE00021F9E701CFC9
:100CD0004FF00A0BF9E75946FFF7A4FA01F1300289
:100CE00009F8012D0028F6D1ADEB090000F1200B29
:100CF000600701D44FF00108D84502DDA8EB0B00D6
:100D000000E000208046002406E009A85246005D6D
:100D10000D999047641C761C08988442F5DB04E02A
:100D2000302052460D999047761CB8F10001A8F189
:100D30000108F5DC05E019F8010B52460D999047C2
:100D4000761CBBF10001ABF1010BF4DC6D1C34E748
:100D50000928010070B504460D46E1B20548FFF7C9
:100D6000F6FE00BF80210348FFF723FE0028F9D0DC
:100D7000204670BD003801400DE0002006490860A3
:100D8000C82001F065F801200449C1F894014FF42E
:100D9000487001F05DF8F0E7948121420080214223
:100DA0001CB54820FFF7F6FC4FF44070FFF774FBCA
:100DB000FFF710FBFFF7F0FA4FF4E130FFF78CFD7F
:100DC00008A0FFF7CBFE0E48012100238022CDE9C9
:100DD00000100CA10E4801F00BFE01F0D5F9002027
:100DE0001CBD00004672656552544F53C8EDBCFEF1
:100DF000B6A8CAB1C6F7CAB5D1E90D0A000000000D
:100E00000000002073746172745F7461736B000082
:100E1000091A00082DE9F04105460E461C480768EE
:100E20001C480068001D00F05DFE50B919480068BC
:100E300090F82C1001208840174909688143164812
:100E40000160681C38B936B112480168091D1348A1
:100E500000F086FE1AE07C190E4800684460BC422F
:100E600007D20C480168091D0D48006800F05EFEBD
:100E70000CE008480168091D0A48006800F056FEA9
:100E800009480068844201D207480460BDE8F08147
:100E90005C0000204800002060000020A804002022
:100EA000500000204C0000207800002010B50446BF
:100EB00000F062FE23480068401C22490860224876
:100EC000006840B9204804600846006801280DD138
:100ED00000F016FA0AE01D48006838B91A480068A0
:100EE000C06AE16A884201D817480460184800685F
:100EF000401C1749086094F82C10012088401549BF
:100F00000968084313490860E16A01EB8101124A4C
:100F100002EB8100211D00F023FE00F06FFE0B4864
:100F2000006868B108480068C06AE16A884207D270
:100F30004FF0805009490860BFF34F8FBFF36F8FA8
:100F400010BD000058000020480000206400002070
:100F50007400002060000020D801002004ED00E0B3
:100F600010B500F009FE10480068D0B90F4800F035
:100F7000CDFD0F4800F0CAFD0C480E4908600C4832
:100F80000D49086000220C210A2001F019FA0649D7
:100F900008600846006820B108A10348006800F016
:100FA0001BFF00F02BFE10BD8C000020BC040020B5
:100FB000D00400208400002088000020546D72516D
:100FC0000000000070B523E001F034F91348006818
:100FD00008B9012000E00020054601F0C5FEBDB9BA
:100FE00000F0CAFD0D48C068C468201D00F07AFDFD
:100FF0000B480068401E0A4908600A480068401E05
:101000000849086000F0FAFD204600F060F800BFD3
:10101000044800680028D7D170BD00009404002067
:10102000580000205400002070B504460D46206C86
:1010300070B1216CE0680844E0606168E068884253
:1010400001D32068E0602846226CE168FFF7D8F8F9
:1010500070BD2DE9F04104460F4615464FF00008DB
:10106000A66B206C40B9206860BB606801F0B6FDDB
:1010700080460020606025E07DB93946226CA0687A
:10108000FFF7BEF8216CA0680844A060D4E9011005
:10109000884217D32068A06014E03946226CE068CB
:1010A000FFF7AEF8216CE068401AE0602168E06864
:1010B000884203D2216C6068401AE060022D01D1A1
:1010C00006B1761E701CA0634046BDE8F08110B5E5
:1010D0000446206B00F0C8FD204600F0C5FD10BDA1
:1010E0000146084A126812680AB9012200E000228B
:1010F0000A600A6822B9034A1268D268106800E0E0
:10110000002070478400002030B54FF4104317488A
:1011100000F007042CB1C01D20F00700134C041B85
:101120001B1B0246124C22600024114D6C60D0182B
:10113000083820F007000F4C206000240D4D2D686A
:101140006C600C4D2D682C601146441A4C60094CA3
:1011500024680C60084D4C682C60084D4C682C606D
:101160004FF00044064D2C6030BD0000E404002028
:1011700098000020A0000020A8000020A40000206B
:10118000AC00002000BFFFF71DFF064800680128E3
:10119000F9D94FF0805004490860BFF34F8FBFF377
:1011A0006F8FF0E7D801002004ED00E02DE9F04159
:1011B00006460D4617469846069C0DB9246000E089
:1011C0002760E66325640121204601F017FABDE897
:1011D000F08100002DE9FF5F81460F469246DDE970
:1011E0000E6B109CAAF10100216B01EB800828F026
:1011F000070808F0070008B9012000E0002028B91E
:1012000040F22B321BA120A0FFF7A8FC002507E02D
:10121000795D04F134004155785D00B902E06D1C40
:10122000102DF5D300BF002143200155202E00D3FF
:101230001F26E66266640020A064201D00F073FC97
:1012400004F1180000F06FFC2461C6F12000A061D9
:1012500064620020E06484F8500049464046039AE6
:1012600000F0C0FB2060BBF1000F01D0CBF80040C4
:10127000BDE8FF9F4672656552544F535C746173BD
:101280006B732E63000000004572726F723A257313
:101290002C25640D0A0000002DE9F04706460D4696
:1012A00017469846DDE908940DB1012000E00020C2
:1012B00028B94FF4C67209A10DA0FFF74FFC5CB12D
:1012C000FFF74EFE2660A561E761C4F82080C4F8F0
:1012D0002490201D00F027FCBDE8F087467265656C
:1012E00052544F535C74696D6572732E6300000035
:1012F0004572726F723A25732C25640D0A00000046
:1013000010B5002407E004EB84010F4A02EB8100D2
:1013100000F0FCFB641C202CF5D30C4800F0F6FB1D
:101320000B4800F0F3FB0B4800F0F0FB0A4800F01C
:10133000EDFB0A4800F0EAFB04480949086004484C
:101340000849086010BD0000D801002058040020A2
:101350006C0400208004002094040020A8040020D5
:101360004C0000205000002010B50146164800E057
:10137000006803688B42FBD30246436813448B42E8
:1013800004D143684C682344436001460A464B68D5
:1013900013440468A34211D10C4C03682468A3428F
:1013A00008D04B680468646823444B6003681B687A
:1013B0000B6005E0054B1B680B6001E003680B60E8
:1013C000884200D0016010BD98000020A0000020DD
:1013D0002DE9F04104460D4616461F464FF0000821
:1013E00065602461B5420CD8F01BA169884202D324
:1013F0004FF0010811E0211D0948006800F096FB3C
:101400000BE0BE4204D2BD4202D34FF0010804E01B
:10141000211D0448006800F089FB4046BDE8F081CA
:10142000880000208400002070B5054600F0A4FB71
:10143000A86B08B9012400E0002400F0DFFB20467F
:1014400070BD70B5054600F097FBA86BE96B88424C
:1014500001D1012400E0002400F0D0FB204670BD43
:10146000F8B505460F4613480068C068C468201DDB
:1014700000F038FBE069012818D1A06941192B461A
:101480003A462046FFF7A4FF80B1002003462A46D3
:1014900001460090204601F047FD06462EB94FF464
:1014A000027205A109A0FFF759FB00BF2046616A3F
:1014B0008847F8BD840000204672656552544F533A
:1014C0005C74696D6572732E630000004572726F03
:1014D000723A25732C25640D0A00000070B586B0A1
:1014E00060E0039800285DDB059C606908B9012075
:1014F00000E0002010B9201D00F0F4FA02A800F06E
:10150000C5F8054603980A284AD2DFE800F0090525
:10151000072C2E4506082D2F00BF00BF00BF00BFBF
:101520000498A269811803462A462046FFF750FF17
:10153000C0B12046616A8847E069012812D10020C5
:1015400000900498A169421800231946204601F032
:10155000EBFC06462EB940F2213218A11CA0FFF781
:10156000FDFA00BF1DE000BF1BE000BF0498A061B2
:10157000A06908B1012000E0002028B94FF44E72A4
:101580000EA113A0FFF7EAFAA06941192B462A46DB
:101590002046FFF71DFF04E0204600F065FB00E059
:1015A00000BF00BF00231A4603A90D48006800F0E1
:1015B00041FF002895D106B070BD000046726565F8
:1015C00052544F535C74696D6572732E6300000052
:1015D0004572726F723A25732C25640D0A00000063
:1015E0008C000020F8B505460C4600F023FE684646
:1015F00000F04CF80646009820BB44B9B54206D826
:1016000001F0B2FB31462846FFF72AFF1CE03CB14F
:101610000E480068006808B9012000E00020044678
:10162000A91B22460A48006800F0ECFB01F09CFB75
:1016300050B94FF0805007490860BFF34F8FBFF398
:101640006F8F01E001F090FBF8BD000088000020E2
:101650008C00002004ED00E00A490968096809B916
:10166000012100E0002121B14FF0FF31064A116055
:1016700006E004490968C968C868034A41681160FE
:10168000704700004C0000207800002070B5044630
:1016900001F0EEF9054607480068854204D200F0E3
:1016A0000BF80120206001E0002020600148056067
:1016B000284670BD940000202DE9F8432DE0214814
:1016C0000068C06805681F480068C068C468201DBD
:1016D00000F008FA2046616A8847E06901281CD1B9
:1016E000A0694619AE4207D966602461211D1548DC
:1016F000006800F01BFA10E0002003462A4601466D
:101700000090204601F010FC07462FB940F29232BB
:101710000DA112A0FFF722FA00BF0A480068006876
:1017200008B9012000E000200028C8D00548D0F802
:1017300000800E480068034908600C48C0F800802B
:10174000BDE8F883840000204672656552544F530B
:101750005C74696D6572732E630000004572726F70
:10176000723A25732C25640D0A00000088000020C1
:101770000B480068401C08B9012000E0002020B997
:10178000F42208A111A0FFF7E9F900BF502080F36F
:101790001188BFF34F8FBFF36F8F00BF00BFFEE70D
:1017A000B00000204672656552544F535C706F72F2
:1017B0007461626C655C525644535C41524D5F43A8
:1017C0004D335C706F72742E630000004572726F4F
:1017D000723A25732C25640D0A00000008B500BF7D
:1017E0006846FFF77DFC044620460099FFF7FAFEA5
:1017F000FFF774FEF4E770B5044600F0BDF994F904
:10180000455010E0606A08B9012000E0002038B9B6
:1018100004F1240001F04EFA18B100F0D9FB00E009
:1018200003E0681E45B2002DECDC00BFFF2084F809
:10183000450000F0E3F900F09FF994F9445010E0FE
:10184000206908B9012000E0002048B904F1100027
:1018500001F030FA08B100F0BBFB681E45B200E0B1
:1018600001E0002DECDC00BFFF2084F8440000F014
:10187000C5F970BD2DE9F04104464FF0000800F0B5
:10188000D9FC3E48006808B9FFF73EFC3C480068B8
:10189000204000285FD1A4B1083404F0070080B1D3
:1018A00004F00700C0F10800044404F0070008B980
:1018B000012000E0002020B9BF2232A13AA0FFF7AA
:1018C0004DF9002C47D03C480068844243D83B4E39
:1018D0003046056801E02E462D686868A04202D2B5
:1018E00028680028F7D125480068854233D0306841
:1018F00000F10808286830606868001B102813D9B8
:101900002F1907F0070008B9012000E0002020B9D6
:10191000EC221CA124A0FFF721F96868001B786065
:101920006C603846FFF720FD234968680968081A8B
:10193000214908600846006821490968884203D2A5
:101940001D4800681E4908600D4968680968084319
:1019500068600020286001F007FA08F0070008B965
:10196000012000E0002028B94FF4967205A10EA0D6
:10197000FFF7F4F84046BDE8F0810000A000002029
:10198000AC0000204672656552544F535C706F7214
:101990007461626C655C4D656D4D616E675C686518
:1019A00061705F342E6300004572726F723A257366
:1019B0002C25640D0A000000A400002098000020DF
:1019C000A80000200648006830B10549096801F107
:1019D0004800896C491C016001480068704700009C
:1019E00048000020001F4FF080730360001F21F0AB
:1019F00001030360001F034B0360143802602038AA
:101A000070470000711700087CB5054600F0B4F877
:101A1000224801231A464FF47A71009020A001F069
:101A200033FA234908600846006858B101F020F8ED
:101A30000446002003462246012100901C4800680D
:101A400001F072FA1B480223002241F28831009013
:101A500019A001F019FA1C4908600846006858B13D
:101A600001F006F8044600200346224601210090BA
:101A70001548006801F058FA144802210023322268
:101A8000CDE9001012A1154800F0B2FF144800681B
:101A900000F018FA00F0B2F87CBD000089060008DA
:101AA0004175746F52656C6F616454696D65720045
:101AB00008000020FD0600084F6E6553686F7454DF
:101AC000696D6572000000000C0000200400002019
:101AD0006C6564315F7461736B000000790D000800
:101AE0000000002001460A69D1E901309860D1E97F
:101AF000010358605068884201D188685060002016
:101B000008611068401E10601068704700F10801FD
:101B100041604FF0FF31816000F10801C160016157
:101B200000210160704700210161704710B5024635
:101B30000B685C1C0CB9106907E002F1080000E0BA
:101B40004068446824689C42FAD944684C604C68F8
:101B5000A160886041600A611468641C146010BD53
:101B600042684A6093688B6093685960916008612D
:101B700003685B1C0360704710B500BF502080F302
:101B80001188BFF34F8FBFF36F8F00BF0B48006802
:101B9000401C0A4908600846006801280DD1084821
:101BA0000068C0B208B9012000E0002028B94FF455
:101BB000BD7204A10DA0FEF7D1FF10BDB000002042
:101BC00004ED00E04672656552544F535C706F72CD
:101BD0007461626C655C525644535C41524D5F4384
:101BE0004D335C706F72742E630000004572726F2B
:101BF000723A25732C25640D0A00000010B50B48BD
:101C0000006828B940F2811209A113A0FEF7A6FFCF
:101C100006480068401E054908600846006820B96B
:101C2000002080F3118800BF00BF10BDB00000206D
:101C30004672656552544F535C706F727461626C8A
:101C4000655C525644535C41524D5F434D335C706A
:101C50006F72742E630000004572726F723A2573C2
:101C60002C25640D0A00000070B506463546002E8E
:101C700035D0083D2C461A4960680968084008B10B
:101C8000012000E0002028B94FF4A07215A11EA089
:101C9000FEF764FF206808B9012000E0002028B9A1
:101CA00040F241120FA118A0FEF758FF0C496068DE
:101CB0000968084098B1206888B9094960680968CE
:101CC0008843606000F0B6FA134960680968084408
:101CD000114908602046FFF747FB01F045F870BD49
:101CE000AC0000204672656552544F535C706F72B1
:101CF0007461626C655C4D656D4D616E675C6865B5
:101D000061705F342E6300004572726F723A257302
:101D10002C25640D0A000000A4000020064800687D
:101D20004FF47A71B0FBF1F0401E4FF0E0214861B2
:101D300007200861704700002C00002070B5FEF7F6
:101D400049FA0546102D11D305F1E02090F8F04333
:101D500010480078844201DB012000E0002028B90F
:101D60004FF42A720CA116A0FEF7F8FE184800687E
:101D700000F4E06017490968884201D8012000E0BA
:101D8000002028B94FF42E7203A10DA0FEF7E6FE45
:101D900070BD0000B40000204672656552544F5378
:101DA0005C706F727461626C655C525644535C4146
:101DB000524D5F434D335C706F72742E63000000B0
:101DC0004572726F723A25732C25640D0A0000006B
:101DD0000CED00E0B8000020024600200BE0084BAC
:101DE00053F8303033B9064B43F8301003EBC003DF
:101DF0005A6002E0401C0A28F1D300BF704700007F
:101E0000880100202DE9F04105460E4617462C4674
:101E1000FFF7B2FE94F94400401C10B9002084F88A
:101E2000440094F94500401C10B9002084F8450096
:101E3000FFF7E4FEA06B28B93A46314604F12400CE
:101E400000F0F6F82046FFF7D6FCBDE8F081000070
:101E500070B504460025ACB10F48006808B90120F0
:101E600000E0002028B940F2CF420CA110A0FEF7FC
:101E700075FE00F0DFF900212046FEF7CBFF00F0F1
:101E800073FF05463DB94FF080500D490860BFF320
:101E90004F8FBFF36F8F70BD800000204672656565
:101EA00052544F535C7461736B732E6300000000D7
:101EB0004572726F723A25732C25640D0A0000007A
:101EC00004ED00E070B50546FFF756FE15B92D4844
:101ED000006800E028460446201DFFF703FE78B99D
:101EE000E06A00EB8000284951F8200040B994F8DE
:101EF0002C1001208840254909688143234801604E
:101F0000A06A18B104F11800FFF7ECFD2048006842
:101F1000401C1F4908601B480068844209D1211DEC
:101F20001C48FFF71DFE1C480068401C1A49086049
:101F300009E01A480068401E184908602046FFF76B
:101F4000C6F8FFF789FBFFF759FE15480068C0B1D6
:101F50000C480068844214D11248006808B9012076
:101F600000E0002028B940F265420FA113A0FEF75F
:101F7000F5FD4FF0805015490860BFF34F8FBFF358
:101F80006F8F70BD48000020D80100206000002045
:101F90007400002094040020540000205800002009
:101FA00064000020800000204672656552544F5343
:101FB0005C7461736B732E63000000004572726F76
:101FC000723A25732C25640D0A00000004ED00E030
:101FD00001200149086070476C00002070B504467C
:101FE0000D462CB940F6063207A10CA0FEF7B6FD4F
:101FF0000E48016818312046FFF798FD0121284658
:10200000FEF708FF70BD00004672656552544F53DD
:102010005C7461736B732E63000000004572726F15
:10202000723A25732C25640D0A0000004800002038
:1020300070B505460E4614462DB940F6313209A159
:102040000DA0FEF78BFD1048016818312846FFF7F8
:1020500087FD0CB14FF0FF3621463046FEF7DAFE21
:1020600070BD00004672656552544F535C746173D5
:102070006B732E63000000004572726F723A257315
:102080002C25640D0A0000004800002070B50546AC
:102090002C46002D4BD02649E06A0968C96A88425F
:1020A00045D2A06900F0004028B921480068C06A04
:1020B000C0F12000A061E16A01EB81011D4A02EB41
:1020C00081016069884201D1012000E0002050B305
:1020D000201DFFF707FD78B9E06A00EB8000154985
:1020E00051F8200040B994F82C1001208840124982
:1020F00009688143104801600D480068C06AE062C9
:1021000094F82C10012088400B49096808430A49BB
:102110000860E16A01EB8101064A02EB8100211DA2
:10212000FFF71EFD03E002480068C06AE06270BD70
:1021300048000020D80100206000002010B50446AF
:102140002CB940F6C13205A109A0FEF707FD0C48E5
:10215000006820600B480068606010BD46726565CD
:1021600052544F535C7461736B732E630000000014
:102170004572726F723A25732C25640D0A000000B7
:10218000700000205C0000201CB51A4800210B469E
:102190008022CDE9001018A1194800F029FC04465E
:1021A000012C02D100F088FE0446012C15D100BF9D
:1021B000502080F31188BFF34F8FBFF36F8F00BFA4
:1021C0004FF0FF300F49086001200F4908600020E0
:1021D0000E49086000F08AF80BE0601C08B101208D
:1021E00000E0002028B940F2847209A10DA0FEF79A
:1021F000B5FC1CBD7C00002049444C45000000009B
:102200008511000878000020640000205C00002098
:102210004672656552544F535C7461736B732E63E1
:10222000000000004572726F723A25732C25640D10
:102230000A00000002480068401C0149086070471D
:102240008000002010B51B48006818B101201A4911
:1022500008602DE000201849086018480068B0FAAE
:1022600080F0C0F11F0404EB8400154951F82000F0
:1022700008B1012000E0002028B940F6F62211A1A3
:1022800015A0FEF76BFC04EB84010D4A02EB810004
:1022900041684968416000F1080142688A4202D100
:1022A0004168496841604168C9680F4A116000BFD0
:1022B00010BD0000800000206C00002060000020A5
:1022C000D80100204672656552544F535C746173A7
:1022D0006B732E63000000004572726F723A2573B3
:1022E0002C25640D0A000000480000201CB522487F
:1022F000014609780191FF210246117001460978D3
:1023000000919DF8001001F050011C4A1170072146
:102310001B4A116009E01A490968491E184A1160F0
:102320009DF800104906090E00919DF8001001F07B
:1023300080018029EFD0124909680902104A116012
:102340001146098801F4E06111600B4A019911708E
:102350000C48006840F470000A49086008460068AC
:1023600040F070400860FFF7D9FC00200649086083
:10237000FDF7FAFE00201CBD00E400E0B4000020E0
:10238000B800002020ED00E0B000002010B500BF34
:10239000502080F31188BFF34F8FBFF36F8F00BFC2
:1023A00000F06CFB18B14FF080500449086000BF8A
:1023B000002080F3118800BF10BD000004ED00E094
:1023C0002DE9F84305460E4690460DB1012000E088
:1023D000002028B94FF4C4720DA112A0FEF7BEFB75
:1023E0000EB9002701E005FB06F707F14800FFF7EB
:1023F00041FA044644B104F1480943464A4631468D
:1024000028460094FEF7D2FE2046BDE8F88300007F
:102410004672656552544F535C71756575652E63E0
:10242000000000004572726F723A25732C25640D0E
:102430000A0000002DE9FF4782B005460E461F4600
:102440004FF0000A2C462CB940F2DC4261A166A094
:10245000FEF784FB0EB9206C08B9012000E00020D3
:1024600028B940F2DD425BA15FA0FEF777FB00F0E8
:10247000EFFA08B9049808B9012000E0002028B953
:102480004FF49C6253A158A0FEF768FB00BFFFF712
:1024900073FBD4F83890B9F1000F3DD0D4F80C801C
:1024A00031462046FEF7C0FDDFB9A9F10100A06367
:1024B000206810B9FFF786FA6060206908B901202A
:1024C00000E0002010BB04F1100000F0F3FBE8B1C5
:1024D0004FF0805048490860BFF34F8FBFF36F8FB4
:1024E00014E0C4F80C80606A08B9012000E0002004
:1024F00060B904F1240000F0DDFB38B14FF08050EA
:102500003D490860BFF34F8FBFF36F8FFFF776FB36
:10251000012006B0BDE8F087049818B9FFF76EFBFC
:102520000020F6E7BAF1000F04D16846FFF706FE77
:102530004FF0010AFFF762FBFFF77CFEFFF71CFB81
:1025400094F94400401C10B9002084F8440094F928
:102550004500401C10B9002084F84500FFF74EFBF1
:1025600004A9684600F0F4F940BB2046FEF75CFF82
:10257000F0B1206830B9FFF7FFFA6068FFF786FD19
:10258000FFF73CFB04F124000499FFF727FD2046E8
:10259000FFF731F900F0E8FB00287FF478AF4FF047
:1025A000805015490860BFF34F8FBFF36F8F6EE700
:1025B0002046FFF720F900F0D7FB68E72046FFF739
:1025C0001AF900F0D1FB2046FEF72EFF0028EED0CE
:1025D00000209EE74672656552544F535C717565E5
:1025E00075652E63000000004572726F723A2573A4
:1025F0002C25640D0A00000004ED00E070B50546CE
:102600000E462C462CB940F21B121EA122A0FEF74A
:10261000A5FAFFF7B1FAD4E90F12206801FB020016
:1026200060600020A0632068A060E06B401E226C08
:10263000216800FB0210E060FF2084F8440084F869
:1026400045009EB9206908B9012000E00020A8B922
:1026500004F1100000F02EFB80B14FF080501249C1
:102660000860BFF34F8FBFF36F8F07E004F11000D6
:10267000FFF74CFA04F12400FFF748FAFFF7BEFA1F
:10268000012070BD4672656552544F535C7175658B
:1026900075652E63000000004572726F723A2573F3
:1026A0002C25640D0A00000004ED00E02DE9FF4335
:1026B00083B0064688461D464FF0000934462CB9C3
:1026C00040F2D92258A15DA0FEF748FAB8F1000FF8
:1026D00001D1206C08B9012000E0002028B940F2A7
:1026E000DA2251A155A0FEF739FA022D02D1E06B92
:1026F000012801D1012000E0002028B940F2DB22AE
:1027000049A14EA0FEF72AFA00F0A2F908B90598EF
:1027100008B9012000E0002028B940F2DE2242A1E1
:1027200046A0FEF71BFA00BFFFF726FAA06BE16B8D
:10273000884201D3022D28D12A4641462046FEF781
:1027400088FC0746606A08B9012000E0002068B9EB
:1027500004F1240000F0AEFA88B14FF080503B49FC
:102760000860BFF34F8FBFF36F8F08E03FB14FF0AA
:10277000805036490860BFF34F8FBFF36F8FFFF76C
:102780003DFA012007B0BDE8F083059818B9FFF7BE
:1027900035FA0020F6E7B9F1000F04D101A8FFF7E0
:1027A000CDFC4FF00109FFF729FAFFF743FDFFF7D2
:1027B000E3F994F94400401C10B9002084F8440067
:1027C00094F94500401C10B9002084F84500FFF73B
:1027D00015FA05A901A800F0BBF8F0B92046FEF7EC
:1027E00030FEA0B104F110000599FFF7F7FB204679
:1027F000FFF701F800F0B8FA002895D14FF08050AB
:1028000012490860BFF34F8FBFF36F8F8CE72046EC
:10281000FEF7F1FF00F0A8FA86E72046FEF7EBFF8F
:1028200000F0A2FA0020ADE74672656552544F539E
:102830005C71756575652E63000000004572726FEE
:10284000723A25732C25640D0A00000004ED00E0A7
:102850002DE9F05F07468A4690461E463C462CB955
:1028600040F29F3231A136A0FEF778F9BAF1000F9D
:1028700001D1206C08B9012000E0002028B94FF4F4
:1028800068722AA12EA0FEF769F9022E02D1E06B30
:10289000012801D1012000E0002028B940F2A13236
:1028A00022A127A0FEF75AF9FFF748FA00BF5021EE
:1028B000EFF3118081F31188BFF34F8FBFF36F8F58
:1028C00000BF0546A06BE16B884201D3022E23D1E5
:1028D00094F945B0324651462046FEF7BAFB0BF15B
:1028E000010088B9606A08B9012000E0002080B9C1
:1028F00004F1240000F0DEF958B1B8F1000F08D05F
:102900000120C8F8000004E00BF1010040B284F897
:1029100045004FF0010901E04FF0000900BF85F3C9
:10292000118800BF4846BDE8F09F0000467265650B
:1029300052544F535C71756575652E63000000003D
:102940004572726F723A25732C25640D0A000000DF
:102950002DE9F04104460D462CB940F6CB3219A1C1
:102960001DA0FEF7FBF82DB940F6CC3215A11AA038
:10297000FEF7F4F8FFF700F91B4807682868401CC9
:1029800008B9002619E0194920680968884204D06E
:102990006068B84201D801260FE06068381A2968DB
:1029A000884209D228686168791A401A286020464E
:1029B000FFF7C4FB002600E00126FFF71FF93046B1
:1029C000BDE8F0814672656552544F535C74617383
:1029D0006B732E63000000004572726F723A2573AC
:1029E0002C25640D0A0000005C000020700000200F
:1029F0002DE9FF4F85B0804689461746DDE912ABC9
:102A0000B800FEF737FF064656B15420FEF732FFF6
:102A100004460CB1266304E03046FFF725F900E0D8
:102A200000247CB10020CDE900ABCDE902403A465C
:102A300049464046089BFEF7CDFB2046FEF736FA96
:102A4000012501E04FF0FF35284609B0BDE8F08FC1
:102A50000549096809B9012005E00449096809B96F
:102A6000022000E000207047640000208000002069
:102A700001490868704700005C0000202DE9F04122
:102A80004FF0000841480068002872D140480068B3
:102A9000451C3F480560EDB93E480068006808B92C
:102AA000012000E0002028B940F6D9123AA13FA049
:102AB000FEF754F837480768404800683549086011
:102AC0003E4807603E480068401C3D490860FEF7EC
:102AD000C3FD00BF3B48006885423CD300BF2D4882
:102AE0000068006808B9012000E0002020B14FF024
:102AF000FF30344908602DE026480068C068C4688B
:102B00006668B54202D22F48066023E0201DFEF71A
:102B1000E9FFA06A18B104F11800FEF7E3FF94F88A
:102B20002C1001208840284909680843264908607C
:102B3000E16A01EB8101254A02EB8100211DFFF7CB
:102B40000FF82349E06A0968C96A8842C7D34FF081
:102B50000108C4E700BF1E480068C06A00EB80009F
:102B60001A4951F82000012801D94FF0010805E069
:102B7000FFE718480068401C1649086016480068BE
:102B800008B14FF001084046BDE8F0818000002008
:102B90005C0000204C0000204672656552544F5383
:102BA0005C7461736B732E63000000004572726F7A
:102BB000723A25732C25640D0A0000005000002095
:102BC000700000207800002060000020D801002064
:102BD00048000020680000206C00002070B5054609
:102BE0002C460026002D4BD026480068844201D197
:102BF000012000E0002028B940F6C76222A127A0EA
:102C0000FDF7ACFFA06C28B940F6C9621EA123A055
:102C1000FDF7A4FFA06C401EA064616CE06A8842CE
:102C20002ED0A06C60BB201DFEF75CFF78B9E06A77
:102C300000EB80001D4951F8200040B994F82C1099
:102C4000012088401A490968814319480160606C75
:102C5000E062E06AC0F12000A06194F82C1001202D
:102C6000884013490968084311490860E16A01EB8B
:102C700081010E4A02EB8100211DFEF771FF012642
:102C8000304670BD480000204672656552544F536F
:102C90005C7461736B732E63000000004572726F89
:102CA000723A25732C25640D0A000000D80100201B
:102CB0006000002070B50646F068C4682CB940F684
:102CC00061321AA11EA0FDF749FF04F11800FEF7BA
:102CD00009FF1F480068A8B9201DFEF703FF94F8FC
:102CE0002C10012088401B490968084319490860D5
:102CF000E16A01EB8101184A02EB8100211DFEF718
:102D00002FFF04E004F118011448FEF729FF1449CD
:102D1000E06A0968C96A884204D90125012011497D
:102D2000086000E00025284670BD00004672656519
:102D300052544F535C7461736B732E630000000038
:102D40004572726F723A25732C25640D0A000000DB
:102D50008000002060000020D801002080040020B6
:102D6000480000206C00002070B500240026344884
:102D7000006828B94FF4FD6232A137A0FDF7EEFEDE
:102D8000FEF7FAFE2E480068401E2D4908600846EE
:102D9000006800284FD13448006800284BD024E058
:102DA0003248C068C46804F11800FEF79BFE201D7D
:102DB000FEF798FE94F82C10012088402C490968F1
:102DC00008432B490860E16A01EB8101294A02EBC3
:102DD0008100211DFEF7C4FE2749E06A0968C96A1F
:102DE000884202D30120254908602048006808B9BC
:102DF000012000E000200028D2D00CB1FEF72CFC0E
:102E00001F48056865B100BFFFF738FE10B101200B
:102E10001A4908606D1E002DF6D10020184908607F
:102E20001648006838B10126300716490860BFF31C
:102E30004F8FBFF36F8FFEF7E1FE304670BD00008D
:102E4000800000204672656552544F535C74617374
:102E50006B732E63000000004572726F723A257327
:102E60002C25640D0A00000058000020800400207A
:102E700060000020D8010020480000206C000020E5
:102E80006800002004ED00E02DE9FC4705460E46F1
:102E900017469846DDF828902820FEF7EBFC0446FC
:102EA0003CB143463A4631462846CDE90094FEF708
:102EB000F3F92046BDE8FC871CB50024FEF750F866
:102EC0000B48006858B10B481F2100234FF4807253
:102ED000CDE9001008A10A48FFF78AFD04462CB985
:102EE00040F2331207A10CA0FDF738FE20461CBDAE
:102EF0008C00002090000020546D722053766300F7
:102F0000DD1700084672656552544F535C74696D55
:102F10006572732E630000004572726F723A2573FA
:102F20002C25640D0A0000002DE9FE4304460D46E1
:102F300016461F46DDF828804FF000092CB94FF4E3
:102F4000D37216A11AA0FDF709FE1D48006810B340
:102F5000009501960294062D15DAFFF779FD0228F7
:102F600008D100234246694615480068FFF79EFBDA
:102F7000814610E000231A46694611480068FFF7B1
:102F800095FB814607E000233A4669460C480068F5
:102F9000FFF75EFC81464846BDE8FE8346726565E4
:102FA00052544F535C74696D6572732E6300000058
:102FB0004572726F723A25732C25640D0A00000069
:102FC0008C000020E42F000800000020C00000005A
:102FD0007C0B0008A4300008C000002028980000E6
:102FE0008C0B000800000000000000000000000042
:102FF00000000000000000000000000000000000D1
:10300000010203040102030406070809020406087A
:1030100000A24A04000000000000000001020304B6
:103020000607080900000000000000000000000082
:103030000000000000000000000000000000000090
:103040000000000000000000000000000000000080
:103050000000000000000000000000000000000070
:103060000000000000000000000000000000000060
:103070000000000000000000000000000000000050
:103080000000000000000000000000000000000040
:1030900000000000AAAAAAAA000000000000000088
:0430A000000000002C
:0400000508000131BD
:00000001FF
