:020000040800F2
:10000000E8980020DD01000885050008F5040008D7
:1000100081050008B9020008F30D00080000000087
:100020000000000000000000000000004501000882
:10003000D903000800000000890100083108000809
:10004000F7010008F7010008F7010008F7010008B0
:10005000F7010008F7010008F7010008F7010008A0
:10006000F7010008F7010008F7010008F701000890
:10007000F7010008F7010008F7010008F701000880
:10008000F7010008F7010008F7010008F701000870
:10009000F7010008F7010008F7010008F701000860
:1000A000F7010008F7010008F7010008F701000850
:1000B000F7010008FD08000831090008F7010008F1
:1000C000F7010008F7010008F7010008F701000830
:1000D000F7010008ED0A0008F7010008F701000821
:1000E000F7010008F7010008F7010008F701000810
:1000F000F7010008F7010008F7010008F701000800
:10010000F7010008F7010008F7010008F7010008EF
:10011000F7010008F701000865090008F701000869
:10012000F7010008F7010008F7010008F7010008CF
:10013000DFF80CD000F0AEF800480047C911000805
:10014000E8980020224B19680868B0E8F00F80F3A7
:100150000988BFF36F8F4FF0000080F311884EF0D5
:100160000D0E70470000000006480068006880F32C
:10017000088862B661B6BFF34F8FBFF36F8F00DFA1
:1001800000BF00BF08ED00E0EFF30980BFF36F8F01
:100190000F4B1A6820E9F00F106008B54FF05000BF
:1001A00080F31188BFF34F8FBFF36F8F02F0E2FB34
:1001B0004FF0000080F31188BDE808401968086816
:1001C000B0E8F00F80F30988BFF36F8F704700BF6E
:1001D00044000020EFF30580704700000648804788
:1001E00006480047FEE7FEE7FEE7FEE7FEE7FEE71C
:1001F000FEE7FEE7FEE7FEE79D0800083101000884
:1002000040EA01039B0703D009E008C9121F08C098
:10021000042AFAD203E011F8013B00F8013B521E18
:10022000F9D27047D2B201E000F8012B491EFBD28F
:1002300070470022F6E710B513460A4604461946F1
:10024000FFF7F0FF204610BD421C10F8011B0029EB
:10025000FBD1801A7047034611F8012B00F8012BDF
:10026000002AF9D11846704730B50B4601460020E8
:100270002022012409E021FA02F59D4205D303FA68
:1002800002F5491B04FA02F52844151EA2F10102E9
:10029000F1DC30BD064C074D06E0E06840F001039C
:1002A00094E8070098471034AC42F6D3FFF744FFB8
:1002B000043700082437000800BFFEE7E4B02AE056
:1002C0004FF4C8716846FFF7B4FF684602F0A4F91E
:1002D00011A000F091FD1CA000F08EFD694626A043
:1002E00000F08AFD0CA000F087FD4FF4C87168464D
:1002F000FFF79FFF684602F025F920A000F07CFD83
:1003000069461DA000F078FD26A000F075FD4FF4B1
:100310007A7002F01BF8D3E72D2D2D2D2D2D2D2DCC
:100320002D2D2D2D2D2D2D2D2D2D2D2D2D2D2D2DFD
:100330002D2D2D2D2D2D2D2D2D2D2D2D2D2D2D2DED
:100340002D2D2D2D2D0D0A00C8CECEF1C3FB202062
:1003500020202020C8CECEF1D7B4CCAC20D3C5CF3E
:10036000C8BCB6202020CAA3D3E0D5BB20C8CECEBF
:10037000F1D0F2BAC50D0A0025730000C8CECEF147
:10038000C3FB20202020202020D4CBD0D0BCC6CA44
:10039000FD202020202020202020C0FBD3C3C2CA63
:1003A0000D0A00002D2D2D2D2D2D2D2D2D2D2D2D1A
:1003B0002D2D2D2D2D2D2D2D2D2D2D2D2D2D2D2D6D
:1003C0002D2D2D2D2D2D2D2D2D2D2D2D2D2D2D2D5D
:1003D0002D0D0A0A0000000070472DE9F041024689
:1003E00000250026002000230024002791F803C0E8
:1003F0000CF00F0591F803C00CF0100CBCF1000FCD
:1004000003D091F802C04CEA050591F800C0BCF198
:10041000000F31D0146800202BE04FF0010C0CFAD3
:1004200000F3B1F800C00CEA03069E4220D183001D
:100430004FF00F0C0CFA03F7BC4305FA03FC4CEA2F
:10044000040491F803C0BCF1280F06D14FF0010C51
:100450000CFA00FCC2F814C00AE091F803C0BCF129
:10046000480F05D14FF0010C0CFA00FCC2F810C087
:10047000401C0828D1D31460B1F800C0BCF1FF0FB4
:1004800034DD546800202EE000F1080C4FF0010824
:1004900008FA0CF3B1F800C00CEA03069E4221D121
:1004A00083004FF00F0C0CFA03F7BC4305FA03FC72
:1004B0004CEA040491F803C0BCF1280F05D100F107
:1004C000080C08FA0CF8C2F8148091F803C0BCF1CB
:1004D000480F07D100F1080C4FF0010808FA0CF89A
:1004E000C2F81080401C0828CED35460BDE8F081CB
:1004F0000161704700BFFEE708B50121442000F00C
:1005000095F80120ADF8000028208DF80300694619
:100510000648FFF762FF1C20ADF8000048208DF868
:10052000030069460248FFF758FF08BD0008014074
:100530000018014008B50121482000F077F820207C
:10054000ADF8000010208DF8030003208DF80200A4
:1005500069460948FFF741FF20210748FFF7C8FF18
:100560002020ADF8000069460448FFF736FF20213F
:100570000248FFF7BDFF08BD000C01400018014014
:1005800000BFFEE77047000070B5002100230F2276
:10059000C47804B3154C246804F4E064C4F5E06442
:1005A000210AC1F10403CA40447804FA03F18478B3
:1005B0001440214309010E4C0678A155047804F03B
:1005C0001F050124AC4005786D11AD0005F1E02553
:1005D000C5F8004109E0047804F01F050124AC408F
:1005E000044D0678761145F8264070BD0CED00E00C
:1005F00000E400E080E100E002490143024A1160AA
:10060000704700000000FA050CED00E029B1064A31
:10061000D2690243044BDA6104E0034AD26982439F
:10062000014BDA61704700000010024029B1064A10
:1006300092690243044B9A6104E0034A926982433F
:10064000014B9A61704700000010024030B5002154
:100650000022002400232D4D6D6805F00C0121B10E
:10066000042905D0082923D105E0294D056022E0A1
:10067000274D05601FE0254D6D6805F47012234D70
:100680006D6805F48034022505EB92421CB9214DBA
:10069000554305600BE01D4D6D6805F400351DB137
:1006A0001C4D5543056002E0194D5543056002E0BD
:1006B000174D056000BF00BF144D6D6805F0F001D7
:1006C0000909154D6B5C0568DD4045600F4D6D688F
:1006D00005F4E061090A104D6B5C4568DD408560FA
:1006E0000A4D6D6805F46051C90A0B4D6B5C456895
:1006F000DD40C560054D6D6805F44041890B074D2F
:100700006B5CC568B5FBF3F5056130BD00100240B8
:1007100000127A0000093D00100000202000002097
:1007200010B500F001F810BD0CB50020019000904C
:100730003348006840F480303149086000BF3048D9
:10074000006800F4003000900198401C019000986F
:1007500018B90198B0F5A06FF1D12948006800F4EC
:10076000003010B10120009001E0002000900098BE
:10077000012843D12348006840F010002149086057
:100780000846006820F0030008600846006840F052
:10079000020008601A4840681949486008464068E5
:1007A00048600846406840F48060486008464068F9
:1007B00020F47C1048600846406840F4E810486027
:1007C0000846006840F08070086000BF0C48006870
:1007D00000F000700028F9D00948406820F00300BC
:1007E000074948600846406840F00200486000BF82
:1007F0000348406800F00C000828F9D10CBD000047
:100800000010024000200240042808D14FF0E021EF
:10081000096941F004014FF0E022116107E04FF057
:10082000E021096921F004014FF0E02211617047D5
:1008300010B502F0C5FC012801D002F05FF910BD2F
:1008400070B505460420FFF7DFFF10480068104927
:10085000B0FBF1F00F4908700C4800680C49B0FB80
:10086000F1F44FF47A70444301200B4908804FF0B3
:10087000E020006940F002004FF0E02108610846E6
:100880004461006940F00100086170BD240000204F
:1008900040420F003C0000203E00002010B51348ED
:1008A000006840F00100114908600846406810499E
:1008B00008400E494860084600680E4908400B4948
:1008C00008600846006820F48020086008464068F8
:1008D00020F4FE0048604FF41F008860FFF720FFFF
:1008E0004FF000600449086010BD00000010024095
:1008F0000000FFF8FFFFF6FE08ED00E010B5012153
:10090000054800F086F810B104A000F075FA012146
:10091000014800F06FF810BD0004004054494D3309
:10092000CAE4B3F62E2E2E2E2E2E2E0D0A00000017
:1009300010B50121054800F06CF810B104A000F0DA
:100940005BFA0121014800F055F810BD0008004095
:1009500054494D34CAE4B3F62E2E2E2E2E2E2E0DD3
:100960000A00000010B50121064800F052F820B13D
:1009700005480068401C044908600121014800F056
:1009800039F810BD00100040380000207FB5054642
:100990000C4601211020FFF739FEADF80850ADF8E4
:1009A00004400020ADF80A00ADF8060001A9104887
:1009B00000F04AF8012211460D4800F03BF80121F1
:1009C0000B4800F017F836208DF8000005208DF850
:1009D000010000208DF8020001208DF80300684618
:1009E000FFF7D2FD0121024800F007F87FBD0000AB
:1009F00000100040CA430282704721B1028842F0D1
:100A00000102028004E002884FF6FE731A40028061
:100A1000704730B50246002000230024158A05EAFD
:100A20000103958905EA010413B10CB1012000E02E
:100A3000002030BD1AB183890B43838102E0838992
:100A40008B43838170470000002202881D4B98422F
:100A50000ED01D4B98420BD0B0F1804F08D01B4BED
:100A6000984205D01A4B984202D01A4B984204D1B2
:100A70004FF68F731A404B881A43174B984207D092
:100A8000164B984204D04FF6FF431A40CB881A43C6
:100A900002808B8883850B8803850A4B98420BD094
:100AA000094B984208D00E4B984205D00D4B984206
:100AB00002D00D4B984201D10B7A03860123838229
:100AC00070470000002C0140003401400004004049
:100AD00000080040000C00400010004000140040DE
:100AE00000400140004401400048014010B540F280
:100AF00025511D4800F0B8F810B31B4800F070F9FC
:100B0000C4B21A48008800F40040C8B917480088E9
:100B100000F4804060B10A2C03D000201349088003
:100B200020E01248008840F400401049088019E095
:100B30000D2C06D10D48008840F480400B490880F8
:100B400010E00A480088C0F30D0009490C5407481A
:100B50000088401C0549088008460088C72801DD38
:100B60000020088010BD0000003801404000002037
:100B7000C400002010B586B0044601210420FFF710
:100B800055FD01218803FFF751FD4FF40070ADF8CA
:100B9000140003208DF8160018208DF8170005A901
:100BA0001E48FFF71AFC4FF48060ADF814000420D3
:100BB0008DF8170005A91948FFF70FFC01940020D4
:100BC000ADF80800ADF80A00ADF80C00ADF8100063
:100BD0000C20ADF80E0001A9114800F095F8012194
:100BE0000F4800F028F840210D4800F01BF80122C2
:100BF00040F225510A4800F061F825208DF80000E8
:100C000003208DF801008DF8020001208DF803000B
:100C10006846FFF7B9FC06B010BD000000080140AF
:100C20000038014001F40072B2F5007F00D100BF2E
:100C3000CA430280704721B1828942F40052828106
:100C400004E082894DF6FF731A40828170470246A4
:100C50000020B1F5007F00D100BF13880B400BB11D
:100C6000012000E00020704770B5024600240023F8
:100C70000025002040F66A16B14200D100BFC1F342
:100C8000421501F01F03012606FA03F3012D02D1DC
:100C90009689334006E0022D02D1168A334001E0E6
:100CA000968A33400C12012606FA04F41688344062
:100CB00013B10CB1012000E0002070BDF0B5034677
:100CC000002400260025002040F66A17B94200D112
:100CD00000BF1846C1F3421401F01F06012707FAAE
:100CE00006F5012C01D10C3004E0022C01D11030AA
:100CF00000E014301AB107682F43076002E007686C
:100D0000AF430760F0BD00002DE9F04786B005460F
:100D10000E460024A24600BFA1460027B08900B1BC
:100D200000BF2F462C8A4CF6FF700440F088044325
:100D30002C82AC894EF6F3100440B0883189084308
:100D4000718908430443AC81AC8A4FF6FF400440EC
:100D5000B0890443AC8201A8FFF778FC1F488742A2
:100D600002D1DDF810A001E0DDF80CA0A88900F4A4
:100D7000004040B10AEBCA0000EB0A10316849009C
:100D8000B0FBF1F807E00AEBCA0000EB0A1031688B
:100D90008900B0FBF1F86420B8FBF0F004012009F1
:100DA000642101FB1089A88900F4004040B1322081
:100DB00000EBC900B0FBF1F000F00700044308E0CD
:100DC000322000EB09106421B0FBF1F000F00F00BD
:100DD00004432C8106B0BDE8F087000000380140D4
:100DE00001468888C0F308007047C1F3080282807A
:100DF000704700BFFEE700000FB4054B10B503A914
:100E0000044A029800F02CF810BC5DF814FB0000B6
:100E1000C5100008C00000200FB4084B10B504A98D
:100E200002AA039800F01CF8044602A9002000F072
:100E3000F3F8204610BC5DF814FB00001910000800
:100E400002E008C8121F08C1002AFAD17047704793
:100E5000002001E001C1121F002AFBD170470000F1
:100E60002DE9FF4F8BB09A460F460546002606E057
:100E700025280BD052460D9990476D1C761C28787A
:100E80000028F5D10FB03046BDE8F08F0024A04611
:100E90000122604900E0044315F8013F203B02FABB
:100EA00003F00842F7D128782E2817D115F8010F42
:100EB00044F004042A280ED06FF02F022878A0F105
:100EC000300109290AD808EB880102EB410100EB47
:100ED00001086D1CF2E757F8048B6D1C287869280F
:100EE0003ED006DC0028CDD063280BD0642804D186
:100EF00036E0732810D075284BD052460D99904794
:100F0000761C85E017F8040B8DF8000000208DF8A2
:100F10000100E946012003E057F8049B4FF0FF3041
:100F200061074FF0000401D40AE0641C44450DDA67
:100F30008442FADB19F804100029F6D106E0641C9B
:100F40008442FCDB19F804100029F8D1264404E09F
:100F500019F8010B52460D999047641EF8D257E0DC
:100F600001CF4FF00A0B002802DA40422D2102E0A7
:100F7000210504D52B218DF82410012103E0E10780
:100F800005D02021F7E70DF1200908910CE00021A0
:100F9000F9E701CF4FF00A0BF9E75946FFF764F97B
:100FA00001F1300209F8012D0028F6D1ADEB09005E
:100FB00000F1200B600701D44FF00108D84502DD95
:100FC000A8EB0B0000E000208046002406E009A802
:100FD0005246005D0D999047641C761C0898844227
:100FE000F5DB04E0302052460D999047761CB8F1AD
:100FF0000001A8F10108F5DC05E019F8010B5246E3
:101000000D999047761CBBF10001ABF1010BF4DCAC
:101010006D1C34E7092801000A68531C0B6010702E
:10102000704700002DE9F04107463E462EB940F2D8
:10103000FB4216A11AA0FFF7DFFE1D48006886429A
:1010400001D100241EE001F015F8756901F054F893
:1010500018480068854203D017480068854201D1CE
:1010600002240FE01548854205D1B06A08B903246F
:1010700008E0022406E01248854200D00DB904249D
:1010800000E001242046BDE8F0810000467265655D
:1010900052544F535C7461736B732E6300000000F5
:1010A0004572726F723A25732C25640D0A00000098
:1010B00044000020480000204C000020AC04002028
:1010C0009804002070B504460D46E1B20548FFF7CC
:1010D0008CFE00BF80210348FFF7B9FD0028F9D03E
:1010E000204670BD0038014013E000200949086027
:1010F000C82001F02BF908A0FFF77EFE01200D4962
:10110000C1F894014FF4487001F020F90AA0FFF7EC
:1011100073FEEAE7948121424C4544315F54617388
:101120006B2052756E6E696E672C4C4544325F4F72
:101130004E0D0A00008021424C4544315F546173DA
:101140006B2052756E6E696E672C4C4544325F4F52
:1011500046460D0A0000000013E00020094908601F
:101160004FF4487001F0F2F807A0FFF745FE0120A8
:101170000C49C1F89401C82001F0E8F80AA0FFF773
:101180003BFEEAE7940123424C4544325F546173CD
:101190006B2052756E6E696E672C4C4544325F4F02
:1011A0004E0D0A00000023424C4544325F546173E7
:1011B0006B2052756E6E696E672C4C4544325F4FE2
:1011C00046460D0A000000001CB54820FFF738FB1A
:1011D0004FF44070FFF710FAFFF7ACF9FFF78CF906
:1011E0004FF4E130FFF7C6FC47216320FFF7CEFB49
:1011F00008A0FFF701FE0E48012100238022CDE95F
:1012000000100CA10E4801F0ABFF01F051FB0020D3
:101210001CBD00004672656552544F532043505523
:10122000C0FBD3C3C2CACDB3BCC60D0A00000000C8
:101230000000002073746172745F7461736B00004E
:10124000951E00082DE9F04105460E461C4807682A
:101250001C480068001D00F067FE50B9194800687E
:1012600090F82C10012088401749096881431648DE
:101270000160681C38B936B112480168091D13486D
:1012800000F0ECFE1AE07C190E4800684460BC4295
:1012900007D20C480168091D0D48006800F0C4FE23
:1012A0000CE008480168091D0A48006800F0BCFE0F
:1012B00009480068844201D207480460BDE8F08113
:1012C00058000020440000205C000020AC040020F6
:1012D0004C000020480000207400002010B5044697
:1012E00000F0C8FE24480068401C234908602348D9
:1012F000006840B9214804600846006801280DD103
:1013000000F0ECF90AE01E48006838B91B48006894
:10131000C06AE16A884201D8184804601948006828
:10132000401C1849086008460068606494F82C1056
:101330000120884014490968084313490860E16A9C
:1013400001EB8101114A02EB8100211D00F086FEB4
:1013500000F0D2FE0A48006868B108480068C06A18
:10136000E16A884207D24FF0805009490860BFF314
:101370004F8FBFF36F8F10BD54000020440000203A
:1013800060000020700000205C000020DC010020D4
:1013900004ED00E010B500F06DFE10480068D0B913
:1013A0000F4800F031FE0F4800F02EFE0C480E49A9
:1013B00008600C480D49086000220C210A2001F049
:1013C000B7FB064908600846006820B108A1034839
:1013D000006800F07FFF00F08FFE10BD900000203D
:1013E000C0040020D4040020880000208C000020CD
:1013F000546D72510000000070B523E001F0B2FAA4
:101400001348006808B9012000E00020054602F0FA
:1014100063F8BDB900F02EFE0D48C068C468201DF9
:1014200000F082FD0B480068401E0A4908600A4827
:101430000068401E0849086000F05EFE204600F08B
:1014400060F800BF044800680028D7D170BD0000D4
:1014500098040020540000205000002070B504467D
:101460000D46206C70B1216CE0680844E060616852
:10147000E068884201D32068E0602846226CE16879
:10148000FEF7BEFE70BD2DE9F04104460F4615463D
:101490004FF00008A66B206C40B9206860BB606804
:1014A00001F054FF80460020606025E07DB9394698
:1014B000226CA068FEF7A4FE216CA0680844A0601E
:1014C000D4E90110884217D32068A06014E039469F
:1014D000226CE068FEF794FE216CE068401AE06040
:1014E0002168E068884203D2216C6068401AE0609D
:1014F000022D01D106B1761E701CA0634046BDE8E6
:10150000F08110B50446206B00F02CFE204600F060
:1015100029FE10BD0146084A126812680AB9012264
:1015200000E000220A600A6822B9034A1268D26801
:10153000106800E0002070478800002030B54FF4AC
:101540001043174800F007042CB1C01D20F007001D
:10155000134C041B1B1B0246124C22600024114D2D
:101560006C60D018083820F007000F4C2060002471
:101570000D4D2D686C600C4D2D682C601146441A81
:101580004C60094C24680C60084D4C682C60084D78
:101590004C682C604FF00044064D2C6030BD0000BC
:1015A000E80400209C000020A4000020AC000020E3
:1015B000A8000020B000002000BFFFF71DFF064874
:1015C00000680128F9D94FF0805004490860BFF342
:1015D0004F8FBFF36F8FF0E7DC01002004ED00E0D8
:1015E0002DE9F04106460D4617469846069C0DB972
:1015F000246000E02760E66325640121204601F0B5
:10160000B5FB84F84C80BDE8F08100002DE9F05F67
:1016100082460F4690469B460A9E0C9C4FEA8801E4
:10162000A522206BFEF7FEFDA8F10100216B01EB66
:10163000800929F0070909F0070008B9012000E036
:10164000002028B940F22B321BA120A0FFF7D4FBC9
:10165000002507E0795D04F134004155785D00B95B
:1016600002E06D1C102DF5D300BF00214320015571
:10167000202E00D31F26E662E66400202065201D90
:1016800000F0CFFC04F1180000F0CBFC2461C6F19F
:101690002000A061646200206065A06584F85C00A1
:1016A0005A465146484600F0E3FB20600B9808B1CB
:1016B0000B980460BDE8F09F4672656552544F5325
:1016C0005C7461736B732E63000000004572726F6F
:1016D000723A25732C25640D0A00000010B5002411
:1016E00007E004EB84010F4A02EB810000F08CFC60
:1016F000641C202CF5D30C4800F086FC0B4800F04D
:1017000083FC0B4800F080FC0A4800F07DFC0A488E
:1017100000F07AFC04480949086004480849086058
:1017200010BD0000DC0100205C04002070040020DB
:101730008404002098040020AC040020480000200D
:101740004C00002010B50146164800E00068036810
:101750008B42FBD30246436813448B4204D1436857
:101760004C682344436001460A464B6813440468AE
:10177000A34211D10C4C03682468A34208D04B68E3
:101780000468646823444B6003681B680B6005E0D1
:10179000054B1B680B6001E003680B60884200D0BA
:1017A000016010BD9C000020A40000202DE9F04144
:1017B00004460D4616461F464FF00008656024613A
:1017C000B5420CD8F01BA169884202D34FF0010842
:1017D00011E0211D0948006800F026FC0BE0BE4224
:1017E00004D2BD4202D34FF0010804E0211D044899
:1017F000006800F019FC4046BDE8F0818C00002034
:101800008800002070B5054600F034FCA86B08B9CC
:10181000012400E0002400F06FFC204670BD70B58C
:10182000054600F027FCA86BE96B884201D1012432
:1018300000E0002400F060FC204670BD2DE9F04778
:1018400007460C4690460026206848B3204641686B
:101850004968416000F1080142688A4202D141684A
:10186000496841604168D1F80C9000BF204641684A
:101870004968416000F1080142688A4202D141682A
:10188000496841604168CD6806EBC60007EB8001FE
:1018900043460122284600F019FE761C4D45E5D14D
:1018A0003046BDE8F0870000F8B505460F461348FE
:1018B0000068C068C468201D00F036FBE06901289C
:1018C00018D1A06941192B463A462046FFF76EFF12
:1018D00080B1002003462A4601460090204601F0D0
:1018E000C3FE06462EB94FF4027205A109A0FFF708
:1018F00083FA00BF2046616A8847F8BD880000204F
:101900004672656552544F535C74696D6572732EEF
:10191000630000004572726F723A25732C25640DC6
:101920000A00000070B586B060E0039800285DDB17
:10193000059C606908B9012000E0002010B9201D55
:1019400000F0F2FA02A800F0C5F8054603980A284C
:101950004AD2DFE800F00905072C2E4506082D2F96
:1019600000BF00BF00BF00BF0498A26981180346F2
:101970002A462046FFF71AFFC0B12046616A884711
:10198000E069012812D1002000900498A169421852
:1019900000231946204601F067FE06462EB940F2A4
:1019A000213218A11CA0FFF727FA00BF1DE000BFDD
:1019B0001BE000BF0498A061A06908B1012000E00D
:1019C000002028B94FF44E720EA113A0FFF714FAAD
:1019D000A06941192B462A462046FFF7E7FE04E09E
:1019E000204600F0BFFB00E000BF00BF00231A4606
:1019F00003A90D48006801F0D5F8002895D106B07C
:101A000070BD00004672656552544F535C74696D39
:101A10006572732E630000004572726F723A25730F
:101A20002C25640D0A00000090000020F8B5054642
:101A30000C4600F097FF684600F04CF80646009808
:101A400020BB44B9B54206D801F046FD31462846D0
:101A5000FFF72AFF1CE03CB10E480068006808B997
:101A6000012000E000200446A91B22460A48006825
:101A700000F046FC01F030FD50B94FF080500749AE
:101A80000860BFF34F8FBFF36F8F01E001F024FDBB
:101A9000F8BD00008C0000209000002004ED00E064
:101AA0000A490968096809B9012100E0002121B14A
:101AB0004FF0FF31064A116006E004490968C96821
:101AC000C868034A41681160704700004800002060
:101AD0007400002070B5044601F082FB05460748FB
:101AE0000068854204D200F00BF80120206001E07C
:101AF0000020206001480560284670BD9800002045
:101B00002DE9F8432DE021480068C06805681F48AA
:101B10000068C068C468201D00F006FA2046616AAB
:101B20008847E06901281CD1A0694619AE4207D94F
:101B300066602461211D1548006800F075FA10E008
:101B4000002003462A4601460090204601F08CFD05
:101B500007462FB940F292320DA112A0FFF74CF9BF
:101B600000BF0A480068006808B9012000E00020B2
:101B70000028C8D00548D0F800800E480068034906
:101B800008600C48C0F80080BDE8F8838800002099
:101B90004672656552544F535C74696D6572732E5D
:101BA000630000004572726F723A25732C25640D34
:101BB0000A0000008C0000200246002101E0521CB7
:101BC000491C1078A528FAD0890888B2704700000F
:101BD0000B480068401C08B9012000E0002020B933
:101BE000F42208A111A0FFF707F900BF502080F3ED
:101BF0001188BFF34F8FBFF36F8F00BF00BFFEE7A9
:101C0000B40000204672656552544F535C706F7289
:101C10007461626C655C525644535C41524D5F4343
:101C20004D335C706F72742E630000004572726FEA
:101C3000723A25732C25640D0A00000008B500BF18
:101C40006846FFF767FC044620460099FFF7EEFE62
:101C5000FFF768FEF4E770B5044600F00BFA94F95C
:101C6000455010E0606A08B9012000E0002038B952
:101C700004F1240001F0D6FB18B100F03DFD00E0B6
:101C800003E0681E45B2002DECDC00BFFF2084F8A5
:101C9000450000F031FA00F0EDF994F9445010E0FD
:101CA000206908B9012000E0002048B904F11000C3
:101CB00001F0B8FB08B100F01FFD681E45B200E05E
:101CC00001E0002DECDC00BFFF2084F8440000F0B0
:101CD00013FA70BD70B505460E4631462846FEF72C
:101CE000BAFA2846FEF7B0FA044602E0202028554A
:101CF000641C0F2CFAD300202855281970BD000051
:101D00002DE9F04104464FF0000800F02BFE3E485C
:101D1000006808B9FFF712FC3C4800682040002822
:101D20005FD1A4B1083404F0070080B104F00700CB
:101D3000C0F10800044404F0070008B9012000E0E5
:101D4000002020B9BF2232A13AA0FFF755F8002C9D
:101D500047D03C480068844243D83B4E3046056833
:101D600001E02E462D686868A04202D2286800284B
:101D7000F7D125480068854233D0306800F1080863
:101D8000286830606868001B102813D92F1907F0E5
:101D9000070008B9012000E0002020B9EC221CA1B6
:101DA00024A0FFF729F86868001B78606C6038464B
:101DB000FFF7C8FC234968680968081A21490860C8
:101DC0000846006821490968884203D21D48006816
:101DD0001E4908600D49686809680843686000206A
:101DE000286001F079FB08F0070008B9012000E045
:101DF000002028B94FF4967205A10EA0FEF7FCFF53
:101E00004046BDE8F0810000A4000020B0000020A2
:101E10004672656552544F535C706F727461626CA8
:101E2000655C4D656D4D616E675C686561705F34C2
:101E30002E6300004572726F723A25732C25640D73
:101E40000A000000A80000209C000020AC00002038
:101E50000648006830B10549096801F15000096D74
:101E6000491C0160014800687047000044000020E0
:101E7000001F4FF080730360001F21F00103036017
:101E8000001F034B036014380260203870470000C5
:101E9000D11B00081CB5044600F0ECF812480221E2
:101EA00000233222CDE9001010A1134801F058F9A7
:101EB0001248032100233222CDE9001010A113485B
:101EC00001F04EF9124804210023CA01CDE90010A7
:101ED00010A1134801F044F91248006800F070FAAC
:101EE00000F00AF91CBD0000040000206C6564319C
:101EF0005F7461736B000000E910000808000020A7
:101F00006C6564325F7461736B00000059110008E6
:101F10000C0000204350555F7461736B000000009B
:101F2000BD0200080000002001460A69D1E9013025
:101F30009860D1E9010358605068884201D18868EF
:101F40005060002008611068401E106010687047E3
:101F50002DE9F0410546884616460024202700F06A
:101F600001FD2248006880453AD300BF7F1E07EB81
:101F700087021F4B03EB820104EBC40205EB8200D6
:101F80000122FFF75BFC0444002FEFD104EBC401F6
:101F900005EB8100022217490968FFF74FFC044452
:101FA00004EBC40105EB8100022213490968FFF725
:101FB00045FC044404EBC40105EB810004220F49F5
:101FC000FFF73CFC044404EBC40105EB8100032251
:101FD0000B49FFF733FC044416B10A48006830602F
:101FE00001F07AFA2046BDE8F0810000540000209C
:101FF000DC010020480000204C0000209804002054
:10200000AC0400203800002000F1080141604FF0CE
:10201000FF31816000F10801C160016100210160B0
:10202000704700210161704710B502460B685C1CC7
:102030000CB9106907E002F1080000E0406844684C
:1020400024689C42FAD944684C604C68A16088605E
:1020500041600A611468641C146010BD42684A60E3
:1020600093688B60936859609160086103685B1C9A
:102070000360704710B500BF502080F31188BFF394
:102080004F8FBFF36F8F00BF0B480068401C0A4999
:1020900008600846006801280DD108480068C0B2F1
:1020A00008B9012000E0002028B94FF4BD7204A156
:1020B0000DA0FEF7A1FE10BDB400002004ED00E06D
:1020C0004672656552544F535C706F727461626CF6
:1020D000655C525644535C41524D5F434D335C70D6
:1020E0006F72742E630000004572726F723A25732E
:1020F0002C25640D0A00000010B50B48006828B9B3
:1021000040F2811209A113A0FEF776FE064800688E
:10211000401E054908600846006820B9002080F389
:10212000118800BF00BF10BDB40000204672656575
:1021300052544F535C706F727461626C655C52569E
:1021400044535C41524D5F434D335C706F72742E4B
:10215000630000004572726F723A25732C25640D7E
:102160000A00000070B506463546002E35D0083D01
:102170002C461A4960680968084008B1012000E04F
:10218000002028B94FF4A07215A11EA0FEF734FE5E
:10219000206808B9012000E0002028B940F241126F
:1021A0000FA118A0FEF728FE0C49606809680840D6
:1021B00098B1206888B909496068096888436060F7
:1021C00000F0D0FB134960680968084411490860B1
:1021D0002046FFF7B7FA01F07FF970BDB00000208C
:1021E0004672656552544F535C706F727461626CD5
:1021F000655C4D656D4D616E675C686561705F34EF
:102200002E6300004572726F723A25732C25640D9F
:102210000A000000A8000020064800684FF47A7108
:10222000B0FBF1F0401E4FF0E0214861072008614B
:10223000704700002400002070B5FDF7CBFF054675
:10224000102D11D305F1E02090F8F04310480078EC
:10225000844201DB012000E0002028B94FF42A72FB
:102260000CA116A0FEF7C8FD1848006800F4E06055
:1022700017490968884201D8012000E0002028B9E8
:102280004FF42E7203A10DA0FEF7B6FD70BD000045
:10229000B80000204672656552544F535C706F72EF
:1022A0007461626C655C525644535C41524D5F43AD
:1022B0004D335C706F72742E630000004572726F54
:1022C000723A25732C25640D0A0000000CED00E025
:1022D000BC000020024600200BE0084B53F83030D1
:1022E00033B9064B43F8301003EBC0035A6002E0E9
:1022F000401C0A28F1D300BF704700008C01002069
:102300002DE9F04105460E4617462C46FFF7B2FE72
:1023100094F94400401C10B9002084F8440094F95A
:102320004500401C10B9002084F84500FFF7E4FE8A
:10233000A06B28B93A46314604F1240000F00CFAAB
:102340002046FFF788FCBDE8F081000070B5044628
:102350000025ACB10F48006808B9012000E000205A
:1023600028B940F2CF420CA110A0FEF745FD00F0C5
:10237000F9FA00212046FEF765FF01F0ADF80546A9
:102380003DB94FF080500D490860BFF34F8FBFF348
:102390006F8F70BD7C0000204672656552544F53AC
:1023A0005C7461736B732E63000000004572726F82
:1023B000723A25732C25640D0A00000004ED00E03C
:1023C00070B50546FFF756FE15B92D48006800E0C8
:1023D00028460446201DFFF7A7FD78B9E06A00EB08
:1023E0008000284951F8200040B994F82C100120B1
:1023F000884025490968814323480160A06A18B1D3
:1024000004F11800FFF790FD20480068401C1F49A8
:1024100008601B480068844209D1211D1C48FFF751
:102420001DFE1C480068401C1A49086009E01A4853
:102430000068401E184908602046FFF762F8FFF761
:102440002FFBFFF759FE15480068C0B10C48006823
:10245000844214D11248006808B9012000E000202D
:1024600028B940F265420FA113A0FEF7C5FC4FF05A
:10247000805015490860BFF34F8FBFF36F8F70BD59
:1024800044000020DC0100205C00002070000020DF
:10249000980400205000002054000020600000201C
:1024A0007C0000204672656552544F535C74617322
:1024B0006B732E63000000004572726F723A2573D1
:1024C0002C25640D0A00000004ED00E02DE9F04128
:1024D00007460C4690461E4617B91948006800E0AA
:1024E00038460546256005F134006060E86A2061E1
:1024F000286BE061686CA060207B032807D100F0A6
:1025000031FAA86A08B10220207300F0E5FFE86CF8
:102510006061686DA061052E01D0267303E0384626
:10252000FEF780FD2073B8F1000F04D0286BFFF791
:1025300043FB208401E000202084BDE8F0810000FE
:1025400044000020FEB50546002028702B48006896
:1025500002902A49096801EBC1018800FFF7D0FB0E
:102560000446002C48D06A4620460299FFF7F0FC4A
:10257000029064210098B0FBF1F0009000980028D0
:1025800037D00020019030E0019800EBC00004EB50
:10259000800080690099B0FBF1F6019800EBC00063
:1025A00004EB800041682846FFF794FB05465EB1C6
:1025B000019800EBC00004EB8000334610A1826953
:1025C0002846FEF729FC09E0019800EBC00004EB67
:1025D00080000EA182692846FEF71EFC2846FDF702
:1025E00033FE05440198401C0190DDE90101884259
:1025F000CAD32046FFF7B6FDFEBD00005400002000
:102600000925750909257525250D0A00092575096E
:10261000093C3125250D0A007FB5054600202870AC
:102620003048006803902F49096801EBC101880018
:10263000FFF766FB0446002C53D000222046039986
:10264000FFF786FC03900020029043E0029800EB25
:10265000C00004EB8000007B012806D0022806D0D1
:10266000032806D0042808D105E0522607E04226B8
:1026700005E0532603E0442601E0002600BF00BF2A
:10268000029800EBC00004EB800041682846FFF789
:1026900021FB0546029800EBC00004EB8000806837
:1026A000029901EBC10104EB8101098CCDE9001015
:1026B000029800EBC00004EB800032460AA10369D7
:1026C0002846FEF7A9FB2846FDF7BEFD0544029803
:1026D000401C0290DDE902018842B7D32046FFF793
:1026E00041FD7FBD5400002009256309257509259A
:1026F000750925750D0A0000012001490860704721
:102700006800002070B504460D462CB940F606322C
:1027100007A10CA0FEF770FB0E4801681831204697
:10272000FFF782FC01212846FEF78CFD70BD0000FA
:102730004672656552544F535C7461736B732E63BC
:10274000000000004572726F723A25732C25640DEB
:102750000A0000004400002070B505460E461446ED
:102760002DB940F6313209A10DA0FEF745FB104806
:10277000016818312846FFF771FC0CB14FF0FF36A5
:1027800021463046FEF75EFD70BD0000467265656D
:1027900052544F535C7461736B732E6300000000DE
:1027A0004572726F723A25732C25640D0A00000081
:1027B0004400002070B505462C46002D4BD026491C
:1027C000E06A0968C96A884245D2A06900F0004001
:1027D00028B921480068C06AC0F12000A061E16A00
:1027E00001EB81011D4A02EB81016069884201D140
:1027F000012000E0002050B3201DFFF795FB78B9C1
:10280000E06A00EB8000154951F8200040B994F8C7
:102810002C1001208840124909688143104801604A
:102820000D480068C06AE06294F82C1001208840CE
:102830000B49096808430A490860E16A01EB810114
:10284000064A02EB8100211DFFF708FC03E0024865
:102850000068C06AE06270BD44000020DC01002016
:102860005C00002010B504462CB940F6C13205A129
:1028700009A0FEF7C1FA0C48006820600B48006808
:10288000606010BD4672656552544F535C7461734D
:102890006B732E63000000004572726F723A2573ED
:1028A0002C25640D0A0000006C0000205800002058
:1028B0001CB51B4800210B468022CDE9001019A150
:1028C0001A4800F04DFC0446012C02D100F094FEA1
:1028D0000446012C17D100BF502080F31188BFF3AC
:1028E0004F8FBFF36F8F00BF4FF0FF30104908606C
:1028F00001201049086000200F4908600F49086056
:1029000000F0ACF80BE0601C08B1012000E00020F2
:1029100028B940F284720AA10EA0FEF76DFA1CBD20
:102920007800002049444C4500000000B91500081B
:1029300074000020600000205800002038000020B3
:102940004672656552544F535C7461736B732E63AA
:10295000000000004572726F723A25732C25640DD9
:102960000A00000002480068401C014908607047E6
:102970007C00002010B52848006818B101202749C4
:10298000086047E00020254908602548006825497F
:102990000860084600682449096888420BD9234921
:1029A000096801F15400496D1E4A12681E4B1B68EC
:1029B000D21A114401601B4800681B4908601C487A
:1029C0000068B0FA80F0C0F11F0404EB84001949DC
:1029D00051F8200008B1012000E0002028B940F69D
:1029E000F62215A119A0FEF707FA04EB8401114A9B
:1029F00002EB810041684968416000F108014268CA
:102A00008A4202D14168496841604168C968074A01
:102A1000116000BF10BD00007C0000206800002095
:102A200038000020840000208000002044000020A6
:102A30005C000020DC0100204672656552544F5353
:102A40005C7461736B732E63000000004572726FDB
:102A5000723A25732C25640D0A0000001CB522482B
:102A6000014609780191FF2102461170014609785B
:102A700000919DF8001001F050011C4A11700721CF
:102A80001B4A116009E01A490968491E184A116079
:102A90009DF800104906090E00919DF8001001F004
:102AA00080018029EFD0124909680902104A11609B
:102AB0001146098801F4E06111600B4A0199117017
:102AC0000C48006840F470000A4908600846006835
:102AD00040F070400860FFF79FFB00200649086047
:102AE000FDF742FB00201CBD00E400E0B800002020
:102AF000BC00002020ED00E0B400002010B500BFB5
:102B0000502080F31188BFF34F8FBFF36F8F00BF4A
:102B100000F06CFB18B14FF080500449086000BF12
:102B2000002080F3118800BF10BD000004ED00E01C
:102B30002DE9F84305460E4690460DB1012000E010
:102B4000002028B94FF4C4720DA112A0FEF754F969
:102B50000EB9002701E005FB06F707F15000FFF76B
:102B6000CFF8044644B104F1500943464A46314681
:102B700028460094FEF734FD2046BDE8F8830000A7
:102B80004672656552544F535C71756575652E6369
:102B9000000000004572726F723A25732C25640D97
:102BA0000A0000002DE9FF4782B005460E461F4689
:102BB0004FF0000A2C462CB940F2DC4261A166A01D
:102BC000FEF71AF90EB9206C08B9012000E00020C8
:102BD00028B940F2DD425BA15FA0FEF70DF900F0DD
:102BE000EFFA08B9049808B9012000E0002028B9DC
:102BF0004FF49C6253A158A0FEF7FEF800BFFFF708
:102C000039FAD4F83890B9F1000F3DD0D4F80C80DF
:102C100031462046FEF722FCDFB9A9F10100A0638E
:102C2000206810B9FFF714F96060206908B9012025
:102C300000E0002010BB04F1100000F0F3FBE8B14D
:102C40004FF0805048490860BFF34F8FBFF36F8F3C
:102C500014E0C4F80C80606A08B9012000E000208C
:102C600060B904F1240000F0DDFB38B14FF0805072
:102C70003D490860BFF34F8FBFF36F8FFFF73CFAFA
:102C8000012006B0BDE8F087049818B9FFF734FAC0
:102C90000020F6E7BAF1000F04D16846FFF7E2FD25
:102CA0004FF0010AFFF728FAFFF75CFEFFF7E2F9A1
:102CB00094F94400401C10B9002084F8440094F9B1
:102CC0004500401C10B9002084F84500FFF714FAB5
:102CD00004A9684600F0F4F940BB2046FEF792FDD7
:102CE000F0B1206830B9FFF7C5F96068FFF762FD01
:102CF000FFF702FA04F124000499FFF703FD2046D0
:102D0000FEF7A9FF00F0E8FB00287FF478AF4FF052
:102D1000805015490860BFF34F8FBFF36F8F6EE788
:102D20002046FEF798FF00F0D7FB68E72046FEF745
:102D300092FF00F0D1FB2046FEF764FD0028EED0A4
:102D400000209EE74672656552544F535C7175656D
:102D500075652E63000000004572726F723A25732C
:102D60002C25640D0A00000004ED00E070B5054656
:102D70000E462C462CB940F21B121EA122A0FEF7D3
:102D80003BF8FFF777F9D4E90F12206801FB020046
:102D900060600020A0632068A060E06B401E226C91
:102DA000216800FB0210E060FF2084F8440084F8F2
:102DB00045009EB9206908B9012000E00020A8B9AB
:102DC00004F1100000F02EFB80B14FF0805012494A
:102DD0000860BFF34F8FBFF36F8F07E004F110005F
:102DE000FFF712F904F12400FFF70EF9FFF784F959
:102DF000012070BD4672656552544F535C71756514
:102E000075652E63000000004572726F723A25737B
:102E10002C25640D0A00000004ED00E02DE9FF43BD
:102E200083B0064688461D464FF0000934462CB94B
:102E300040F2D92258A15DA0FDF7DEFFB8F1000FE6
:102E400001D1206C08B9012000E0002028B940F22F
:102E5000DA2251A155A0FDF7CFFF022D02D1E06B80
:102E6000012801D1012000E0002028B940F2DB2236
:102E700049A14EA0FDF7C0FF00F0A2F908B90598DE
:102E800008B9012000E0002028B940F2DE2242A16A
:102E900046A0FDF7B1FF00BFFFF7ECF8A06BE16BB8
:102EA000884201D3022D28D12A4641462046FEF70A
:102EB000EAFA0746606A08B9012000E0002068B914
:102EC00004F1240000F0AEFA88B14FF080503B4985
:102ED0000860BFF34F8FBFF36F8F08E03FB14FF033
:102EE000805036490860BFF34F8FBFF36F8FFFF7F5
:102EF00003F9012007B0BDE8F083059818B9FFF782
:102F0000FBF80020F6E7B9F1000F04D101A8FFF7A4
:102F1000A9FC4FF00109FFF7EFF8FFF723FDFFF7DA
:102F2000A9F894F94400401C10B9002084F844002A
:102F300094F94500401C10B9002084F84500FFF7C3
:102F4000DBF805A901A800F0BBF8F0B92046FEF7B0
:102F500066FCA0B104F110000599FFF7D3FB2046F1
:102F6000FEF779FE00F0B8FA002895D14FF08050B6
:102F700012490860BFF34F8FBFF36F8F8CE7204675
:102F8000FEF769FE00F0A8FA86E72046FEF763FE2A
:102F900000F0A2FA0020ADE74672656552544F5327
:102FA0005C71756575652E63000000004572726F77
:102FB000723A25732C25640D0A00000004ED00E030
:102FC0002DE9F05F07468A4690461E463C462CB9DE
:102FD00040F29F3231A136A0FDF70EFFBAF1000F8B
:102FE00001D1206C08B9012000E0002028B94FF47D
:102FF00068722AA12EA0FDF7FFFE022E02D1E06B1F
:10300000012801D1012000E0002028B940F2A132BE
:1030100022A127A0FDF7F0FEFFF70EF900BF502117
:10302000EFF3118081F31188BFF34F8FBFF36F8FE0
:1030300000BF0546A06BE16B884201D3022E23D16D
:1030400094F945B0324651462046FEF71CFA0BF182
:10305000010088B9606A08B9012000E0002080B949
:1030600004F1240000F0DEF958B1B8F1000F08D0E7
:103070000120C8F8000004E00BF1010040B284F820
:1030800045004FF0010901E04FF0000900BF85F352
:10309000118800BF4846BDE8F09F00004672656594
:1030A00052544F535C71756575652E6300000000C6
:1030B0004572726F723A25732C25640D0A00000068
:1030C0002DE9F04104460D462CB940F6CB3219A14A
:1030D0001DA0FDF791FE2DB940F6CC3215A11AA026
:1030E000FDF78AFEFEF7C6FF1B4807682868401CEC
:1030F00008B9002619E0194920680968884204D0F7
:103100006068B84201D801260FE06068381A296863
:10311000884209D228686168791A401A28602046D6
:10312000FFF7A0FB002600E00126FEF7E5FF304692
:10313000BDE8F0814672656552544F535C7461730B
:103140006B732E63000000004572726F723A257334
:103150002C25640D0A000000580000206C0000209F
:103160002DE9FF4F85B0804689461746DDE912AB51
:10317000B800FEF7C5FD064656B16020FEF7C0FD5B
:1031800004460CB1266304E03046FEF7EBFF00E096
:1031900000247CB10020CDE900ABCDE902403A46E5
:1031A00049464046089BFEF731FA2046FEF796F85E
:1031B000012501E04FF0FF35284609B0BDE8F08F4A
:1031C0000549096809B9012005E00449096809B9F8
:1031D000022000E000207047600000207C000020FA
:1031E0000149086870470000580000202DE9F041AF
:1031F0004FF0000841480068002872D1404800683C
:10320000451C3F480560EDB93E480068006808B9B4
:10321000012000E0002028B940F6D9123AA13FA0D1
:10322000FDF7EAFD374807684048006835490860FF
:103230003E4807603E480068401C3D490860FEF774
:103240002FFC00BF3B48006885423CD300BF2D489F
:103250000068006808B9012000E0002020B14FF0AC
:10326000FF30344908602DE026480068C068C46813
:103270006668B54202D22F48066023E0201DFEF7A3
:1032800053FEA06A18B104F11800FEF74DFE94F841
:103290002C10012088402849096808432649086005
:1032A000E16A01EB8101254A02EB8100211DFEF755
:1032B000D5FE2349E06A0968C96A8842C7D34FF03E
:1032C0000108C4E700BF1E480068C06A00EB800028
:1032D0001A4951F82000012801D94FF0010805E0F2
:1032E000FFE718480068401C164908601648006847
:1032F00008B14FF001084046BDE8F0817C00002095
:1033000058000020480000204672656552544F5313
:103310005C7461736B732E63000000004572726F02
:10332000723A25732C25640D0A0000004C00002021
:103330006C000020740000205C000020DC010020F4
:1033400044000020640000206800002070B505469D
:103350002C460026002D4BD026480068844201D11F
:10336000012000E0002028B940F6C76222A127A072
:10337000FDF742FD206D28B940F6C9621EA123A0C9
:10338000FDF73AFD206D401E2065E16CE06A884241
:103390002ED0206D60BB201DFEF7C6FD78B9E06A17
:1033A00000EB80001D4951F8200040B994F82C1022
:1033B000012088401A490968814319480160E06C7E
:1033C000E062E06AC0F12000A06194F82C100120B6
:1033D000884013490968084311490860E16A01EB14
:1033E00081010E4A02EB8100211DFEF737FE012606
:1033F000304670BD440000204672656552544F53FC
:103400005C7461736B732E63000000004572726F11
:10341000723A25732C25640D0A000000DC0100209F
:103420005C00002070B50646F068C4682CB940F610
:1034300061321AA11EA0FDF7DFFC04F11800FEF7AF
:1034400073FD1F480068A8B9201DFEF76DFD94F8B4
:103450002C10012088401B4909680843194908605D
:10346000E16A01EB8101184A02EB8100211DFEF7A0
:10347000F5FD04E004F118011448FEF7EFFD1449CE
:10348000E06A0968C96A884204D901250120114906
:10349000086000E00025284670BD000046726565A2
:1034A00052544F535C7461736B732E6300000000C1
:1034B0004572726F723A25732C25640D0A00000064
:1034C0007C0000205C000020DC010020840400203F
:1034D000440000206800002070B500240026344815
:1034E000006828B94FF4FD6232A137A0FDF784FCD3
:1034F000FEF7C0FD2E480068401E2D4908600846B2
:10350000006800284FD13448006800284BD024E0E0
:103510003248C068C46804F11800FEF705FD201D9C
:10352000FEF702FD94F82C10012088402C49096810
:1035300008432B490860E16A01EB8101294A02EB4B
:103540008100211DFEF78AFD2749E06A0968C96AE2
:10355000884202D30120254908602048006808B944
:10356000012000E000200028D2D00CB1FEF798FA2C
:103570001F48056865B100BFFFF738FE10B1012094
:103580001A4908606D1E002DF6D100201849086008
:103590001648006838B10126300716490860BFF3A5
:1035A0004F8FBFF36F8FFEF7A7FD304670BD000051
:1035B0007C0000204672656552544F535C74617301
:1035C0006B732E63000000004572726F723A2573B0
:1035D0002C25640D0A000000540000208404002003
:1035E0005C000020DC010020440000206800002076
:1035F0006400002004ED00E01CB50024FDF7CAFEC5
:103600000B48006858B10B481F2100234FF480720B
:10361000CDE9001008A10A48FFF7A2FD04462CB925
:1036200040F2331207A10CA0FDF7E6FB20461CBDBB
:103630009000002094000020546D722053766300A7
:103640003D1C00084672656552544F535C74696DA9
:103650006572732E630000004572726F723A2573B3
:103660002C25640D0A0000002DE9FE4304460D469A
:1036700016461F46DDF828804FF000092CB94FF49C
:10368000D37216A11AA0FDF7B7FB1D48006810B34E
:10369000009501960294062D15DAFFF791FD022898
:1036A00008D100234246694615480068FFF7B6FB7B
:1036B000814610E000231A46694611480068FFF76A
:1036C000ADFB814607E000233A4669460C48006896
:1036D000FFF776FC81464846BDE8FE834672656585
:1036E00052544F535C74696D6572732E6300000011
:1036F0004572726F723A25732C25640D0A00000022
:10370000900000202437000800000020C4000000C2
:10371000400E0008E8370008C4000020249800008C
:10372000500E000800000000000000000000000033
:103730000000000000000000010203040102030475
:10374000060708090204060800A24A040000000057
:103750000000000001020304060708090000000041
:103760000000000000000000000000000000000059
:103770000000000000000000000000000000000049
:103780000000000000000000000000000000000039
:103790000000000000000000000000000000000029
:1037A0000000000000000000000000000000000019
:1037B0000000000000000000000000000000000009
:1037C00000000000000000000000000000000000F9
:1037D0000000000000000000AAAAAAAA0000000041
:0837E0000000000000000000E1
:0400000508000131BD
:00000001FF
