:020000040800F2
:1000000010C40020450100089D1800086D1100086B
:100010009918000851050008133D00080000000071
:10002000000000000000000000000000ED340008A7
:10003000ED0800080000000025190008013600083E
:100040005F0100085F0100085F0100085F01000810
:100050005F0100085F0100085F0100085F01000800
:100060005F0100085F0100085F0100085F010008F0
:100070005F0100085F0100085F0100085F010008E0
:100080005F0100085F0100085F0100085F010008D0
:100090005F0100085F0100085F0100085F010008C0
:1000A0005F0100085F0100085F0100085F010008B0
:1000B0005F0100085F0100085F0100085F010008A0
:1000C0005F0100085F0100085F0100085F01000890
:1000D0005F0100080D3A00085F0100085F01000899
:1000E0005F0100085F0100085F0100085F01000870
:1000F0005F0100085F0100085F0100085F01000860
:100100005F010008BD1B00085F0100085F010008D7
:100110005F0100085F0100085F0100085F0100083F
:100120005F0100085F0100085F0100085F0100082F
:10013000DFF80CD000F0FAF9004800474D880008BD
:1001400010C400200648804706480047FEE7FEE747
:10015000FEE7FEE7FEE7FEE7FEE7FEE7FEE7FEE777
:1001600041360008310100082DE9F05F0546002006
:1001700092469B4688460646814640241BE0284618
:1001800041464746224600F08AF953465A46C01A6D
:10019000914110D311461846224600F071F92D1AEC
:1001A00067EB01084F4622460120002100F068F964
:1001B00017EB00094E41201EA4F10104DFDC484684
:1001C00031462A464346BDE8F09F2DE9F041002420
:1001D000061B254671F1000605DA01240027D0EB45
:1001E000070067EB0101161E73F1000605DA002710
:1001F000D2EB0702012567EB0303FFF7B5FF864645
:100200000E4617469C46AC4204D00025D0EB050EA6
:1002100065EB010624B10020D2EB000760EB030C74
:10022000704631463A466346BDE8F08140EA010334
:100230009B0703D009E008C9121F08C0042AFAD29C
:1002400003E011F8013B00F8013B521EF9D2704760
:10025000421E12F8013F002BFBD111F8013B02F8BE
:10026000013B002BF9D1704710B5002200E0521C71
:10027000835C8C5CA34201D1002BF8D1D8B2E1B2EF
:10028000401A10BD034611F8012B00F8012B002A7B
:10029000F9D118467047F0B480EA0102D40F420049
:1002A000B2EB410F02D20246084611464A0042D044
:1002B000C30DDDB2C1F3C752AD1A202D35DAC1F33B
:1002C000160141F4000204B15242C5F1200602FABF
:1002D00006F12A411044B3EBD05F23D0C4B1012D05
:1002E000A0EBC35009DCF0BC4FF0004202EAC3525D
:1002F000DBB200F5000000F0EBB8400000F18070C8
:1003000000EBC350A0F1807040EAD170490009E0D1
:10031000490841EAC071A0EBC35000F50000400855
:1003200000EBC350F0BC00F0CAB86142012202EBFE
:100330004101001BF6E7F0BC704781F00041AAE7DD
:1003400080F00040A7E780EA010210B502F0004308
:10035000400022D04A001FD0010E01EB1261C0F311
:100360005600C2F3560240F4000042F40002A0FB23
:10037000022000047F39140400D0401C50EA1240CF
:1003800001D44000491EC2B20C0604EBD010401C40
:100390004008802A02D003E0002010BD20F00100B8
:1003A000002900DA0020184310BD30B480EA0102B1
:1003B00002F0004530F0004221F0004013D090B12F
:1003C000C30DD40DC2F31601C0F31600E41A41F4B4
:1003D000000140F400027D34914201D3641C00E02E
:1003E0004900002C02DA30BC002070474FF40000B6
:1003F0000023914201D3891A034340084FEA410187
:10040000F7D151B1914202D14FF0004105E002D243
:100410004FF0010101E06FF0010103EBC4502844EB
:1004200030BC00F04CB896230022114600F050B8C2
:1004300020F00040C10DC0F3160040F400007F29F9
:1004400001DA00207047962903DCC1F19601C8400B
:100450007047963988407047002801DBC0F10040A2
:10046000002901DBC1F1004181427047002801DB16
:10047000C0F10040002901DBC1F100418842704712
:10048000202A04DB203A00FA02F100207047914054
:10049000C2F1200320FA03F3194390407047202A49
:1004A00004DB203A21FA02F00021704721FA02F31E
:1004B000D040C2F1200291400843194670470029FC
:1004C000A8BF7047401C490008BF20F001007047DA
:1004D00010B4B0FA80FC00FA0CF050EA010404BF3A
:1004E00010BC704749B1CCF1200421FA04F411FA90
:1004F0000CF118BF012121430843A3EB0C01CB1DD4
:100500004FEA00614FEA102042BF002010BC704744
:1005100000EBC35010440029A4BF10BC7047401C1E
:10052000490008BF20F0010010BC7047064C074D81
:1005300006E0E06840F0010394E8070098471034B3
:10054000AC42F6D3FFF7F8FD9CF30008BCF30008BB
:1005500000BFFEE770B500254FF4803404E0802032
:1005600001F018FB00B103E0201EA4F10104F6D154
:1005700000BF0CB9032070BD40F2FF5001F0C4FA77
:100580002846F8E770B5044605E01548456B05F0C8
:10059000450000B100E0F8E700BF042001F0FAFADE
:1005A00020B1042001F0B0FA032070BD012001F059
:1005B000F1FA20B1012001F0A7FA0120F5E708487F
:1005C0000069A04201D01020EFE740F2FF5004493B
:1005D00088630846406908210840C0B2E5E700008A
:1005E0000080014070B500264FF4803505E01148C9
:1005F000446B04F0450000B103E0281EA5F101059D
:10060000F5D100BF15B104F0040028B10326042081
:1006100001F07AFA304670BD012001F0BBFA18B142
:100620000126012001F070FA40F2FF5001F06CFA4F
:100630003046F0E70080014010B505E00B48446B00
:1006400004F0450000B100E0F8E700BF042001F02D
:10065000A1FA20B1042001F057FA032010BD40F2A6
:10066000FF5001F051FA0020F8E70000008001403F
:100670002DE9F04105460E464FF0000805E01F4801
:10068000476B07F0450000B100E0F8E700BF042029
:1006900001F080FA28B1042001F036FA0320BDE809
:1006A000F081012001F076FA20B1012001F02CFA4E
:1006B0000120F4E711480069A84201D01020EEE7BC
:1006C00040F2FF5001F020FA0C48446904F4604005
:1006D00018B9200C30804046E1E704F4005008B11E
:1006E0001320DCE704F4804008B11020D7E704F4BD
:1006F000004008B10F20D2E74046D0E7008001401B
:1007000070B500264FF4803505E00F48446B04F0C7
:10071000450000B103E0281EA5F10105F5D100BF99
:1007200015B104F0040028B10326042001F0ECF90F
:10073000304670BD04F0400018B10026402001F0A2
:10074000E3F93046F5E700000080014021B102687E
:1007500042F00102026004E002684FF6FE731A40A4
:100760000260704701684FF6FE721140016000217F
:10077000016041608160C1604B49884208D14A49AB
:100780000839496841F00F01474A083A51608AE048
:1007900045491431884208D143490839496841F034
:1007A000F001414A083A51607DE03F4928318842D2
:1007B00008D13D490839496841F470613A4A083A1C
:1007C000516070E038493C31884208D136490839D7
:1007D000496841F47041344A083A516063E0324953
:1007E0005031884208D130490839496841F47021B4
:1007F0002D4A083A516056E02B496431884208D1AD
:1008000029490839496841F47001274A083A51607A
:1008100049E025497831884208D123490839496897
:1008200041F07061204A083A51603CE01F4988421B
:1008300006D1011F096841F00F01021F116032E06B
:100840001A491431884208D11849091F096841F032
:10085000F001164A121F116025E014492831884220
:1008600008D11249091F096841F470610F4A121F2B
:10087000116018E00D493C31884208D10B49091F2D
:10088000096841F47041094A121F11600BE00749E1
:100890005031884207D10549091F096841F4702188
:1008A000024A121F1160704708000240080402400B
:1008B00010B50022026847F6F0739A430C6A8B6801
:1008C00023430C6923434C6923438C692343CC693C
:1008D00023434C6A23438C6A23431A430260CB6848
:1008E00043600B6883604B68C36010BD70470000B5
:1008F00010B50446214610A003F00EFA240300F0C0
:1009000037F900F0CFF800200D490860202002F0F0
:1009100085FDC4F3074002F081FDC4F3072002F017
:100920007DFDE0B202F07AFD01200649C1F8B00178
:1009300000F0B8F810BD000066653A25780D0A0091
:10094000B08121420080214208B501214FF484701A
:1009500001F00AF84FF48050ADF8000010208DF837
:10096000030003208DF802006946124800F0F8FAEF
:100970004FF480510F4800F07EFB8020ADF800005E
:1009800069460D4800F0ECFA80210B4800F073FB3B
:1009900001200A49086002F0FBFC002002F05AFD29
:1009A00000F046F8064908800846018805A003F0D3
:1009B000B3F908BD000C014000200140B081214284
:1009C00020000020CAB9D3C3B5C4464C415348D017
:1009D000BEC6AC4944CAC7A3BA25580D0A000000D8
:1009E0002DE9F04106460C46174600200F490860E5
:1009F000032002F013FDC4F3074002F00FFDC4F31F
:100A0000072002F00BFDE0B202F008FD002505E032
:100A1000FF2002F003FD7055681C85B2BD42F7DB74
:100A2000012002490860BDE8F0810000B081214248
:100A300010B5002400200E490860902002F0EEFC62
:100A4000002002F0EBFC002002F0E8FC002002F0A5
:100A5000E5FCFF2002F0E2FC44EA0024FF2002F063
:100A6000DDFC044301200349C1F8B001204610BD5C
:100A7000B08121420080214210B5002400200749A6
:100A80000860052002F0CAFCFF2002F0C7FC044603
:100A900001200349C1F8B001204610BDB0812142B8
:100AA0000080214210B500BFFFF7E6FF00F0010013
:100AB0000028F9D110BD00002DE9F05F81460F46F6
:100AC0001646DFF8A8B04FEA1738C7F30B0ACAF585
:100AD0008054A64200DC344644E04FEA08314FF42B
:100AE00080525846FFF77CFF002508E00AEB05001E
:100AF0001BF80000FF2800D003E0681C85B2A54267
:100B0000F4DB00BFA54216DA4046FFF7F1FE0025F0
:100B100007E019F8050005EB0A010BF80100681C55
:100B200085B2A542F5DB4FEA08314FF480525846B2
:100B300000F02EF804E022463946484600F028F836
:100B4000A64200D10FE008F101084FF0000AA144CD
:100B50002744301B86B2B6F5805F02DD4FF4805427
:100B600000E03446B9E700BFBDE8F09F84000020F4
:100B700010B5002004490860062002F04FFC012057
:100B80000249C1F8B00110BDB0812142008021426C
:100B90002DE9F04107460E461446F0B2C0F58075C7
:100BA000AC4200DC254612E02A463146384600F0C9
:100BB00013F8AC4200D10BE02F442E44601B84B2EA
:100BC000B4F5807F02DD4FF4807500E02546EBE749
:100BD00000BFBDE8F08100002DE9F04106460C465B
:100BE0001746FFF7C5FF00200F490860022002F0FA
:100BF00015FCC4F3074002F011FCC4F3072002F017
:100C00000DFCE0B202F00AFC002504E0705D02F089
:100C100005FC681C85B2BD42F8DB01200249086072
:100C2000FFF740FFBDE8F081B081214210B50024FC
:100C30000EE04FF40D71002008F024FC184941F833
:100C40002400084650F8240000B903E0601CC4B238
:100C5000042CEEDB00BF4FF41471002008F012FCEE
:100C6000104908604FF41471002008F00BFC0E4985
:100C700008604FF40071002008F004FC0B49086084
:100C8000042C0AD10748006838B10748006820B131
:100C90000846006808B1002010BD0120FCE70000F4
:100CA00030BE00205C000020600000206C000020AE
:100CB00051B18200A2F1C042126842F001038200E9
:100CC000A2F1C042136009E08200A2F1C0421268A2
:100CD000034B1A408300A3F1C0431A607047000021
:100CE000FEFF0F00D0E901121143C26811430269EF
:100CF00011434269114382691143C2691143026A77
:100D00001143426A1143826A1143C26A1143026B62
:100D1000114302689200A2F1C04211608168082963
:100D20000BD101688900A1F1C041096841F040027E
:100D300001688900A1F1C0410A60416B0968426BFA
:100D4000526841EA0211426B926841EA0221426B09
:100D5000928941EA0241426B128A41EA0251426B96
:100D6000127D41EA0261426B926911430268521C92
:100D70009200A2F1C0421160C16AB1F5804F1BD14F
:100D8000816B0968826B526841EA0211826B92683A
:100D900041EA0221826B128A41EA0251826B127D82
:100DA00041EA0261826B9269114302689200A2F1EA
:100DB000C042C2F8041107E06FF070420168890078
:100DC000A1F1C041C1F80421704700002DE9FC41A8
:100DD00007460D46002600240020009001900820C0
:100DE0005B49086010204860402088600020C8608F
:100DF0004FF480600861084600F002FF1020FFF702
:100E0000C1FB044614B12046BDE8FC81514800886E
:100E100000044F4908603720486040208860002067
:100E2000C8604FF480600861084600F0E9FE372092
:100E3000FFF7A8FB04460CB12046E5E74FF0FF3072
:100E40004549086008204860302088600220C8605A
:100E50000020086101204861084600F071FE002072
:100E60003B49086033204860402088600020C8600B
:100E70004FF480600861084600F0C2FE3320FFF79F
:100E800081FB04460CB12046BEE70CE04FF4001095
:100E900000F080FE38B100F0ADFE4DF82600761C63
:100EA000022E00D306E02D48406B40F22A61084034
:100EB0000028EBD000BF082000F06CFE20B1082015
:100EC00000F022FE04209FE7022000F063FE20B124
:100ED000022000F019FE022096E7202000F05AFEC2
:100EE00020B1202000F010FE06208DE74FF40070A6
:100EF00000F050FE28B14FF4007000F005FE07200E
:100F000082E740F2FF5000F0FFFD009800060099D4
:100F100001F47F4140EA0120009901F47F0140EA99
:100F20001120009940EA116068600198000601995B
:100F300001F47F4140EA0120019901F47F0140EA78
:100F40001120019940EA1160286020465CE700000A
:100F5000A010002028000020B410002000800140D4
:100F60002DE9F04102460025002600200023002440
:100F7000002791F803C00CF00F0591F803C00CF0A6
:100F8000100CBCF1000F03D091F802C04CEA05052B
:100F900091F800C0BCF1000F31D0146800202BE0A4
:100FA0004FF0010C0CFA00F3B1F800C00CEA030694
:100FB0009E4220D183004FF00F0C0CFA03F7BC4384
:100FC00005FA03FC4CEA040491F803C0BCF1280FB5
:100FD00006D14FF0010C0CFA00FCC2F814C00AE074
:100FE00091F803C0BCF1480F05D14FF0010C0CFA89
:100FF00000FCC2F810C0401C0828D1D31460B1F81E
:1010000000C0BCF1FF0F34DD546800202EE000F179
:10101000080C4FF0010808FA0CF3B1F800C00CEA14
:1010200003069E4221D183004FF00F0C0CFA03F708
:10103000BC4305FA03FC4CEA040491F803C0BCF17C
:10104000280F05D100F1080C08FA0CF8C2F814803A
:1010500091F803C0BCF1480F07D100F1080C4FF024
:10106000010808FA0CF8C2F81080401C0828CED3FA
:101070005460BDE8F0810161704700002DE9F05F28
:101080008246884614462046E21704EB5272D2107C
:101090002146E31704EB5373DB10A4EBC3030BB13E
:1010A000012300E000231A44624302F0FF099AF88A
:1010B00000600AF1010082460578812E05DB402D93
:1010C00003DBFF2D01D0FF2E0DD14FF0000B06E00A
:1010D000002008F8010B0BF1010000F0FF0BCB45DD
:1010E000F6DBBDE8F09F7F2D03DAA5F14000C5B225
:1010F00002E0A5F14100C5B2A6F18100C6B2BE2052
:1011000000FB065000FB09F70C2C06D0102C0DD06C
:10111000182C14D0202C24D11AE01348D0F8090040
:10112000C1194A464046FFF75BFC1AE00E48D0F86A
:101130001100C1194A464046FFF752FC11E00A4827
:10114000D0F81900C1194A464046FFF749FC08E0AB
:101150000548D0F82100C1194A464046FFF740FC37
:1011600000BF00BF00BFBCE7A8BF002000BFFEE774
:1011700072B6704762B670471CB5044600200190F5
:101180000090214800880004204908600D20486034
:10119000402088600020C8604FF4806008610846E5
:1011A00000F02EFD1A48406B009002E01848406B9A
:1011B0000090009800F045000028F7D0012000F0D2
:1011C000E9FC20B1012000F09FFC01201CBD04209F
:1011D00000F0E0FC20B1042000F096FC0320F5E7CD
:1011E0000B4800690D2801D01020EFE740F2FF50B6
:1011F00000F08AFC0648406901900198C0F3432042
:1012000020700020E2E7000028000020A01000204D
:101210000080014008B50121442000F0A5FB012019
:10122000ADF8000028208DF8030069460648FFF756
:1012300097FE1C20ADF8000048208DF80300694699
:101240000248FFF78DFE08BD00080140001801406C
:1012500010B50446012C01D12249087021480078BC
:1012600001282AD12048006801280AD01F480068B8
:1012700038B11E48001F006818B11C4808380068C3
:10128000D8B90A2003F02EFD002016490870164830
:101290000068012800D110BD1448006808B9022078
:1012A000F9E71248001F006808B90320F3E70F4868
:1012B00008380068A0B90420EDE70B48006878B949
:1012C0000A48006801280BD10848001F006801285F
:1012D00006D1064808380068012801D10149087084
:1012E0000020D8E722000020000121421001234203
:1012F00070B506460F484088401E83B20D480088EE
:10130000401E82B20021084600F0D8F800240CE00C
:10131000002504E0304600F091FA681C85B20548CB
:101320004088A842F6DC601C84B202480088A042D3
:10133000EEDC70BD180000202DE9F84F06460F4680
:1013400090469946DDF828B0A8EB0600401C1FFA2D
:1013500080FAA9EB0700401C80B20090002415E041
:1013600000250FE03A1991B2721990B24B464246ED
:1013700000F0A4F804FB0A513BF8110000F05EFAFB
:10138000681C85B25545EDDB601C84B20098844230
:10139000E6DBBDE8F88F000000B502460F48827119
:1013A0006AB9362000F03EFA4C2000F041FA4FF4C2
:1013B000F0700A4948804FF4A07008800CE0362095
:1013C00000F030FA2C2000F033FA4FF4A0700349FB
:1013D00048804FF4F070088000BD00001800002025
:1013E00070B504460D4616462B4622462946204631
:1013F00000F064F8304600F021FA70BD2DE9F043AA
:1014000004460D4616461F46DDF81C80B44201DC3A
:10141000BD4201DDBDE8F0833B4632462946204609
:1014200000F04CF8301B401C84B2781B401C85B285
:101430000BE0A94602E0404600F000FAB9F10000D6
:10144000A9F101011FFA81F9F5D1201EA4F10101D2
:101450008CB2EED100BFDDE7014800887047000084
:101460000008006C2DE9F04104460D4600260027D7
:10147000B04610480088A04203DD0E484088A842CC
:1014800002DC0020BDE8F0812B462246294620469A
:1014900000F014F82E2000F0C5F9074806880088EF
:1014A0004FF6FF7101EA00260348008806433046E4
:1014B000E8E70000180000200008006C30B5044682
:1014C0000D462A2000F0AEF9201200F0B1F9E0B28A
:1014D00000F0AEF9101200F0ABF9D0B200F0A8F9AC
:1014E0002B2000F09FF9281200F0A2F9E8B200F0DA
:1014F0009FF9181200F09CF9D8B200F099F92C204D
:1015000000F090F930BD00002DE9F84F80460E46FE
:1015100017461C46B3462046E31704EB5373DB1013
:1015200021464FEAE47C04EB5C7C4FEAEC0CA4EB34
:10153000CC0CBCF1000F02D04FF0010C01E04FF0D9
:10154000000C6344224604EBD27C4FEA6C0C03FB94
:101550000CF3DBB20093A7F12000C7B2002556E0E0
:101560000C2C07D107EB47002B4901EB800010F84A
:10157000059013E0102C05D1284800EB071010F857
:1015800005900BE0182C07D107EBC700244901EBAD
:10159000800010F8059001E0BDE8F88F4FF0000AD8
:1015A0002FE009F0800030B11E48028831464046E5
:1015B000FFF716FF07E00A9828B91B480288314652
:1015C0004046FFF70DFF4FEA49604FEA1069701C73
:1015D00086B216484088B04200DCDDE7A6EB0B007F
:1015E000A0420AD15E4608F101001FFA80F80F48B8
:1015F0000088404500DCCFE706E00AF1010000F07A
:10160000FF0ABAF1080FCCDB00BF681CC5B2009816
:101610008542A5DB00BFBFE7DA9F00084EA40008A3
:101620003EAA000814000020160000201800002028
:101630002DE9FE4F07460E4691469A46DDE90D4BD1
:101640000C9DB8460296002001904CE0019870BBBA
:101650002878802802DD0120019044E004EBD47159
:1016600008EB0902A2EB6101B94202DA301986B235
:10167000474602985044001BB04200DA36E0287812
:101680000D2804D1301986B247466D1C07E0CDF80D
:1016900000B02A78234631463846FFF735FF6D1CE7
:1016A000204604EBD07107EB61018FB21BE0FFE72E
:1016B0000020019008EB0900001BB84202DA301943
:1016C00086B2474602985044001BB04200DA0DE053
:1016D00023462A4631463846CDF800B000F03CF8A3
:1016E000AD1C381987B228780028AFD100BFBDE8FB
:1016F000FE8F2DE9F84704460D4690469946DDE9F0
:10170000096704F0FF0A08EB04001FFA80F809EBF0
:1017100005001FFA80F916E0444502DB5446A8197B
:1017200085B24D4500DB14E0002000903A78334646
:1017300029462046FFF7E8FE304606EBD07104EB61
:1017400061018CB27F1C38787E2802DC3878202832
:10175000E2DA00BFBDE8F8872DE9FF4FA1B00746E8
:101760000D461C46AA462046E21704EB5272D210E0
:101770002146E31704EB5373DB10A4EBC3030BB157
:10178000012300E000231A44624302F0FF0B0C2CFB
:1017900008D0102C06D0182C04D0202C02D025B054
:1017A000BDE8F08F224601A92398FFF767FC0026C9
:1017B0002FE001A810F806804FF0000923E008F0A0
:1017C000800030B11548028829463846FFF708FEE8
:1017D00007E02E9828B91248028829463846FFF7B4
:1017E000FFFD4FEA48604FEA1068681C85B2A5EB20
:1017F0000A00A04203D15546781C87B206E009F1E1
:10180000010000F0FF09B9F1080FD8DB00BF701C20
:10181000C6B25E45CDDB00BFC1E70000140000206A
:10182000160000200149088070470000FE07006C88
:1018300001490880704700000008006C0112024A4C
:101840001180C1B2118070470008006C08B50121F9
:10185000482000F089F82020ADF8000010208DF815
:10186000030003208DF8020069460948FFF778FB62
:1018700020210748FFF7FFFB2020ADF80000694654
:101880000448FFF76DFB20210248FFF7F4FB08BD79
:10189000000C01400018014000BFFEE77047000047
:1018A00070B5002100230F22C47804B3154C2468BE
:1018B00004F4E064C4F5E064210AC1F10403CA4001
:1018C000447804FA03F184781440214309010E4C52
:1018D0000678A155047804F01F050124AC40057872
:1018E0006D11AD0005F1E025C5F8004109E004786F
:1018F00004F01F050124AC40044D0678761145F82C
:10190000264070BD0CED00E000E400E080E100E066
:1019100002490143024A1160704700000000FA05C5
:101920000CED00E07047000029B1064A52690243FD
:10193000044B5A6104E0034A52698243014B5A61E5
:10194000704700000010024029B1064AD2690243E4
:10195000044BDA6104E0034AD2698243014BDA6145
:10196000704700000010024029B1064A9269024304
:10197000044B9A6104E0034A92698243014B9A61E5
:10198000704700000010024030B500210022002402
:1019900000232D4D6D6805F00C0121B1042905D0FF
:1019A000082923D105E0294D056022E0274D056077
:1019B0001FE0254D6D6805F47012234D6D6805F428
:1019C0008034022505EB92421CB9214D5543056038
:1019D0000BE01D4D6D6805F400351DB11C4D5543E0
:1019E000056002E0194D5543056002E0174D0560A2
:1019F00000BF00BF144D6D6805F0F0010909154DD9
:101A00006B5C0568DD4045600F4D6D6805F4E06175
:101A1000090A104D6B5C4568DD4085600A4D6D68B4
:101A200005F46051C90A0B4D6B5C4568DD40C5602B
:101A3000054D6D6805F44041890B074D6B5CC56829
:101A4000B5FBF3F5056130BD0010024000127A00CD
:101A500000093D0000000020100000207CB5054674
:101A6000002400200090019000260DB1022600E025
:101A700000262248406900F0007008B10E207CBDAD
:101A80001F49098888B26946FFF7A0F904460CB1DE
:101A90002046F4E7019800F4802060B318480088DD
:101AA0000004184908603720486040208860002002
:101AB000C8604FF480600861084600F0A1F8372044
:101AC000FEF760FD04460CB12046D8E70D480660DD
:101AD00006200C494860402088600020C8604FF410
:101AE00080600861084600F08BF80620FEF74AFD8A
:101AF00004462046C3E72520C1E7000000800140DE
:101B000028000020A01000200149886370470000D1
:101B1000008001400149086070470000A000304289
:101B20000146034A506820F0FF00084350607047A8
:101B30000080014001490860704700008C05304278
:101B400000210A4B02685A6242689A621A46D16AB8
:101B500021F0F701D0E902231A4303691A434369CC
:101B60001A431143014AD1627047000000800140CE
:101B700000200649086048608860C8604862886242
:101B8000C862034888630020C86370470080014032
:101B9000FF07C00001460020034A526B0A400AB109
:101BA000012000E0002070470080014002480068EA
:101BB00000F00300704700000080014010B500F005
:101BC00053FC10BD00210A4A516847F6FF62914359
:101BD000027D83681A4343681A43C3681A43036843
:101BE0001A4303691A431143014A516070470000C8
:101BF000008001400148006870470000808001407B
:101C00000021094B02689A601A46D1686FF30A01F5
:101C1000D0E901231A43C3681A4303691A431143E5
:101C2000014AD16070470000008001400549096801
:101C300021F00301034A1160114609680143116054
:101C400070470000008001400149086070470000B3
:101C50008080014070B58CB006460C4615460121C7
:101C60000220FFF761FE1348FEF77CFD00211148BA
:101C7000FEF76CFD1048019002960395A0080490B1
:101C8000002005908020069080000790800008903A
:101C9000002009904FF400500A9000200B9001A9F9
:101CA0000448FEF705FE00210248FEF74FFD0CB088
:101CB00070BD0000440402408080014070B50446BD
:101CC000002516480078032801D1272070BD13484D
:101CD000007838B111480078012803D00F48007807
:101CE000022818D1022C01D32720EFE7E0B2FFF73A
:101CF000B5FE05467DB90A48406820F4C050084941
:101D0000486008464068A1B240EAC12004494860E2
:101D10000846406848602846D8E7000024000020B4
:101D200000800140F0B5014600200022BE4B1B7828
:101D300081F85630BD4B1B88A1F85430BC4B1B6852
:101D40001A0E93090B70C2F383034B7002F0030366
:101D50008B70B74B1B68C3F30742CA70B44B1B8828
:101D6000C3F307220A71B24B1A784A715B681A0EE4
:101D70001301CB80AE4B5B68C3F30742CB8843EAC9
:101D80001213CB8002F00F030B72A94B9B88C3F395
:101D90000722D3094B72C2F380138B72C2F3401334
:101DA000CB72C2F300130B7300234B739E4B1B7853
:101DB0003BB19D4B1B78012B03D09B4B1B78032B16
:101DC0004FD193071B0D0B61994B1A790B6943EAAD
:101DD00082030B61964B9B681A0E0B6943EA9213C0
:101DE0000B61C2F3C2030B7502F007034B75904BF6
:101DF0009B68C3F3074253098B75C2F38203CB750B
:101E000093075B0F0B768A4B1B89C3F307220B7E6C
:101E100043EAD2130B760B695B1C0024C1E9123430
:101E20000B7E9B1C012404FA03F3DC17D1E9125644
:101E3000A5FB037C06FB03C305FB0433C1E9127356
:101E40000C7A0123A3400B650024D1E912650B6DC8
:101E5000A6FB037C05FB03C306FB0433C1E9127335
:101E60002EE0714B1B78022B2AD1714B1A79930605
:101E70009B0A0B616E4B9B681A0E0B6943EA0223A7
:101E80000B616B4B9B68C3F307420B6913430B61F8
:101E9000674B1B89C3F307220B695B1C4FF400746B
:101EA000A3FB04464FF480630025A4FB037C06FBE0
:101EB00003C304FB0533C1E912734FF400730B65D0
:101EC000C2F3801301F8193F93065B0E4B70584B19
:101ED0001A7A4B7843EAD2134B7002F07F038B706F
:101EE000534BDB681A0ED309CB70C2F341130B714D
:101EF000C2F382034B7193071B0F8B714C4BDB6852
:101F0000C3F307428B7943EA92138B71C2F34013F8
:101F1000CB7100230B7202F001034B72444B9B897F
:101F2000C3F30722D3098B72C2F38013CB72C2F3BF
:101F300040130B73C2F300134B73C2F381038B7313
:101F400002F00303CB733A4B1A7B53080B74012343
:101F50004B74384B1B681A0ECA741939354B1B6801
:101F6000C3F307421402CC85324B1B88C3F307220C
:101F7000CB8D1343CB852F4B1A7814060C635B680B
:101F80001A0E0B6B43EA02440C632A4B5B68C3F3E3
:101F900007420B6B43EA02240C63264B9B88C3F376
:101FA00007220B6B13430B63224B1A7934235A54C9
:101FB000204B9B681A0E35235A541E4B9B68C3F363
:101FC000074214068C631B4B1B89C3F307228B6BE0
:101FD00043EA02448C63174B1A7A8B6B43EA022460
:101FE0008C63144BDB681A0E8B6B13438B63114BA2
:101FF000DB68C3F307423C235B5C43EA12143C23D7
:102000005C5413071C0DCC870A4B9B89C3F3072232
:10201000CB8F1343CB87074B1A7B540840235C5468
:10202000012441235C54F0BD24000020280000203E
:10203000CC100020DC1000207CB5002500240121FC
:102040003020FFF791FC012140F20240FFF76CFCC9
:102050004FF4F850ADF8000018208DF8030003206D
:102060008DF8020069463048FEF77AFF0420ADF88B
:10207000000018208DF8030003208DF80200694647
:102080002A48FEF76DFF8020ADF8000048208DF84B
:10209000030003208DF8020069462448FEF760FF24
:1020A000FFF766FD31208DF8040000208DF8050053
:1020B0008DF8060001208DF8070001A8FFF7F0FB5E
:1020C00000F0E4F8044614B900F036F804461CB9F0
:1020D0001748FFF727FE044634B91549B1F85410E4
:1020E000080400F04BFD04461CB90120FFF7E6FD93
:1020F00004461CB10F480078032812D10C4890F810
:10210000560020B10A4890F85600012801D10A254E
:1021100000E004252846FFF703FD002000F046FDFF
:10212000044620467CBD0000001001400014014020
:10213000F01000202400002038B500240120009079
:10214000FFF734FD08B9252038BD4A480078042837
:1021500021D000204849086002204860C0208860E3
:102160000020C8604FF4806008610846FFF748FD12
:10217000FEF738FA04460CB12046E5E73F484069CF
:102180003F4908603D48806948603C48C0698860B4
:102190003A48006AC8603748007858B13548007836
:1021A000012807D033480078062803D0314800784A
:1021B000022816D1002030490860032048604020E2
:1021C00088600020C8604FF4806008610846FFF70F
:1021D00017FD69460320FEF74BFA04460CB1204672
:1021E000B2E724480078032816D1BDF800000004A7
:1021F0002149086003204860402088600020C860B2
:102200004FF4806008610846FFF7FAFCFEF7EAF930
:1022100004460CB1204697E716480078042827D0DA
:10222000BDF8000017490860BDF80000000412491D
:10223000086009204860C02088600020C8604FF412
:10224000806008610846FFF7DBFCFEF7CBF9044627
:102250000CB1204678E7094840690B4908600748F7
:10226000806948600548C06988600448006AC860A1
:10227000002069E724000020A01000200080014019
:10228000DC10002028000020CC1000202DE9F047B1
:102290000027002400260025A046A146B2206C4954
:1022A00008750020086048608860C86008610846BA
:1022B000FFF788FC0320FFF7B9FC0120FFF72AFC99
:1022C00000BF12E000206349086048608860C86071
:1022D0004FF4806008610846FFF792FCFEF73AF978
:1022E000044604B903E0781CC7B24A2FEADB00BFFA
:1022F00014B12046BDE8F0874FF4D5705549086009
:1023000008204860402088600020C8604FF480604A
:1023100008610846FFF774FCFEF7F2F9044624B999
:1023200001204D4908704FF080490020494908605C
:1023300037204860402088600020C8604FF48060EB
:1023400008610846FFF75CFC3720FEF71BF90446DE
:10235000002C4BD134E000203E4908603720486013
:10236000402088600020C8604FF480600861084603
:10237000FFF746FC3720FEF705F904460CB120466E
:10238000B8E7364849EA0000324908602920486029
:10239000402088600020C8604FF4806008610846D3
:1023A000FFF72EFCFEF748F904460CB12046A1E7E2
:1023B0002B484669012080EAD67080F001086D1C28
:1023C000B8F1000F03D14FF6FF708542C3D34FF62B
:1023D000FF70854202D31B2420468BE706F0804025
:1023E000061E32D002201C4908702EE01CE01D4859
:1023F0001849086001204860402088600020C860BB
:102400004FF4806008610846FFF7FAFBFEF714F905
:1024100004460CB120466DE711484669012080EA68
:10242000D67080F001086D1CB8F1000F03D14FF693
:10243000FF708542DBD34FF6FF70854202D31B2429
:10244000204657E7032004490870204652E7000061
:1024500088100020A0100020240000200000108020
:10246000008001400080FF8010B54948406B00F4B7
:10247000807070B347480078012814D10020464985
:1024800008600C204860402088600020C8604FF43D
:10249000806008610846FFF7B3FB0C20FEF772F876
:1024A0003E49087002E000203C4908703848806BC3
:1024B00040F48070364988630846C06B4CF23A316C
:1024C00088433349C8630120354908703348007890
:1024D00010BDFFE70220FFF75DFB68B10220FFF7A8
:1024E00013FB2B48C06B4CF23A3188432849C86330
:1024F00002202A490870EBE70820FFF74BFB68B180
:102500000820FFF701FB2248C06B4CF23A318843A8
:102510001F49C863042021490870D9E72020FFF72C
:1025200039FB68B12020FFF7EFFA1948C06B4CF275
:102530003A3188431649C863062018490870C7E72E
:102540001020FFF727FB68B11020FFF7DDFA1048D5
:10255000C06B4CF23A3188430D49C86305200F49DE
:102560000870B5E74FF40070FFF714FB70B14FF43B
:102570000070FFF7C9FA0648C06B4CF23A31884345
:102580000349C863072005490870A1E700209FE7B9
:10259000008001402D000020A01000202E0000200F
:1025A0002F0000202DE9F84F8146174698460A9CD7
:1025B0004FF0000AD3464D464FF0FF36B9F1000FF9
:1025C00002D12620BDE8F88F00208249C8628248E7
:1025D0000078022805D10402780A40EAC8574FEA79
:1025E000682800207D4988604860401E08600120FE
:1025F00048610020C86008610846FFF7A1FA7548E5
:10260000406900F0007008B10E20DBE7002C21DDEE
:10261000B4F5006F1EDC601E2040D8B9204602F0E1
:1026200055F800906E48046010206D4948604020C5
:1026300088600020C8604FF4806008610846FFF79A
:10264000DFFA1020FDF79EFF8246BAF1000F03D09B
:102650005046B7E72620B5E7009800015F4988603B
:10266000084644604FF0FF300860012048610220B6
:10267000C860002008610846FFF762FA5848076002
:10268000112057494860402088600020C8604FF4FE
:10269000806008610846FFF7B3FA1120FDF772FF6A
:1026A0008246BAF1000F01D050468BE74D480078C2
:1026B00000285AD1FEF75CFD18E04FF40040FFF708
:1026C00069FA78B14FF0000B06E0424880300068AC
:1026D00045F82B000BF1010BBBF1080FF5D32035AA
:1026E000414E03E00EB904206CE7761E3948406B7A
:1026F00040F22A6108400028DFD00820FFF74AFA9C
:1027000020B10820FFF700FA04205BE70220FFF762
:1027100041FA20B10220FFF7F7F9022052E720200A
:10272000FFF738FA20B12020FFF7EEF9062049E73D
:102730004FF40070FFF72EFA28B14FF40070FFF746
:10274000E3F907203EE703E0FFF754FA28602D1D68
:102750004FF40010FFF71EFA0028F5D1FEF70AFD2E
:1027600040F2FF50FFF7D0F931E01E480078012811
:102770002DD1002221464846FFF76CFA00201B4964
:1027800008701B4908701B4908701248C06B40F262
:102790002A3108430F49C8630120FFF7CBF900E055
:1027A000761E1548006800F4005038B911480078CA
:1027B00020B90E48007808B9002EF1D10EB90420D6
:1027C00000E70A48007810B1084890F800A0504689
:1027D000F8E600000080014024000020B410002032
:1027E000A01000202C000020FFFF7F002E00002002
:1027F0002D0000202F000020000402402DE9FE4F94
:1028000083460C46914600200290002625462C4621
:10281000700240EAD5566D020BF00300F0B14FF0A4
:10282000000A18E04FF4007000904FEA4A20471960
:1028300046EBE0733A461648FFF7B4FE02904FF4B9
:10284000007213495846FDF7F1FC0BF5007B0AF1C5
:10285000010000F0FF0ACA45E4DB16E0B9F1010F00
:1028600009D14FF400702A46334600905846FFF7CE
:1028700099FE029009E04FF400702A463346CDE9F4
:102880000009584600F006F802900298BDE8FE8F55
:10289000481100202DE9FF5F17469846DDE90E46F6
:1028A0004FF00009CA464FF0FF35A949009808606B
:1028B0000020A849C862A8480078022805D104026F
:1028C000780A40EAC8574FEA68280020A349886080
:1028D0004860401E0860012048610020C86008610F
:1028E0000846FFF72DF99B48406900F0007018B1C9
:1028F0000E2004B0BDE8F09F002C21DDB4F5006F80
:102900001EDC601E2040D8B9204601F0DFFE834661
:10291000934804601020924948604020886000205D
:10292000C8604FF4806008610846FFF769F910201D
:10293000FDF728FE8146B9F1000F03D04846D8E7DD
:102940002620D6E7012E70D906FB04F0B0F1007FF7
:1029500001D32620CDE74FEA0B108049886006FBA3
:1029600004F048604FF0FF30086001204861022009
:10297000C860002008610846FFF7E2F87848076061
:10298000122077494860402088600020C8604FF4DA
:10299000806008610846FFF733F91220FDF7F2FD69
:1029A0008146B9F1000F01D04846A2E76D48007892
:1029B00000287DD1FEF7DCFB1EE04FF40040FFF75E
:1029C000E9F8A8B14FF0000A08E0624880300068DA
:1029D0005F49096841F82A000AF1010ABAF1080FB3
:1029E000F3D35B4800682030594908605E4D03E02E
:1029F0000DB904207DE76D1E5648406B40F22A3128
:102A000008400028D9D00820FFF7C4F820B10820DA
:102A1000FFF77AF804206CE70220FFF7BBF828B133
:102A20000220FFF771F8022063E78EE02020FFF715
:102A3000B1F820B12020FFF767F8062059E74FF4DE
:102A40000070FFF7A7F828B14FF40070FFF75CF8AB
:102A500007204EE709E0FFF7CDF83D490968086017
:102A60003B480068001D3A4908604FF40010FFF72A
:102A700091F80028EFD14FF48070FFF78BF820B366
:102A80003548007838B134480078012803D03248FE
:102A90000078022819D10020314908600C204860D4
:102AA000402088600020C8604FF48060086100E02A
:102AB00012E00846FFF7A4F80C20FDF763FD8146FD
:102AC000B9F1000F01D0484613E7FEF753FB40F27F
:102AD000FF50FFF719F838E022480078012834D178
:102AE00006FB04F100220098FFF7B4F800201F490C
:102AF000087001201E49087000201E490870154802
:102B0000C06B40F22A3108431249C8630846C06AC4
:102B100040F00800C86200E06D1E1748006800F42D
:102B2000005008B9002DF7D10DB90420E1E600BF2F
:102B30001048007818B90D4800780028F8D00B48E4
:102B4000007810B1094890F800904846D1E600009E
:102B5000300000200080014024000020B41000203C
:102B6000A01000202C000020FFFF7F002E0000207E
:102B70002D0000202F0000200004024010B5044664
:102B80000948046007200849486040208860002008
:102B9000C8604FF4806008610846FFF731F80720ED
:102BA000FDF7F0FC10BD0000A01000200146002041
:102BB000012900D011B9024B197000E0262070479E
:102BC0002C0000202DE9FF5F86B017469846149D23
:102BD0000026002005900490002481460390824640
:102BE00002900195DDF818B0DDF818B0BBF1000FC8
:102BF00003D126200AB0BDE8F09F0020C449C86276
:102C0000C44988604860401E086001204861002077
:102C1000C86008610846FEF793FFBD48406900F0B0
:102C2000007008B10E20E5E7BB480078022805D106
:102C30000502780A40EAC8574FEA6828002D1FDDD0
:102C4000B5F5006F1CDC681E2840C8B9284601F0A5
:102C50003DFD0590B14805601020B0494860402016
:102C600088600020C8604FF4806008610846FEF765
:102C7000C7FF1020FDF786FC06461EB13046B9E7B7
:102C80002620B7E7A64800880004A44908600D2064
:102C90004860402088600020C8604FF48060086170
:102CA0000846FEF7ADFF0D20FDF76CFC06460EB1A1
:102CB00030469FE79648406903904FF0FF341BE091
:102CC000641E974800880004944908600D204860FD
:102CD000402088600020C8604FF48060086108468A
:102CE000FEF78EFF0D20FDF74DFC06460EB1304677
:102CF00080E7874840690390039800F4807008B922
:102D0000002CDDD10CB9292074E784480760182015
:102D100082494860402088600020C8604FF480608D
:102D200008610846FEF76CFF1820FDF72BFC0646ED
:102D30000EB130465EE700207A4908700598000120
:102D400074498860084645604FF0FF3008600120F4
:102D500048610020C86008610846FEF7F1FE4FF0A8
:102D6000FF347148007800287BD1FEF701FA43E078
:102D70004FF48040FEF70EFFC8B30198A0EB0900A6
:102D8000202821D20198A0EB090000F0030020B90F
:102D90000198A0EB0900800804E00198A0EB09006D
:102DA0008008401C02904FF0000A09E0DBF80000A8
:102DB000FEF74AFF0AF1010A0BF1040B09F10409BD
:102DC00002988245F2D30FE04FF0000A05E05BF86D
:102DD0002A00FEF739FF0AF1010ABAF1080FF6D30B
:102DE0000BF1200B09F120096FF0404404E0FFE7EC
:102DF0000CB90420FEE6641E4548406B40F21A619F
:102E000008400028B4D00820FEF7C4FE20B10820F6
:102E1000FEF77AFE0420EDE60220FEF7BBFE20B1AD
:102E20000220FEF771FE0220E4E61020FEF7B2FE5B
:102E300020B11020FEF768FE0520DBE64FF400709D
:102E4000FEF7A8FE30B14FF40070FEF75DFE0720DC
:102E5000D0E606E0FEF78EF940F2FF502C49886379
:102E60003EE03148007801283AD1102229460698E0
:102E7000FEF7F0FE00202D4908702A4908702C4901
:102E800008702348C06B40F21A3108432049C863D8
:102E90000846C06A40F00800C86200E0641E254889
:102EA000006800F4005008B9002CF7D11CB9FFF7F6
:102EB000C3F804209EE64FF0FF3400E0641E1C4877
:102EC000007820B91948007808B9002CF6D10CB95F
:102ED00004208FE61548007810B11448007889E680
:102EE00040F2FF50FEF710FE04A8FEF745F9064633
:102EF00003E004A8FEF740F906463EB99DF810002D
:102F00000728F6D09DF810000628F2D0304671E66A
:102F100000800140B410002024000020A0100020F8
:102F2000280000202D0000202C0000202E00002072
:102F30002F000020000402402DE9FE4F81460C4680
:102F4000924600200290002625462C46700240EA58
:102F5000D5566D0209F00300F0B14FF0000B18E0F8
:102F60004FF4007249461948FDF760F94FF40070BC
:102F700000904FEA4B20471946EBE0733A4613485E
:102F8000FFF720FE029009F500790BF1010000F037
:102F9000FF0BD345E4DB16E0BAF1010F09D14FF482
:102FA00000702A46334600904846FFF70BFE029019
:102FB00009E04FF400702A463346CDE9000A48463E
:102FC00000F006F802900298BDE8FE8F481100203C
:102FD0002DE9FF5F84B0DDE9124700260020039051
:102FE0000290002580468146019007FB04FBDDF836
:102FF00010A0DDF810A0BAF1000F03D1262008B010
:10300000BDE8F09F0020D849C862D8498860486070
:10301000401E0860012048610020C8600861084621
:10302000FEF78EFDD048406900F0007008B10E2018
:10303000E5E7CF480078022808D10402DDE906015F
:10304000400A40EAC1504912CDE90601002C1FDDBB
:10305000B4F5006F1CDC601E2040C8B9204601F0AA
:1030600035FB0390C34804601020C24948604020EB
:1030700088600020C8604FF4806008610846FEF751
:10308000BFFD1020FDF77EFA06461EB13046B6E7BA
:103090002620B4E7012F6FD907FB04F0B0F1007FC1
:1030A00001D32620ABE7B248007838B1B0480078A9
:1030B000012803D0AE48007802282DD1AE48008800
:1030C0000004AC4908603720486040208860002038
:1030D000C8604FF4806008610846FEF791FD372014
:1030E000FDF750FA06460EB1304688E7A148076062
:1030F0001720A0494860402088600020C8604FF435
:10310000806008610846FEF77BFD1720FDF73AFA5C
:1031100006460EB1304672E79649069808601920B7
:103120004860402088600020C8604FF480600861DB
:103130000846FEF765FD1920FDF724FA06460EB194
:1031400030465CE7039800018849886007FB04F07B
:1031500048604FF0FF300860012048610020C860DF
:1031600008610846FEF7ECFC84480078002871D11D
:10317000451EFDF7FDFF40E0DEE07B48406B00F4BC
:103180008040A8B3ABEB080020281ED2ABEB0800B0
:1031900000F0030018B9ABEB0800800803E0ABEBCC
:1031A00008008008401C01904FF0000909E0DAF89F
:1031B0000000FEF749FD09F101090AF1040A08F1CE
:1031C000040801988145F2D30FE04FF0000905E0B3
:1031D0005AF82900FEF738FD09F10109B9F1080F85
:1031E000F6D30AF1200A08F120086FF0404504E008
:1031F000FFE70DB9042002E76D1E5B48406B40F20B
:103200001A3108400028B8D00820FEF7C3FC20B1CE
:103210000820FEF779FC0420F1E60220FEF7BAFC54
:1032200020B10220FEF770FC0220E8E61020FEF735
:10323000B1FC20B11020FEF767FC0520DFE64FF45B
:103240000070FEF7A7FC30B14FF40070FEF75CFC95
:103250000720D4E62CE04FF48070FEF79BFC00B30F
:103260004348007838B142480078012803D04048EC
:103270000078022815D100203E4908600C204860E3
:10328000402088600020C8604FF4806008610846D4
:10329000FEF7B6FC0C20FDF775F906460EB1304678
:1032A000ADE6FDF767FF40F2FF50FEF72DFC43E06F
:1032B0003248007801283FD107FB04F1102204981E
:1032C000FEF7C8FC00202E49087001202D49087027
:1032D00000202D4908702448C06B40F21A31084381
:1032E0002149C8630846C06A40F00800C8624FF030
:1032F000FF3500E06D1E2548006800F4005008B955
:10330000002DF7D11DB9FEF797FE042077E64FF0A8
:10331000FF3500E06D1E1C48007820B91848007881
:1033200008B9002DF6D10DB9042068E614480078DC
:1033300010B11348007862E640F2FF50FEF7E4FB5C
:1033400002A8FDF719FF064603E002A8FDF714FFE7
:1033500006463EB99DF808000728F6D09DF80800FB
:103360000628F2D030464AE600800140B410002022
:1033700024000020A0100020280000202C000020A5
:103380002E0000202D0000202F000020000402400D
:1033900000B587B001210820FEF7E6FA0121880375
:1033A000FEF7D2FA4FF46040ADF8180018208DF8FF
:1033B0001B0003208DF81A0006A91648FDF7D0FD62
:1033C0000020ADF804004FF48270ADF80600002034
:1033D000ADF808000220ADF80A000120ADF80C009D
:1033E0004002ADF80E003820ADF810000020ADF816
:1033F00012000720ADF8140001A9074800F058F8A2
:103400000121054800F03AF8FF2000F007F807B066
:1034100000BD0000000C01400038004010B504461B
:1034200000BF02210A4800F035F80028F9D02146F3
:10343000074800F03BF800BF0121054800F02AF8DA
:103440000028F9D0024800F02EF8C0B210BD0000EC
:103450000038004010B50446074800884FF6C77191
:10346000084005490880084600882043088001215B
:10347000014800F003F810BD0038004021B1028877
:1034800042F04002028004E002884FF6BF731A4007
:10349000028070470246002013890B400BB10120C7
:1034A00000E000207047014688897047818170479D
:1034B00010B50022028802F441520B884C88234345
:1034C0008C882343CC8823430C8923434C89234392
:1034D0008C892343CC8923431A430280838B4FF288
:1034E000FF74234083830B8A038210BD704710B59D
:1034F00000F002F810BD00000CB500200190009013
:103500003348006840F480303149086000BF3048DB
:10351000006800F4003000900198401C0190009871
:1035200018B90198B0F5A06FF1D12948006800F4EE
:10353000003010B10120009001E0002000900098C0
:10354000012843D12348006840F010002149086059
:103550000846006820F0030008600846006840F054
:10356000020008601A4840681949486008464068E7
:1035700048600846406840F48060486008464068FB
:1035800020F47C1048600846406840F4E810486029
:103590000846006840F08070086000BF0C48006872
:1035A00000F000700028F9D00948406820F00300BE
:1035B000074948600846406840F00200486000BF84
:1035C0000348406800F00C000828F9D10CBD000049
:1035D0000010024000200240042808D14FF0E021F2
:1035E000096941F004014FF0E022116107E04FF05A
:1035F000E021096921F004014FF0E02211617047D8
:103600007047000010B504466FF00400FFF7E4FFB8
:10361000E11704EB5171C1F3C701074A117010465D
:10362000007800EB4001C1EBC0104FF6FF7101EADA
:10363000C0000249088010BD340000203600002080
:1036400010B51348006840F00100114908600846B1
:103650004068104908400E494860084600680E4915
:1036600008400B4908600846006820F48020086084
:103670000846406820F4FE0048604FF41F00886050
:10368000FFF735FF4FF000600449086010BD0000EF
:10369000001002400000FFF8FFFFF6FE08ED00E01A
:1036A00000B59DB001210802FEF73EF90120079008
:1036B000002008900F20099000200A900B900C9099
:1036C0000D9015200090019005200290002003909D
:1036D00004900590069006200E9000200F90109008
:1036E00010201190002012901490139015901690B5
:1036F0004FF480501790002018904FF4804019909C
:1037000000201A9007A81B90CDF870D00EA8FDF7E6
:10371000E9FA01210620FDF7CBFA1DB000BD00003B
:1037200008B501214FF4B470FEF71EF94CF2337066
:10373000ADF8000018208DF8030003208DF802007A
:1037400069461848FDF70CFC4FF68070ADF8000094
:1037500018208DF8030003208DF8020069461248F6
:10376000FDF7FEFB41F20100ADF8000018208DF8D6
:10377000030003208DF8020069460C48FDF7F0FBBA
:103780000120ADF8000010208DF8030003208DF813
:10379000020069460648FDF7E3FB01200549086081
:1037A00008BD000000140140001801400020014045
:1037B000000C01408081214210B5FFF7B1FFFFF7F7
:1037C0006FFF322001F08EFAD020FEF72BF8FDF7C4
:1037D00043FE89498880FDF73FFE87498880084677
:1037E000818886A000F098FA1120FEF71BF84FF4AC
:1037F000FA7401E0601E84B2002CFBDCB920FEF7F5
:1038000011F8FF20FEF714F88320FEF711F8572077
:10381000FEF70EF84FF4FA7401E0601E84B2002C3B
:10382000FBDCB120FDF7FEFF0020FEF701F81420BD
:10383000FDF7FEFF1C20FDF7FBFF1C20FDF7F8FF46
:10384000C320FDF7F5FF4420FDF7F2FF7020FDF7E0
:10385000EFFF4FF4FA7401E0601E84B2002CFBDC31
:10386000B420FDF7DFFF2220FDF7E2FF4020FDF747
:10387000DFFF0020FDF7DCFF2A20FDF7D9FF2A201B
:10388000FDF7D6FF2020FDF7D3FF9120FDF7D0FFF5
:103890004FF4FA7401E0601E84B2002CFBDC362089
:1038A000FDF7C0FF4C20FDF7C3FFC020FDF7BAFFB6
:1038B0005020FDF7BDFF5020FDF7BAFF0120FDF7B6
:1038C000B7FF3C20FDF7B4FFC820FDF7B1FF08208B
:1038D000FDF7AEFF0020FDF7ABFF0820FDF7A8FFC6
:1038E0000420FDF7A5FF4FF4FA7401E0601E84B2D6
:1038F000002CFBDC4FF4FA7401E0601E84B2002C53
:10390000FBDCE020FDF78EFF0B20FDF791FF11207F
:10391000FDF78EFF1E20FDF78BFF3020FDF788FF9F
:103920003A20FDF785FF4320FDF782FF4E20FDF78B
:103930007FFF5620FDF77CFF4520FDF779FF3F20F4
:10394000FDF776FF3920FDF773FF3220FDF770FF9A
:103950002F20FDF76DFF2A20FDF76AFF2920FDF7D4
:1039600067FF2120FDF764FF0B20FDF761FF1120A9
:10397000FDF75EFF1E20FDF75BFF3020FDF758FFCF
:103980003A20FDF755FF4320FDF752FF4E20FDF78B
:103990004FFF5620FDF74CFF4520FDF749FF3F2024
:1039A000FDF746FF3920FDF743FF3220FDF740FFCA
:1039B0002F20FDF73DFF2A20FDF73AFF2920FDF7D4
:1039C00037FF2120FDF734FF0020FDF731FF0120F4
:1039D000FDF72EFF3A20FDF725FF0520FDF728FF14
:1039E0002920FDF71FFF0020FDF7D6FC4FF6FF70E2
:1039F000FDF77EFC10BD000018000020204C434461
:103A00002049443A25780D0A0000000010B540F224
:103A100025511D4800F0B8F810B31B4800F070F9AC
:103A2000C4B21A48008800F40040C8B9174800889A
:103A300000F4804060B10A2C03D0002013490880B4
:103A400020E01248008840F400401049088019E046
:103A50000D2C06D10D48008840F480400B490880A9
:103A600010E00A480088C0F30D0009490C540748CB
:103A70000088401C0549088008460088C72801DDE9
:103A80000020088010BD00000038014038000020F0
:103A90004813002010B586B0044601210420FDF72C
:103AA00063FF01218803FDF75FFF4FF40070ADF85D
:103AB000140003208DF8160018208DF8170005A9B2
:103AC0001E48FDF74DFA4FF48060ADF81400042055
:103AD0008DF8170005A91948FDF742FA0194002056
:103AE000ADF80800ADF80A00ADF80C00ADF8100014
:103AF0000C20ADF80E0001A9114800F095F8012145
:103B00000F4800F028F840210D4800F01BF8012272
:103B100040F225510A4800F061F825208DF8000098
:103B200003208DF801008DF8020001208DF80300BC
:103B30006846FDF7B5FE06B010BD00000008014064
:103B40000038014001F40072B2F5007F00D100BFDF
:103B5000CA430280704721B1828942F400528281B7
:103B600004E082894DF6FF731A4082817047024655
:103B70000020B1F5007F00D100BF13880B400BB1CE
:103B8000012000E00020704770B5024600240023A9
:103B90000025002040F66A16B14200D100BFC1F3F3
:103BA000421501F01F03012606FA03F3012D02D18D
:103BB0009689334006E0022D02D1168A334001E097
:103BC000968A33400C12012606FA04F41688344013
:103BD00013B10CB1012000E0002070BDF0B5034628
:103BE000002400260025002040F66A17B94200D1C3
:103BF00000BF1846C1F3421401F01F06012707FA5F
:103C000006F5012C01D10C3004E0022C01D110305A
:103C100000E014301AB107682F43076002E007681C
:103C2000AF430760F0BD00002DE9F04786B00546C0
:103C30000E460024A24600BFA1460027B08900B16D
:103C400000BF2F462C8A4CF6FF700440F0880443D6
:103C50002C82AC894EF6F3100440B08831890843B9
:103C6000718908430443AC81AC8A4FF6FF4004409D
:103C7000B0890443AC8201A8FDF786FE1F48874245
:103C800002D1DDF810A001E0DDF80CA0A88900F455
:103C9000004040B10AEBCA0000EB0A10316849004D
:103CA000B0FBF1F807E00AEBCA0000EB0A1031683C
:103CB0008900B0FBF1F86420B8FBF0F004012009A2
:103CC000642101FB1089A88900F4004040B1322032
:103CD00000EBC900B0FBF1F000F00700044308E07E
:103CE000322000EB09106421B0FBF1F000F00F006E
:103CF00004432C8106B0BDE8F08700000038014085
:103D000001468888C0F308007047C1F3080282802A
:103D1000704700BFFEE700000FB4054B10B503A9C4
:103D2000044A029800F018F810BC5DF814FB00007B
:103D30001D6B00088000002002E008C8121F08C1A7
:103D4000002AFAD170477047002001E001C1121F1C
:103D5000002AFBD1704700002DE9FF4F8DB09B4634
:103D60000F460446002606E025280BD05A460F9938
:103D70009047641C761C20780028F5D111B030469D
:103D8000BDE8F08F0025A8460122984900E00543D0
:103D900014F8013F203B02FA03F00842F7D12078E3
:103DA0002E2817D114F8010F45F004052A280ED04B
:103DB0006FF02F022078A0F1300109290AD808EB12
:103DC000880102EB410100EB0108641CF2E757F89F
:103DD000048B641C20786C280DD004DC4C2812D095
:103DE0006A2811D104E074280DD07A280CD10AE099
:103DF00045F4001507E0617845F48015814202D151
:103E0000641C05F58015641C2278692A45D008DCFD
:103E1000002AB3D0582A69D0632A10D0642A08D166
:103E20003BE0702A67D0732A13D0752A5CD0782AB9
:103E30005CD010465A460F999047761CD3E017F88D
:103E4000040B8DF8000000208DF80100E9460120E8
:103E500003E057F8049B4FF0FF3069074FF000056F
:103E600001D40AE06D1C45450DDA8542FADB19F8EC
:103E700005100029F6D106E06D1C8542FCDB19F81F
:103E800005100029F8D12E4404E019F8010B5A4618
:103E90000F9990476D1EF8D2A5E00A200021CDE9C8
:103EA0000801C5F3025002280DD001CFC117031E2F
:103EB00071F100030DDA4FF0000CD0EB0C006CEB4D
:103EC00001012D2308E0FF1D27F00707F7E8020195
:103ED000EDE72B0504D52B238DF8283001233BE09B
:103EE000EB0739D02023F7E70A2000E0102000215B
:103EF000CDE9080107E01020002145F00405CDE9D7
:103F000008014FF00808C5F3025002280FD001CF76
:103F100000214FF0000A2B071FD5702A0DD0DDE9D4
:103F200008C38CF0100C5CEA030C0CD015E0FF1DEC
:103F300027F00707F7E80201EBE740228DF8282079
:103F40004FF0010A0BE050EA010306D030238DF850
:103F500028308DF8292002239A46582A04D024A21A
:103F60000DF120090B9209E026A2F9E7DDE908230B
:103F7000FCF7FAF80B9B9B5C09F8013D50EA010243
:103F8000F4D1ADEB090020300890680701D44FF060
:103F900001080899884502DDA8EB010000E0002037
:103FA0008046002506E00AA85A46405D0F999047D2
:103FB0006D1C761C5545F6DB04E030205A460F99FF
:103FC0009047761CB8F10001A8F10108F5DC05E086
:103FD00019F8010B5A460F999047761C0899481E0C
:103FE00008900029F4DC641CC5E6000009280100E3
:103FF000303132333435363738396162636465665F
:104000000000000030313233343536373839414220
:1040100043444546000000002DE9F84F40494868F8
:10402000FCF701FA06463E494869FCF7FCF90746E9
:104030003146FCF7BAF9044639498868FCF7F3F9C8
:10404000064637490869FCF7EEF907463146FCF7A2
:10405000ACF9054629462046FCF7FEF900D2254674
:104060004FF07E512846FCF701FA01D24FF07E5501
:104070002B494868FCF7D7F983462946FCF763F9D2
:10408000814627494869FCF7CEF949460090FCF77C
:1040900054F980464FF08041FCF787F907462049E4
:1040A0008869FCF7C0F982463946FCF7F4F8064601
:1040B000FCF7BEF91A4988618868FCF7B4F98346B1
:1040C0002946FCF740F9814615490869FCF7ABF928
:1040D00082464946FCF731F980464FF08041FCF7B3
:1040E00064F907460E49C869FCF79DF93946009006
:1040F000FCF7D1F80646FCF79BF90949C8614FF077
:104100008C412846FCF71FF905462846FCF790F934
:104110000349C8604FF6FF7008624862BDE8F88F37
:10412000D4BF002002460020CB1C23F00301136FF4
:104130008B4205D3136F5B1A1367D06E4318D36697
:1041400070472DE9F05F04468846267B276865683E
:1041500095F800A000208346814600BF36BB67B9B2
:10416000A5684FF4806229462046636F984707464A
:1041700027B96FF00100BDE8F09F6D1C7F1EBBF1F9
:10418000000F0AD04FF0000B287810B16FF0050037
:10419000F1E7FF208246287007E095F800A0BAF109
:1041A000FF0F02D14FF0010B0BE080264FEA4909C7
:1041B0000AEA060008B109F101097610A8F1010820
:1041C00000BFB8F1000FC9D126732760656048466B
:1041D000D1E700002DE9F04F87B00C464FF4B55BF6
:1041E000CDF818B041F2511BCDF814B042F6CF1BF8
:1041F000CDF810B041F6905BCDF80CB04FF0000B4D
:10420000CDF800B080E0D0F800C0D0F84080D0F801
:104210008090D0F8C0100CEB090AACEB090BCDF87C
:1042200008B0A8EB010B4FF4B55E0BFB0EFB4FEA99
:104230002B3741447F1A0AEB010CAAEB0101DDF890
:1042400008B007EB0B08DDF808B0ABEB0709D0F8B6
:10425000E050036AD0F8A060026EA3EB050A5F1974
:10426000A6EB020BCDF808B03244A7EB020B0BFB18
:104270000EFB4FEA2B333A44DDF808B0D34441F645
:10428000905E0BFB0EFB4FEA2B3BCDF804B041F2E6
:10429000511B0AFB0BFEDDF804B0ABEB2E3542F6EA
:1042A000CF1EDDF808B00BFB0EFEDDF804B0ABEB63
:1042B0002E3BABEB02069B1BED1A0CEB020BC0F87E
:1042C00000B0ACEB020BC0F8E0B008EB060BC0F896
:1042D00020B0A8EB060BC0F8C0B009EB030BC0F888
:1042E00040B0A9EB030BC0F8A0B001EB050BC0F880
:1042F00060B0A1EB050BC0F880B0001DDDF800B088
:104300000BF1010BCDF800B0DDF800B0BBF1080FE8
:10431000FFF479AF20384FF0000BCDF800B0A2E0E9
:10432000D0F800B00BF5004CD0F80880D0F8109011
:1043300081690CEB090AACEB090BCDF808B0A8EBCE
:10434000010B4FF4B55E0BFB0EFB4FEA2B374144DC
:104350007F1A0AEB010CAAEB0101DDF808B007EBAC
:104360000B08DDF808B0ABEB0709C569436846697F
:10437000C268A3EB050A5F19A6EB020BCDF808B0E3
:104380003244A7EB020B0BFB0EFB4FEA2B333A44F4
:10439000DDF808B0D34441F6905E0BFB0EFB4FEA0C
:1043A0002B3BCDF804B041F2511B0AFB0BFEDDF8AC
:1043B00004B0ABEB2E3542F6CF1EDDF808B00BFB98
:1043C0000EFEDDF804B0ABEB2E3BABEB02069B1B05
:1043D000ED1A0CEB020BCBF3092BDFF89CE01EF877
:1043E0000BB084F800B0ACEB020BCBF3092B1EF83A
:1043F0000BB084F807B008EB060BCBF3092B1EF8C3
:104400000BB084F801B0A8EB060BCBF3092B1EF818
:104410000BB084F806B009EB030BCBF3092B1EF8A5
:104420000BB084F802B0A9EB030BCBF3092B1EF8F9
:104430000BB084F805B001EB050BCBF3092B1EF88C
:104440000BB084F803B0A1EB050BCBF3092B1EF8DE
:104450000BB084F804B008342030DDF800B00BF164
:10446000010BCDF800B0DDF800B0BBF1080FFFF490
:1044700057AF07B0BDE8F08F38EF00082DE9F047DF
:1044800004460D4690469946AD1EE06A00EB153A8B
:10449000C5F3C80605F0070101208840C7B200BF78
:1044A00051460AF1010A204604F0EAFE10B101204B
:1044B000BDE8F08700BF00BF04F13400805D3840E4
:1044C00008B1012000E00020484501D10220EFE7BB
:1044D00004F13400805D784004F1340188550120F6
:1044E000E070A8F10100B0F1000800D1E0E7780623
:1044F000000E071EE0D10127701C0646B0F5007FB4
:10450000D9D3CDE70146412901DA08467047612930
:1045100003DBA1F12000C0B2F8E70846F6E700008F
:1045200070B504460D460020E070401E2063294609
:10453000204604F0A5FE08B1042070BD04F232202C
:1045400004F0F2F84AF65521884201D00320F4E73E
:1045500004F16A0004F0ABF820F07F400D49884276
:1045600001D10020E9E704F1860004F0A0F820F072
:104570007F400849884201D10020DEE7082206A1D9
:1045800004F1370004F054FE08B90120D5E70220F9
:10459000D3E70000464154004558464154202020AE
:1045A00000000000024600E0521C107810B11078A4
:1045B0008842F9D1107870472DE9F84F82461546A8
:1045C0001E46DAF800000090DAF8480000F104090D
:1045D0004FF40072002328463146FBF7C5FD07461D
:1045E0000098B0F80AC0624600233846FBF7BCFDCD
:1045F000834600BF59F8044B14B90020BDE8F88F7A
:10460000A34500D204E0ABEB040B09F10409F1E788
:1046100000BFD9F800005844F0E70246891E9069AF
:10462000801E884201D8002070475389D06A01FB60
:104630000300F9E72DE9F04780460C4604F11A0023
:1046400004F072F810B10020BDE8F087207800F087
:104650003F00401E00EB800101EBC0054FF0010957
:10466000002621E01849895D081904F05DF8074625
:10467000B9F1000F11D0FF2D0BD2384601F004FF25
:10468000824629466D1C38F8110001F0FDFE824576
:1046900001D00020D8E7B94605E04FF6FF70874209
:1046A00001D00020D0E7761C0D2EDBD3207800F05F
:1046B000400038B1B9F1000F04D038F8150008B146
:1046C0000020C1E70120BFE70CE9000801460020F7
:1046D00002E04910421CD0B20129FAD170472DE9FD
:1046E000F04707468A463C68BAF1000F06D12669B2
:1046F00016B1A069B04217D8012615E051463846D8
:1047000002F084FA8046B8F1020F02D20120BDE81F
:10471000F08708F1010008B94046F8E7A069404574
:1047200001D94046F3E75646207804282ED10122CD
:104730003146204601F0DFFE05460DB1681C08B980
:104740002846E4E701231A4629462046FFF796FE4D
:104750008146B9F1020F01D10120D8E7B9F1010F6B
:1047600002D14FF0FF30D2E7BAF1000F02D10220A0
:10477000F8712CE0F879022829D1701C854226D0E6
:10478000B868301AB8610320F87120E0354600BFE0
:104790006D1CA069A84204D80225B54201D90020A9
:1047A000B5E72946384602F031FA8046B8F1000FE5
:1047B00000D10BE0B8F1010F02D008F1010008B9F7
:1047C0004046A4E7B542E3D10020A0E700BF20782F
:1047D000042805D1F879022802D14FF0000912E02F
:1047E0004FF0FF322946204604F07AFF8146B9F1A6
:1047F000000F08D1BAF1000F05D02A4651462046D5
:1048000004F06EFF8146B9F1000F0DD12561D4E9A6
:104810000510801E814202D26069401E60612079CD
:1048200040F00100207107E0B9F1010F02D14FF013
:10483000FF3000E001200546284668E72DE9F74FE4
:1048400086B00D4616468EE0112E03D2062009B022
:10485000BDE8F08F113E15F801AB4FEA2A190AF0B6
:104860000F0003900AF0EE0008B10620EFE71021D8
:104870000698FFF757FC8046B8F1000F01D10320DE
:10488000E5E706982430039900EBC10040F8298041
:1048900000200446074607E015F8010B049008F8CD
:1048A000040004980744641C102CF5D37900069882
:1048B000FFF738FC8346BBF1000F01D10320C6E7A8
:1048C00006983430039900EBC10040F829B000206D
:1048D00001900446059019E018F80400049009E0DE
:1048E0000598421C019905922BF810100198401C64
:1048F00080B201900498411E04910028F0D14FF637
:10490000FF71019801EA40000190641C102CE3D370
:10491000BE4201D206209AE7F61B39460698FFF7F9
:1049200001FC0290029808B9032090E706984430F1
:10493000DDE9021200EBC20040F82910002410E06B
:1049400015F801ABB9F1000F04D1BAF10B0F01DD7D
:1049500006207CE7029880F800A00298401C029094
:10496000641CBC42ECD3002E7FF46EAF00206EE7D7
:104970002DE9F34F83B08146049800680190D9F87F
:1049800040A000200646054600BF28466D1C019940
:104990000C5C202C03DB2F2C01D05C2C0AD100E016
:1049A0006D1C0198405D2F28FAD00198405D5C286D
:1049B000F6D032E0FF2E03D3062005B0BDE8F08F1D
:1049C000E4B2812C13DBE0B2FE2810DC28466D1C1B
:1049D00001990F5C07EB042084B2402F01DB7E2F8E
:1049E00005DD802F01DBFE2F01DD0620E5E701213B
:1049F000204601F0EFFC04460CB90620DDE7802CD0
:104A000006DA214671A0FFF7CDFD08B10620D4E7F4
:104A10003046761C2AF81040B7E700BF01984119CC
:104A200004980160202C01DA042000E00020804678
:104A300008E0701E3AF81040202C02D02E2C00D036
:104A400002E0761E002EF4D100BF00202AF81600E6
:104A50000EB90620B1E70B222021D9F8380004F066
:104A600006FC002500E06D1C3AF815002028FAD05D
:104A70003AF815002E28F6D00DB148F0030800E0F2
:104A8000761E26B1701E3AF810002E28F8D10020AC
:104A9000074602904FF0080B00BF28466D1C3AF8FD
:104AA000104004B963E0202C03D02E2C04D1B54271
:104AB00002D048F00308F0E70298584501D2B54209
:104AC00014D1BBF10B0F02D148F003084FE0B542FF
:104AD00001D048F00308B54200D948E03546082027
:104AE00002904FF00B0BB806070ED6E7802C09DBBF
:104AF000204601F0C9FC0021009001F06BFC044647
:104B000048F00208FF2C11DDABF101000299884248
:104B100004D848F00308CDF808B0BEE72212D9F84F
:104B200038300298411C02911A5419E024B12146F0
:104B300029A0FFF737FD18B15F2448F003080FE004
:104B4000412C04DB5A2C02DC47F0020708E0612C00
:104B500006DB7A2C04DC47F00107A4F1200084B2C4
:104B6000D9F838300298411C02911C5495E700BFD7
:104B7000D9F838000078E52803D10520D9F8381095
:104B80000870BBF1080F01D1B806070E07F00C0042
:104B90000C2803D007F00300032801D148F00208D5
:104BA00008F0020058B907F00300012801D148F0CD
:104BB000100807F00C00042801D148F00808D9F8C3
:104BC000380080F80B800020F7E60000222A3A3CEB
:104BD0003E3F7C7F000000002B2C3B3D5B5D0000D6
:104BE0002DE9F04782460C4616462BE0412E02D2B4
:104BF0000620BDE8F087413E14F8018B08F0F00074
:104C000008B10620F5E708F003074FF4807150461D
:104C1000FFF788FA05460DB90320EAE70AF15400C8
:104C200040F8275000270BE0084810F8079014F8C8
:104C3000010B074931F81910484345F829007F1C3A
:104C4000402FF1D3002ED1D10020D2E778EE00081A
:104C5000B8EE00082DE9F04704460E464022002138
:104C6000204604F004FB85202070C02084F820003A
:104C7000304605F08CF98246514604F1240004F0D8
:104C80001AFF402500274FF001084FF0010900BF2F
:104C9000C12228466D1C2254002228466D1C225435
:104CA00000BFB9F1000F06D036F81700B0F10009C7
:104CB00001D0781CC7B26019494604F0FCFEAD1C57
:104CC00005F01F000028ECD108F1010000F0FF08FA
:104CD00036F817000028DBD184F8237084F80180AF
:104CE000BDE8F0870146114A12884A434FF0E0239D
:104CF0005A6100229A611A46126942F001021A6151
:104D000000BF4FF0E022106900F001021AB100F478
:104D10008032002AF5D04FF0E022126922F0010221
:104D20004FF0E0231A6100229A617047360000209C
:104D30002DE9F04104460E46D4F8008000212046BB
:104D400000F01CFB05465DBB002700BF4046216B01
:104D500004F096FA054605B121E098F80000042811
:104D600005D1606B0078012121EAD01009E0606B69
:104D70000078E52802D0606B007808B9012000E0D7
:104D8000002020B1781C0746B04201D107E000277F
:104D90000121204600F0DAF80546002DD6D000BFEC
:104DA000042D00D107252846BDE8F0812DE9F04FFC
:104DB00085B0044626680021204600F0DFFA074649
:104DC0001FB1384605B0BDE8F08F307804284CD1CB
:104DD000206C05F0DCF801903EE0F16801F1240060
:104DE00003F0A2FC0199884200D035E0F06890F809
:104DF000230003904FF0400A002002901FE00AF0C9
:104E00001F0008B90AF1020AF16801EB0A0003F079
:104E10008BFC009001F038FB8346226C029932F83B
:104E2000110001F031FB834500D00BE00398401ED8
:104E3000C0B203900AF1020A0298401C0290039843
:104E40000028DCD100BF039828B9216C029831F802
:104E5000100000B906E000BF0021204600F006F96E
:104E6000071EBAD000BF3846ACE74FF0FF09CDF8B7
:104E700010904FF0FF30E06300BF3046216B04F02C
:104E8000FFF9074607B15EE0606B05780DB90427AE
:104E900059E0606BC07A00F03F0884F80680E52D89
:104EA00005D008F0080040B1B8F10F0F05D04FF061
:104EB000FF094FF0FF30E0633EE0B8F10F0F1FD164
:104EC000206C98B305F0400038B1606B407B0490D3
:104ED00025F04005A946A06AE0634D450CD1606B02
:104EE000417B0498814207D1616B206CFFF7A2FBE4
:104EF00010B1A9F1010000E0FF2000F0FF091BE064
:104F0000B9F1000F06D1606B04F081FF049988426B
:104F100000D118E0A06BC07A00F0010038B90B2274
:104F2000D4E90D0104F084F908B90CE004E04FF075
:104F3000FF094FF0FF30E0630021204600F006F843
:104F40000746002F99D000BF38463BE72DE9F047D0
:104F5000044689462568A06A00F12007206B40B10D
:104F60002878042801D1800601E04FF40010B842EF
:104F700002D80420BDE8F087C7F3080000286CD1F0
:104F8000206B401C2063E06A38B92889B0EB571FBA
:104F900063D8002020630420ECE76889401E00EA03
:104FA0005720002859D12046E16A01F02FFE06461D
:104FB000012E01D80220DDE7701C08B90120D9E7D5
:104FC000A869B04243D8B9F1000F03D10020206393
:104FD0000420CFE72046E16AFFF781FB06460EB9C1
:104FE0000720C7E7012E01D10220C3E7701C08B9D2
:104FF0000120BFE7E07940F00400E071284604F0AA
:105000005FFF08B10120B5E74FF40072002105F100
:10501000340004F02CF94FF0000831462846FFF721
:10502000FCFA28630CE00120E870284604F048FFF1
:1050300008B101209EE708F10108286B401C286395
:1050400068894045EFD8286BA0EB08002863E6622A
:1050500031462846FFF7E1FA2063A762C7F308014B
:1050600005F1340008446063002083E72DE9F05F18
:1050700004460F460426D4F800804FF0FF0AD346BA
:105080006CE04046216B04F0FBF8064606B168E090
:10509000606B05780DB9042663E098F800000428D9
:1050A00013D117B1832D52D15BE0852D4FD1A06A6A
:1050B000E063204603F05CFB06462EB9D8F80C00EE
:1050C000007900F03F00A0714BE0606BC07A00F007
:1050D0003F0984F80690E52D0AD02E2D08D029F03E
:1050E0002000082801D1012000E00020B84202D0B1
:1050F0004FF0FF0A2BE0B9F10F0F1CD105F0400073
:1051000038B1606B90F80DB025F04005AA46A06A52
:10511000E06355450BD1606B407B584507D1616B0F
:10512000206C04F039FA10B1AAF1010000E0FF2070
:1051300000F0FF0A0BE0BAF1000F04D1606B04F03D
:1051400066FE584502D04FF0FF30E06309E00021D1
:105150002046FFF7FBFE064606B102E0206B002862
:105160008FD100BF0EB1002020633046BDE8F09F14
:105170002DE9F04F99B004462668D4F838A0D4F849
:1051800040B09AF80B0000F0A00018B1062019B04A
:10519000BDE8F08F4FF0000901E009F101093BF88B
:1051A00019000028F9D1307804285DD109F10E00EA
:1051B0000F21B0FBF1F0871C39462046FFF7B8FD00
:1051C00005460DB12846E2E7781E2022A16A02FBBF
:1051D0001010E063E07900F0040000283ED0E07990
:1051E00000F00300E07171894902D4E904305918D4
:1051F00040F10000C4E90410204601F061F90546C1
:105200000DB12846C3E7214602A803F093FA0546EC
:105210000DB12846BBE7D4E90412CDE90012F168CC
:1052200001F13800DDE9002304F017FCD4E9041291
:10523000CDE90012F16801F12800DDE9002304F056
:105240000CFCE07940F00100F16881F8210002A82F
:1052500004F0A6FD05460DB1284698E75946F068CA
:10526000FFF7F8FC002092E70C22514615A803F046
:10527000F1FF9DF85F0000F0010038B300208AF8CC
:105280000B0020644FF001080DE043465A4615A973
:10529000504601F055FC2046FFF788FD054605B154
:1052A00004E008F10108B8F1640FEED300BFB8F1D3
:1052B000640F01D107206AE7042D01D0284666E774
:1052C0009DF85F008AF80B00C4F840B09DF85F00BD
:1052D00000F0020030B109F10C000D21B0FBF1F03B
:1052E000401C00E00120074639462046FFF720FD1C
:1052F000054645BB781E071E25D0A06AA0EB4711C6
:10530000204600F03BF80546EDB9A06B04F07FFDA8
:10531000149000BF3046216B03F0B2FF054605B183
:1053200010E0FAB2616B206C149B04F07BFA012050
:10533000F07000212046FFF709FE054615B9781EDA
:10534000071EE7D100BFBDB93046216B03F098FFBF
:1053500005468DB920220021606B03F088FF0B22E7
:10536000D4E90D0103F076FFA06BC07A00F01800BD
:10537000616B08730120F070284608E72DE9F041C1
:1053800004460D4626683078042801D1800601E0E5
:105390004FF40010A84202D905F01F0010B10220FE
:1053A000BDE8F081A562A7682FB93078032802DB39
:1053B000B76A0020E07147B93089B0EB551F01D8BA
:1053C0000220EDE7B06A20631CE070894FEA4028B4
:1053D00011E03946204601F019FC0746781C08B94F
:1053E0000120DDE7022F02D3B069B84201D80220C4
:1053F000D6E7A5EB08054545EBD239463046FFF721
:105400000CF92063E762206B08B90220C8E7206B23
:1054100000EB55202063C5F3080106F13400084471
:1054200060630020BCE7000070B50446002514B19D
:10543000012C0BD103E0FCF7FFFD054608E0FBF76C
:1054400083FA4FF4C0400549088001E0012500BF00
:1054500000BF0DB1012070BD0020FCE75800002006
:105460002DE9F04706468946154646BBB9F1000FBF
:1054700009D0B9F1010F13D0B9F1020F05D0B9F17C
:10548000030F19D106E0002418E04FF400702860E3
:10549000002413E01D48B0F85000288000240DE0DF
:1054A0001A484FF400720023D0E912713846FAF717
:1054B0008CFE2860002401E0042400BF22E0012EBD
:1054C0001FD1B9F1000F09D0B9F1010F11D0B9F115
:1054D000020F05D0B9F1030F10D106E000240FE050
:1054E0004FF40070288000240AE00820288000245F
:1054F00006E0074800882860002401E0042400BF7B
:1055000000E001242046BDE8F0870000F0100020F4
:10551000580000202DE9F04107460E4615461C466E
:105520004FF0000814B90420BDE8F08117B1012F35
:1055300022D112E0E2B229463046FDF75FF98046FB
:1055400007E0FCF779FDE2B229463046FDF756F94F
:105550008046B8F1000FF4D111E009E069024FF480
:1055600000723046FBF73CFA6D1C06F50076641EAF
:10557000002CF3D1A04602E04FF0010800BF00BFAD
:10558000B8F1000F01D10020CEE70120CCE70146A1
:10559000002070472DE9F04107460E4615461C468F
:1055A0004FF0000814B90420BDE8F08117B1012FB5
:1055B00022D112E0E2B229463046FDF7BDFC80461A
:1055C00007E0FCF739FDE2B229463046FDF7B4FCAE
:1055D0008046B8F1000FF4D111E009E069024FF400
:1055E00000723046FBF768FA6D1C06F50076641E03
:1055F000002CF3D1A04602E04FF0010800BF00BF2D
:10560000B8F1000F01D10020CEE70120CCE738B57A
:105610000546284600F060FD04464CB96946284618
:1056200004F077FC04460CB900202860204638BD01
:105630002046FCE72DE9F04F8FB0044615461E4684
:105640000DA9204604F065FC0E900E9818B994F848
:1056500029000E9018B10E980FB0BDE8F08FA06C25
:1056600000287CD04FF0FF3185EA010071400843EB
:1056700055D1A06C03900398006805900398001D15
:10568000039002200490D4F808B0BBF1000F38D08A
:1056900000BFCDF81CB0002008900498801C049036
:1056A00000BFCDF824B00898401C08905946204609
:1056B00001F0ACFA8346BBF1010F03D8022084F855
:1056C0002900C9E70BF1010018B9012084F829006D
:1056D000C2E70998401C8345E3D0DDE90401884214
:1056E0000BD80399089808600398001D039003994C
:1056F000079808600398001D03900D98806958452D
:10570000C7D80498A16C0860DDE90401884203D879
:105710000021039801608FE111200E908CE1D4E903
:105720000410491BB04101D2D4E90456C4E90C5617
:10573000002185EA010071400843ECD06F1E66F13C
:1057400000033A462046FEF737FFA063A16B0D9891
:10575000FEF763FF0690069828B9022000E04CE0AF
:1057600084F8290078E76F1E66F100014FF400729B
:1057700000233846FAF7F8FC0D994989491E014083
:105780000698081806904FF400724FF00003D4E911
:105790000C713846FAF7E8FC00214A404B401A43A6
:1057A000B9D0E16B06988142B5D094F8280000F09A
:1057B000400090B1E26B0D994878012304F14C014F
:1057C000FFF7E8FE18B1012084F8290044E794F8B7
:1057D000280020F0400084F828000D994878012323
:1057E00004F14C01069AFFF795FE18B1012084F8E8
:1057F000290031E70698E0631EE1D4E90410491B53
:10580000B04106D294F8280000F0020008B9D4E9AB
:105810000456D4E90C01CDE90A0100200C90206364
:105820006063002185EA01007140084374D00D983F
:1058300040894FEA40290023DDE90A0158405940D8
:1058400008432DD06F1E66F100014A463846FAF72C
:105850008BFC07468846DDE90A10491E60F100000E
:105860004A460023CDE9001008460199FAF77CFC6E
:10587000381A78EB010813D3DDE90A104F1E60F1E6
:105880000001A9F1010027EA00000021C4E90C0190
:10589000D4E90C31ED1A66EB0106D4F838A01BE010
:1058A000D4F808A0BAF1000F14D100212046FEF769
:1058B00016FF8246BAF1010F03D1022084F82900B5
:1058C000CAE60AF1010018B9012084F82900C3E6EC
:1058D000C4F808A0C4F838A0BAF1000F63D035E0CE
:1058E00094F8280000F0020050B151462046FEF71F
:1058F000F6FE8246BAF1000F07D100264D462AE097
:105900005146204601F082F982460AF1010020B991
:10591000012084F829009FE645E0BAF1010F03D980
:105920000D988069504503D8022084F8290093E639
:10593000C4F838A0D4E90C2012EB090240F10000B1
:10594000C4E90C20B5EB090566F100060020B9EBAF
:105950000501B041C4D300BFD4E90C10491970410E
:10596000C4E90C104FF40072002328463146FAF7C0
:10597000FBFB00214A404B401A4314D051460D987E
:10598000FEF74BFE0C900C9818B9022084F8290001
:1059900062E64FF40072002328463146FAF7E4FB32
:1059A0000C9908440C904FF400720023D4E90C7158
:1059B0003846FAF7D9FB00214A404B401A432AD017
:1059C000E16B0C98814226D094F8280000F040004A
:1059D00090B1E26B0D994878012304F14C01FFF777
:1059E000D9FD18B1012084F8290035E694F8280083
:1059F00020F0400084F828000D994878012304F134
:105A00004C010C9AFFF786FD18B1012084F829009B
:105A100022E60C98E063D4E90C13D4E90420511A6F
:105A2000984109D2D4E90C01C4E9040194F8280092
:105A300040F0200084F828000E980DE6F7B582B0FB
:105A400016460398019001A801F050FA0546002D72
:105A500002DA0B2005B0F0BD0E4850F825400CB11D
:105A600000202070029810B10020029908700949A6
:105A7000029841F82500029808B1012E01D00020BB
:105A8000E8E7002202A903A800F088FD074638468F
:105A9000E0E7000020BE00202DE9F74396B0044661
:105AA00016461CB9092019B0BDE8F083002020601B
:105AB00006F01F06324603A917A800F06FFD054641
:105AC000002D7DD1039804904FF48C6000F0CEFC43
:105AD00007460FB91120E6E7CDF848D0149707F52F
