:020000040800F2
:1000000018170020DD010008E90300089503000827
:10001000E503000875020008470A00080000000018
:100020000000000000000000000000004501000882
:100030007902000800000000890100087506000828
:10004000F7010008F7010008F7010008F7010008B0
:10005000F7010008F7010008F7010008F7010008A0
:10006000F7010008F7010008F7010008F701000890
:10007000F7010008F7010008F7010008F701000880
:10008000F7010008F7010008F7010008F701000870
:10009000F7010008F7010008F7010008F701000860
:1000A000F7010008F7010008F7010008F701000850
:1000B000F7010008F7010008F7010008F701000840
:1000C000F7010008F7010008F7010008F701000830
:1000D000F701000841070008F7010008F7010008D0
:1000E000F7010008F7010008F7010008F701000810
:1000F000F7010008F7010008F7010008F701000800
:10010000F7010008F7010008F7010008F7010008EF
:10011000F7010008F7010008F7010008F7010008DF
:10012000F7010008F7010008F7010008F7010008CF
:10013000DFF80CD000F08CF800480047690C00088C
:1001400018170020224B19680868B0E8F00F80F3F8
:100150000988BFF36F8F4FF0000080F311884EF0D5
:100160000D0E70470000000006480068006880F32C
:10017000088862B661B6BFF34F8FBFF36F8F00DFA1
:1001800000BF00BF08ED00E0EFF30980BFF36F8F01
:100190000F4B1A6820E9F00F106008B54FF05000BF
:1001A00080F31188BFF34F8FBFF36F8F01F078FE9C
:1001B0004FF0000080F31188BDE808401968086816
:1001C000B0E8F00F80F30988BFF36F8F704700BF6E
:1001D0003C000020EFF30580704700000648804790
:1001E00006480047FEE7FEE7FEE7FEE7FEE7FEE71C
:1001F000FEE7FEE7FEE7FEE7E10600083101000842
:1002000040EA01039B0703D009E008C9121F08C098
:10021000042AFAD203E011F8013B00F8013B521E18
:10022000F9D2704730B50B46014600202022012448
:1002300009E021FA02F59D4205D303FA02F5491BB4
:1002400004FA02F52844151EA2F10102F1DC30BDCA
:10025000064C074D06E0E06840F0010394E8070013
:1002600098471034AC42F6D3FFF766FFBC2B00086A
:10027000DC2B000800BFFEE770472DE9F041024685
:1002800000250026002000230024002791F803C049
:100290000CF00F0591F803C00CF0100CBCF1000F2E
:1002A00003D091F802C04CEA050591F800C0BCF1FA
:1002B000000F31D0146800202BE04FF0010C0CFA35
:1002C00000F3B1F800C00CEA03069E4220D183007F
:1002D0004FF00F0C0CFA03F7BC4305FA03FC4CEA91
:1002E000040491F803C0BCF1280F06D14FF0010CB3
:1002F0000CFA00FCC2F814C00AE091F803C0BCF18B
:10030000480F05D14FF0010C0CFA00FCC2F810C0E8
:10031000401C0828D1D31460B1F800C0BCF1FF0F15
:1003200034DD546800202EE000F1080C4FF0010885
:1003300008FA0CF3B1F800C00CEA03069E4221D182
:1003400083004FF00F0C0CFA03F7BC4305FA03FCD3
:100350004CEA040491F803C0BCF1280F05D100F168
:10036000080C08FA0CF8C2F8148091F803C0BCF12C
:10037000480F07D100F1080C4FF0010808FA0CF8FB
:10038000C2F81080401C0828CED35460BDE8F0812C
:100390000161704700BFFEE708B50121482000F069
:1003A00067F82020ADF8000010208DF8030003202E
:1003B0008DF8020069460948FFF75FFF20210748D2
:1003C000FFF7E6FF2020ADF8000069460448FFF77C
:1003D00054FF20210248FFF7DBFF08BD000C01405D
:1003E0000018014000BFFEE77047000070B5002113
:1003F00000230F22C47804B3154C246804F4E0648D
:10040000C4F5E064210AC1F10403CA40447804FA47
:1004100003F184781440214309010E4C0678A1555C
:10042000047804F01F050124AC4005786D11AD007F
:1004300005F1E025C5F8004109E0047804F01F0546
:100440000124AC40044D0678761145F8264070BD75
:100450000CED00E000E400E080E100E0024901432F
:10046000024A1160704700000000FA050CED00E040
:1004700029B1064A92690243044B9A6104E0034A97
:1004800092698243014B9A6170470000001002405C
:1004900030B500210022002400232D4D6D6805F0A9
:1004A0000C0121B1042905D0082923D105E0294DEB
:1004B000056022E0274D05601FE0254D6D6805F4BD
:1004C0007012234D6D6805F48034022505EB9242CD
:1004D0001CB9214D554305600BE01D4D6D6805F4B9
:1004E00000351DB11C4D5543056002E0194D5543C3
:1004F000056002E0174D056000BF00BF144D6D6838
:1005000005F0F0010909154D6B5C0568DD4045609B
:100510000F4D6D6805F4E061090A104D6B5C45688C
:10052000DD4085600A4D6D6805F46051C90A0B4DC8
:100530006B5C4568DD40C560054D6D6805F4404164
:10054000890B074D6B5CC568B5FBF3F5056130BDE4
:100550000010024000127A0000093D000C0000204B
:100560001C00002010B500F001F810BD0CB50020F3
:10057000019000903348006840F4803031490860B1
:1005800000BF3048006800F4003000900198401C23
:100590000190009818B90198B0F5A06FF1D12948E1
:1005A000006800F4003010B10120009001E000204C
:1005B00000900098012843D12348006840F01000C3
:1005C000214908600846006820F0030008600846DA
:1005D000006840F0020008601A4840681949486005
:1005E0000846406848600846406840F480604860BB
:1005F0000846406820F47C1048600846406840F493
:10060000E81048600846006840F08070086000BF4D
:100610000C48006800F000700028F9D009484068D4
:1006200020F00300074948600846406840F0020097
:10063000486000BF0348406800F00C000828F9D16A
:100640000CBD00000010024000200240042808D128
:100650004FF0E021096941F004014FF0E0221161FF
:1006600007E04FF0E021096921F004014FF0E0229A
:100670001161704710B502F059F8012801D001F05E
:10068000B3FC10BD70B505460420FFF7DFFF10482E
:1006900000681049B0FBF1F00F4908700C48006881
:1006A0000C49B0FBF1F44FF47A70444301200B493C
:1006B00008804FF0E020006940F002004FF0E02198
:1006C000086108464461006940F00100086170BD9E
:1006D0002000002040420F0034000020360000209F
:1006E00010B51348006840F0010011490860084641
:1006F0004068104908400E494860084600680E49A5
:1007000008400B4908600846006820F48020086013
:100710000846406820F4FE0048604FF41F008860DF
:10072000FFF720FF4FF000600449086010BD000093
:10073000001002400000FFF8FFFFF6FE08ED00E0A9
:1007400010B540F225511D4800F0B8F810B31B4811
:1007500000F070F9C4B21A48008800F40040C8B92B
:100760001748008800F4804060B10A2C03D00020B4
:100770001349088020E01248008840F400401049E6
:10078000088019E00D2C06D10D48008840F4804007
:100790000B49088010E00A480088C0F30D000949A1
:1007A0000C5407480088401C05490880084600880A
:1007B000C72801DD0020088010BD0000003801407E
:1007C00038000020300E002010B586B0044601210C
:1007D0000420FFF74DFE01218803FFF749FE4FF487
:1007E0000070ADF8140003208DF8160018208DF865
:1007F000170005A91E48FFF740FD4FF48060ADF8D3
:10080000140004208DF8170005A91948FFF735FDDD
:1008100001940020ADF80800ADF80A00ADF80C0016
:10082000ADF810000C20ADF80E0001A9114800F041
:1008300095F801210F4800F028F840210D4800F0FC
:100840001BF8012240F225510A4800F061F82520EA
:100850008DF8000003208DF801008DF802000120C2
:100860008DF803006846FFF7C1FD06B010BD00001B
:10087000000801400038014001F40072B2F5007F29
:1008800000D100BFCA430280704721B1828942F47F
:100890000052828104E082894DF6FF731A40828102
:1008A000704702460020B1F5007F00D100BF1388D9
:1008B0000B400BB1012000E00020704770B50246EC
:1008C000002400230025002040F66A16B14200D122
:1008D00000BFC1F3421501F01F03012606FA03F31E
:1008E000012D02D19689334006E0022D02D1168AED
:1008F000334001E0968A33400C12012606FA04F4D4
:100900001688344013B10CB1012000E0002070BD06
:10091000F0B50346002400260025002040F66A17A3
:10092000B94200D100BF1846C1F3421401F01F06BE
:10093000012707FA06F5012C01D10C3004E0022C46
:1009400001D1103000E014301AB107682F4307605E
:1009500002E00768AF430760F0BD00002DE9F047F3
:1009600086B005460E460024A24600BFA1460027D9
:10097000B08900B100BF2F462C8A4CF6FF700440AE
:10098000F08804432C82AC894EF6F3100440B08802
:1009900031890843718908430443AC81AC8A4FF61E
:1009A000FF400440B0890443AC8201A8FFF770FD0A
:1009B0001F48874202D1DDF810A001E0DDF80CA04D
:1009C000A88900F4004040B10AEBCA0000EB0A100D
:1009D00031684900B0FBF1F807E00AEBCA0000EB10
:1009E0000A1031688900B0FBF1F86420B8FBF0F020
:1009F00004012009642101FB1089A88900F400404A
:100A000040B1322000EBC900B0FBF1F000F007006C
:100A1000044308E0322000EB09106421B0FBF1F040
:100A200000F00F0004432C8106B0BDE8F087000001
:100A30000038014001468888C0F308007047C1F3C0
:100A400008028280704700BFFEE700000FB4054B2C
:100A500010B503A9044A029800F018F810BC5DF81C
:100A600014FB0000450C0008B000002002E008C89C
:100A7000121F08C1002AFAD170477047002001E018
:100A800001C1121F002AFBD1704700002DE9FF4F62
:100A90008BB09A460F460546002606E025280BD067
:100AA00052460D9990476D1C761C28780028F5D188
:100AB0000FB03046BDE8F08F0024A0460122604907
:100AC00000E0044315F8013F203B02FA03F008421E
:100AD000F7D128782E2817D115F8010F44F0040417
:100AE0002A280ED06FF02F022878A0F130010929B2
:100AF0000AD808EB880102EB410100EB01086D1CEC
:100B0000F2E757F8048B6D1C287869283ED006DC84
:100B10000028CDD063280BD0642804D136E0732898
:100B200010D075284BD052460D999047761C85E021
:100B300017F8040B8DF8000000208DF80100E9463D
:100B4000012003E057F8049B4FF0FF3061074FF09E
:100B5000000401D40AE0641C44450DDA8442FADB47
:100B600019F804100029F6D106E0641C8442FCDB6D
:100B700019F804100029F8D1264404E019F8010BF3
:100B800052460D999047641EF8D257E001CF4FF0BE
:100B90000A0B002802DA40422D2102E0210504D58B
:100BA0002B218DF82410012103E0E10705D020213D
:100BB000F7E70DF1200908910CE00021F9E701CFDA
:100BC0004FF00A0BF9E75946FFF72CFB01F1300211
:100BD00009F8012D0028F6D1ADEB090000F1200B3A
:100BE000600701D44FF00108D84502DDA8EB0B00E7
:100BF00000E000208046002406E009A85246005D7F
:100C00000D999047641C761C08988442F5DB04E03B
:100C1000302052460D999047761CB8F10001A8F19A
:100C20000108F5DC05E019F8010B52460D999047D3
:100C3000761CBBF10001ABF1010BF4DC6D1C34E759
:100C40000928010070B504460D46E1B20548FFF7DA
:100C5000F6FE00BF80210348FFF723FE0028F9D0ED
:100C6000204670BD003801400EB54820FFF70AFD50
:100C70004FF44070FFF7F2FBFFF78EFB4FF4E130CB
:100C8000FFF7A2FD0848094901220023CDE9002110
:100C90000290802206A1094801F0F8FC084908608A
:100CA00001F08CF800200EBDB4020020B40000203A
:100CB00073746172745F7461736B0000BD16000819
:100CC000000000202DE9F04105460E461C4807684B
:100CD0001C480068001D00F05FFD50B9194800680D
:100CE00090F82C1001208840174909688143164864
:100CF0000160681C38B936B112480168091D1348F3
:100D000000F0A0FD1AE07C190E4800684460BC4267
:100D100007D20C480168091D0D48006800F078FDF5
:100D20000CE008480168091D0A48006800F070FDE1
:100D300009480068844201D207480460BDE8F08198
:100D4000500000203C000020540000201812002019
:100D500044000020400000206C00002010B5044634
:100D600000F07CFD23480068401C224908602248AE
:100D7000006840B9204804600846006801280DD189
:100D800000F0CEF90AE01D48006838B91A4800683A
:100D9000C06AE16A884201D81748046018480068B0
:100DA000401C1749086094F82C1001208840154910
:100DB0000968084313490860E16A01EB8101124A9E
:100DC00002EB8100211D00F03DFD00F089FD0B4884
:100DD000006868B108480068C06AE16A884207D2C2
:100DE0004FF0805009490860BFF34F8FBFF36F8FFA
:100DF00010BD00004C0000203C00002058000020E6
:100E00006800002054000020480F002004ED00E09E
:100E100008B500F023FD12480068E8B9114800F059
:100E2000E7FC114800F0E4FC0E48104908600E4849
:100E30000F49086000200F4B0F4A0C2100900A2038
:100E400001F0ECF8064908600846006820B10BA1E3
:100E50000348006800F032FE00F042FD08BD0000CB
:100E6000800000202C12002040120020780000207A
:100E70007C000020541200209C120020546D7251FE
:100E80000000000070B523E001F002F8134800688C
:100E900008B9012000E00020054601F067FDBDB95A
:100EA00000F0DCFC0D48C068C468201D00F074FC34
:100EB0000B480068401E0A4908600A480068401E46
:100EC0000849086000F00CFD204600F057F800BF0C
:100ED000044800680028D7D170BD0000041200202B
:100EE0004C0000204800002070B504460D46206CE0
:100EF00070B1216CE0680844E0606168E068884295
:100F000001D32068E0602846226CE168FFF778F999
:100F100070BD2DE9F04104460F4615464FF000081C
:100F2000A66B206C28B37DB93946226CA068FFF708
:100F300067F9216CA0680844A060D4E901108842D8
:100F400017D32068A06014E03946226CE068FFF7F0
:100F500057F9216CE068401AE0602168E068884237
:100F600003D2216C6068401AE060022D01D106B105
:100F7000761E701CA0634046BDE8F08110B50446A3
:100F800094F8490030B9206B00F0E0FC204600F0F6
:100F9000DDFC15E094F84900012803D1204600F05B
:100FA000D5FC0DE094F84900022801D1012000E0B1
:100FB000002028B940F6296202A107A0FFF746FDEC
:100FC00010BD00004672656552544F535C746173E6
:100FD0006B732E63000000004572726F723A2573C6
:100FE0002C25640D0A0000000146084A12681268A8
:100FF0000AB9012200E000220A600A6822B9034A05
:101000001268D268106800E0002070477800002065
:1010100000BFFFF737FF064800680128F9D94FF0F5
:10102000805004490860BFF34F8FBFF36F8FF0E724
:10103000480F002004ED00E02DE9F04106460D4682
:1010400017469846069C0DB9246000E02760E663C9
:1010500025640121204601F01FF9BDE8F081000060
:101060002DE9FF5F81460E469246DDE90E7B109C1E
:10107000AAF10100216B01EB800828F0070808F0B5
:10108000070008B9012000E0002028B940F22B3207
:101090001AA11FA0FFF7DAFC002507E0715D04F13B
:1010A00034004155705D00B902E06D1C102DF5D380
:1010B00000BF002143200155202F00D31F27E762E6
:1010C000201D00F0A2FB04F1180000F09EFB24613B
:1010D000C7F12000A06164620020606484F84800C9
:1010E00049464046039A00F0D7FA2060BBF1000F52
:1010F00001D0CBF80040BDE8FF9F00004672656557
:1011000052544F535C7461736B732E630000000084
:101110004572726F723A25732C25640D0A00000027
:1011200010B5002407E004EB84010F4A02EB8100B4
:1011300000F05EFB641C202CF5D30C4800F058FB3B
:101140000B4800F055FB0B4800F052FB0A4800F03A
:101150004FFB0A4800F04CFB04480949086004486A
:101160000849086010BD0000480F0020C811002089
:10117000DC110020F01100200412002018120020C1
:10118000400000204400002010B50146164800E051
:10119000006803688B42FBD30246436813448B42CA
:1011A00004D143684C682344436001460A464B68B7
:1011B00013440468A34211D10C4C03682468A34271
:1011C00008D04B680468646823444B6003681B685C
:1011D0000B6005E0054B1B680B6001E003680B60CA
:1011E000884200D0016010BD8C00002094000020D7
:1011F0002DE9F04104460D4616461F464FF0000803
:1012000065602461B5420CD8F01BA169884202D305
:101210004FF0010811E0211D0948006800F0F8FABC
:101220000BE0BE4204D2BD4202D34FF0010804E0FD
:10123000211D0448006800F0EBFA4046BDE8F0814B
:101240007C0000207800002070B5054600F006FB09
:10125000A86B08B9012400E0002400F041FB2046FF
:1012600070BD70B5054600F0F9FAA86BE96B8842CD
:1012700001D1012400E0002400F032FB204670BDC3
:10128000F8B505460F4613480068C068C468201DBD
:1012900000F082FAE069012818D1A06941192B46B3
:1012A0003A462046FFF7A4FF80B1002003462A46B5
:1012B00001460090204601F033FC06462EB94FF45B
:1012C000027205A109A0FFF7C1FB00BF2046616AB9
:1012D0008847F8BD780000204672656552544F5328
:1012E0005C74696D6572732E630000004572726FE5
:1012F000723A25732C25640D0A00000070B586B083
:1013000063E00398002860DB059C606908B9012050
:1013100000E0002010B9201D00F03EFA02A800F005
:10132000C7F8054603980A284DD2DFE800F0090502
:10133000072C2E4506082D2F00BF00BF00BF00BFA1
:101340000498A269811803462A462046FFF750FFF9
:10135000C0B12046616A8847E069012812D10020A7
:1013600000900498A169421800231946204601F014
:10137000D7FB06462EB940F2213219A11DA0FFF776
:1013800065FB00BF20E000BF1EE000BF0498A06125
:10139000A06908B1012000E0002028B94FF44E7286
:1013A0000FA114A0FFF752FBA06941192B462A4652
:1013B0002046FFF71DFF07E094F8280010B92046EB
:1013C00000F0C4FA00E000BF00BF00231A4603A9E2
:1013D0000C48006800F08AFE002892D106B070BD6B
:1013E0004672656552544F535C74696D6572732E15
:1013F000630000004572726F723A25732C25640DEC
:101400000A00000080000020F8B505460C4600F0F8
:101410003FFD684600F04CF80646009820BB44B9F2
:10142000B54206D801F0A2FA31462846FFF728FF58
:101430001CE03CB10E480068006808B9012000E0DB
:1014400000200446A91B22460A48006800F04CFB15
:1014500001F08CFA50B94FF0805007490860BFF393
:101460004F8FBFF36F8F01E001F080FAF8BD0000ED
:101470007C0000208000002004ED00E00A4909689B
:10148000096809B9012100E0002121B14FF0FF31C5
:10149000064A116006E004490968C968C868034A39
:1014A0004168116070470000400000206C0000207F
:1014B00070B5044601F04AF90546074800688542C0
:1014C00004D200F00BF80120206001E00020206031
:1014D00001480560284670BD880000202DE9F843CA
:1014E0002DE021480068C06805681F480068C06892
:1014F000C468201D00F050F92046616A8847E06901
:1015000001281CD1A0694619AE4207D96660246142
:10151000211D1548006800F07BF910E0002003460B
:101520002A4601460090204601F0FAFA07462FB9F4
:1015300040F292320DA112A0FFF788FA00BF0A48CC
:101540000068006808B9012000E000200028C8D029
:101550000548D0F800800E480068034908600C4830
:10156000C0F80080BDE8F883780000204672656509
:1015700052544F535C74696D6572732E63000000A2
:101580004572726F723A25732C25640D0A000000B3
:101590007C0000200B480068401C08B9012000E0D6
:1015A000002020B9F42208A111A0FFF74FFA00BFD4
:1015B000502080F31188BFF34F8FBFF36F8F00BFB0
:1015C00000BFFEE7A40000204672656552544F53E9
:1015D0005C706F727461626C655C525644535C411E
:1015E000524D5F434D335C706F72742E6300000088
:1015F0004572726F723A25732C25640D0A00000043
:1016000008B500BF6846FFF7EFFC04462046009986
:10161000FFF7FAFEFFF772FEF4E770B5044600F03C
:101620001DF994F9455010E0606A08B9012000E006
:10163000002038B904F1240001F03EF918B100F09F
:1016400039FB00E003E0681E45B2002DECDC00BF72
:10165000FF2084F8450000F043F900F0FFF894F90A
:10166000445010E0206908B9012000E0002048B98A
:1016700004F1100001F020F908B100F01BFB681E16
:1016800045B200E001E0002DECDC00BFFF2084F853
:10169000440000F025F970BD001F4FF08073036017
:1016A000001F21F001030360001F034B0360143887
:1016B0000260203870470000951500083EB50446CA
:1016C00000F0CCF81148124902220023CDE9002194
:1016D000029080220FA1124800F0D8FF1149086043
:1016E0001148124903220023CDE9002102908022F3
:1016F0000FA1124800F0CAFF1149086011480068A4
:1017000000F052FA00F0ECF83EBD000000050020A9
:10171000000300207461736B315F7461736B0000B0
:1017200049170008040000204C0700204C05002049
:101730007461736B325F7461736B00007117000822
:1017400008000020000000200DE00020064908608D
:10175000C82000F0EFF901200449C1F894014FF4CA
:10176000487000F0E7F9F0E79481214200802142BF
:101770000DE00020064908604FF4487000F0DAF9E7
:1017800001200449C1F89401C82000F0D3F9F0E722
:10179000940123420000234201460A69D1E9013045
:1017A0009860D1E9010358605068884201D1886887
:1017B0005060002008611068401E1060106870477B
:1017C000034B0360034B0B608023136070470000E2
:1017D000980D002098070020034B0360034B0B601B
:1017E0004FF4807313607047E40D002098090020C7
:1017F00000F1080141604FF0FF31816000F1080104
:10180000C1600161002101607047002101617047E2
:1018100010B502460B685C1C0CB9106907E002F1B8
:10182000080000E04068446824689C42FAD9446893
:101830004C604C68A160886041600A611468641C57
:10184000146010BD42684A6093688B609368596069
:101850009160086103685B1C0360704710B500BFAE
:10186000502080F31188BFF34F8FBFF36F8F00BFFD
:101870000B480068401C0A490860084600680128B7
:101880000DD108480068C0B208B9012000E000206E
:1018900028B94FF4BD7204A10DA0FFF7D7F810BD11
:1018A000A400002004ED00E04672656552544F53D9
:1018B0005C706F727461626C655C525644535C413B
:1018C000524D5F434D335C706F72742E63000000A5
:1018D0004572726F723A25732C25640D0A00000060
:1018E00010B50B48006828B940F2811209A113A075
:1018F000FFF7ACF806480068401E05490860084636
:10190000006820B9002080F3118800BF00BF10BD1F
:10191000A40000204672656552544F535C706F728C
:101920007461626C655C525644535C41524D5F4336
:101930004D335C706F72742E630000004572726FDD
:10194000723A25732C25640D0A00000070B5064616
:101950003546002E35D0083D2C461A496068096886
:10196000084008B1012000E0002028B94FF4A0721F
:1019700015A11EA0FFF76AF8206808B9012000E051
:10198000002028B940F241120FA118A0FFF75EF81D
:101990000C4960680968084098B1206888B909490D
:1019A000606809688843606000F072FA13496068F3
:1019B00009680844114908602046FFF7E5FB00F07C
:1019C000D5FF70BDA00000204672656552544F538C
:1019D0005C706F727461626C655C4D656D4D616EBB
:1019E000675C686561705F342E6300004572726FDA
:1019F000723A25732C25640D0A000000980000201F
:101A0000064800684FF47A71B0FBF1F0401E4FF0C9
:101A1000E021486107200861704700002000002095
:101A200070B5FEF7D7FB0546102D11D305F1E02068
:101A300090F8F04310480078844201DB012000E078
:101A4000002028B94FF42A720CA116A0FEF7FEFF61
:101A50001848006800F4E06017490968884201D816
:101A6000012000E0002028B94FF42E7203A10DA040
:101A7000FEF7ECFF70BD0000A8000020467265650F
:101A800052544F535C706F727461626C655C525655
:101A900044535C41524D5F434D335C706F72742E02
:101AA000630000004572726F723A25732C25640D35
:101AB0000A0000000CED00E0AC000020024600200F
:101AC0000BE0084B53F8303033B9064B43F8301075
:101AD00003EBC0035A6002E0401C0A28F1D300BFA8
:101AE00070470000F80E00202DE9F04105460E4633
:101AF00017462C46FFF7B2FE94F94400401C10B97B
:101B0000002084F8440094F94500401C10B90020DE
:101B100084F84500FFF7E4FEA06B28B93A46314649
:101B200004F1240000F0F6F82046FFF776FDBDE84A
:101B3000F081000070B504460025ACB10F48006884
:101B400008B9012000E0002028B940F2CF420CA1E2
:101B500010A0FEF77BFF00F09BF900212046FFF765
:101B6000B1F800F003FF05463DB94FF080500D4934
:101B70000860BFF34F8FBFF36F8F70BD74000020FC
:101B80004672656552544F535C7461736B732E6378
:101B9000000000004572726F723A25732C25640DA7
:101BA0000A00000004ED00E070B50546FFF756FEA0
:101BB00015B92D48006800E028460446201DFFF7AF
:101BC000EBFD78B9E06A00EB8000284951F820006D
:101BD00040B994F82C1001208840254909688143B8
:101BE00023480160A06A18B104F11800FFF7D4FD82
:101BF00020480068401C1F4908601B480068844258
:101C000009D1211D1C48FFF71DFE1C480068401C1F
:101C10001A49086009E01A480068401E184908601F
:101C20002046FFF7ABF9FFF729FCFFF759FE1548EF
:101C30000068C0B10C480068844214D112480068A2
:101C400008B9012000E0002028B940F265420FA148
:101C500013A0FEF7FBFE4FF0805015490860BFF35C
:101C60004F8FBFF36F8F70BD3C000020480F0020E6
:101C700054000020680000200412002048000020CA
:101C80004C0000205800002074000020467265655A
:101C900052544F535C7461736B732E6300000000E9
:101CA0004572726F723A25732C25640D0A0000008C
:101CB00004ED00E001200149086070476000002049
:101CC00070B504460D462CB940F6063207A10CA0AB
:101CD000FEF7BCFE0E48016818312046FFF798FD5C
:101CE00001212846FEF7EEFF70BD000046726565D3
:101CF00052544F535C7461736B732E630000000089
:101D00004572726F723A25732C25640D0A0000002B
:101D10003C00002070B505460E4614462DB940F62D
:101D2000313209A10DA0FEF791FE1048016818316B
:101D30002846FFF787FD0CB14FF0FF3621463046AD
:101D4000FEF7C0FF70BD00004672656552544F53E8
:101D50005C7461736B732E63000000004572726FD8
:101D6000723A25732C25640D0A0000003C00002007
:101D700010B504462CB940F6C13205A109A0FEF702
:101D800065FE0C48006820600B480068606010BD6C
:101D90004672656552544F535C7461736B732E6366
:101DA000000000004572726F723A25732C25640D95
:101DB0000A000000640000205000002010B586B02A
:101DC00000200590049003AA04A905A8FFF7F8FCD9
:101DD0000022DDE904101346CDE9002102901CA188
:101DE0001D48039A00F052FC1C4908600846006830
:101DF00008B1012400E00024012C02D100F046FECD
:101E00000446012C15D100BF502080F31188BFF388
:101E10004F8FBFF36F8F00BF4FF0FF301049086046
:101E200001201049086000200F49086000F08CF87C
:101E30000BE0601C08B1012000E0002028B940F24E
:101E400084720AA10EA0FEF701FE06B010BD0000CC
:101E500049444C45000000001110000870000020AB
:101E60006C0000205800002050000020467265657C
:101E700052544F535C7461736B732E630000000007
:101E80004572726F723A25732C25640D0A000000AA
:101E900002480068401C0149086070477400002037
:101EA00010B51B48006818B101201A4908602DE0E0
:101EB00000201849086018480068B0FA80F0C0F1A6
:101EC0001F0404EB8400154951F8200008B10120DB
:101ED00000E0002028B940F6F62211A115A0FEF777
:101EE000B5FD04EB84010D4A02EB810041684968AD
:101EF000416000F1080142688A4202D141684968A4
:101F000041604168C9680F4A116000BF10BD000000
:101F1000740000206000002054000020480F0020C2
:101F20004672656552544F535C7461736B732E63D4
:101F3000000000004572726F723A25732C25640D03
:101F40000A0000003C0000201CB522480146097828
:101F50000191FF21024611700146097800919DF818
:101F6000001001F050011C4A117007211B4A11603A
:101F700009E01A490968491E184A11609DF80010C5
:101F80004906090E00919DF8001001F0800180299A
:101F9000EFD0124909680902104A116011460988F8
:101FA00001F4E06111600B4A019911700C4800685E
:101FB00040F470000A4908600846006840F070402C
:101FC0000860FFF71DFD002006490860FEF7CCF809
:101FD00000201CBD00E400E0A8000020AC000020B0
:101FE00020ED00E0A400002010B500BF502080F3D9
:101FF0001188BFF34F8FBFF36F8F00BF00F0ACFBB2
:1020000018B14FF080500449086000BF002080F3F1
:10201000118800BF10BD000004ED00E02DE9F84379
:1020200080460E4617461D46DDF82090B8F1000F99
:1020300001D0012000E0002028B94FF4A97222A1AC
:1020400026A0FEF703FD0DB1012000E0002028B915
:102050004FF4AB721CA121A0FEF7F8FC07B10EB142
:10206000012000E0002028B94FF4AD7216A11BA09A
:10207000FEF7ECFC07B90EB9012000E0002028B9FA
:1020800040F25B1210A115A0FEF7E0FC4820009082
:102090000098482801D1012000E0002028B940F232
:1020A000631209A10DA0FEF7D1FC2C464CB1012012
:1020B00084F846004B463A46314640460094FEF7C7
:1020C000BBFF2046BDE8F8834672656552544F5306
:1020D0005C71756575652E63000000004572726F56
:1020E000723A25732C25640D0A0000002DE9FF4784
:1020F00082B005460E461F464FF0000A2C462CB90A
:1021000040F2DC425AA15FA0FEF7A0FC0EB9206CA1
:1021100008B9012000E0002028B940F2DD4254A1B6
:1021200058A0FEF793FC00F001FB08B9049808B929
:10213000012000E0002028B94FF49C624CA151A07E
:10214000FEF784FC00BFFFF789FBD4F83890B9F1A3
:10215000000F38D0D4F80C8031462046FEF7C4FE7C
:10216000B7B9A9F10100A063206908B9012000E016
:10217000002010BB04F1100000F09EFBE8B14FF00E
:10218000805044490860BFF34F8FBFF36F8F14E056
:10219000C4F80C80606A08B9012000E0002060B932
:1021A00004F1240000F088FB38B14FF08050394929
:1021B0000860BFF34F8FBFF36F8FFFF791FB0120D4
:1021C00006B0BDE8F087049818B9FFF789FB002036
:1021D000F6E7BAF1000F04D16846FFF7C9FD4FF0EA
:1021E000010AFFF77DFBFFF753FEFFF737FB94F97A
:1021F0004400401C10B9002084F8440094F94500C4
:10220000401C10B9002084F84500FFF769FB04A9C1
:10221000684600F0EBF9F0B92046FFF715F8A0B1D9
:1022200004F124000499FFF74BFD2046FFF7F5F970
:1022300000F09CFB002886D14FF0805015490860C3
:10224000BFF34F8FBFF36F8F7DE72046FFF7E5F9B0
:1022500000F08CFB77E72046FFF7DFF900F086FB04
:102260002046FEF7F1FF0028EED00020A8E700008E
:102270004672656552544F535C71756575652E6382
:10228000000000004572726F723A25732C25640DB0
:102290000A00000004ED00E070B505460E462C462D
:1022A0002CB940F21B121EA122A0FEF7CFFBFFF7B4
:1022B000D5FAD4E90F12206801FB0200606000200B
:1022C000A0632068A060E06B401E226C216800FBC8
:1022D0000210E060FF2084F8440084F845009EB9B5
:1022E000206908B9012000E00020A8B904F110001D
:1022F00000F0E2FA80B14FF0805012490860BFF35D
:102300004F8FBFF36F8F07E004F11000FFF770FAF3
:1023100004F12400FFF76CFAFFF7E2FA012070BD28
:102320004672656552544F535C71756575652E63D1
:10233000000000004572726F723A25732C25640DFF
:102340000A00000004ED00E02DE9FF4383B00646DB
:1023500088461D464FF0000934462CB940F2D92278
:1023600058A15DA0FEF772FBB8F1000F01D1206CFF
:1023700008B9012000E0002028B940F2DA2251A17A
:1023800055A0FEF763FB022D02D1E06B012801D1BD
:10239000012000E0002028B940F2DB2249A14EA034
:1023A000FEF754FB00F0C2F908B9059808B90120FE
:1023B00000E0002028B940F2DE2242A146A0FEF74C
:1023C00045FB00BFFFF74AFAA06BE16B884201D3DF
:1023D000022D28D12A4641462046FEF79AFD07469F
:1023E000606A08B9012000E0002068B904F1240007
:1023F00000F062FA88B14FF080503B490860BFF3AB
:102400004F8FBFF36F8F08E03FB14FF080503649D8
:102410000860BFF34F8FBFF36F8FFFF761FA0120A2
:1024200007B0BDE8F083059818B9FFF759FA002006
:10243000F6E7B9F1000F04D101A8FFF799FC4FF0BE
:102440000109FFF74DFAFFF723FDFFF707FA94F9AB
:102450004400401C10B9002084F8440094F9450061
:10246000401C10B9002084F84500FFF739FA05A98F
:1024700001A800F0BBF8F0B92046FEF7F2FEA0B1CB
:1024800004F110000599FFF71BFC2046FFF7C5F883
:1024900000F06CFA002895D14FF080501249086086
:1024A000BFF34F8FBFF36F8F8CE72046FFF7B5F870
:1024B00000F05CFA86E72046FFF7AFF800F056FA26
:1024C0000020ADE74672656552544F535C717565E7
:1024D00075652E63000000004572726F723A2573B5
:1024E0002C25640D0A00000004ED00E02DE9F05FEA
:1024F00007468A4690461E463C462CB940F29F321B
:1025000031A136A0FEF7A2FABAF1000F01D1206C7A
:1025100008B9012000E0002028B94FF468722AA110
:102520002EA0FEF793FA022E02D1E06B012801D112
:10253000012000E0002028B940F2A13222A127A00A
:10254000FEF784FAFFF76CFA00BF5021EFF3118019
:1025500081F31188BFF34F8FBFF36F8F00BF054624
:10256000A06BE16B884201D3022E23D194F945B0D0
:10257000324651462046FEF7CCFC0BF1010088B9EB
:10258000606A08B9012000E0002080B904F124004D
:1025900000F092F958B1B8F1000F08D00120C8F846
:1025A000000004E00BF1010040B284F845004FF058
:1025B000010901E04FF0000900BF85F3118800BF59
:1025C0004846BDE8F09F00004672656552544F537F
:1025D0005C71756575652E63000000004572726F51
:1025E000723A25732C25640D0A0000002DE9F04194
:1025F00004460D462CB940F6CB3219A11DA0FEF7BA
:1026000025FA2DB940F6CC3215A11AA0FEF71EFA14
:10261000FFF724F91B4807682868401C08B9002602
:1026200019E0194920680968884204D06068B842F6
:1026300001D801260FE06068381A2968884209D25B
:1026400028686168791A401A28602046FFF790FBD5
:10265000002600E00126FFF743F93046BDE8F0818F
:102660004672656552544F535C7461736B732E638D
:10267000000000004572726F723A25732C25640DBC
:102680000A00000050000020640000202DE9F04FF7
:1026900085B00746884691469A46DDE90EB6109CFD
:1026A0000EB1012000E0002028B940F2552216A109
:1026B0001AA0FEF7CBF90CB1012000E0002028B9E8
:1026C00040F2562210A115A0FEF7C0F9ACB1A6B198
:1026D00025462E63022085F84900002004A95346B0
:1026E0004A46CDE900B1CDE9025041463846FEF7F1
:1026F000B7FC2846FEF732FB01E000200490049866
:1027000005B0BDE8F08F00004672656552544F5326
:102710005C7461736B732E63000000004572726F0E
:10272000723A25732C25640D0A00000005490968DA
:1027300009B9012005E00449096809B9022000E04F
:1027400000207047580000207400002001490868EC
:1027500070470000500000202DE9F0414FF00008C4
:1027600041480068002872D140480068451C3F4835
:102770000560EDB93E480068006808B9012000E036
:10278000002028B940F6D9123AA13FA0FEF75EF921
:102790003748076840480068354908603E48076088
:1027A0003E480068401C3D490860FEF767FE00BFD8
:1027B0003B48006885423CD300BF2D480068006854
:1027C00008B9012000E0002020B14FF0FF3034496B
:1027D00008602DE026480068C068C4686668B54295
:1027E00002D22F48066023E0201DFEF7D5FFA06A25
:1027F00018B104F11800FEF7CFFF94F82C10012057
:10280000884028490968084326490860E16A01EBC5
:102810008101254A02EB8100211DFFF713F82349AE
:10282000E06A0968C96A8842C7D34FF00108C4E763
:1028300000BF1E480068C06A00EB80001A4951F8CA
:102840002000012801D94FF0010805E0FFE71848F2
:102850000068401C164908601648006808B14FF02F
:1028600001084046BDE8F0817400002050000020BF
:10287000400000204672656552544F535C7461738A
:102880006B732E63000000004572726F723A2573FD
:102890002C25640D0A000000440000206400002084
:1028A0006C00002054000020480F00203C00002055
:1028B0005C0000206000002070B50646F068C46827
:1028C0002CB940F661321AA11EA0FEF7BFF804F140
:1028D0001800FEF761FF1F480068A8B9201DFEF729
:1028E0005BFF94F82C10012088401B4909680843BD
:1028F00019490860E16A01EB8101184A02EB810085
:10290000211DFEF79FFF04E004F118011448FEF7B3
:1029100099FF1449E06A0968C96A884204D9012507
:1029200001201149086000E00025284670BD000024
:102930004672656552544F535C7461736B732E63BA
:10294000000000004572726F723A25732C25640DE9
:102950000A0000007400002054000020480F0020EE
:10296000F01100203C0000206000002070B5002421
:1029700000263448006828B94FF4FD6232A137A020
:10298000FEF764F8FEF76AFF2E480068401E2D49E6
:1029900008600846006800284FD1344800680028C5
:1029A0004BD024E03248C068C46804F11800FEF738
:1029B000F3FE201DFEF7F0FE94F82C100120884055
:1029C0002C49096808432B490860E16A01EB810141
:1029D000294A02EB8100211DFEF734FF2749E06AF6
:1029E0000968C96A884202D3012025490860204845
:1029F000006808B9012000E000200028D2D00CB106
:102A0000FEF73CFD1F48056865B100BFFFF7A4FE57
:102A100010B101201A4908606D1E002DF6D100206A
:102A2000184908601648006838B101263007164971
:102A30000860BFF34F8FBFF36F8FFEF751FF304633
:102A400070BD0000740000204672656552544F53FB
:102A50005C7461736B732E63000000004572726FCB
:102A6000723A25732C25640D0A0000004C000020EA
:102A7000F011002054000020480F00203C000020EE
:102A8000600000205C00002004ED00E010B586B07E
:102A90000024FEF7BDF914480068D0B1002005906D
:102AA000049003AA04A905A8FEF796FE1F22DDE9FB
:102AB00004100023CDE9002102900CA10D48039AD7
:102AC000FFF7E4FD0C4908600846006800B10124E6
:102AD00000BF2CB940F2331208A10DA0FDF7B6FFDC
:102AE000204606B010BD000080000020546D72200A
:102AF0005376630001160008840000204672656565
:102B000052544F535C74696D6572732E63000000FC
:102B10004572726F723A25732C25640D0A0000000D
:102B20002DE9FE4304460D4616461F46DDF8288073
:102B30004FF000092CB94FF4D37216A11AA0FDF77B
:102B400085FF1D48006810B3009501960294062D7C
:102B500015DAFFF7EBFD022808D10023424669464B
:102B600015480068FFF7F0FB814610E000231A4685
:102B7000694611480068FFF7E7FB814607E000233C
:102B80003A4669460C480068FFF7B0FC8146484663
:102B9000BDE8FE834672656552544F535C74696D9F
:102BA0006572732E630000004572726F723A25736E
:102BB0002C25640D0A00000080000020DC2B00089A
:102BC00000000020B40000006C0A0008902C0008EF
:102BD000B4000020641600007C0A00080000000019
:102BE00000000000000000000000000001020304DB
:102BF00001020304060708090204060800A24A04A9
:102C0000000000000000000001020304060708099C
:102C100000000000000000000000000000000000B4
:102C200000000000000000000000000000000000A4
:102C30000000000000000000000000000000000094
:102C40000000000000000000000000000000000084
:102C50000000000000000000000000000000000074
:102C60000000000000000000000000000000000064
:102C70000000000000000000000000000000000054
:102C8000AAAAAAAA0000000000000000000000009C
:0400000508000131BD
:00000001FF
