:020000040800F2
:1000000080050020450100089112000861080008E1
:10001000BD110008530200080F2200080000000074
:10002000000000000000000000000000A91400080B
:10003000610300080000000019130008E917000818
:100040005F0100085F0100085F0100085F01000810
:100050005F0100085F0100085F0100085F01000800
:100060005F0100085F0100085F0100085F010008F0
:100070005F0100085F0100085F0100085F010008E0
:100080005F0100085F0100085F0100085F010008D0
:100090005F0100085F0100085F0100085F010008C0
:1000A0005F0100085F0100085F0100085F010008B0
:1000B0005F010008F51B0008811C00085F010008B3
:1000C0005F0100085F0100085F0100085F01000890
:1000D0005F010008091F00085F0100085F010008B8
:1000E0005F0100085F0100085F0100085F01000870
:1000F0005F0100085F0100085F0100085F01000860
:100100005F0100085F0100085F0100085F0100084F
:100110005F0100085F0100085F0100085F0100083F
:100120005F0100085F0100085F0100085F0100082F
:10013000DFF80CD000F06CF8004800478525000877
:10014000800500200648804706480047FEE7FEE796
:10015000FEE7FEE7FEE7FEE7FEE7FEE7FEE7FEE777
:1001600029180008310100080649074A0868504369
:1001700043F23902104408604008704701490860A2
:1001800070470000AC0000206D4EC6412DE9F05FC5
:100190000546002092469B468846064681464024F6
:1001A0001BE0284641464746224600F020F85346C9
:1001B0005A46C01A914110D311461846224600F003
:1001C00039F82D1A67EB01084F462246012000211D
:1001D00000F030F817EB00094E41201EA4F1010495
:1001E000DFDC484631462A464346BDE8F09F202AD8
:1001F00004DB203A21FA02F00021704721FA02F3D1
:10020000D040C2F1200291400843194670470000D7
:10021000064C074D06E0E06840F0010394E8070053
:1002200098471034AC42F6D3FFF786FFD0CC0208D3
:10023000F0CC0208202A04DB203A00FA02F1002068
:1002400070479140C2F1200320FA03F31943904014
:10025000704700BFFEE700002DE9F0413D48C0793E
:100260003C4988713C2008801E2048803A4800891B
:1002700000F4707010B101F0EBF806E0354B9A799C
:1002800059881888002300F081FD3248C07933492D
:1002900031F81050002423E02046E11704EB91715F
:1002A000C1F38706E11704EB91718910A4EB81017A
:1002B000CFB205F4004068B106EB8602322303EBAF
:1002C000420107EB8702B42303EB420047F67C525E
:1002D00000F0B8FC4FF6FF7000EA4505601CC4B2A0
:1002E000102CD9DBFFF740FF132190FBF1F201FB4B
:1002F00012001849C8710846C079184931F81050E1
:10030000002422E02046E11704EB9171C1F3870637
:10031000E11704EB91718910A4EB8101CFB205F4D0
:10032000004060B106EB8602322303EB420107EB8B
:100330008702B42303EB4200002200F083FC4FF657
:10034000FF7000EA4505601CC4B2102CDADBBDE882
:10035000F0810000840000204A00002024000020DA
:10036000704700002DE9FC41A748407A00287DD164
:100370000120A54948720B469A79598818880523A7
:1003800000F070FA0646012E14D19F4B9A795988D5
:10039000188840F2FF7300F0CDFB9B4840880A307C
:1003A000994948800B469A7959881888002300F0AB
:1003B000EDFC24E1944B9A7959881888002300F0C9
:1003C000E5FC0424ECE0914830F814004FF6FF718E
:1003D00088427DD18E484068401C8D49486008465F
:1003E00040686421B0FBF1F0401C894988700846E0
:1003F00040688849B0FBF1F0303087490870844884
:1004000040688449B0FBF1F201FB120042F2107126
:10041000B0FBF1F03030804948707D4840687D493C
:10042000B0FBF1F201FB120042F21071B0FBF1F2ED
:1004300001FB12004FF47A71B0FBF1F030307649D5
:100440008870734840687349B0FBF1F201FB1200F9
:1004500042F21071B0FBF1F201FB12004FF47A711D
:10046000B0FBF1F201FB1200642100E0CAE0B0FB36
:10047000F1F030306849C870654840686549B0FBA4
:10048000F1F201FB120042F21071B0FBF1F201FB3C
:1004900012004FF47A71B0FBF1F201FB12006421FB
:1004A000B0FBF1F201FB12000A21B0FBF1F0303099
:1004B00059490871564840685649B0FBF1F201FBB2
:1004C000120042F21071B0FBF1F201FB120000E0E9
:1004D00064E04FF47A71B0FBF1F201FB1200642189
:1004E000B0FBF1F201FB12000A21B0FBF1F201FBBB
:1004F00012003030484948710020887144488078A3
:10050000642190FBF1F03030444908704048807815
:10051000642190FBF1F201FB12000A2190FBF1F043
:1005200030303E4948703A488078642190FBF1F2BF
:1005300001FB12000A2190FBF1F201FB12003030A6
:10054000364988700020C8703549088040F2FF7035
:100550003449088030481021CDE9001032484388E2
:1005600002887821AA2000F0BBFD2C481021CDE99B
:1005700000102D4843880288A021AA2000F0B0FD79
:100580004FF00108254607E0681E204931F81000A9
:1005900021F81500681EC5B2032DF5DC601CC4B23D
:1005A0001C2CFFF610AFB8F1000F09D040F2FF701D
:1005B00040F2171395221E2100900A2000F074FCCF
:1005C000032418E0114830F814707F1001250EE064
:1005D00007F0010040B104EB8402510005EB8502F5
:1005E0005000002200F02EFB7F10681CC5B20F2DBA
:1005F000EEDB601CC4B21C2CE4DBFFF72DFE0020F8
:1006000001494872BDE8FC81840000204A000020B6
:1006100090000020A0860100980000209F0000208C
:1006200014000020160000201800002051B18200A4
:10063000A2F1C042126842F001038200A2F1C0425E
:10064000136009E08200A2F1C0421268034B1A4015
:100650008300A3F1C0431A6070470000FEFF0F0043
:10066000D0E901121143C268114302691143426982
:10067000114382691143C2691143026A1143426AFC
:100680001143826A1143C26A1143026B114302682B
:100690009200A2F1C0421160816808290BD1016863
:1006A0008900A1F1C041096841F040020168890058
:1006B000A1F1C0410A60416B0968426B526841EA8E
:1006C0000211426B926841EA0221426B928941EA2F
:1006D0000241426B128A41EA0251426B127D41EAA9
:1006E0000261426B926911430268521C9200A2F1AE
:1006F000C0421160C16AB1F5804F1BD1816B09689E
:10070000826B526841EA0211826B926841EA0221CF
:10071000826B128A41EA0251826B127D41EA0261C8
:10072000826B9269114302689200A2F1C042C2F842
:10073000041107E06FF0704201688900A1F1C04127
:10074000C1F8042170472DE9F0410246002500263A
:10075000002000230024002791F803C00CF00F05AF
:1007600091F803C00CF0100CBCF1000F03D091F80D
:1007700002C04CEA050591F800C0BCF1000F31D071
:10078000146800202BE04FF0010C0CFA00F3B1F8D4
:1007900000C00CEA03069E4220D183004FF00F0CEC
:1007A0000CFA03F7BC4305FA03FC4CEA040491F885
:1007B00003C0BCF1280F06D14FF0010C0CFA00FC6D
:1007C000C2F814C00AE091F803C0BCF1480F05D18B
:1007D0004FF0010C0CFA00FCC2F810C0401C0828B5
:1007E000D1D31460B1F800C0BCF1FF0F34DD546800
:1007F00000202EE000F1080C4FF0010808FA0CF37D
:10080000B1F800C00CEA03069E4221D183004FF0EC
:100810000F0C0CFA03F7BC4305FA03FC4CEA040482
:1008200091F803C0BCF1280F05D100F1080C08FABB
:100830000CF8C2F8148091F803C0BCF1480F07D13E
:1008400000F1080C4FF0010808FA0CF8C2F810800B
:10085000401C0828CED35460BDE8F0810161704788
:1008600000BFFEE72DE9F84F05460C469446994631
:100870006B4830F81CA030F81C6000200090B9F1E3
:10088000010F09D0B9F1020F0AD0B9F1030F0BD053
:10089000B9F1050F4DD148E0A5F10A0223464BE01E
:1008A00005F10A02234647E02A4623465D4880793F
:1008B000132831D2DFE800F00A0C0E1012141618BB
:1008C0001A1C1E20222426282A2C2E00012623E072
:1008D000002621E002261FE004261DE005261BE07D
:1008E000062619E0032617E0082615E0092613E07E
:1008F0000A2611E007260FE00C260DE00B260BE080
:100900000E2609E00D2607E0102605E0112603E07B
:10091000122601E00F2600BF00BFDFF808B18BF8F8
:1009200008603F4830F8166006E02A4604F10A03E2
:1009300002E02A46234600BF00BF002134E00846FB
:100940004FEAE17B01EB9B7BCBF387074FEAE17B2F
:1009500001EB9B7B4FEAAB0BA1EB8B0B0BF0FF0882
:100960000AF40040E0B10A2094FBF0F03844DFF8CC
:10097000B8B03BF810004FF00A0B95FBFBFB0BEBFC
:10098000080E4FF0010B0BFA0EFB20EA0B004FF0A4
:100990000A0B94FBFBFBBB44DFF88CE02EF81B003A
:1009A0004FEA4A0A481CC1B21029C8DB00212DE0D9
:1009B00008464FEAE17B01EB9B7BCBF387074FEACD
:1009C000E17B01EB9B7B4FEAAB0BA1EB8B0B0BF0BD
:1009D000FF0806F40040B0B10A2093FBF0F0384461
:1009E000DFF844B03BF810004FF00A0B92FBFBFB22
:1009F0000BEB080E4FF0010B0BFA0EFB00EA0B009D
:100A000008B1012000907600481CC1B21029CFDB4C
:100A1000009810B90120BDE8F88F0020FBE7000026
:100A200024000020840000204A00002008B5012195
:100A3000442000F093FC0120ADF8000028208DF840
:100A4000030069460648FFF77EFE1820ADF8000057
:100A500048208DF8030069460248FFF774FE08BD80
:100A6000000801400018014010B50446012C01D1D6
:100A70001B4908701A480078012820D119480068DD
:100A8000012806D01848006818B11748001F0068F0
:100A9000A8B90A2001F03EFD002011490870114854
:100AA0000068012800D110BD0F48006808B9022075
:100AB000F9E70D48001F006878B90320F3E70948FB
:100AC000006850B908480068012806D10648001F90
:100AD0000068012801D1024908700020E3E7000006
:100AE00021000020000121421001234270B506467A
:100AF0000F484088401E83B20D480088401E82B2D5
:100B00000021084600F004FA00240CE0002504E06F
:100B1000304600F025FB681C85B205484088A84295
:100B2000F6DC601C84B202480088A042EEDC70BD96
:100B3000180000202DE9F84F07460D4691469A46C9
:100B40002C4830F819B0002450E02046E11704EB9F
:100B50009171C1F38706E11704EB91718910A4EB41
:100B6000810101F0FF080BF40040C8B306F1010C4D
:100B70000CEB8C0C05EB4C0CACF1010C1FFA8CF35C
:100B800008F1010C0CEB8C0C07EB4C0CACF1010CDC
:100B90001FFA8CF206EB860C05EB4C0C1FFA8CF15D
:100BA00008EB880C07EB4C0C1FFA8CF0CDF800A07A
:100BB00000F07AF90A2095FBF0F030440E4931F844
:100BC00010000A2197FBF1F101EB0802012191408D
:100BD00088430A2195FBF1F13144074A22F81100BC
:100BE0004FF6FF7000EA4B0B601CC4B2102CACDB5C
:100BF000BDE8F88F240000204A00002000B502461E
:100C00000F4882716AB9362000F09EFA4C2000F03D
:100C1000A1FA4FF4F0700A4948804FF4A0700880A0
:100C20000CE0362000F090FA2C2000F093FA4FF4FC
:100C3000A070034948804FF4F070088000BD0000A8
:100C400018000020F8B504460D46164605F10900C7
:100C500083B204F1090082B229462046009600F0D2
:100C600070F8EF1DBBB2E71DBAB2AF1CB9B2A71C3A
:100C7000B8B2009600F018F9F8BD70B504460D46FC
:100C800016462B4622462946204600F041F93046BA
:100C900000F066FA70BD2DE9FF4F84B081468A46A8
:100CA0000020029083460698A0EB09050798A0EB68
:100CB0000A06CDF80490CDF800A0002D01DD012733
:100CC00005E00DB9002702E04FF0FF376D42002E1E
:100CD00002DD4FF0010806E016B94FF0000802E00F
:100CE0004FF0FF387642B54201DD2C4600E0344635
:100CF000002003901EE0009A91B2019A90B2119ADE
:100D0000FFF7BBFF029828440290B3440298A04228
:100D100005DD0298001B0290019838440190A3451C
:100D200004DDABEB040B0098404400900398401C9A
:100D300080B20390611C03988842DCDD08B0BDE8F6
:100D4000F08F2DE9F84305460E4617469846089C55
:100D500033463A46314628460094FFF79CFF434607
:100D60002A46314628460094FFF795FF43463A4607
:100D7000414628460094FFF78EFF43463A463146E7
:100D800038460094FFF787FFBDE8F8832DE9F84F58
:100D900007460D4692469946414830F81AB000245D
:100DA00079E02046E11704EB9171C1F38706E11762
:100DB00004EB91718910A4EB810101F0FF080BF4A1
:100DC0000040002861D006F1010C0CEB8C0C05EB07
:100DD0004C0CACF1010C1FFA8CF308F1010C0CEB7C
:100DE0008C0C07EB4C0CACF1010C1FFA8CF206EBEF
:100DF000860C05EB4C0C1FFA8CF108EB880C07EB0A
:100E00004C0C1FFA8CF0CDF80090FFF79AFF06F11A
:100E1000010C0CEB8C0C05EB4C0CACF1030C1FFA29
:100E20008CF308F1010C0CEB8C0C07EB4C0CACF1C7
:100E3000030C1FFA8CF206EB860C05EB4C0C0CF144
:100E4000020C1FFA8CF108EB880C07EB4C0C0CF130
:100E5000020C1FFA8CF0CDF8009000F025F80A2063
:100E600095FBF0F030440F4931F810000A2197FB50
:100E7000F1F101EB08020121914008430A2195FBA1
:100E8000F1F13144074A22F811004FF6FF7000EAF1
:100E90004B0B601CC4B2102C83DBBDE8F88F000044
:100EA000240000204A0000202DE9F04304460D46AE
:100EB00016461F46DDF81C80B44201DCBD4201DD50
:100EC000BDE8F0833B4632462946204600F020F834
:100ED000301B401C84B2781B401C85B20BE0A94635
:100EE00002E0404600F03CF9B9F10000A9F101012F
:100EF0001FFA81F9F5D1201EA4F101018CB2EED1C7
:100F000000BFDDE701480088704700000008006C62
:100F100030B504460D462A2000F016F9201200F0E4
:100F200019F9E0B200F016F9101200F013F9D0B27E
:100F300000F010F92B2000F007F9281200F00AF950
:100F4000E8B200F007F9181200F004F9D8B200F086
:100F500001F92C2000F0F8F830BD00002DE9F84F21
:100F600080460E4617461C46B3462046E31704EB60
:100F70005373DB1021464FEAE47C04EB5C7C4FEAC0
:100F8000EC0CA4EBCC0CBCF1000F02D04FF0010C28
:100F900001E04FF0000C6344224604EBD27C4FEAA0
:100FA0006C0C03FB0CF3DBB20093A7F12000C7B27B
:100FB000002556E00C2C07D107EB47002B4901EB2D
:100FC000800010F8059013E0102C05D1284800EBA4
:100FD000071010F805900BE0182C07D107EBC7009D
:100FE000244901EB800010F8059001E0BDE8F88F7E
:100FF0004FF0000A2FE009F0800030B11E4802884F
:1010000031464046FFF739FE07E00A9828B91B48E9
:10101000028831464046FFF730FE4FEA49604FEA0A
:101020001069701C86B216484088B04200DCDDE7CB
:10103000A6EB0B00A0420AD15E4608F101001FFAA0
:1010400080F80F480088404500DCCFE706E00AF151
:10105000010000F0FF0ABAF1080FCCDB00BF681CEA
:10106000C5B200988542A5DB00BFBFE7382800085D
:10107000AC2C00089C320008140000201600002050
:10108000180000202DE9F0478046894615461E4687
:1010900000270024A24609EB0600401E83B208EB9D
:1010A0000500401E82B249464046FFF731FF05FB6E
:1010B00006F04FEA400A00BF0849601C0F5C4FF67B
:1010C000FF7000EA07270846005D0743384600F036
:1010D00047F8A41C5445EFDBBDE8F08750710008C9
:1010E0002DE9F84704460D4690469946DDE9096723
:1010F00004F0FF0A08EB04001FFA80F809EB050072
:101100001FFA80F916E0444502DB5446A81985B25F
:101110004D4500DB14E0002000903A783346294624
:101120002046FFF71BFF304606EBD07104EB610150
:101130008CB27F1C38787E2802DC38782028E2DAEE
:1011400000BFBDE8F8870000014908807047000033
:10115000FE07006C01490880704700000008006C21
:101160000112024A1180C1B2118070470008006C60
:1011700008B50121482000F0F1F82020ADF800006A
:1011800010208DF8030003208DF8020069460948FD
:10119000FFF7D9FA20210748FFF760FB2020ADF8C0
:1011A000000069460448FFF7CEFA20210248FFF705
:1011B00055FB08BD000C01400018014000BFFEE7D0
:1011C00010B51848407A00282BD1012015494872E3
:1011D0000B469A79598818880123FFF743FB044688
:1011E000012C14D10F4B9A795988188840F2FF735B
:1011F000FFF7A0FC0B4800880A380A4908800B4614
:101200009A79598818880023FFF7C0FD06E0054B3E
:101210009A79598818880023FFF7B8FD0020014902
:10122000487210BD8400002010B51848407A00288C
:101230002BD10120154948720B469A795988188894
:101240000223FFF70FFB0446012C14D10F4B9A79B0
:101250005988188840F2FF73FFF76CFC0B48008830
:101260000A300A4908800B469A7959881888002361
:10127000FFF78CFD06E0054B9A7959881888002302
:10128000FFF784FD00200149487210BD8400002052
:101290007047000070B5002100230F22C47804B30A
:1012A000154C246804F4E064C4F5E064210AC1F13B
:1012B0000403CA40447804FA03F1847814402143BB
:1012C00009010E4C0678A155047804F01F0501248D
:1012D000AC4005786D11AD0005F1E025C5F8004181
:1012E00009E0047804F01F050124AC40044D0678A1
:1012F000761145F8264070BD0CED00E000E400E0FA
:1013000080E100E002490143024A11607047000099
:101310000000FA050CED00E07047000029B1064A14
:1013200052690243044B5A6104E0034A5269824302
:10133000014B5A61704700000010024029B1064A73
:10134000D2690243044BDA6104E0034AD269824362
:10135000014BDA61704700000010024029B1064AD3
:1013600092690243044B9A6104E0034A9269824302
:10137000014B9A61704700000010024030B5002117
:101380000022002400232D4D6D6805F00C0121B1D1
:10139000042905D0082923D105E0294D056022E064
:1013A000274D05601FE0254D6D6805F47012234D33
:1013B0006D6805F48034022505EB92421CB9214D7D
:1013C000554305600BE01D4D6D6805F400351DB1FA
:1013D0001C4D5543056002E0194D5543056002E080
:1013E000174D056000BF00BF144D6D6805F0F0019A
:1013F0000909154D6B5C0568DD4045600F4D6D6852
:1014000005F4E061090A104D6B5C4568DD408560BC
:101410000A4D6D6805F46051C90A0B4D6B5C456857
:10142000DD40C560054D6D6805F44041890B074DF1
:101430006B5CC568B5FBF3F5056130BD001002407B
:1014400000127A0000093D0000000020100000207A
:1014500038B540F2FF7040F2171395221E2100901C
:101460000A20FFF721FD00200D4948600120887007
:1014700000200C49088048808880032406E048F258
:101480000100084921F81400601CC4B21C2CF6DBD2
:101490004FF6FF700349088700F08EF938BD000051
:1014A000900000204A000020704710B500F002F8BC
:1014B00010BD00000CB5002001900090334800687A
:1014C00040F480303149086000BF3048006800F4C3
:1014D000003000900198401C0190009818B90198C4
:1014E000B0F5A06FF1D12948006800F4003010B1C8
:1014F0000120009001E0002000900098012843D1D5
:101500002348006840F01000214908600846006840
:1015100020F0030008600846006840F00200086000
:101520001A484068194948600846406848600846BB
:10153000406840F4806048600846406820F47C10B1
:1015400048600846406840F4E81048600846006873
:1015500040F08070086000BF0C48006800F0007028
:101560000028F9D00948406820F003000749486086
:101570000846406840F00200486000BF03484068E9
:1015800000F00C000828F9D10CBD0000001002404A
:10159000002002407CB51E2540F2FF70FFF7A6FA3E
:1015A000002313220A21322000F02EFC00231422F3
:1015B0000A21422000F028FC002315220A21522093
:1015C00000F022FC002316220A21622000F01CFCFD
:1015D000002317220A21722000F016FC00230B22A0
:1015E0001E21A02000F010FC00230C221E21B020A0
:1015F00000F00AFC00230D221E21C02000F004FC94
:10160000002307226421A02000F0FEFB0023082213
:101610006421B02000F0F8FB002309228C21A020D7
:1016200000F0F2FB00230A228C21B02000F0ECFB3A
:1016300000231822D221AA2000F0E6FB0023192261
:10164000D221084600F0E0FB00231A22BE21084602
:1016500000F0DAFB00231B22E621BE2000F0D4FBC1
:101660004FF478404649088040F2FF7045490880B1
:1016700045A01021CDE900104648438802884FF468
:1016800096710A20FFF72CFD43A01021CDE9001030
:101690004048438802884FF4A0710A20FFF720FDDC
:1016A00040A01021CDE900103A48438802884FF449
:1016B000AA710A20FFF714FD0020314908803C4838
:1016C0001021CDE900103348438802887821AA20F0
:1016D000FFF706FD37481021CDE900102D4843885B
:1016E0000288A021AA20FFF7FBFC002415E00026B9
:1016F0000FE006EB8602322303EB420104EB840287
:10170000B42303EB420047F67C52FFF79BFA701CB0
:10171000C6B2042EEDDB601CC4B2042CE7DB00244F
:101720000AE047F67C5229460020FFF78BFA05F1C4
:101730000A0085B2601CC4B2192CF2DB1E250024FD
:101740000AE047F67C5229469620FFF77BFA05F11E
:101750000A0085B2601CC4B2192CF2DB00250024FB
:101760000BE047F67C524FF48C712846FFF76AFA7B
:1017700005F10A0085B2601CC4B2102CF1DB7CBDFF
:1017800014000020160000204B45595F55503A5474
:1017900055524E00180000204B4559303A524947E7
:1017A000485400004B4559313A4C4546540000001E
:1017B000980000209F00002010B5FEF74DFD10BDE1
:1017C000042808D14FF0E021096941F004014FF0ED
:1017D000E022116107E04FF0E021096921F00401E6
:1017E0004FF0E022116170477047000010B50446C9
:1017F0006FF00400FFF7E4FFE11704EB5171C1F350
:10180000C701074A11701046007800EB4001C1EB98
:10181000C0104FF6FF7101EAC0000249088010BDF8
:10182000A4000020A600002010B51348006840F076
:1018300001001149086008464068104908400E49F7
:101840004860084600680E4908400B490860084691
:10185000006820F4802008600846406820F4FE00FC
:1018600048604FF41F008860FFF71FFE4FF00060D4
:101870000449086010BD0000001002400000FFF89D
:10188000FFFFF6FE08ED00E000B59DB00121080263
:10189000FFF744FD01200790002008900F200990D9
:1018A00000200A900B900C900D9015200090019054
:1018B00005200290002003900490059006900620D9
:1018C0000E9000200F901090102011900020129088
:1018D00014901390159016904FF48050179000209C
:1018E00018904FF48040199000201A9007A81B9080
:1018F000CDF870D00EA8FEF7B3FE01210620FEF74A
:1019000095FE1DB000BD000008B501214FF4B47074
:10191000FFF724FD4CF23370ADF8000018208DF86D
:10192000030003208DF8020069461848FEF70BFFFC
:101930004FF68070ADF8000018208DF803000320EA
:101940008DF8020069461248FEF7FDFE41F20100E3
:10195000ADF8000018208DF8030003208DF8020078
:1019600069460C48FEF7EFFE0120ADF8000010209C
:101970008DF8030003208DF8020069460648FEF743
:10198000E2FE01200549086008BD00000014014086
:101990000018014000200140000C014080812142DC
:1019A00010B5FFF7B1FFFFF76FFF322000F0B2FD77
:1019B000D020FFF7C9FBFFF7A5FA89498880FFF718
:1019C000A1FA874988800846818886A000F022FC19
:1019D0001120FFF7B9FB4FF4FA7401E0601E84B2E6
:1019E000002CFBDCB920FFF7AFFBFF20FFF7B2FBB9
:1019F0008320FFF7AFFB5720FFF7ACFB4FF4FA74DF
:101A000001E0601E84B2002CFBDCB120FFF79CFBE0
:101A10000020FFF79FFB1420FFF79CFB1C20FFF723
:101A200099FB1C20FFF796FBC320FFF793FB442094
:101A3000FFF790FB7020FFF78DFB4FF4FA7401E085
:101A4000601E84B2002CFBDCB420FFF77DFB22205B
:101A5000FFF780FB4020FFF77DFB0020FFF77AFBBC
:101A60002A20FFF777FB2A20FFF774FB2020FFF7DF
:101A700071FB9120FFF76EFB4FF4FA7401E0601EDA
:101A800084B2002CFBDC3620FFF75EFB4C20FFF716
:101A900061FBC020FFF758FB5020FFF75BFB502095
:101AA000FFF758FB0120FFF755FB3C20FFF752FBE7
:101AB000C820FFF74FFB0820FFF74CFB0020FFF783
:101AC00049FB0820FFF746FB0420FFF743FB4FF4D8
:101AD000FA7401E0601E84B2002CFBDC4FF4FA744F
:101AE00001E0601E84B2002CFBDCE020FFF72CFB41
:101AF0000B20FFF72FFB1120FFF72CFB1E20FFF719
:101B000029FB3020FFF726FB3A20FFF723FB432079
:101B1000FFF720FB4E20FFF71DFB5620FFF71AFBB7
:101B20004520FFF717FB3F20FFF714FB3920FFF795
:101B300011FB3220FFF70EFB2F20FFF70BFB2A20B3
:101B4000FFF708FB2920FFF705FB2120FFF702FB29
:101B50000B20FFF7FFFA1120FFF7FCFA1E20FFF71A
:101B6000F9FA3020FFF7F6FA3A20FFF7F3FA4320AC
:101B7000FFF7F0FA4E20FFF7EDFA5620FFF7EAFAEA
:101B80004520FFF7E7FA3F20FFF7E4FA3920FFF797
:101B9000E1FA3220FFF7DEFA2F20FFF7DBFA2A20E6
:101BA000FFF7D8FA2920FFF7D5FA2120FFF7D2FA5C
:101BB0000020FFF7CFFA0120FFF7CCFA3A20FFF719
:101BC000C3FA0520FFF7C6FA2920FFF7BDFA002067
:101BD000FFF714F84FF6FF70FEF788FF10BD000006
:101BE00018000020204C43442049443A25780D0A2F
:101BF0000000000010B50121074800F098F8A22865
:101C000008D00648407A08B9FEF7ACFB012102482B
:101C100000F07EF810BD00000004004084000020A9
:101C20007FB505460C4601210220FFF787FBADF882
:101C30000850ADF804400020ADF80A00ADF80600E9
:101C400001A90E4800F08EF8012211460B4800F061
:101C50007FF81D208DF8000000208DF80100032082
:101C60008DF8020001208DF803006846FFF712FB93
:101C70000121024800F04FF87FBD00000004004041
:101C800010B50121064800F052F820B10120FEF7FE
:101C9000EBFE044908700121014800F039F810BD3D
:101CA00000080040200000207FB505460C460121B9
:101CB0000420FFF743FBADF80850ADF804400020C6
:101CC000ADF80A00ADF8060001A9104800F04AF886
:101CD000012211460D4800F03BF801210B4800F0AD
:101CE00017F81E208DF8000000208DF8010002205A
:101CF0008DF8020001208DF803006846FFF7CAFA4C
:101D00000121024800F007F87FBD000000080040F4
:101D1000CA430282704721B1028842F00102028068
:101D200004E002884FF6FE731A400280704730B517
:101D30000246002000230024158A05EA0103958944
:101D400005EA010413B10CB1012000E0002030BD10
:101D50001AB183890B43838102E083898B4383819A
:101D600070470000002202881D4B98420ED01D4B88
:101D700098420BD0B0F1804F08D01B4B984205D051
:101D80001A4B984202D01A4B984204D14FF68F73E7
:101D90001A404B881A43174B984207D0164B98426B
:101DA00004D04FF6FF431A40CB881A4302808B8839
:101DB00083850B8803850A4B98420BD0094B9842C8
:101DC00008D00E4B984205D00D4B984202D00D4BD7
:101DD000984201D10B7A0386012383827047000069
:101DE000002C014000340140000400400008004085
:101DF000000C004000100040001400400040014072
:101E000000440140004801402DE9F05F07460D46BF
:101E100016469846AB4600243BE0102C05DA1F49D5
:101E200001EB461010F8049009E0012000EB460099
:101E30001A4901EB0011A4F1100011F800904FF0C5
:101E4000000A20E009F0800028B1424629463846C1
:101E5000FEF713FF05E040F2FF7229463846FEF711
:101E60000CFF4FEA49604FEA1069681C85B2A5EB88
:101E70000B00102803D15D46781C87B206E00AF1FA
:101E8000010000F0FF0ABAF1080FDBDB00BF601CA5
:101E9000C4B2202CC1DBBDE8F09F000050C902088D
:101EA00010B51848407A00282AD1012015494872F7
:101EB0000B469A79598818880323FEF7D3FC044609
:101EC000012C13D10F4B9A795988188840F2FF736F
:101ED000FEF730FE0B48007A0A4988710B469A7962
:101EE000598818880023FEF751FF06E0054B9A79C0
:101EF000598818880023FEF749FF002001494872DD
:101F000010BD00008400002010B540F225511D488E
:101F100000F0B8F810B31B4800F070F9C4B21A48CA
:101F2000008800F40040C8B91748008800F48040D9
:101F300060B10A2C03D000201349088020E0124829
:101F4000008840F400401049088019E00D2C06D1AB
:101F50000D48008840F480400B49088010E00A4892
:101F60000088C0F30D0009490C5407480088401C44
:101F70000549088008460088C72801DD0020088040
:101F800010BD000000380140A8000020B40000206F
:101F900010B586B0044601210420FFF7DFF90121C6
:101FA0008803FFF7DBF94FF40070ADF8140003204D
:101FB0008DF8160018208DF8170005A91E48FEF7A9
:101FC000C2FB4FF48060ADF8140004208DF81700B8
:101FD00005A91948FEF7B7FB01940020ADF80800E9
:101FE000ADF80A00ADF80C00ADF810000C20ADF80B
:101FF0000E0001A9114800F095F801210F4800F0EA
:1020000028F840210D4800F01BF8012240F225512C
:102010000A4800F061F825208DF8000003208DF8B3
:1020200001008DF8020001208DF803006846FFF7DB
:1020300031F906B010BD0000000801400038014031
:1020400001F40072B2F5007F00D100BFCA430280E4
:10205000704721B1828942F40052828104E0828972
:102060004DF6FF731A408281704702460020B1F599
:10207000007F00D100BF13880B400BB1012000E0AE
:102080000020704770B50246002400230025002080
:1020900040F66A16B14200D100BFC1F3421501F00B
:1020A0001F03012606FA03F3012D02D1968933405E
:1020B00006E0022D02D1168A334001E0968A3340B1
:1020C0000C12012606FA04F41688344013B10CB140
:1020D000012000E0002070BDF0B50346002400267A
:1020E0000025002040F66A17B94200D100BF18460B
:1020F000C1F3421401F01F06012707FA06F5012C6F
:1021000001D10C3004E0022C01D1103000E0143079
:102110001AB107682F43076002E00768AF43076002
:10212000F0BD00002DE9F04786B005460E460024BC
:10213000A24600BFA1460027B08900B100BF2F46CC
:102140002C8A4CF6FF700440F08804432C82AC8942
:102150004EF6F3100440B088318908437189084372
:102160000443AC81AC8A4FF6FF400440B08904437D
:10217000AC8201A8FFF702F91F48874202D1DDF8BF
:1021800010A001E0DDF80CA0A88900F4004040B1E7
:102190000AEBCA0000EB0A1031684900B0FBF1F805
:1021A00007E00AEBCA0000EB0A1031688900B0FBB7
:1021B000F1F86420B8FBF0F004012009642101FB70
:1021C0001089A88900F4004040B1322000EBC9001A
:1021D000B0FBF1F000F00700044308E0322000EB10
:1021E00009106421B0FBF1F000F00F0004432C81D2
:1021F00006B0BDE8F087000000380140014688883D
:10220000C0F308007047C1F308028280704700BF26
:10221000FEE700000FB4054B10B503A9044A02986D
:1022200000F018F810BC5DF814FB000061250008F0
:10223000B000002002E008C8121F08C1002AFAD12D
:1022400070477047002001E001C1121F002AFBD136
:10225000704700002DE9FF4F8DB09B460F460446A6
:10226000002606E025280BD05A460F999047641C9B
:10227000761C20780028F5D111B03046BDE8F08FEB
:102280000025A8460122984900E0054314F8013FC3
:10229000203B02FA03F00842F7D120782E2817D10C
:1022A00014F8010F45F004052A280ED06FF02F0214
:1022B0002078A0F1300109290AD808EB880102EB47
:1022C000410100EB0108641CF2E757F8048B641C21
:1022D00020786C280DD004DC4C2812D06A2811D14B
:1022E00004E074280DD07A280CD10AE045F40015DA
:1022F00007E0617845F48015814202D1641C05F540
:102300008015641C2278692A45D008DC002AB3D0E5
:10231000582A69D0632A10D0642A08D13BE0702A79
:1023200067D0732A13D0752A5CD0782A5CD0104607
:102330005A460F999047761CD3E017F8040B8DF896
:10234000000000208DF80100E946012003E057F865
:10235000049B4FF0FF3069074FF0000501D40AE0FD
:102360006D1C45450DDA8542FADB19F80510002988
:10237000F6D106E06D1C8542FCDB19F8051000293A
:10238000F8D12E4404E019F8010B5A460F999047F2
:102390006D1EF8D2A5E00A200021CDE90801C5F3A1
:1023A000025002280DD001CFC117031E71F10003A6
:1023B0000DDA4FF0000CD0EB0C006CEB01012D237B
:1023C00008E0FF1D27F00707F7E80201EDE72B05FE
:1023D00004D52B238DF8283001233BE0EB0739D0BF
:1023E0002023F7E70A2000E010200021CDE90801B2
:1023F00007E01020002145F00405CDE908014FF069
:102400000808C5F3025002280FD001CF00214FF079
:10241000000A2B071FD5702A0DD0DDE908C38CF008
:10242000100C5CEA030C0CD015E0FF1D27F0070729
:10243000F7E80201EBE740228DF828204FF0010A6F
:102440000BE050EA010306D030238DF828308DF8D8
:10245000292002239A46582A04D024A20DF12009EB
:102460000B9209E026A2F9E7DDE90823FDF78EFECD
:102470000B9B9B5C09F8013D50EA0102F4D1ADEBE6
:10248000090020300890680701D44FF0010808992E
:10249000884502DDA8EB010000E000208046002511
:1024A00006E00AA85A46405D0F9990476D1C761CBD
:1024B0005545F6DB04E030205A460F999047761CCC
:1024C000B8F10001A8F10108F5DC05E019F8010BED
:1024D0005A460F999047761C0899481E0890002983
:1024E000F4DC641CC5E600000928010030313233F9
:1024F0003435363738396162636465660000000040
:102500003031323334353637383941424344454629
:10251000000000000146114A12884A434FF0E023B0
:102520005A6100229A611A46126942F001021A6148
:1025300000BF4FF0E022106900F001021AB100F470
:102540008032002AF5D04FF0E022126922F0010219
:102550004FF0E0231A6100229A617047A600002024
:1025600070B504460D46E1B20548FFF74CFE00BFCA
:1025700080210348FFF779FD0028F9D0204670BD7F
:10258000003801401CB54820FFF730F94FF4A06037
:10259000FEF7B8FEFEF7ECFD4FF4E130FFF7F8FC74
:1025A000FFF7FEF9FEF742FA4FF4FC60FEF79EFAE1
:1025B0004FF4A073F02200210846FEF763FD41F6B8
:1025C0001F410A20FFF770FB1FE04FF4784083495A
:1025D000088083A01021CDE9001088484388028834
:1025E0000A211420FEF77CFDC820FFF793FF84A08A
:1025F0001021CDE900108148438802880A21142067
:10260000FEF76EFDC820FFF785FF8448007801289B
:10261000DBD100218248FFF77EFB82484068824977
:10262000B0FBF1F03030814908707E4840687E4947
:10263000B0FBF1F201FB120042F21071B0FBF1F0BD
:1026400030307A494870774840687749B0FBF1F2FA
:1026500001FB120042F21071B0FBF1F201FB12001B
:102660004FF47A71B0FBF1F03030704988706D48EA
:1026700040686D49B0FBF1F201FB120042F21071AB
:10268000B0FBF1F201FB12004FF47A71B0FBF1F2F2
:1026900001FB12006421B0FBF1F030306349C870D7
:1026A000604840686049B0FBF1F201FB120042F261
:1026B0001071B0FBF1F201FB12004FF47A71B0FB24
:1026C000F1F201FB12006421B0FBF1F201FB1200F8
:1026D0000A21B0FBF1F0303054490871514840688C
:1026E0005149B0FBF1F201FB120042F21071B0FB54
:1026F000F1F201FB12004FF47A71B0FBF1F201FB31
:1027000012006421B0FBF1F201FB12000A21B0FBC0
:10271000F1F201FB12003030444948710020887109
:1027200040488078642190FBF1F0303040490870D7
:102730003C488078642190FBF1F201FB12000A21F1
:1027400090FBF1F030303A49487036488078642187
:1027500090FBF1F201FB12000A2190FBF1F201FB68
:1027600012003030324988700020C870FEF712FF26
:10277000FFF722F841F61F4141F28830FFF750FA87
:102780002AE00020FEF770F9244908700846007816
:10279000012809D0022804D0032808D1FEF710FD33
:1027A00006E0FEF741FD03E0FFF77AFB00E000BF23
:1027B00000BF601CC4B2142094FBF0F100FB114078
:1027C00038B91C48006808B9012000E00020194908
:1027D00008600A20FFF79EFED3E7000014000020E7
:1027E0005072657373204B5F5550206B6579207470
:1027F0006F20456E7465722E2E2E0000180000208A
:1028000020202020202020202020202020202020C8
:102810002020202020202020202000002000002038
:102820000008004090000020A086010098000020D1
:102830009F00002094812142000000000000000061
:1028400000000000000000003F4000000000000009
:1028500000003000400030004000000009000BC0C4
:102860003D000BC03D00090018C024407FE022401D
:1028700031800000180024C01B000D803240018010
:1028800003801C4027401C8007400040100060006F
:1028900000000000000000000000000000001F8099
:1028A000204040200000402020401F800000000009
:1028B000090006001F800600090000000400040053
:1028C0003F800400040000000010006000000000D1
:1028D00000000000040004000400040004000000E4
:1028E000000000400000000000000000002001C0C7
:1028F00006003800400000001F802040204020409B
:102900001F800000000010403FC000400000000099
:1029100018C0214022402440184000001080204070
:10292000244024401B80000002000D0011003FC025
:10293000014000003C8024402440244023800000CB
:102940001F802440244034400380000030002000D9
:1029500027C03800200000001B8024402440244071
:102960001B8000001C0022C0224022401F8000006B
:10297000000000000840000000000000000000000F
:102980000460000000000000000004000A001100C4
:1029900020804040090009000900090009000000EA
:1029A00000004040208011000A00040018002000B0
:1029B00023402400180000001F80204027402940A9
:1029C0001F400000004007C039000F0001C0004058
:1029D00020403FC0244024401B8000001F80204036
:1029E000204020403080000020403FC02040204058
:1029F0001F80000020403FC024402E4030C0000017
:102A000020403FC024402E00300000000F00108006
:102A1000204022403380020020403FC004000400D8
:102A20003FC02040204020403FC0204020400000C8
:102A30000060202020203FC02000200020403FC018
:102A400024400B0030C0204020403FC020400040C8
:102A5000004000C03FC03C0003C03C003FC000003D
:102A600020403FC00C4023003FC020001F8020407A
:102A7000204020401F80000020403FC02440240010
:102A8000180000001F802140214020E01FA000000E
:102A900020403FC02440260019C0004018C02440F8
:102AA0002440224031800000300020403FC02040C0
:102AB0003000000020003F80004000403F802000A8
:102AC00020003E0001C0070038002000380007C089
:102AD0003C0007C038000000204039C0060039C063
:102AE000204000002000384007C03840200000008F
:102AF000304021C02640384020C0000000000000C7
:102B00007FE0402040200000000070000C000380A7
:102B1000004000000000402040207FE00000000056
:102B20000000200040002000000000000010001005
:102B30000010001000100010000000004000000015
:102B400000000000000002800540054003C0004076
:102B500020003FC0044004400380000000000380C8
:102B6000044004400640000000000380044024406C
:102B70003FC00040000003800540054003400000C6
:102B8000000004401FC0244024402000000002E058
:102B9000055005500650042020403FC0044004006A
:102BA00003C000400000044027C0004000000000B7
:102BB00000100010041027E00000000020403FC07B
:102BC0000140070004C00440204020403FC00040B6
:102BD0000040000007C0040007C0040003C000005C
:102BE000044007C00440040003C00040000003800C
:102BF0000440044003800000041007F00450044027
:102C000003800000000003800440045007F000101F
:102C1000044007C002400400040000000000064019
:102C20000540054004C00000000004001F8004406F
:102C300000400000040007800040044007C000403E
:102C40000400070004C0018006000400060001C063
:102C5000070001C006000000044006C0010006C0D5
:102C6000044000000410071004E001800600040086
:102C70000000044005C006400440000000000000C1
:102C800004007BE040200000000000000000FFF096
:102C900000000000000040207BE004000000000075
:102CA00040008000400020002000400000000000A4
:102CB0000000000000000000000000000000000014
:102CC00000001FCC000C0000000000000000080005
:102CD000300060000800300060000000022003FCAB
:102CE0001E20022003FC1E200220000000000E18FF
:102CF00011043FFF10840C78000000000F001084C6
:102D00000F3800C0077818840078000000780F841E
:102D100010C411240E9800E4008400080800680024
:102D20007000000000000000000000000000000033
:102D3000000007E0181820044002000000004002D4
:102D40002004181807E000000000000002400240C4
:102D500001800FF0018002400240000000800080EE
:102D600000800FF800800080008000000001000D4E
:102D7000000E0000000000000000000000000080C5
:102D80000080008000800080008000800000000C37
:102D9000000C000000000000000000000000000621
:102DA000001800600180060018002000000007F0F5
:102DB000080810041004080807F0000000000804C8
:102DC00008041FFC000400040000000000000E0CBA
:102DD00010141024104411840E0C000000000C1874
:102DE00010041104110412880C700000000000E0AF
:102DF0000320042408241FFC0024000000001F9866
:102E0000108411041104108810700000000007F0F5
:102E100008881104110418880070000000001C00CC
:102E2000100010FC13001C001000000000000E3801
:102E300011441084108411440E3800000000070073
:102E4000088C10441044088807F0000000000000BF
:102E50000000030C030C0000000000000000000054
:102E600000010106000000000000000000000080DA
:102E70000140022004100808100400000220022073
:102E80000220022002200220022000000000100484
:102E900008080410022001400080000000000E001D
:102EA0001200100C106C10800F00000003E00C18D2
:102EB00013E4142417C4082807D000000004003CC1
:102EC00003C41C40074000E4001C000410041FFC65
:102ED0001104110411040E880070000003E00C18A6
:102EE00010041004100410081C10000010041FFC33
:102EF000100410041004080807F0000010041FFC60
:102F00001104110417C410040818000010041FFC59
:102F10001104110017C010000800000003E00C1895
:102F20001004100410441C780040000010041FFC22
:102F300010840080008010841FFC10040000100426
:102F400010041FFC10041004000000000003000126
:102F5000100110011FFE10001000000010041FFCE3
:102F6000110403801464181C1004000010041FFCDA
:102F70001004000400040004000C000010041FFCF6
:102F80001F0000FC1F001FFC1004000010041FFCA9
:102F90000C04030000E010181FFC100007F00808E4
:102FA000100410041004080807F0000010041FFCAF
:102FB00010841080108010800F00000007F00818A7
:102FC00010241024101C080A07F2000010041FFC33
:102FD0001104110011C011300E0C000400000E1C71
:102FE00011041084108410441C38000018001000D4
:102FF00010041FFC100410001800000010001FF83F
:1030000010040004000410041FF8100010001E003B
:1030100011E0001C007013801C0010001FC0103C49
:1030200000E01F0000E0103C1FC000001004180C5E
:10303000163401C001C01634180C100410001C0016
:10304000130400FC13041C00100000000804101CF2
:103050001064108413041C04101800000000000009
:1030600000007FFE400240024002000000003000ED
:103070000C0003800060001C000300000000400200
:10308000400240027FFE000000000000000000003F
:10309000200040004000400020000000000100012E
:1030A00000010001000100010001000100004000DA
:1030B0004000200000000000000000000000009818
:1030C000012401440144014400FC000410001FFCE1
:1030D00000880104010400880070000000000070F6
:1030E0000088010401040104008800000000007051
:1030F00000880104010411081FFC0004000000F80E
:10310000014401440144014400C8000000000104DE
:1031100001040FFC1104110411001800000000D676
:1031200001290129012901C90106000010041FFC21
:10313000008401000100010400FC000400000104FF
:10314000190419FC00040004000000000000000342
:1031500000010101190119FE0000000010041FFC0C
:103160000024004001B4010C010400000000100420
:1031700010041FFC0004000400000000010401FC16
:103180000104010001FC0104010000FC010401FC38
:10319000008401000100010400FC0004000000F8AC
:1031A000010401040104010400F80000010101FF11
:1031B0000085010401040088007000000000007018
:1031C000008801040104010501FF0001010401045C
:1031D00001FC00840104010001800000000000CC1B
:1031E00001240124012401240198000000000100B1
:1031F000010007F80104010400000000010001F8CB
:10320000000400040004010801FC00040100018026
:103210000170000C001001600180010001F0010C40
:10322000003001C00030010C01F001000000010479
:10323000018C00740170018C010400000101018106
:103240000171000E0018016001800100000001847E
:10325000010C013401440184010C00000000000055
:103260000000000001003EFC40024002000000009F
:1032700000000000FFFF000000000000000040020E
:1032800040023EFC01000000000000000000600061
:10329000800080004000400020002000000000006E
:1032A000000000000000000000000000000000001E
:1032B000000000000000000000000000000000000E
:1032C0000000000000000000000000000000000FEF
:1032D00080380FFE380F803800000000000000002A
:1032E00000000000000000000000010000060000D7
:1032F0000C00003800003100000600000C0000380F
:103300000000300000000000000000006180006745
:10331000F807F980006180006180006180006180B1
:103320000067F807F98000618000000000000000DD
:10333000000001C0E003E0F00630080418081FFF99
:10334000FE040E080787F00381E000000000000083
:1033500001F000060C00040408060C7001F9C0001E
:103360000E00003BE000EC18070808040C180003EE
:10337000E00000000001E00007F003F818041C085A
:1033800004170807E1D003C0E00023B0003C0800A8
:1033900020080000100000000000000100003100C3
:1033A000003200001C0000000000000000000000CF
:1033B000000000000000000000000000000000000D
:1033C0000000000000000000000000007F0001FF7E
:1033D000C00780F00C00181000042000020000005C
:1033E0000000002000021000040C00180780F0010B
:1033F000FFC0007F0000000000000000000000008F
:1034000000000000000000004200006600006600AE
:10341000003C0000180003FFC0001800003C000042
:10342000660000660000420000000000080000087E
:103430000000080000080000080001FFC0000800AC
:10344000000800000800000800000800000000005C
:10345000000100003100003200001C0000000000EC
:10346000000000000000000000000000000000005C
:10347000000000000800000800000800000800002C
:10348000080000080000080000080000080000080C
:1034900000000000000000000000000038000038BC
:1034A00000003800000000000000000000000000E4
:1034B0000000000000000000000000000006000006
:1034C0001C000070000180000E0000380000C000E9
:1034D0000700001C00003000000000000000000099
:1034E0007F8001FFE00380700600180400080400DC
:1034F0000806001803807001FFE0007F80000000D4
:10350000000000000000010008010008010008039D
:10351000FFF807FFF800000800000800000800009E
:103520000000000000000001C03802C058040098EC
:10353000040118040218040418061C1803F81801E2
:10354000E0F800000000000000000001C0E003C03F
:10355000F004000804080804080806180803F41812
:1035600001E7F00001E000000000000000000000A2
:103570000300000D0000110000610000810803013C
:103580000807FFF80FFFF80001080001080000001D
:103590000000000000E007FCD0060808061008063E
:1035A0001008061008061838060FF00607C00000BD
:1035B00000000000000000003F8001FFE0038430B5
:1035C0000208180410080410080410080718100353
:1035D0000FF00007C000000000000000000003C062
:1035E000000700000600000600F80607F8061800AD
:1035F00006E00007000006000000000000000001D7
:10360000E1E003F7F0063410041808041808040C6D
:1036100008040C0806161803F3F001C1E0000000CE
:1036200000000000F80003FC300306380402080420
:1036300002080402080404100308F001FFC0007F20
:10364000000000000000000000000000000000007A
:103650000000000070380070380070380000000072
:10366000000000000000000000000000000000005A
:103670000000000000000000301A00301C000000B4
:10368000000000000000000000000000000000003A
:10369000000000080000140000220000410000802B
:1036A0008001004002002004001008000800000013
:1036B0000000000021000021000021000021000086
:1036C0002100002100002100002100002100002134
:1036D00000000000000000000000080008040010C6
:1036E0000200200100400080800041000022000014
:1036F000140000080000000000000003C00004C027
:1037000000040000080038080F38080838081000C6
:103710000C300007E00003C00000000000000000C3
:103720003F8000FFE0038070020F1006708804C025
:1037300088048308047F8802C09003012000FE40B3
:103740000000080000180001F8003E0801C2000750
:10375000020007E20000FE00001FC80001F80000A0
:103760003800000804000807FFF807FFF8040808FD
:1037700004080804080804080806180803F41801D7
:10378000E7F00001E0000000000000003F8001FFC2
:10379000E003807002001804000804000804000818
:1037A0000400100600200780C00000000400080785
:1037B000FFF807FFF80400080400080400080400EC
:1037C0001802001003807001FFE0007F80000000FD
:1037D00004000807FFF807FFF804080804080804B5
:1037E0000808040808043E08040008060018010040
:1037F0006000000004000807FFF807FFF80408084D
:10380000040800040800040800043E000600000646
:103810000000018000000000000000003F8001FF68
:10382000E00380700600180400080402080402087F
:103830000203F00783F00002000002000400080702
:10384000FFF807FFF8040808000800000800000857
:103850000000080004080807FFF807FFF804000844
:10386000000000000000040008040008040008072D
:10387000FFF807FFF804000804000804000800002F
:10388000000000000000000000060000070000012A
:1038900004000104000104000307FFFE07FFFC040D
:1038A000000004000004000004000807FFF807FF00
:1038B000F8040C08001800003E0004C7800503C887
:1038C0000600F80400380400180000080400080787
:1038D000FFF807FFF80400080000080000080000D7
:1038E0000800000800000800001800006000000048
:1038F00004000807FFF807800807FC00007FC000ED
:1039000003F80007C000780007800807FFF807FFEA
:10391000F804000804000807FFF807000803C000C7
:1039200000E000003800001E000007000001C00495
:1039300000F007FFF8040000000000007F8001FF96
:10394000E003807006001804000804000806001850
:1039500003003001FFE0007F800000000400080742
:10396000FFF807FFF804040804040004040004043A
:1039700000040400060C0003F80001F00000000041
:10398000000000007F8001FFE003807006008804D3
:1039900000880400C806003C03003E01FFE6007FEB
:1039A0008400000004000807FFF807FFF804080877
:1039B000040800040C00040F00040BC00610F00300
:1039C000F03801E00800000800000001E0F803F012
:1039D00030063010041808041808040C08040C08F9
:1039E0000206180207F00781E000000001800006CF
:1039F000000004000004000004000807FFF807FFAF
:103A0000F804000804000004000006000001800023
:103A100004000007FFE007FFF004001800000800A2
:103A2000000800000800000800000804001007FF5C
:103A3000E004000004000006000007E00007FE00AC
:103A4000041FE00001F80000380001E0043E000718
:103A5000C00006000004000004000007E00007FFAB
:103A6000C0041FF80007C007F80007FF80043FF8F4
:103A70000007C004F8000700000400000000000474
:103A8000000806001807C07805F1C8003E00001FB6
:103A9000800463E80780F8060018040008000000AE
:103AA00004000006000007800007E008047C08000E
:103AB0001FF80007F800180804E0080700000600D7
:103AC000000400000000000100080600380400F8AF
:103AD0000403E8040F08047C0805F00807C0080781
:103AE000001804006000000000000000000000005A
:103AF000000000000000003FFFFE20000220000246
:103B0000200002200002200002000000000000004F
:103B1000000008000007000000C000003800000698
:103B2000000001C000003000000E00000100000095
:103B300000000000000020000220000220000220FF
:103B400000022000023FFFFE000000000000000015
:103B5000000000000000000000000000000800005D
:103B600010000030000020000030000010000008AD
:103B70000000000000000000000001000001000043
:103B8000010000010000010000010000010000012F
:103B90000000010000010000010000010000000021
:103BA00000000000002000002000001000001000B5
:103BB0000000000000000000000000000000000005
:103BC0000000000000F00019F8001B180022080097
:103BD0002608002408002410003FF8001FF8000009
:103BE0000800001800000004000007FFF80FFFF0B5
:103BF00000181800100800200800200800301800E5
:103C00001FF0000FC00000000000000007C0001FF0
:103C1000F0001830002008002008002008003C08B0
:103C2000001C100000600000000000000000000008
:103C300007C0001FF00038180020080020080020EE
:103C40000804101007FFF80FFFF00000100000003C
:103C50000000000000000007C0001FF0001230004C
:103C60002218002208002208003208001E10000E50
:103C700020000000000000002000002008002008B4
:103C800001FFF803FFF806200804200804200807B5
:103C9000200003000000000000000000000E000EE5
:103CA0006E001FF30031B10020B10020B10031914E
:103CB000001F13002E1E00200E0030000000000424
:103CC000000807FFF80FFFF8001008002000002090
:103CD00000002008003FF8001FF800000800000066
:103CE0000000000000000020080020080020080656
:103CF0003FF8063FF8000008000008000008000038
:103D000000000000000000000000000003000003AD
:103D1000002001002001002003063FFE063FFC00BA
:103D2000000000000000000000000004000807FF81
:103D3000F80FFFF8000188000300002FC00038F8DA
:103D400000203800200800000800000000000000EB
:103D5000000004000804000804000807FFF80FFF33
:103D6000F800000800000800000800000000000043
:103D7000002008003FF8003FF80010080020000075
:103D80003FF8003FF8001008002000003FF8003F17
:103D9000F8000008000000002008003FF8003FF88D
:103DA000001008001000002000002008003FF8006C
:103DB0001FF80000080000000000000007C0000F0E
:103DC000F0001830003008002008002008003008FB
:103DD000001830000FF00007C000000000000000D5
:103DE0002001003FFF003FFF0010110020090020CC
:103DF00008002008003038001FF0000FC00000004D
:103E00000000000007C0001FF00038180020080064
:103E10002008002009001011001FFF003FFF0000D4
:103E200001000000002008002008002008003FF8E2
:103E3000003FF800080800100800200800200000DB
:103E40003000003000000000000000000000000C06
:103E500078001E180033080023080021080021887C
:103E60000021980030F000386000000000000000E1
:103E7000200000200000200000FFF003FFF80020D9
:103E800008002008002008000030000000000000AA
:103E9000000000002000003FF0007FF80000180044
:103EA0000008000008002010003FF8007FF000002C
:103EB00010000000000000002000003000003C0066
:103EC000003F800023F00000780000700023800095
:103ED0003C00003000002000002000003C00003FBB
:103EE000E00023F80000E0002700003E00003FE073
:103EF0000021F80001E0003E00002000000000006A
:103F00002008002008003838003E680027800003A1
:103F1000C8002CF8003838002018002008000000E5
:103F2000000000002000003003003C01003F83003F
:103F300023EC000070002380003C000020000020E3
:103F400000000000000000000000003808002038D9
:103F50000020F80023E8002F88003E080038080001
:103F600020180000700000000000000000000000A9
:103F7000000000000000000008000014001FF7FC13
:103F800030000620000200000000000000000000D9
:103F90000000000000000000000000000000FFFF23
:103FA000FF00000000000000000000000000000012
:103FB0000000000000002000023000061FF7FC0097
:103FC00014000008000000000000000000000000D5
:103FD0000000000000000018000060000040000029
:103FE0004000002000001000000800000400000451
:103FF00000000C00001000000000000000000000A5
:1040000000000000000000000000000000000000B0
:1040100000000000000000000000000000000000A0
:104020000000000000000000000000000000000090
:104030000000000000000000000000000000000080
:104040000000000000000000000000000000000070
:104050000000000000000000000000000000000060
:104060000000000000000000000000000000000050
:104070000000000000000000000000000000000040
:104080000000000000000000000000000000000030
:1040900007F000C007FFE1E007F001E0000000C00A
:1040A0000000000000000000000000000000000010
:1040B0000000000000000000000000000000000000
:1040C00000000000000000000000000000000000F0
:1040D00000000000000000000000000000000000E0
:1040E00000000000000000000000000000000000D0
:1040F00000000000000000000000000000000000C0
:104100000020000001C00000078000001F00000028
:104110001E0000001C20000001C0000007800000FD
:104120001F0000001E0000001C0000000000000036
:10413000000000000000000000000000000000007F
:10414000000000000000000000000000000000006F
:10415000000000000000000000000000000000005F
:10416000000000000000000000000000000000004F
:1041700000000000000000000000000000180C001B
:1041800000180C0000180FE0001FFC0003F80C00E2
:1041900000180C0000180C0000180C0000180C008F
:1041A00000180FE0001FFC0003F80C0000180C00C2
:1041B00000180C00000000000000000000000000DB
:1041C00000000000000000000000000000000000EF
:1041D00000000000000000000000000000000000DF
:1041E00000000000000000000000000000000000CF
:1041F00000000000000000000000000000000000BF
:1042000000000780007807C000FC0640010E002077
:1042100003070020020380200FFFFFFC0201C020E3
:104220000200E0600130704001F03F8000F01F00AC
:10423000000000000000000000000000000000007E
:10424000000000000000000000000000000000006E
:10425000000000000000000000000000000000005E
:10426000000000000000000000000000000000004E
:10427000000000000000000000FE000001FF000040
:104280000301800002008060030181C001FF07007C
:1042900000FE18000000E0000003BF00000CFFC09B
:1042A0000071806001C10020030180600000FFC038
:1042B00000003F00000000000000000000000000BF
:1042C00000000000000000000000000000000000EE
:1042D00000000000000000000000000000000000DE
:1042E00000000000000000000000000000000000CE
:1042F000000000000000000000001F0000007FC060
:1043000000FCC0C001FF80600303E02002027820AF
:1043100002061E2003FC074001F00380000103C0D9
:1043200000011C600001E0200001002000010040AD
:1043300000000180000000000000000000000000FC
:10434000000000000000000000000000000000006D
:10435000000000000000000000000000000000005D
:10436000000000000000000000000000000000004D
:10437000000000000000000000000000002000001D
:104380001C6000001C4000001F8000000F000000A7
:10439000000000000000000000000000000000001D
:1043A000000000000000000000000000000000000D
:1043B00000000000000000000000000000000000FD
:1043C00000000000000000000000000000000000ED
:1043D00000000000000000000000000000000000DD
:1043E00000000000000000000000000000000000CD
:1043F00000000000000000000000000000000000BD
:1044000000000000000000000000000000000000AC
:10441000000000000007F800003FFF00007807C020
:1044200001C000E0030000300400000808000004A0
:10443000100000020000000000000000000000006A
:10444000000000000000000000000000000000006C
:10445000000000000000000000000000000000005C
:10446000000000000000000000000000000000004C
:10447000000000000000000000000000100000022A
:1044800008000004040000080300003001C000E040
:10449000007807C0003FFF000007F80000000000A0
:1044A000000000000000000000000000000000000C
:1044B00000000000000000000000000000000000FC
:1044C00000000000000000000000000000000000EC
:1044D00000000000000000000000000000000000DC
:1044E00000000000000000000000000000000000CC
:1044F00000000000000000000000000000000000BC
:10450000000C1800000E3800000E380000063000C5
:10451000000360000061438000FFFF8000614300F2
:104520000003600000063000000E3800000E380066
:10453000000C180000000000000000000000000057
:10454000000000000000000000000000000000006B
:10455000000000000000000000000000000000005B
:10456000000000000000000000000000000000004B
:10457000000000000000000000000000000000003B
:10458000000080000000800000008000000080002B
:104590000000800000008000007FFF00000080001D
:1045A000000080000000800000008000000080000B
:1045B000000080000000000000000000000000007B
:1045C00000000000000000000000000000000000EB
:1045D00000000000000000000000000000000000DB
:1045E00000000000000000000000000000000000CB
:1045F00000000000000000000000000000000001BA
:10460000000000E3000000E2000000FC0000007871
:10461000000000000000000000000000000000009A
:10462000000000000000000000000000000000008A
:10463000000000000000000000000000000000007A
:10464000000000000000000000000000000000006A
:10465000000000000000000000000000000000005A
:10466000000000000000000000000000000000004A
:1046700000000000000000000000000000008000BA
:10468000000080000000800000008000000080002A
:10469000000080000000800000008000000080001A
:1046A000000080000000800000008000000080000A
:1046B000000080000000000000000000000000007A
:1046C00000000000000000000000000000000000EA
:1046D00000000000000000000000000000000000DA
:1046E00000000000000000000000000000000000CA
:1046F00000000000000000000000000000000000BA
:10470000000000C0000001E0000001E0000000C067
:104710000000000000000000000000000000000099
:104720000000000000000000000000000000000089
:104730000000000000000000000000000000000079
:104740000000000000000000000000000000000069
:104750000000000000000000000000000000000059
:104760000000000000000000000000000000000049
:104770000000000000000000000000000000000C2D
:1047800000000038000000E00000038000000E0080
:10479000000038000000E00000038000000E000070
:1047A0000038000000E00000038000000E00000060
:1047B00018000000000000000000000000000000E1
:1047C00000000000000000000000000000000000E9
:1047D00000000000000000000000000000000000D9
:1047E00000000000000000000000000000000000C9
:1047F00000000000000000000000000000000000B9
:10480000000FF800007FFF0000F00780018000C06B
:1048100003000060020000200200002002000020CF
:1048200003000060018000C000E00380007FFF0003
:10483000000FF80000000000000000000000000071
:104840000000000000000000000000000000000068
:104850000000000000000000000000000000000058
:104860000000000000000000000000000000000048
:104870000000000000000000000000000000000038
:104880000000000000800020008000200080002048
:104890000080006001FFFFE003FFFFE00000006018
:1048A00000000020000000200000002000000000A8
:1048B00000000000000000000000000000000000F8
:1048C00000000000000000000000000000000000E8
:1048D00000000000000000000000000000000000D8
:1048E00000000000000000000000000000000000C8
:1048F00000000000000000000000000000000000B8
:10490000007800E00098016001000260020004608D
:104910000200086002001060020020600200406097
:10492000030080600183006001FE00E0007C0780DE
:104930000000000000000000000000000000000077
:104940000000000000000000000000000000000067
:104950000000000000000000000000000000000057
:104960000000000000000000000000000000000047
:104970000000000000000000000000000000000037
:1049800000F0078001F007C0010000400200002095
:104990000201002002010020020100200303802008
:1049A0000186804001FCC0C000787F8000001E00AE
:1049B00000000000000000000000000000000000F7
:1049C00000000000000000000000000000000000E7
:1049D00000000000000000000000000000000000D7
:1049E00000000000000000000000000000000000C7
:1049F00000000000000000000000000000000800AF
:104A0000000038000000480000018800000608008F
:104A1000000C0810003008100040081001FFFFF0E3
:104A200003FFFFF003FFFFF0000008100000081074
:104A3000000008100000000000000000000000005E
:104A40000000000000000000000000000000000066
:104A50000000000000000000000000000000000056
:104A60000000000000000000000000000000000046
:104A70000000000000000000000000000000000036
:104A800000000780001F864003E100200302002091
:104A9000030400200304002003040020030400207A
:104AA00003060040030301C00301FF8003007E00F2
:104AB00000000000000000000000000000000000F6
:104AC00000000000000000000000000000000000E6
:104AD00000000000000000000000000000000000D6
:104AE00000000000000000000000000000000000C6
:104AF00000000000000000000000000000000000B6
:104B00000007FC00003FFF000070C380008180C0F0
:104B100001010060030200200202002002020020C6
:104B2000020200200203004001C180C000C0FF80DB
:104B300000007E00000000000000000000000000F7
:104B40000000000000000000000000000000000065
:104B50000000000000000000000000000000000055
:104B60000000000000000000000000000000000045
:104B70000000000000000000000000000000000035
:104B800000F0000003C000000380000003000000EC
:104B9000030007E003003FE00301C000030600003C
:104BA0000318000003600000038000000300000001
:104BB00000000000000000000000000000000000F5
:104BC00000000000000000000000000000000000E5
:104BD00000000000000000000000000000000000D5
:104BE00000000000000000000000000000000000C5
:104BF00000000000000000000000000000001F0096
:104C000000783F8000FC60C0018EC0400307802018
:104C10000203002002018020020180200201C02046
:104C20000301E040018670C000FC3F8000781F0057
:104C30000000000000000000000000000000000074
:104C40000000000000000000000000000000000064
:104C50000000000000000000000000000000000054
:104C60000000000000000000000000000000000044
:104C7000000000000000000000000000003F0000F5
:104C800000FF81C001C0C1C00100602002002020DF
:104C9000020020200200202002002060020040C00C
:104CA0000100C18000C18F00007FFE00001FF000E6
:104CB00000000000000000000000000000000000F4
:104CC00000000000000000000000000000000000E4
:104CD00000000000000000000000000000000000D4
:104CE00000000000000000000000000000000000C4
:104CF00000000000000000000000000000000000B4
:104D000000000000000000000000000000000000A3
:104D1000000300C0000781E0000781E0000300C03D
:104D20000000000000000000000000000000000083
:104D30000000000000000000000000000000000073
:104D40000000000000000000000000000000000063
:104D50000000000000000000000000000000000053
:104D60000000000000000000000000000000000043
:104D70000000000000000000000000000000000033
:104D80000000000000000000000000000000000023
:104D90000006006600060078000000000000000029
:104DA0000000000000000000000000000000000003
:104DB00000000000000000000000000000000000F3
:104DC00000000000000000000000000000000000E3
:104DD00000000000000000000000000000000000D3
:104DE00000000000000000000000000000000000C3
:104DF00000000000000000000000000000000000B3
:104E0000000080000001C0000003600000063000C8
:104E1000000C180000180C000030060000600300B1
:104E200000C00180010000400200002004000010CA
:104E30000000000000000000000000000000000072
:104E40000000000000000000000000000000000062
:104E50000000000000000000000000000000000052
:104E60000000000000000000000000000000000042
:104E7000000000000000000000000000000410001E
:104E800000041000000410000004100000041000D2
:104E900000041000000410000004100000041000C2
:104EA00000041000000410000004100000041000B2
:104EB00000041000000000000000000000000000DE
:104EC00000000000000000000000000000000000E2
:104ED00000000000000000000000000000000000D2
:104EE00000000000000000000000000000000000C2
:104EF00000000000000000000000000000000000B2
:104F000004000010020000200100004000C00180E9
:104F1000006003000030060000180C00000C1800B0
:104F200000063000000360000001C00000008000A7
:104F30000000000000000000000000000000000071
:104F40000000000000000000000000000000000061
:104F50000000000000000000000000000000000051
:104F60000000000000000000000000000000000041
:104F70000000000000000000000000000000000031
:104F80000078000001F80000023800000200000074
:104F9000040000C0040079E0040081E0040100C0C6
:104FA00004030000020200000306000001FC0000F0
:104FB00000F80000000000000000000000000000F9
:104FC00000000000000000000000000000000000E1
:104FD00000000000000000000000000000000000D1
:104FE00000000000000000000000000000000000C1
:104FF000000000000000000000000000000FF800AA
:10500000003FFE000070078000C000C00101F840B2
:105010000307FC20021E042002300820022030205A
:10502000023FFC20013F044001800CC000E03180C1
:10503000001FC2000000000000000000000000008F
:105040000000000000000000000000000000000060
:105050000000000000000000000000000000000050
:105060000000000000000000000000000000000040
:1050700000000000000000000000002000000060B0
:10508000000003E000003E200003E020003E20007E
:1050900003E020000380200007FC2000003FE00028
:1050A0000003FE2000003FE0000001E000000020BF
:1050B00000000020000000000000000000000000D0
:1050C00000000000000000000000000000000000E0
:1050D00000000000000000000000000000000000D0
:1050E00000000000000000000000000000000000C0
:1050F000000000000000000000000000020000208E
:105100000200002003FFFFE003FFFFE00201002098
:105110000201002002010020020100200201002003
:10512000030300200186806001FCC0C000F87F807E
:1051300000001F0000000000000000000000000050
:10514000000000000000000000000000000000005F
:10515000000000000000000000000000000000004F
:10516000000000000000000000000000000000003F
:105170000000000000000000000000000007F80030
:10518000003FFF000070078000C000C00100004029
:105190000300002002000020020000200200002086
:1051A0000200002001000040018000C003C0018017
:1051B00000300600000000000000000000000000B9
:1051C00000000000000000000000000000000000DF
:1051D00000000000000000000000000000000000CF
:1051E00000000000000000000000000000000000BF
:1051F000000000000000000000000000020000208D
:105200000200002003FFFFE003FFFFE00200002098
:1052100002000020020000200200002003000060C5
:1052200001000040018000C000F00780007FFE0008
:10523000000FF80000000000000000000000000067
:10524000000000000000000000000000000000005E
:10525000000000000000000000000000000000004E
:10526000000000000000000000000000000000003E
:10527000000000000000000000000000020000200C
:105280000200002003FFFFE003FFFFE00201002017
:105290000201002002010020020100200201002082
:1052A00002038020020FE0200300006003C000E042
:1052B000006003000000000000000000000000008B
:1052C00000000000000000000000000000000000DE
:1052D00000000000000000000000000000000000CE
:1052E00000000000000000000000000000000000BE
:1052F000000000000000000000000000020000208C
:105300000200002003FFFFE003FFFFE00201002096
:105310000201002002010000020100000201000061
:105320000201000002038000030FE0000300000000
:1053300003C000000060000000000000000000004A
:10534000000000000000000000000000000000005D
:10535000000000000000000000000000000000004D
:10536000000000000000000000000000000000003D
:105370000000000000000000000000000007F8002E
:10538000003FFE000070078001C001C00100004026
:105390000300002002000020020000200200002084
:1053A000010020200100204003C03F8000303F80EA
:1053B00000002000000020000000000000000000AD
:1053C00000000000000000000000000000000000DD
:1053D00000000000000000000000000000000000CD
:1053E00000000000000000000000000000000000BD
:1053F0000000000000000000020000200200002069
:1054000003FFFFE003FFFFE0020080200200802096
:10541000000080000000800000008000020080206A
:105420000200802003FFFFE003FFFFE002000020F6
:10543000020000200000000000000000000000004A
:10544000000000000000000000000000000000005C
:10545000000000000000000000000000000000004C
:10546000000000000000000000000000000000003C
:10547000000000000000000000000000000000002C
:1054800000000000020000200200002002000020B6
:105490000200002003FFFFE003FFFFE00200002006
:1054A0000200002002000020020000200000000096
:1054B00000000000000000000000000000000000EC
:1054C00000000000000000000000000000000000DC
:1054D00000000000000000000000000000000000CC
:1054E00000000000000000000000000000000000BC
:1054F0000000000000000000000000000000000E9E
:105500000000000F0000000F000000010200000179
:1055100002000001020000030200000603FFFFFC7E
:1055200003FFFFF80200000002000000020000007C
:105530000200000000000000000000000000000069
:10554000000000000000000000000000000000005B
:10555000000000000000000000000000000000004B
:10556000000000000000000000000000000000003B
:105570000000000000000000000000000200002009
:105580000200002003FFFFE003FFFFE00200C02055
:105590000201002000078000000FE0000030F8004A
:1055A00002603E2003800F20030003E0020000E0C1
:1055B00002000020000000200000000000000000A9
:1055C00000000000000000000000000000000000DB
:1055D00000000000000000000000000000000000CB
:1055E00000000000000000000000000000000000BB
:1055F0000000000000000000000000000200002089
:105600000200002003FFFFE003FFFFE00200002094
:105610000200002000000020000000200000002008
:10562000000000200000002000000060000000E0FA
:105630000000030000000000000000000000000067
:10564000000000000000000000000000000000005A
:10565000000000000000000000000000000000004A
:10566000000000000000000000000000000000003A
:1056700000000000000000000200002002000020E6
:1056800003FFFFE003E0002003FF0020001FF00005
:105690000001FF8000000FE000001E000003E0009A
:1056A000003E002003E0002003FFFFE003FFFFE0D7
:1056B00002000020020000200000000000000000A6
:1056C00000000000000000000000000000000000DA
:1056D00000000000000000000000000000000000CA
:1056E00000000000000000000000000000000000BA
:1056F0000000000000000000020000200200002066
:1057000003FFFFE00380002003F0002000FC000006
:10571000001F00000007C0000001F00000007C0036
:1057200002001F80020007E003FFFFE0020000000C
:105730000200000000000000000000000000000067
:105740000000000000000000000000000000000059
:105750000000000000000000000000000000000049
:105760000000000000000000000000000000000039
:10577000000000000000000000000000000FF80022
:10578000003FFE0000F00780018000C001000040E3
:105790000200002002000020020000200200002081
:1057A00001000040018000C000F00380003FFE00C7
:1057B000000FF800000000000000000000000000E2
:1057C00000000000000000000000000000000000D9
:1057D00000000000000000000000000000000000C9
:1057E00000000000000000000000000000000000B9
:1057F0000000000000000000000000000200002087
:105800000200002003FFFFE003FFFFE00200802012
:105810000200802002008000020080000200800060
:1058200002008000030180000183000000FE0000F0
:10583000007C0000000000000000000000000000EC
:105840000000000000000000000000000000000058
:105850000000000000000000000000000000000048
:105860000000000000000000000000000000000038
:10587000000000000000000000000000000FF80021
:10588000007FFF0000F00380018001C0010006409E
:10589000020004200200042002000620020003E0AF
:1058A000010000F80180005C00E0038C003FFF0C69
:1058B000000FFC18000000000000000000000000C5
:1058C00000000000000000000000000000000000D8
:1058D00000000000000000000000000000000000C8
:1058E00000000000000000000000000000000000B8
:1058F0000000000000000000000000000200002086
:105900000200002003FFFFE003FFFFE00201002090
:1059100002010020020180000201E0000201FC00FF
:1059200003033F80018607E001FC00E000F800204F
:105930000000002000000000000000000000000047
:105940000000000000000000000000000000000057
:105950000000000000000000000000000000000047
:105960000000000000000000000000000000000037
:105970000000000000000000000000000000000027
:105980000078060000FE01E0018600C0030300402D
:105990000203002002018020020180200201C020B9
:1059A0000200C0200100E060018070C003E03F8081
:1059B00000001F00000000000000000000000000C8
:1059C00000000000000000000000000000000000D7
:1059D00000000000000000000000000000000000C7
:1059E00000000000000000000000000000000000B7
:1059F0000000000000000000000000000060000047
:105A000003800000030000000200000002000020EC
:105A10000200002003FFFFE003FFFFE00200002080
:105A200002000020020000000200000003800000CD
:105A300000E0000000000000000000000000000086
:105A40000000000000000000000000000000000056
:105A50000000000000000000000000000000000046
:105A60000000000000000000000000000000000036
:105A70000000000000000000020000000200000022
:105A800003FFFF0003FFFFC00200004002000060B0
:105A90000000002000000020000000200000002086
:105AA000020000400200008003FFFF00020000002F
:105AB00002000000000000000000000000000000E4
:105AC00000000000000000000000000000000000D6
:105AD00000000000000000000000000000000000C6
