:020000040800F2
:10000000080400204501000819040008E90200085E
:1000100015040008C5010008F105000800000000F3
:100020000000000000000000000000003D04000887
:10003000C9010008000000001B0400085105000869
:100040005F0100085F0100085F0100085F01000810
:100050005F0100085F0100085F0100085F01000800
:100060005F0100085F0100085F0100085F010008F0
:100070005F0100085F0100085F0100085F010008E0
:100080005F0100085F0100085F0100085F010008D0
:100090005F0100085F0100085F0100085F010008C0
:1000A0005F0100085F0100085F0100085F010008B0
:1000B0005F0100085F0100085F0100085F010008A0
:1000C0005F0100085F0100085F0100085F01000890
:1000D0005F0100085F0100085F0100085F01000880
:1000E0005F0100085F0100085F0100085F01000870
:1000F0005F0100085F0100085F0100085F01000860
:100100005F0100085F0100085F0100085F0100084F
:100110005F0100085F0100085F0100085F0100083F
:100120005F0100085F0100085F0100085F0100082F
:10013000DFF80CD000F018F800480047610600080E
:10014000080400200648804706480047FEE7FEE70F
:10015000FEE7FEE7FEE7FEE7FEE7FEE7FEE7FEE777
:100160009105000831010008064C074D06E0E068E3
:1001700040F0010394E8070098471034AC42F6D3EE
:10018000FFF7DAFFE80600080807000808B50121B4
:10019000082000F043F94FF48070ADF80000102003
:1001A0008DF8030003208DF802006946044800F032
:1001B0000CF84FF48071024800F092F808BD00007E
:1001C000000C014000BFFEE770472DE9F0410246F8
:1001D00000250026002000230024002791F803C0FA
:1001E0000CF00F0591F803C00CF0100CBCF1000FDF
:1001F00003D091F802C04CEA050591F800C0BCF1AB
:10020000000F31D0146800202BE04FF0010C0CFAE5
:1002100000F3B1F800C00CEA03069E4220D183002F
:100220004FF00F0C0CFA03F7BC4305FA03FC4CEA41
:10023000040491F803C0BCF1280F06D14FF0010C63
:100240000CFA00FCC2F814C00AE091F803C0BCF13B
:10025000480F05D14FF0010C0CFA00FCC2F810C099
:10026000401C0828D1D31460B1F800C0BCF1FF0FC6
:1002700034DD546800202EE000F1080C4FF0010836
:1002800008FA0CF3B1F800C00CEA03069E4221D133
:1002900083004FF00F0C0CFA03F7BC4305FA03FC84
:1002A0004CEA040491F803C0BCF1280F05D100F119
:1002B000080C08FA0CF8C2F8148091F803C0BCF1DD
:1002C000480F07D100F1080C4FF0010808FA0CF8AC
:1002D000C2F81080401C0828CED35460BDE8F081DD
:1002E000416170470161704700BFFEE708B5012119
:1002F000442000F093F80120ADF8000028208DF88C
:10030000030069460648FFF760FF1C20ADF80000B7
:1003100048208DF8030069460248FFF756FF08BDE4
:10032000000801400018014010B50446012C01D11D
:10033000224908702148007801282AD12048006805
:1003400001280AD01F48006838B11E48001F006805
:1003500018B11C4808380068D8B90A2000F05AF9CA
:1003600000201649087016480068012800D110BD09
:100370001448006808B90220F9E71248001F006815
:1003800008B90320F3E70F4808380068A0B9042033
:10039000EDE70B48006878B90A48006801280BD1DE
:1003A0000848001F0068012806D106480838006880
:1003B000012801D1014908700020D8E70000002081
:1003C000000121421001234208B50121482000F01C
:1003D00025F82020ADF8000010208DF80300032040
:1003E0008DF8020069460948FFF7EFFE2021074813
:1003F000FFF778FF2020ADF8000069460448FFF7BA
:10040000E4FE20210248FFF76DFF08BD000C01400B
:100410000018014000BFFEE77047704729B1064A47
:1004200092690243044B9A6104E0034A9269824351
:10043000014B9A617047000000100240704710B5F0
:1004400000F002F810BD00000CB5002001900090F3
:100450003348006840F480303149086000BF3048BC
:10046000006800F4003000900198401C0190009852
:1004700018B90198B0F5A06FF1D12948006800F4CF
:10048000003010B10120009001E0002000900098A1
:10049000012843D12348006840F01000214908603A
:1004A0000846006820F0030008600846006840F035
:1004B000020008601A4840681949486008464068C8
:1004C00048600846406840F48060486008464068DC
:1004D00020F47C1048600846406840F4E81048600A
:1004E0000846006840F08070086000BF0C48006853
:1004F00000F000700028F9D00948406820F003009F
:10050000074948600846406840F00200486000BF64
:100510000348406800F00C000828F9D10CBD000029
:100520000010024000200240042808D14FF0E021D2
:10053000096941F004014FF0E022116107E04FF03A
:10054000E021096921F004014FF0E02211617047B8
:100550007047000010B504466FF00400FFF7E4FF99
:10056000E11704EB5171C1F3C701074A117010463E
:10057000007800EB4001C1EBC0104FF6FF7101EABB
:10058000C0000249088010BD0200002004000020C5
:1005900010B51348006840F0010011490860084692
:1005A0004068104908400E494860084600680E49F6
:1005B00008400B4908600846006820F48020086065
:1005C0000846406820F4FE0048604FF41F00886031
:1005D000FFF735FF4FF000600449086010BD0000D0
:1005E000001002400000FFF8FFFFF6FE08ED00E0FB
:1005F00000BFFEE702E008C8121F08C1002AFAD1B6
:1006000070477047002001E001C1121F002AFBD192
:10061000704700000146114A12884A434FF0E02318
:100620005A6100229A611A46126942F001021A6167
:1006300000BF4FF0E022106900F001021AB100F48F
:100640008032002AF5D04FF0E022126922F0010238
:100650004FF0E0231A6100229A61704704000020E5
:1006600000254820FFF776FFFFF7AEFEFFF78EFD6F
:10067000FFF73CFE32E00020FFF756FE0446012C57
:1006800006D0022C10D0032C06D0042C10D107E089
:100690000020134908600BE001201149086007E0C1
:1006A00001201049086003E000200E49086000BFE7
:1006B00000BF681CC5B2142095FBF0F100FB11507F
:1006C00048B908480C38006808B9012000E000204B
:1006D00004490C3908600A20FFF79CFFCBE70000B3
:1006E00094012342A0812142080700080000002055
:1006F00008000000F40500081007000808000020AA
:1007000000040000040600080100000000000000D2
:0400000508000131BD
:00000001FF
