:020000040800F2
:10000000D8980020DD010008E903000895030008E6
:10001000E503000875020008470A00080000000018
:100020000000000000000000000000004501000882
:100030007902000800000000890100087506000828
:10004000F7010008F7010008F7010008F7010008B0
:10005000F7010008F7010008F7010008F7010008A0
:10006000F7010008F7010008F7010008F701000890
:10007000F7010008F7010008F7010008F701000880
:10008000F7010008F7010008F7010008F701000870
:10009000F7010008F7010008F7010008F701000860
:1000A000F7010008F7010008F7010008F701000850
:1000B000F7010008F7010008F7010008F701000840
:1000C000F7010008F7010008F7010008F701000830
:1000D000F701000841070008F7010008F7010008D0
:1000E000F7010008F7010008F7010008F701000810
:1000F000F7010008F7010008F7010008F701000800
:10010000F7010008F7010008F7010008F7010008EF
:10011000F7010008F7010008F7010008F7010008DF
:10012000F7010008F7010008F7010008F7010008CF
:10013000DFF80CD000F08CF800480047B90C00083C
:10014000D8980020224B19680868B0E8F00F80F3B7
:100150000988BFF36F8F4FF0000080F311884EF0D5
:100160000D0E70470000000006480068006880F32C
:10017000088862B661B6BFF34F8FBFF36F8F00DFA1
:1001800000BF00BF08ED00E0EFF30980BFF36F8F01
:100190000F4B1A6820E9F00F106008B54FF05000BF
:1001A00080F31188BFF34F8FBFF36F8F01F0E4FE30
:1001B0004FF0000080F31188BDE808401968086816
:1001C000B0E8F00F80F30988BFF36F8F704700BF6E
:1001D0003C000020EFF30580704700000648804790
:1001E00006480047FEE7FEE7FEE7FEE7FEE7FEE71C
:1001F000FEE7FEE7FEE7FEE7E10600083101000842
:1002000040EA01039B0703D009E008C9121F08C098
:10021000042AFAD203E011F8013B00F8013B521E18
:10022000F9D2704730B50B46014600202022012448
:1002300009E021FA02F59D4205D303FA02F5491BB4
:1002400004FA02F52844151EA2F10102F1DC30BDCA
:10025000064C074D06E0E06840F0010394E8070013
:1002600098471034AC42F6D3FFF766FFD42B000852
:10027000F42B000800BFFEE770472DE9F04102466D
:1002800000250026002000230024002791F803C049
:100290000CF00F0591F803C00CF0100CBCF1000F2E
:1002A00003D091F802C04CEA050591F800C0BCF1FA
:1002B000000F31D0146800202BE04FF0010C0CFA35
:1002C00000F3B1F800C00CEA03069E4220D183007F
:1002D0004FF00F0C0CFA03F7BC4305FA03FC4CEA91
:1002E000040491F803C0BCF1280F06D14FF0010CB3
:1002F0000CFA00FCC2F814C00AE091F803C0BCF18B
:10030000480F05D14FF0010C0CFA00FCC2F810C0E8
:10031000401C0828D1D31460B1F800C0BCF1FF0F15
:1003200034DD546800202EE000F1080C4FF0010885
:1003300008FA0CF3B1F800C00CEA03069E4221D182
:1003400083004FF00F0C0CFA03F7BC4305FA03FCD3
:100350004CEA040491F803C0BCF1280F05D100F168
:10036000080C08FA0CF8C2F8148091F803C0BCF12C
:10037000480F07D100F1080C4FF0010808FA0CF8FB
:10038000C2F81080401C0828CED35460BDE8F0812C
:100390000161704700BFFEE708B50121482000F069
:1003A00067F82020ADF8000010208DF8030003202E
:1003B0008DF8020069460948FFF75FFF20210748D2
:1003C000FFF7E6FF2020ADF8000069460448FFF77C
:1003D00054FF20210248FFF7DBFF08BD000C01405D
:1003E0000018014000BFFEE77047000070B5002113
:1003F00000230F22C47804B3154C246804F4E0648D
:10040000C4F5E064210AC1F10403CA40447804FA47
:1004100003F184781440214309010E4C0678A1555C
:10042000047804F01F050124AC4005786D11AD007F
:1004300005F1E025C5F8004109E0047804F01F0546
:100440000124AC40044D0678761145F8264070BD75
:100450000CED00E000E400E080E100E0024901432F
:10046000024A1160704700000000FA050CED00E040
:1004700029B1064A92690243044B9A6104E0034A97
:1004800092698243014B9A6170470000001002405C
:1004900030B500210022002400232D4D6D6805F0A9
:1004A0000C0121B1042905D0082923D105E0294DEB
:1004B000056022E0274D05601FE0254D6D6805F4BD
:1004C0007012234D6D6805F48034022505EB9242CD
:1004D0001CB9214D554305600BE01D4D6D6805F4B9
:1004E00000351DB11C4D5543056002E0194D5543C3
:1004F000056002E0174D056000BF00BF144D6D6838
:1005000005F0F0010909154D6B5C0568DD4045609B
:100510000F4D6D6805F4E061090A104D6B5C45688C
:10052000DD4085600A4D6D6805F46051C90A0B4DC8
:100530006B5C4568DD40C560054D6D6805F4404164
:10054000890B074D6B5CC568B5FBF3F5056130BDE4
:100550000010024000127A0000093D000C0000204B
:100560001C00002010B500F001F810BD0CB50020F3
:10057000019000903348006840F4803031490860B1
:1005800000BF3048006800F4003000900198401C23
:100590000190009818B90198B0F5A06FF1D12948E1
:1005A000006800F4003010B10120009001E000204C
:1005B00000900098012843D12348006840F01000C3
:1005C000214908600846006820F0030008600846DA
:1005D000006840F0020008601A4840681949486005
:1005E0000846406848600846406840F480604860BB
:1005F0000846406820F47C1048600846406840F493
:10060000E81048600846006840F08070086000BF4D
:100610000C48006800F000700028F9D009484068D4
:1006200020F00300074948600846406840F0020097
:10063000486000BF0348406800F00C000828F9D16A
:100640000CBD00000010024000200240042808D128
:100650004FF0E021096941F004014FF0E0221161FF
:1006600007E04FF0E021096921F004014FF0E0229A
:100670001161704710B502F077F8012801D001F040
:100680001FFD10BD70B505460420FFF7DFFF1048C1
:1006900000681049B0FBF1F00F4908700C48006881
:1006A0000C49B0FBF1F44FF47A70444301200B493C
:1006B00008804FF0E020006940F002004FF0E02198
:1006C000086108464461006940F00100086170BD9E
:1006D0002000002040420F0034000020360000209F
:1006E00010B51348006840F0010011490860084641
:1006F0004068104908400E494860084600680E49A5
:1007000008400B4908600846006820F48020086013
:100710000846406820F4FE0048604FF41F008860DF
:10072000FFF720FF4FF000600449086010BD000093
:10073000001002400000FFF8FFFFF6FE08ED00E0A9
:1007400010B540F225511D4800F0B8F810B31B4811
:1007500000F070F9C4B21A48008800F40040C8B92B
:100760001748008800F4804060B10A2C03D00020B4
:100770001349088020E01248008840F400401049E6
:10078000088019E00D2C06D10D48008840F4804007
:100790000B49088010E00A480088C0F30D000949A1
:1007A0000C5407480088401C05490880084600880A
:1007B000C72801DD0020088010BD0000003801407E
:1007C00038000020B400002010B586B00446012196
:1007D0000420FFF74DFE01218803FFF749FE4FF487
:1007E0000070ADF8140003208DF8160018208DF865
:1007F000170005A91E48FFF740FD4FF48060ADF8D3
:10080000140004208DF8170005A91948FFF735FDDD
:1008100001940020ADF80800ADF80A00ADF80C0016
:10082000ADF810000C20ADF80E0001A9114800F041
:1008300095F801210F4800F028F840210D4800F0FC
:100840001BF8012240F225510A4800F061F82520EA
:100850008DF8000003208DF801008DF802000120C2
:100860008DF803006846FFF7C1FD06B010BD00001B
:10087000000801400038014001F40072B2F5007F29
:1008800000D100BFCA430280704721B1828942F47F
:100890000052828104E082894DF6FF731A40828102
:1008A000704702460020B1F5007F00D100BF1388D9
:1008B0000B400BB1012000E00020704770B50246EC
:1008C000002400230025002040F66A16B14200D122
:1008D00000BFC1F3421501F01F03012606FA03F31E
:1008E000012D02D19689334006E0022D02D1168AED
:1008F000334001E0968A33400C12012606FA04F4D4
:100900001688344013B10CB1012000E0002070BD06
:10091000F0B50346002400260025002040F66A17A3
:10092000B94200D100BF1846C1F3421401F01F06BE
:10093000012707FA06F5012C01D10C3004E0022C46
:1009400001D1103000E014301AB107682F4307605E
:1009500002E00768AF430760F0BD00002DE9F047F3
:1009600086B005460E460024A24600BFA1460027D9
:10097000B08900B100BF2F462C8A4CF6FF700440AE
:10098000F08804432C82AC894EF6F3100440B08802
:1009900031890843718908430443AC81AC8A4FF61E
:1009A000FF400440B0890443AC8201A8FFF770FD0A
:1009B0001F48874202D1DDF810A001E0DDF80CA04D
:1009C000A88900F4004040B10AEBCA0000EB0A100D
:1009D00031684900B0FBF1F807E00AEBCA0000EB10
:1009E0000A1031688900B0FBF1F86420B8FBF0F020
:1009F00004012009642101FB1089A88900F400404A
:100A000040B1322000EBC900B0FBF1F000F007006C
:100A1000044308E0322000EB09106421B0FBF1F040
:100A200000F00F0004432C8106B0BDE8F087000001
:100A30000038014001468888C0F308007047C1F3C0
:100A400008028280704700BFFEE700000FB4054B2C
:100A500010B503A9044A029800F018F810BC5DF81C
:100A600014FB0000450C0008B000002002E008C89C
:100A7000121F08C1002AFAD170477047002001E018
:100A800001C1121F002AFBD1704700002DE9FF4F62
:100A90008BB09A460F460546002606E025280BD067
:100AA00052460D9990476D1C761C28780028F5D188
:100AB0000FB03046BDE8F08F0024A0460122604907
:100AC00000E0044315F8013F203B02FA03F008421E
:100AD000F7D128782E2817D115F8010F44F0040417
:100AE0002A280ED06FF02F022878A0F130010929B2
:100AF0000AD808EB880102EB410100EB01086D1CEC
:100B0000F2E757F8048B6D1C287869283ED006DC84
:100B10000028CDD063280BD0642804D136E0732898
:100B200010D075284BD052460D999047761C85E021
:100B300017F8040B8DF8000000208DF80100E9463D
:100B4000012003E057F8049B4FF0FF3061074FF09E
:100B5000000401D40AE0641C44450DDA8442FADB47
:100B600019F804100029F6D106E0641C8442FCDB6D
:100B700019F804100029F8D1264404E019F8010BF3
:100B800052460D999047641EF8D257E001CF4FF0BE
:100B90000A0B002802DA40422D2102E0210504D58B
:100BA0002B218DF82410012103E0E10705D020213D
:100BB000F7E70DF1200908910CE00021F9E701CFDA
:100BC0004FF00A0BF9E75946FFF72CFB01F1300211
:100BD00009F8012D0028F6D1ADEB090000F1200B3A
:100BE000600701D44FF00108D84502DDA8EB0B00E7
:100BF00000E000208046002406E009A85246005D7F
:100C00000D999047641C761C08988442F5DB04E03B
:100C1000302052460D999047761CB8F10001A8F19A
:100C20000108F5DC05E019F8010B52460D999047D3
:100C3000761CBBF10001ABF1010BF4DC6D1C34E759
:100C40000928010070B504460D46E1B20548FFF7DA
:100C5000F6FE00BF80210348FFF723FE0028F9D0ED
:100C6000204670BD003801400DE0002006490860B4
:100C7000C82000F0DFFF01200449C1F894014FF4BF
:100C8000487000F0D7FFF0E79481214200802142B4
:100C90000DE00020064908604FF4487000F0CAFFDC
:100CA00001200449C1F89401C82000F0C3FFF0E717
:100CB00094012342000023421CB54820FFF7E2FCC8
:100CC0004FF44070FFF7CAFBFFF766FB4FF4E130CB
:100CD000FFF77AFD0648012100238022CDE90010AC
:100CE00004A1074801F010FD01F0E8F800201CBD48
:100CF0000000002073746172745F7461736B000094
:100D00005D1800082DE9F04105460E461C480768AD
:100D10001C480068001D00F0D7FD50B91948006854
:100D200090F82C1001208840174909688143164823
:100D30000160681C38B936B112480168091D1348B2
:100D400000F000FE1AE07C190E4800684460BC42C6
:100D500007D20C480168091D0D48006800F0D8FD55
:100D60000CE008480168091D0A48006800F0D0FD41
:100D700009480068844201D207480460BDE8F08158
:100D8000500000203C000020540000209C04002063
:100D900044000020400000206C00002010B50446F4
:100DA00000F0DCFD23480068401C2249086022480E
:100DB000006840B9204804600846006801280DD149
:100DC00000F0D8F90AE01D48006838B91A480068F0
:100DD000C06AE16A884201D8174804601848006870
:100DE000401C1749086094F82C10012088401549D0
:100DF0000968084313490860E16A01EB8101124A5E
:100E000002EB8100211D00F09DFD00F0E9FD0B4883
:100E1000006868B108480068C06AE16A884207D281
:100E20004FF0805009490860BFF34F8FBFF36F8FB9
:100E300010BD00004C0000203C00002058000020A5
:100E40006800002054000020CC01002004ED00E0E8
:100E500010B500F083FD10480068D0B90F4800F0CD
:100E600047FD0F4800F044FD0C480E4908600C484F
:100E70000D49086000220C210A2001F03BF90649C7
:100E800008600846006820B108A10348006800F027
:100E900095FE00F0A5FD10BD80000020B0040020EC
:100EA000C4040020780000207C000020546D7251A2
:100EB0000000000070B523E001F056F81348006808
:100EC00008B9012000E00020054601F06DFDBDB924
:100ED00000F044FD0D48C068C468201D00F0F4FC1B
:100EE0000B480068401E0A4908600A480068401E16
:100EF0000849086000F074FD204600F057F800BF74
:100F0000044800680028D7D170BD00008804002084
:100F10004C0000204800002070B504460D46206CAF
:100F200070B1216CE0680844E0606168E068884264
:100F300001D32068E0602846226CE168FFF760F981
:100F400070BD2DE9F04104460F4615464FF00008EC
:100F5000A66B206C28B37DB93946226CA068FFF7D8
:100F60004FF9216CA0680844A060D4E901108842C0
:100F700017D32068A06014E03946226CE068FFF7C0
:100F80003FF9216CE068401AE0602168E06888421F
:100F900003D2216C6068401AE060022D01D106B1D5
:100FA000761E701CA0634046BDE8F08110B5044673
:100FB000206B00F04BFD204600F048FD10BD000006
:100FC0000146084A126812680AB9012200E00022AC
:100FD0000A600A6822B9034A1268D268106800E001
:100FE000002070477800002030B54FF410431748B8
:100FF00000F007042CB1C01D20F00700134C041BA7
:101000001B1B0246124C22600024114D6C60D0184C
:10101000083820F007000F4C206000240D4D2D688B
:101020006C600C4D2D682C601146441A4C60094CC4
:1010300024680C60084D4C682C60084D4C682C608E
:101040004FF00044064D2C6030BD0000D804002055
:101050008C000020940000209C00002098000020BC
:10106000A000002000BFFFF725FF06480068012808
:10107000F9D94FF0805004490860BFF34F8FBFF398
:101080006F8FF0E7CC01002004ED00E02DE9F04186
:1010900006460D4617469846069C0DB9246000E0AA
:1010A0002760E66325640121204601F033F9BDE89D
:1010B000F08100002DE9FF5F81460E469246DDE992
:1010C0000E7B109CAAF10100216B01EB800828F037
:1010D000070808F0070008B9012000E0002028B93F
:1010E00040F22B321AA11FA0FFF7B0FC002507E049
:1010F000715D04F134004155705D00B902E06D1C72
:10110000102DF5D300BF002143200155202F00D31F
:101110001F27E762201D00F0F8FB04F1180000F023
:10112000F4FB2461C7F12000A061646200206064C8
:1011300084F8480049464046039A00F07DFB206051
:10114000BBF1000F01D0CBF80040BDE8FF9F0000CD
:101150004672656552544F535C7461736B732E63B2
:10116000000000004572726F723A25732C25640DE1
:101170000A00000010B5002407E004EB84010F4AC8
:1011800002EB810000F0B4FB641C202CF5D30C486A
:1011900000F0AEFB0B4800F0ABFB0B4800F0A8FBE7
:1011A0000A4800F0A5FB0A4800F0A2FB04480949E0
:1011B000086004480849086010BD0000CC01002008
:1011C0004C040020600400207404002088040020E7
:1011D0009C040020400000204400002010B501467F
:1011E000164800E0006803688B42FBD30246436860
:1011F00013448B4204D143684C6823444360014646
:101200000A464B6813440468A34211D10C4C03688E
:101210002468A34208D04B680468646823444B6088
:1012200003681B680B6005E0054B1B680B6001E061
:1012300003680B60884200D0016010BD8C00002064
:10124000940000202DE9F04104460D4616461F4645
:101250004FF0000865602461B5420CD8F01BA1690D
:10126000884202D34FF0010811E0211D09480068AF
:1012700000F04EFB0BE0BE4204D2BD4202D34FF061
:10128000010804E0211D0448006800F041FB4046CD
:10129000BDE8F0817C0000207800002070B5054694
:1012A00000F05CFBA86B08B9012400E0002400F00A
:1012B00097FB204670BD70B5054600F04FFBA86B4C
:1012C000E96B884201D1012400E0002400F088FB92
:1012D000204670BDF8B505460F4613480068C06843
:1012E000C468201D00F0F0FAE069012818D1A06957
:1012F00041192B463A462046FFF7A4FF80B1002053
:1013000003462A4601460090204601F015FC064699
:101310002EB94FF4027205A109A0FFF797FB00BF99
:101320002046616A8847F8BD7800002046726565EE
:1013300052544F535C74696D6572732E63000000E4
:101340004572726F723A25732C25640D0A000000F5
:1013500070B586B060E0039800285DDB059C60698D
:1013600008B9012000E0002010B9201D00F0ACFAFF
:1013700002A800F0C5F8054603980A284AD2DFE81B
:1013800000F00905072C2E4506082D2F00BF00BFD1
:1013900000BF00BF0498A269811803462A46204670
:1013A000FFF750FFC0B12046616A8847E069012815
:1013B00012D1002000900498A16942180023194618
:1013C000204601F0B9FB06462EB940F2213218A1A1
:1013D0001CA0FFF73BFB00BF1DE000BF1BE000BFF0
:1013E0000498A061A06908B1012000E0002028B99C
:1013F0004FF44E720EA113A0FFF728FBA06941190C
:101400002B462A462046FFF71DFF04E0204600F049
:101410001DFB00E000BF00BF00231A4603A90D48D2
:10142000006800F0A1FE002895D106B070BD000054
:101430004672656552544F535C74696D6572732EC4
:10144000630000004572726F723A25732C25640D9B
:101450000A00000080000020F8B505460C4600F0A8
:1014600083FD684600F04CF80646009820BB44B95E
:10147000B54206D801F098FA31462846FFF72AFF10
:101480001CE03CB10E480068006808B9012000E08B
:1014900000200446A91B22460A48006800F0A4FB6D
:1014A00001F082FA50B94FF0805007490860BFF34D
:1014B0004F8FBFF36F8F01E001F076FAF8BD0000A7
:1014C0007C0000208000002004ED00E00A4909684B
:1014D000096809B9012100E0002121B14FF0FF3175
:1014E000064A116006E004490968C968C868034AE9
:1014F0004168116070470000400000206C0000202F
:1015000070B5044601F040F9054607480068854279
:1015100004D200F00BF80120206001E000202060E0
:1015200001480560284670BD880000202DE9F84379
:101530002DE021480068C06805681F480068C06841
:10154000C468201D00F0C0F92046616A8847E06940
:1015500001281CD1A0694619AE4207D966602461F2
:10156000211D1548006800F0D3F910E00020034663
:101570002A4601460090204601F0DEFA07462FB9C0
:1015800040F292320DA112A0FFF760FA00BF0A48A4
:101590000068006808B9012000E000200028C8D0D9
:1015A0000548D0F800800E480068034908600C48E0
:1015B000C0F80080BDE8F8837800002046726565B9
:1015C00052544F535C74696D6572732E6300000052
:1015D0004572726F723A25732C25640D0A00000063
:1015E0007C0000200B480068401C08B9012000E086
:1015F000002020B9F42208A111A0FFF727FA00BFAC
:10160000502080F31188BFF34F8FBFF36F8F00BF5F
:1016100000BFFEE7A40000204672656552544F5398
:101620005C706F727461626C655C525644535C41CD
:10163000524D5F434D335C706F72742E6300000037
:101640004572726F723A25732C25640D0A000000F2
:1016500008B500BF6846FFF7B3FC04462046009972
:10166000FFF7FAFEFFF774FEF4E770B5044600F0EA
:1016700075F994F9455010E0606A08B9012000E05E
:10168000002038B904F1240001F034F918B100F059
:1016900091FB00E003E0681E45B2002DECDC00BFCA
:1016A000FF2084F8450000F09BF900F057F994F909
:1016B000445010E0206908B9012000E0002048B93A
:1016C00004F1100001F016F908B100F073FB681E78
:1016D00045B200E001E0002DECDC00BFFF2084F803
:1016E000440000F07DF970BD2DE9F04104464FF053
:1016F000000800F039FC3E48006808B9FFF774FCA8
:101700003C480068204000285FD1A4B1083404F0B0
:10171000070080B104F00700C0F10800044404F0A1
:10172000070008B9012000E0002020B9BF2232A143
:101730003AA0FFF78BF9002C47D03C480068844260
:1017400043D83B4E3046056801E02E462D68686858
:10175000A04202D228680028F7D1254800688542B7
:1017600033D0306800F10808286830606868001BD2
:10177000102813D92F1907F0070008B9012000E03D
:10178000002020B9EC221CA124A0FFF75FF96868B3
:10179000001B78606C603846FFF720FD23496868BD
:1017A0000968081A21490860084600682149096843
:1017B000884203D21D4800681E4908600D496868C8
:1017C0000968084368600020286001F0EDF808F01F
:1017D000070008B9012000E0002028B94FF49672F4
:1017E00005A10EA0FFF732F94046BDE8F0810000E8
:1017F00094000020A00000204672656552544F53AB
:101800005C706F727461626C655C4D656D4D616E8C
:10181000675C686561705F342E6300004572726FAB
:10182000723A25732C25640D0A00000098000020F0
:101830008C0000209C000020001F4FF0807303608C
:10184000001F21F001030360001F034B03601438E5
:101850000260203870470000E51500081CB50446FA
:1018600000F07CF80D48022100233222CDE900105F
:101870000BA10E4800F048FF0D480321002332223F
:10188000CDE900100BA10E4800F03EFF0D480068A6
:1018900000F00AFA00F0A4F81CBD000004000020CB
:1018A0006C6564315F7461736B000000690C000843
:1018B000080000206C6564325F7461736B00000087
:1018C000910C00080000002001460A69D1E90130AE
:1018D0009860D1E9010358605068884201D1886856
:1018E0005060002008611068401E1060106870474A
:1018F00000F1080141604FF0FF31816000F1080103
:10190000C1600161002101607047002101617047E1
:1019100010B502460B685C1C0CB9106907E002F1B7
:10192000080000E04068446824689C42FAD9446892
:101930004C604C68A160886041600A611468641C56
:10194000146010BD42684A6093688B609368596068
:101950009160086103685B1C0360704710B500BFAD
:10196000502080F31188BFF34F8FBFF36F8F00BFFC
:101970000B480068401C0A490860084600680128B6
:101980000DD108480068C0B208B9012000E000206D
:1019900028B94FF4BD7204A10DA0FFF757F810BD90
:1019A000A400002004ED00E04672656552544F53D8
:1019B0005C706F727461626C655C525644535C413A
:1019C000524D5F434D335C706F72742E63000000A4
:1019D0004572726F723A25732C25640D0A0000005F
:1019E00010B50B48006828B940F2811209A113A074
:1019F000FFF72CF806480068401E054908600846B5
:101A0000006820B9002080F3118800BF00BF10BD1E
:101A1000A40000204672656552544F535C706F728B
:101A20007461626C655C525644535C41524D5F4335
:101A30004D335C706F72742E630000004572726FDC
:101A4000723A25732C25640D0A00000070B5064615
:101A50003546002E35D0083D2C461A496068096885
:101A6000084008B1012000E0002028B94FF4A0721E
:101A700015A11EA0FEF7EAFF206808B9012000E0CA
:101A8000002028B940F241120FA118A0FEF7DEFF96
:101A90000C4960680968084098B1206888B909490C
:101AA000606809688843606000F05EFA1349606806
:101AB00009680844114908602046FFF78FFB00F0D1
:101AC00073FF70BDA00000204672656552544F53ED
:101AD0005C706F727461626C655C4D656D4D616EBA
:101AE000675C686561705F342E6300004572726FD9
:101AF000723A25732C25640D0A000000980000201E
:101B0000064800684FF47A71B0FBF1F0401E4FF0C8
:101B1000E021486107200861704700002000002094
:101B200070B5FEF757FB0546102D11D305F1E020E7
:101B300090F8F04310480078844201DB012000E077
:101B4000002028B94FF42A720CA116A0FEF77EFFE0
:101B50001848006800F4E06017490968884201D815
:101B6000012000E0002028B94FF42E7203A10DA03F
:101B7000FEF76CFF70BD0000A8000020467265658E
:101B800052544F535C706F727461626C655C525654
:101B900044535C41524D5F434D335C706F72742E01
:101BA000630000004572726F723A25732C25640D34
:101BB0000A0000000CED00E0AC000020024600200E
:101BC0000BE0084B53F8303033B9064B43F8301074
:101BD00003EBC0035A6002E0401C0A28F1D300BFA7
:101BE000704700007C0100202DE9F04105460E46BB
:101BF00017462C46FFF7B2FE94F94400401C10B97A
:101C0000002084F8440094F94500401C10B90020DD
:101C100084F84500FFF7E4FEA06B28B93A46314648
:101C200004F1240000F0F6F82046FFF71EFDBDE8A1
:101C3000F081000070B504460025ACB10F48006883
:101C400008B9012000E0002028B940F2CF420CA1E1
:101C500010A0FEF7FBFE00F087F900212046FFF7F9
:101C600051F800F0A1FE05463DB94FF080500D49F6
:101C70000860BFF34F8FBFF36F8F70BD74000020FB
:101C80004672656552544F535C7461736B732E6377
:101C9000000000004572726F723A25732C25640DA6
:101CA0000A00000004ED00E070B50546FFF756FE9F
:101CB00015B92D48006800E028460446201DFFF7AE
:101CC00003FE78B9E06A00EB8000284951F8200053
:101CD00040B994F82C1001208840254909688143B7
:101CE00023480160A06A18B104F11800FFF7ECFD69
:101CF00020480068401C1F4908601B480068844257
:101D000009D1211D1C48FFF71DFE1C480068401C1E
:101D10001A49086009E01A480068401E184908601E
:101D20002046FFF743F9FFF7D1FBFFF759FE1548AF
:101D30000068C0B10C480068844214D112480068A1
:101D400008B9012000E0002028B940F265420FA147
:101D500013A0FEF77BFE4FF0805015490860BFF3DB
:101D60004F8FBFF36F8F70BD3C000020CC0100206F
:101D70005400002068000020880400204800002053
:101D80004C00002058000020740000204672656559
:101D900052544F535C7461736B732E6300000000E8
:101DA0004572726F723A25732C25640D0A0000008B
:101DB00004ED00E001200149086070476000002048
:101DC00070B504460D462CB940F6063207A10CA0AA
:101DD000FEF73CFE0E48016818312046FFF798FDDB
:101DE00001212846FEF78EFF70BD00004672656532
:101DF00052544F535C7461736B732E630000000088
:101E00004572726F723A25732C25640D0A0000002A
:101E10003C00002070B505460E4614462DB940F62C
:101E2000313209A10DA0FEF711FE104801681831EA
:101E30002846FFF787FD0CB14FF0FF3621463046AC
:101E4000FEF760FF70BD00004672656552544F5347
:101E50005C7461736B732E63000000004572726FD7
:101E6000723A25732C25640D0A0000003C00002006
:101E700010B504462CB940F6C13205A109A0FEF701
:101E8000E5FD0C48006820600B480068606010BDEC
:101E90004672656552544F535C7461736B732E6365
:101EA000000000004572726F723A25732C25640D94
:101EB0000A00000064000020500000201CB51A48F1
:101EC00000210B468022CDE9001018A1194800F02E
:101ED0001BFC0446012C02D100F0F6FD0446012C47
:101EE00015D100BF502080F31188BFF34F8FBFF38F
:101EF0006F8F00BF4FF0FF300F49086001200F497E
:101F0000086000200E49086000F08AF80BE0601CB1
:101F100008B1012000E0002028B940F2847209A134
:101F20000DA0FEF793FD1CBD7000002049444C45F8
:101F300000000000651000086C0000205800002020
:101F4000500000204672656552544F535C746173B3
:101F50006B732E63000000004572726F723A257336
:101F60002C25640D0A00000002480068401C01494D
:101F7000086070477400002010B51B48006818B155
:101F800001201A4908602DE000201849086018480F
:101F90000068B0FA80F0C0F11F0404EB840015491A
:101FA00051F8200008B1012000E0002028B940F6D7
:101FB000F62211A115A0FEF749FD04EB84010D4A9C
:101FC00002EB810041684968416000F10801426804
:101FD0008A4202D14168496841604168C9680F4A34
:101FE000116000BF10BD00007400002060000020E0
:101FF00054000020CC0100204672656552544F53B6
:102000005C7461736B732E63000000004572726F25
:10201000723A25732C25640D0A0000003C00002054
:102020001CB52248014609780191FF210246117032
:102030000146097800919DF8001001F050011C4AFA
:10204000117007211B4A116009E01A490968491EED
:10205000184A11609DF800104906090E00919DF87C
:10206000001001F080018029EFD0124909680902AF
:10207000104A11601146098801F4E06111600B4AB1
:10208000019911700C48006840F470000A4908601A
:102090000846006840F070400860FFF731FD0020FE
:1020A00006490860FEF760F800201CBD00E400E06F
:1020B000A8000020AC00002020ED00E0A4000020DB
:1020C00010B500BF502080F31188BFF34F8FBFF3CE
:1020D0006F8F00BF00F05EFB18B14FF080500449D5
:1020E000086000BF002080F3118800BF10BD000011
:1020F00004ED00E02DE9F84305460E4690460DB18B
:10210000012000E0002028B94FF4C4720DA112A0F4
:10211000FEF79CFC0EB9002701E005FB06F707F16E
:102120004800FFF7E1FA044644B104F14809434688
:102130004A46314628460094FEF7A8FF2046BDE8EF
:10214000F88300004672656552544F535C717565A3
:1021500075652E63000000004572726F723A257338
:102160002C25640D0A0000002DE9FF4782B00546CA
:102170000E461F464FF0000A2C462CB940F2DC42B6
:102180005AA15FA0FEF762FC0EB9206C08B90120CD
:1021900000E0002028B940F2DD4254A158A0FEF72B
:1021A00055FC00F0E1FA08B9049808B9012000E0F4
:1021B000002028B94FF49C624CA151A0FEF746FCC8
:1021C00000BFFFF7CBFBD4F83890B9F1000F38D03F
:1021D000D4F80C8031462046FEF79EFEB7B9A9F12F
:1021E0000100A063206908B9012000E0002010BBB5
:1021F00004F1100000F07EFBE8B14FF0805044493C
:102200000860BFF34F8FBFF36F8F14E0C4F80C80EA
:10221000606A08B9012000E0002060B904F12400E0
:1022200000F068FB38B14FF0805039490860BFF3C7
:102230004F8FBFF36F8FFFF7D3FB012006B0BDE8D0
:10224000F087049818B9FFF7CBFB0020F6E7BAF146
:10225000000F04D16846FFF70BFE4FF0010AFFF7AD
:10226000BFFBFFF781FEFFF779FB94F94400401CA8
:1022700010B9002084F8440094F94500401C10B9BE
:10228000002084F84500FFF7ABFB04A9684600F086
:10229000EBF9F0B92046FFF701F8A0B104F12400F2
:1022A0000499FFF78DFD2046FFF7DFF900F07CFB76
:1022B000002886D14FF0805015490860BFF34F8F3A
:1022C000BFF36F8F7DE72046FFF7CFF900F06CFB7F
:1022D00077E72046FFF7C9F900F066FB2046FEF7D6
:1022E000DDFF0028EED00020A8E7000046726565FB
:1022F00052544F535C71756575652E630000000084
:102300004572726F723A25732C25640D0A00000025
:1023100004ED00E070B505460E462C462CB940F29F
:102320001B121EA122A0FEF791FBFFF717FBD4E9B9
:102330000F12206801FB020060600020A06320688B
:10234000A060E06B401E226C216800FB0210E06080
:10235000FF2084F8440084F845009EB9206908B93C
:10236000012000E00020A8B904F1100000F0C2FA3A
:1023700080B14FF0805012490860BFF34F8FBFF318
:102380006F8F07E004F11000FFF7B2FA04F12400A8
:10239000FFF7AEFAFFF724FB012070BD46726565BA
:1023A00052544F535C71756575652E6300000000D3
:1023B0004572726F723A25732C25640D0A00000075
:1023C00004ED00E02DE9FF4383B0064688461D4634
:1023D0004FF0000934462CB940F2D92258A15DA033
:1023E000FEF734FBB8F1000F01D1206C08B90120D1
:1023F00000E0002028B940F2DA2251A155A0FEF7F2
:1024000025FB022D02D1E06B012801D1012000E063
:10241000002028B940F2DB2249A14EA0FEF716FBAE
:1024200000F0A2F908B9059808B9012000E00020E1
:1024300028B940F2DE2242A146A0FEF707FB00BF0A
:10244000FFF78CFAA06BE16B884201D3022D28D1F3
:102450002A4641462046FEF774FD0746606A08B9E1
:10246000012000E0002068B904F1240000F042FAE5
:1024700088B14FF080503B490860BFF34F8FBFF3E6
:102480006F8F08E03FB14FF0805036490860BFF3CE
:102490004F8FBFF36F8FFFF7A3FA012007B0BDE89E
:1024A000F083059818B9FFF79BFA0020F6E7B9F119
:1024B000000F04D101A8FFF7DBFC4FF00109FFF783
:1024C0008FFAFFF751FDFFF749FA94F94400401CD9
:1024D00010B9002084F8440094F94500401C10B95C
:1024E000002084F84500FFF77BFA05A901A800F059
:1024F000BBF8F0B92046FEF7DEFEA0B104F11000F3
:102500000599FFF75DFC2046FFF7AFF800F04CFAA5
:10251000002895D14FF0805012490860BFF34F8FCB
:10252000BFF36F8F8CE72046FFF79FF800F03CFA6F
:1025300086E72046FFF799F800F036FA0020ADE76D
:102540004672656552544F535C71756575652E63AF
:10255000000000004572726F723A25732C25640DDD
:102560000A00000004ED00E02DE9F05F07468A460E
:1025700090461E463C462CB940F29F3231A136A00F
:10258000FEF764FABAF1000F01D1206C08B90120FE
:1025900000E0002028B94FF468722AA12EA0FEF7AF
:1025A00055FA022E02D1E06B012801D1012000E092
:1025B000002028B940F2A13222A127A0FEF746FA56
:1025C000FFF7AEFA00BF5021EFF3118081F31188BD
:1025D000BFF34F8FBFF36F8F00BF0546A06BE16B5A
:1025E000884201D3022E23D194F945B03246514698
:1025F0002046FEF7A6FC0BF1010088B9606A08B915
:10260000012000E0002080B904F1240000F072F9FC
:1026100058B1B8F1000F08D00120C8F8000004E05C
:102620000BF1010040B284F845004FF0010901E0D0
:102630004FF0000900BF85F3118800BF4846BDE890
:10264000F09F00004672656552544F535C7175658A
:1026500075652E63000000004572726F723A257333
:102660002C25640D0A0000002DE9F04104460D46BA
:102670002CB940F6CB3219A11DA0FEF7E7F92DB910
:1026800040F6CC3215A11AA0FEF7E0F9FFF766F983
:102690001B4807682868401C08B9002619E019493A
:1026A00020680968884204D06068B84201D80126D1
:1026B0000FE06068381A2968884209D22868616882
:1026C000791A401A28602046FFF7D2FB002600E066
:1026D0000126FFF785F93046BDE8F0814672656551
:1026E00052544F535C7461736B732E63000000008F
:1026F0004572726F723A25732C25640D0A00000032
:1027000050000020640000202DE9FF4F85B0804676
:1027100089461746DDE912ABB800FEF7E5FF06462D
:1027200056B14C20FEF7E0FF04460CB1266304E0EE
:102730003046FFF78BF900E000247CB10020CDE9A2
:1027400000ABCDE902403A4649464046089BFEF7B9
:10275000B1FC2046FEF722FB012501E04FF0FF35DA
:10276000284609B0BDE8F08F0549096809B901207C
:1027700005E00449096809B9022000E0002070471B
:1027800058000020740000200149086870470000CC
:10279000500000202DE9F0414FF00008414800684A
:1027A000002872D140480068451C3F480560EDB9DB
:1027B0003E480068006808B9012000E0002028B900
:1027C00040F6D9123AA13FA0FEF740F93748076812
:1027D00040480068354908603E4807603E48006848
:1027E000401C3D490860FEF771FE00BF3B48006891
:1027F00085423CD300BF2D480068006808B901201D
:1028000000E0002020B14FF0FF30344908602DE097
:1028100026480068C068C4686668B54202D22F487E
:10282000066023E0201DFFF74FF8A06A18B104F1FD
:102830001800FFF749F894F82C1001208840284927
:102840000968084326490860E16A01EB8101254ACD
:1028500002EB8100211DFFF775F82349E06A096842
:10286000C96A8842C7D34FF00108C4E700BF1E48B9
:102870000068C06A00EB80001A4951F82000012866
:1028800001D94FF0010805E0FFE718480068401C37
:10289000164908601648006808B14FF00108404624
:1028A000BDE8F081740000205000002040000020AE
:1028B0004672656552544F535C7461736B732E633B
:1028C000000000004572726F723A25732C25640D6A
:1028D0000A00000044000020640000206C0000207A
:1028E00054000020CC0100203C0000205C000020AF
:1028F0006000002070B50646F068C4682CB940F648
:1029000061321AA11EA0FEF7A1F804F11800FEF72B
:10291000DBFF1F480068A8B9201DFEF7D5FF94F81B
:102920002C10012088401B49096808431949086098
:10293000E16A01EB8101184A02EB8100211DFFF7DA
:1029400001F804E004F118011448FEF7FBFF1449F4
:10295000E06A0968C96A884204D901250120114941
:10296000086000E00025284670BD000046726565DD
:1029700052544F535C7461736B732E6300000000FC
:102980004572726F723A25732C25640D0A0000009F
:102990007400002054000020CC01002074040020AA
:1029A0003C0000206000002070B500240026344860
:1029B000006828B94FF4FD6232A137A0FEF746F84F
:1029C000FEF7CCFF2E480068401E2D4908600846DF
:1029D000006800284FD13448006800284BD024E01C
:1029E0003248C068C46804F11800FEF76DFF201D6E
:1029F000FEF76AFF94F82C10012088402C490968E2
:102A000008432B490860E16A01EB8101294A02EB86
:102A10008100211DFEF796FF2749E06A0968C96A0F
:102A2000884202D30120254908602048006808B97F
:102A3000012000E000200028D2D00CB1FEF746FDB6
:102A40001F48056865B100BFFFF7A4FE10B1012063
:102A50001A4908606D1E002DF6D100201849086043
:102A60001648006838B10126300716490860BFF3E0
:102A70004F8FBFF36F8FFEF7B3FF304670BD00007E
:102A8000740000204672656552544F535C74617344
:102A90006B732E63000000004572726F723A2573EB
:102AA0002C25640D0A0000004C0000207404002056
:102AB00054000020CC0100203C00002060000020D9
:102AC0005C00002004ED00E01CB50024FEF7C0F916
:102AD0000B48006858B10B481F2100234FF4807247
:102AE000CDE9001008A10A48FFF70EFE04462CB9F4
:102AF00040F2331207A10CA0FDF7A8FF20461CBD31
:102B00008000002084000020546D72205376630002
:102B1000511600084672656552544F535C74696DD6
:102B20006572732E630000004572726F723A2573EE
:102B30002C25640D0A0000002DE9FE4304460D46D5
:102B400016461F46DDF828804FF000092CB94FF4D7
:102B5000D37216A11AA0FDF779FF1D48006810B3C3
:102B6000009501960294062D15DAFFF7FDFD022867
:102B700008D100234246694615480068FFF722FC49
:102B8000814610E000231A46694611480068FFF7A5
:102B900019FC814607E000233A4669460C48006864
:102BA000FFF7E2FC81464846BDE8FE834672656554
:102BB00052544F535C74696D6572732E630000004C
:102BC0004572726F723A25732C25640D0A0000005D
:102BD00080000020F42B000800000020B40000005A
:102BE0006C0A0008A82C0008B400002024980000FB
:102BF0007C0A000800000000000000000000000047
:102C00000000000001020304010203040607080992
:102C10000204060800A24A040000000000000000B0
:102C2000010203040607080900000000000000007C
:102C30000000000000000000000000000000000094
:102C40000000000000000000000000000000000084
:102C50000000000000000000000000000000000074
:102C60000000000000000000000000000000000064
:102C70000000000000000000000000000000000054
:102C80000000000000000000000000000000000044
:102C90000000000000000000AAAAAAAA000000008C
:082CA00000000000000000002C
:0400000508000131BD
:00000001FF
