:020000040800F2
:10000000E8980020DD010008D905000895030008E4
:10001000A505000875020008370C00080000000064
:100020000000000000000000000000004501000882
:100030007902000800000000890100086508000836
:10004000F7010008F7010008F7010008F7010008B0
:10005000F7010008F7010008F7010008F7010008A0
:10006000F7010008F7010008F7010008F701000890
:10007000F7010008F7010008F7010008F701000880
:10008000F7010008F7010008F7010008F701000870
:10009000F7010008F7010008F7010008F701000860
:1000A000F7010008F7010008F7010008F701000850
:1000B000F7010008F7010008F7010008F701000840
:1000C000F7010008F7010008F7010008F701000830
:1000D000F701000831090008F7010008F7010008DE
:1000E000F7010008F7010008F7010008F701000810
:1000F000F7010008F7010008F7010008F701000800
:10010000F7010008F7010008F7010008F7010008EF
:10011000F7010008F7010008F7010008F7010008DF
:10012000F7010008F7010008F7010008F7010008CF
:10013000DFF80CD000F08CF800480047810E000872
:10014000E8980020224B19680868B0E8F00F80F3A7
:100150000988BFF36F8F4FF0000080F311884EF0D5
:100160000D0E70470000000006480068006880F32C
:10017000088862B661B6BFF34F8FBFF36F8F00DFA1
:1001800000BF00BF08ED00E0EFF30980BFF36F8F01
:100190000F4B1A6820E9F00F106008B54FF05000BF
:1001A00080F31188BFF34F8FBFF36F8F02F096F883
:1001B0004FF0000080F31188BDE808401968086816
:1001C000B0E8F00F80F30988BFF36F8F704700BF6E
:1001D0004C000020EFF30580704700000648804780
:1001E00006480047FEE7FEE7FEE7FEE7FEE7FEE71C
:1001F000FEE7FEE7FEE7FEE7D10800083101000850
:1002000040EA01039B0703D009E008C9121F08C098
:10021000042AFAD203E011F8013B00F8013B521E18
:10022000F9D2704730B50B46014600202022012448
:1002300009E021FA02F59D4205D303FA02F5491BB4
:1002400004FA02F52844151EA2F10102F1DC30BDCA
:10025000064C074D06E0E06840F0010394E8070013
:1002600098471034AC42F6D3FFF766FF2C300008F5
:100270004C30000800BFFEE770472DE9F041024610
:1002800000250026002000230024002791F803C049
:100290000CF00F0591F803C00CF0100CBCF1000F2E
:1002A00003D091F802C04CEA050591F800C0BCF1FA
:1002B000000F31D0146800202BE04FF0010C0CFA35
:1002C00000F3B1F800C00CEA03069E4220D183007F
:1002D0004FF00F0C0CFA03F7BC4305FA03FC4CEA91
:1002E000040491F803C0BCF1280F06D14FF0010CB3
:1002F0000CFA00FCC2F814C00AE091F803C0BCF18B
:10030000480F05D14FF0010C0CFA00FCC2F810C0E8
:10031000401C0828D1D31460B1F800C0BCF1FF0F15
:1003200034DD546800202EE000F1080C4FF0010885
:1003300008FA0CF3B1F800C00CEA03069E4221D182
:1003400083004FF00F0C0CFA03F7BC4305FA03FCD3
:100350004CEA040491F803C0BCF1280F05D100F168
:10036000080C08FA0CF8C2F8148091F803C0BCF12C
:10037000480F07D100F1080C4FF0010808FA0CF8FB
:10038000C2F81080401C0828CED35460BDE8F0812C
:100390000161704700BFFEE7012423E012A000F0D6
:1003A0004DFC00235A1E19461748006802F08EF8CB
:1003B0000446012C02D115A000F040FC1A48006848
:1003C00008B9012000E000201749086000231A4600
:1003D00019460D48006802F0B5F904464FF4FA706A
:1003E00001F082FDDAE70000486967685072696FC2
:1003F000726974795F5461736B20BBF1C8A1D0C579
:10040000BAC5C1BF0A00000014000020486967682F
:100410005072696F726974795F5461736B205275A1
:100420006E6E696E670A00009401234208B50121CF
:10043000442000F015F90120ADF8000028208DF8C7
:10044000030069460648FFF718FF1C20ADF80000BE
:1004500048208DF8030069460248FFF70EFF08BDEB
:10046000000801400018014008B50121482000F0B3
:10047000F7F82020ADF8000010208DF803000320CD
:100480008DF8020069460948FFF7F7FE202107486A
:10049000FFF77EFF2020ADF8000069460448FFF713
:1004A000ECFE20210248FFF773FF08BD000C01405D
:1004B0000018014001243CE01EA000F0BFFB002317
:1004C0005A1E19462348006802F000F80446012C21
:1004D00002D121A000F0B2FB0020264908600CE008
:1004E0004FF0805024490860BFF34F8FBFF36F8FE8
:1004F00020480068401C1F4908601E4800681F49CA
:100500008842EDD31EA000F099FB00231A4619463D
:100510001048006802F016F904462148006808B93E
:10052000012000E000201E4908604FF4FA7001F03D
:10053000DBFCC1E74C6F775072696F726974795F49
:100540005461736B20BBF1C8A1D0C5BAC5C1BF0A45
:1005500000000000140000204C6F775072696F7229
:100560006974795F5461736B2052756E6E696E6742
:100570000A0A00001800002004ED00E080841E003C
:100580004C6F775072696F726974795F5461736BE5
:1005900020CACDB7C5D0C5BAC5C1BF210D0A00005C
:1005A0009401234200BFFEE706E004A000F046FBF2
:1005B0004FF4FA7001F098FCF7E700004D696450C1
:1005C00072696F726974795F5461736B2052756ED2
:1005D0006E696E670A0000007047000070B5002168
:1005E00000230F22C47804B3154C246804F4E0649B
:1005F000C4F5E064210AC1F10403CA40447804FA56
:1006000003F184781440214309010E4C0678A1556A
:10061000047804F01F050124AC4005786D11AD008D
:1006200005F1E025C5F8004109E0047804F01F0554
:100630000124AC40044D0678761145F8264070BD83
:100640000CED00E000E400E080E100E0024901433D
:10065000024A1160704700000000FA050CED00E04E
:1006600029B1064A92690243044B9A6104E0034AA5
:1006700092698243014B9A6170470000001002406A
:1006800030B500210022002400232D4D6D6805F0B7
:100690000C0121B1042905D0082923D105E0294DF9
:1006A000056022E0274D05601FE0254D6D6805F4CB
:1006B0007012234D6D6805F48034022505EB9242DB
:1006C0001CB9214D554305600BE01D4D6D6805F4C7
:1006D00000351DB11C4D5543056002E0194D5543D1
:1006E000056002E0174D056000BF00BF144D6D6846
:1006F00005F0F0010909154D6B5C0568DD404560AA
:100700000F4D6D6805F4E061090A104D6B5C45689A
:10071000DD4085600A4D6D6805F46051C90A0B4DD6
:100720006B5C4568DD40C560054D6D6805F4404172
:10073000890B074D6B5CC568B5FBF3F5056130BDF2
:100740000010024000127A0000093D001C00002049
:100750002C00002010B500F001F810BD0CB50020F1
:10076000019000903348006840F4803031490860BF
:1007700000BF3048006800F4003000900198401C31
:100780000190009818B90198B0F5A06FF1D12948EF
:10079000006800F4003010B10120009001E000205A
:1007A00000900098012843D12348006840F01000D1
:1007B000214908600846006820F0030008600846E8
:1007C000006840F0020008601A4840681949486013
:1007D0000846406848600846406840F480604860C9
:1007E0000846406820F47C1048600846406840F4A1
:1007F000E81048600846006840F08070086000BF5C
:100800000C48006800F000700028F9D009484068E2
:1008100020F00300074948600846406840F00200A5
:10082000486000BF0348406800F00C000828F9D178
:100830000CBD00000010024000200240042808D136
:100840004FF0E021096941F004014FF0E02211610D
:1008500007E04FF0E021096921F004014FF0E022A8
:100860001161704710B502F03FF9012801D001F085
:10087000D9FD10BD70B505460420FFF7DFFF104815
:1008800000681049B0FBF1F00F4908700C4800688F
:100890000C49B0FBF1F44FF47A70444301200B494A
:1008A00008804FF0E020006940F002004FF0E021A6
:1008B000086108464461006940F00100086170BDAC
:1008C0003000002040420F0044000020460000207D
:1008D00010B51348006840F001001149086008464F
:1008E0004068104908400E494860084600680E49B3
:1008F00008400B4908600846006820F48020086022
:100900000846406820F4FE0048604FF41F008860ED
:10091000FFF720FF4FF000600449086010BD0000A1
:10092000001002400000FFF8FFFFF6FE08ED00E0B7
:1009300010B540F225511D4800F0B8F810B31B481F
:1009400000F070F9C4B21A48008800F40040C8B939
:100950001748008800F4804060B10A2C03D00020C2
:100960001349088020E01248008840F400401049F4
:10097000088019E00D2C06D10D48008840F4804015
:100980000B49088010E00A480088C0F30D000949AF
:100990000C5407480088401C054908800846008818
:1009A000C72801DD0020088010BD0000003801408C
:1009B00048000020C400002010B586B00446012184
:1009C0000420FFF74DFE01218803FFF749FE4FF495
:1009D0000070ADF8140003208DF8160018208DF873
:1009E000170005A91E48FFF748FC4FF48060ADF8DA
:1009F000140004208DF8170005A91948FFF73DFCE5
:100A000001940020ADF80800ADF80A00ADF80C0024
:100A1000ADF810000C20ADF80E0001A9114800F04F
:100A200095F801210F4800F028F840210D4800F00A
:100A30001BF8012240F225510A4800F061F82520F8
:100A40008DF8000003208DF801008DF802000120D0
:100A50008DF803006846FFF7C1FD06B010BD000029
:100A6000000801400038014001F40072B2F5007F37
:100A700000D100BFCA430280704721B1828942F48D
:100A80000052828104E082894DF6FF731A40828110
:100A9000704702460020B1F5007F00D100BF1388E7
:100AA0000B400BB1012000E00020704770B50246FA
:100AB000002400230025002040F66A16B14200D130
:100AC00000BFC1F3421501F01F03012606FA03F32C
:100AD000012D02D19689334006E0022D02D1168AFB
:100AE000334001E0968A33400C12012606FA04F4E2
:100AF0001688344013B10CB1012000E0002070BD15
:100B0000F0B50346002400260025002040F66A17B1
:100B1000B94200D100BF1846C1F3421401F01F06CC
:100B2000012707FA06F5012C01D10C3004E0022C54
:100B300001D1103000E014301AB107682F4307606C
:100B400002E00768AF430760F0BD00002DE9F04701
:100B500086B005460E460024A24600BFA1460027E7
:100B6000B08900B100BF2F462C8A4CF6FF700440BC
:100B7000F08804432C82AC894EF6F3100440B08810
:100B800031890843718908430443AC81AC8A4FF62C
:100B9000FF400440B0890443AC8201A8FFF770FD18
:100BA0001F48874202D1DDF810A001E0DDF80CA05B
:100BB000A88900F4004040B10AEBCA0000EB0A101B
:100BC00031684900B0FBF1F807E00AEBCA0000EB1E
:100BD0000A1031688900B0FBF1F86420B8FBF0F02E
:100BE00004012009642101FB1089A88900F4004058
:100BF00040B1322000EBC900B0FBF1F000F007007B
:100C0000044308E0322000EB09106421B0FBF1F04E
:100C100000F00F0004432C8106B0BDE8F08700000F
:100C20000038014001468888C0F308007047C1F3CE
:100C300008028280704700BFFEE700000FB4054B3A
:100C400010B503A9044A029800F018F810BC5DF82A
:100C500014FB0000350E0008C000002002E008C8A8
:100C6000121F08C1002AFAD170477047002001E026
:100C700001C1121F002AFBD1704700002DE9FF4F70
:100C80008BB09A460F460546002606E025280BD075
:100C900052460D9990476D1C761C28780028F5D196
:100CA0000FB03046BDE8F08F0024A0460122604915
:100CB00000E0044315F8013F203B02FA03F008422C
:100CC000F7D128782E2817D115F8010F44F0040425
:100CD0002A280ED06FF02F022878A0F130010929C0
:100CE0000AD808EB880102EB410100EB01086D1CFA
:100CF000F2E757F8048B6D1C287869283ED006DC93
:100D00000028CDD063280BD0642804D136E07328A6
:100D100010D075284BD052460D999047761C85E02F
:100D200017F8040B8DF8000000208DF80100E9464B
:100D3000012003E057F8049B4FF0FF3061074FF0AC
:100D4000000401D40AE0641C44450DDA8442FADB55
:100D500019F804100029F6D106E0641C8442FCDB7B
:100D600019F804100029F8D1264404E019F8010B01
:100D700052460D999047641EF8D257E001CF4FF0CC
:100D80000A0B002802DA40422D2102E0210504D599
:100D90002B218DF82410012103E0E10705D020214B
:100DA000F7E70DF1200908910CE00021F9E701CFE8
:100DB0004FF00A0BF9E75946FFF734FA01F1300218
:100DC00009F8012D0028F6D1ADEB090000F1200B48
:100DD000600701D44FF00108D84502DDA8EB0B00F5
:100DE00000E000208046002406E009A85246005D8D
:100DF0000D999047641C761C08988442F5DB04E04A
:100E0000302052460D999047761CB8F10001A8F1A8
:100E10000108F5DC05E019F8010B52460D999047E1
:100E2000761CBBF10001ABF1010BF4DC6D1C34E767
:100E30000928010070B504460D46E1B20548FFF7E8
:100E4000F6FE00BF80210348FFF723FE0028F9D0FB
:100E5000204670BD003801400DE0002006490860C2
:100E6000C82001F041F801200449C1F894014FF471
:100E7000487001F039F8F0E7948121420080214266
:100E80001CB54820FFF7F6FC4FF44070FFF7DEFB7F
:100E9000FFF7EAFAFFF7CAFA4FF4E130FFF78CFDEB
:100EA00008A0FFF7CBFE0E48012100238022CDE9E8
:100EB00000100CA10E4801F0E7FD01F0B1F900208F
:100EC0001CBD00004672656552544F53D3C5CFC850
:100ED000BCB6B7ADD7AACAB5D1E90D0A000000006B
:100EE0000000002073746172745F7461736B0000A2
:100EF000811A00082DE9F04105460E461C48076896
:100F00001C480068001D00F039FE50B919480068FF
:100F100090F82C1001208840174909688143164831
:100F20000160681C38B936B112480168091D1348C0
:100F300000F062FE1AE07C190E4800684460BC4272
:100F400007D20C480168091D0D48006800F03AFE00
:100F50000CE008480168091D0A48006800F032FEEC
:100F600009480068844201D207480460BDE8F08166
:100F7000600000204C00002064000020AC04002031
:100F800054000020500000207C00002010B50446D2
:100F900000F03EFE23480068401C224908602248B9
:100FA000006840B9204804600846006801280DD157
:100FB00000F0E2F90AE01D48006838B91A480068F4
:100FC000C06AE16A884201D817480460184800687E
:100FD000401C1749086094F82C10012088401549DE
:100FE0000968084313490860E16A01EB8101124A6C
:100FF00002EB8100211D00F0FFFD00F04BFE0B48CD
:10100000006868B108480068C06AE16A884207D28F
:101010004FF0805009490860BFF34F8FBFF36F8FC7
:1010200010BD00005C0000204C0000206800002083
:101030007800002064000020DC01002004ED00E0C6
:1010400010B500F0E5FD10480068D0B90F4800F079
:10105000A9FD0F4800F0A6FD0C480E4908600C4899
:101060000D49086000220C210A2001F0F5F906491B
:1010700008600846006820B108A10348006800F035
:10108000F7FE00F007FE10BD90000020C004002015
:10109000D4040020880000208C000020546D725180
:1010A0000000000070B523E001F010F9134800685B
:1010B00008B9012000E00020054601F0A1FEBDB9FD
:1010C00000F0A6FD0D48C068C468201D00F056FD64
:1010D0000B480068401E0A4908600A480068401E24
:1010E0000849086000F0D6FD204600F060F800BF17
:1010F000044800680028D7D170BD00009804002083
:101100005C0000205800002070B504460D46206C9D
:1011100070B1216CE0680844E0606168E068884272
:1011200001D32068E0602846226CE168FFF768F888
:1011300070BD2DE9F04104460F4615464FF00008FA
:10114000A66B206C40B9206860BB606801F092FD1E
:1011500080460020606025E07DB93946226CA06899
:10116000FFF74EF8216CA0680844A060D4E9011094
:10117000884217D32068A06014E03946226CE068EA
:10118000FFF73EF8216CE068401AE0602168E068F3
:10119000884203D2216C6068401AE060022D01D1C0
:1011A00006B1761E701CA0634046BDE8F08110B504
:1011B0000446206B00F0A4FD204600F0A1FD10BD08
:1011C0000146084A126812680AB9012200E00022AA
:1011D0000A600A6822B9034A1268D268106800E0FF
:1011E000002070478800002030B54FF410431748A6
:1011F00000F007042CB1C01D20F00700134C041BA5
:101200001B1B0246124C22600024114D6C60D0184A
:10121000083820F007000F4C206000240D4D2D6889
:101220006C600C4D2D682C601146441A4C60094CC2
:1012300024680C60084D4C682C60084D4C682C608C
:101240004FF00044064D2C6030BD0000E804002043
:101250009C000020A4000020AC000020A80000207A
:10126000B000002000BFFFF71DFF064800680128FE
:10127000F9D94FF0805004490860BFF34F8FBFF396
:101280006F8FF0E7DC01002004ED00E02DE9F04174
:1012900006460D4617469846069C0DB9246000E0A8
:1012A0002760E66325640121204601F0F3F9BDE8DB
:1012B000F08100002DE9FF5F81460F469246DDE98F
:1012C0000E6B109CAAF10100216B01EB800828F045
:1012D000070808F0070008B9012000E0002028B93D
:1012E00040F22B321BA120A0FFF7A8FC002507E04D
:1012F000795D04F134004155785D00B902E06D1C60
:10130000102DF5D300BF002143200155202E00D31E
:101310001F26E66266640020A064201D00F04FFCDA
:1013200004F1180000F04BFC2461C6F12000A0611C
:1013300064620020E06484F8500049464046039A05
:1013400000F08CFB2060BBF1000F01D0CBF8004017
:10135000BDE8FF9F4672656552544F535C746173DC
:101360006B732E63000000004572726F723A257332
:101370002C25640D0A00000010B5002407E004EBE2
:1013800084010F4A02EB810000F00CFC641C202C4D
:10139000F5D30C4800F006FC0B4800F003FC0B48AA
:1013A00000F000FC0A4800F0FDFB0A4800F0FAFBE0
:1013B00004480949086004480849086010BD000055
:1013C000DC0100205C040020700400208404002064
:1013D00098040020AC04002050000020540000209D
:1013E00010B50146164800E0006803688B42FBD345
:1013F0000246436813448B4204D143684C6823443B
:10140000436001460A464B6813440468A34211D165
:101410000C4C03682468A34208D04B6804686468D5
:1014200023444B6003681B680B6005E0054B1B6899
:101430000B6001E003680B60884200D0016010BDC2
:101440009C000020A40000202DE9F04104460D4638
:1014500016461F464FF0000865602461B5420CD85F
:10146000F01BA169884202D34FF0010811E0211D51
:101470000948006800F0A6FB0BE0BE4204D2BD4262
:1014800002D34FF0010804E0211D0448006800F079
:1014900099FB4046BDE8F0818C00002088000020C8
:1014A00070B5054600F0B4FBA86B08B9012400E054
:1014B000002400F0EFFB204670BD70B5054600F03B
:1014C000A7FBA86BE96B884201D1012400E000244E
:1014D00000F0E0FB204670BDF8B505460F46134806
:1014E0000068C068C468201D00F048FBE06901285E
:1014F00018D1A06941192B463A462046FFF7A4FFB0
:1015000080B1002003462A4601460090204601F0A3
:101510003FFD06462EB94FF4027205A109A0FFF760
:101520008DFB00BF2046616A8847F8BD8800002017
:101530004672656552544F535C74696D6572732EC3
:10154000630000004572726F723A25732C25640D9A
:101550000A00000070B586B060E0039800285DDBEB
:10156000059C606908B9012000E0002010B9201D29
:1015700000F004FB02A800F0C5F8054603980A280D
:101580004AD2DFE800F00905072C2E4506082D2F6A
:1015900000BF00BF00BF00BF0498A26981180346C6
:1015A0002A462046FFF750FFC0B12046616A8847AF
:1015B000E069012812D1002000900498A169421826
:1015C00000231946204601F0E3FC06462EB940F2FE
:1015D000213218A11CA0FFF731FB00BF1DE000BFA6
:1015E0001BE000BF0498A061A06908B1012000E0E1
:1015F000002028B94FF44E720EA113A0FFF71EFB76
:10160000A06941192B462A462046FFF71DFF04E03A
:10161000204600F075FB00E000BF00BF00231A4623
:1016200003A90D48006800F051FF002895D106B0CD
:1016300070BD00004672656552544F535C74696D0D
:101640006572732E630000004572726F723A2573E3
:101650002C25640D0A00000090000020F8B5054616
:101660000C4600F033FE684600F04CF80646009841
:1016700020BB44B9B54206D801F0C2FB314628462A
:10168000FFF72AFF1CE03CB10E480068006808B96B
:10169000012000E000200446A91B22460A480068F9
:1016A00000F0FCFB01F0ACFB50B94FF08050074953
:1016B0000860BFF34F8FBFF36F8F01E001F0A0FB15
:1016C000F8BD00008C0000209000002004ED00E038
:1016D0000A490968096809B9012100E0002121B11E
:1016E0004FF0FF31064A116006E004490968C968F5
:1016F000C868034A4168116070470000500000202C
:101700007C00002070B5044601F0FEF9054607484C
:101710000068854204D200F00BF80120206001E04F
:101720000020206001480560284670BD9800002018
:101730002DE9F8432DE021480068C06805681F487E
:101740000068C068C468201D00F018FA2046616A6D
:101750008847E06901281CD1A0694619AE4207D923
:1017600066602461211D1548006800F02BFA10E026
:10177000002003462A4601460090204601F008FC5E
:1017800007462FB940F292320DA112A0FFF756FA88
:1017900000BF0A480068006808B9012000E0002086
:1017A0000028C8D00548D0F800800E4800680349DA
:1017B00008600C48C0F80080BDE8F883880000206D
:1017C0004672656552544F535C74696D6572732E31
:1017D000630000004572726F723A25732C25640D08
:1017E0000A0000008C0000200B480068401C08B96B
:1017F000012000E0002020B9F42208A111A0FFF789
:101800001DFA00BF502080F31188BFF34F8FBFF344
:101810006F8F00BF00BFFEE7B40000204672656511
:1018200052544F535C706F727461626C655C5256B7
:1018300044535C41524D5F434D335C706F72742E64
:10184000630000004572726F723A25732C25640D97
:101850000A00000008B500BF6846FFF7B1FC044667
:1018600020460099FFF7FAFEFFF774FEF4E770B523
:10187000044600F0CDF994F9455010E0606A08B9CB
:10188000012000E0002038B904F1240001F05EFAE4
:1018900018B100F0E9FB00E003E0681E45B2002D3E
:1018A000ECDC00BFFF2084F8450000F0F3F900F005
:1018B000AFF994F9445010E0206908B9012000E024
:1018C000002048B904F1100001F040FA08B100F01E
:1018D000CBFB681E45B200E001E0002DECDC00BF50
:1018E000FF2084F8440000F0D5F970BD2DE9F041E7
:1018F00004464FF0000800F0E9FC3E48006808B9D3
:10190000FFF772FC3C480068204000285FD1A4B17A
:10191000083404F0070080B104F00700C0F10800AB
:10192000044404F0070008B9012000E0002020B9B9
:10193000BF2232A13AA0FFF781F9002C47D03C48E2
:101940000068844243D83B4E3046056801E02E468D
:101950002D686868A04202D228680028F7D125487F
:101960000068854233D0306800F10808286830608C
:101970006868001B102813D92F1907F0070008B951
:10198000012000E0002020B9EC221CA124A0FFF7D8
:1019900055F96868001B78606C603846FFF720FDD9
:1019A000234968680968081A2149086008460068E0
:1019B00021490968884203D21D4800681E49086011
:1019C0000D4968680968084368600020286001F0D4
:1019D00017FA08F0070008B9012000E0002028B934
:1019E0004FF4967205A10EA0FFF728F94046BDE816
:1019F000F0810000A4000020B00000204672656560
:101A000052544F535C706F727461626C655C4D65CB
:101A10006D4D616E675C686561705F342E630000B8
:101A20004572726F723A25732C25640D0A0000000E
:101A3000A80000209C000020AC00002006480068A0
:101A400030B10549096801F14800896C491C016001
:101A500001480068704700004C000020001F4FF054
:101A600080730360001F21F001030360001F034B1C
:101A7000036014380260203870470000E91700083E
:101A80007CB50546012400F0C3F8032200210120A3
:101A900000F0E2FC1D49086000231A4619461B4865
:101AA000006800F04FFE044619480221002332224C
:101AB000CDE9001017A11A4800F0E6FF19480321EC
:101AC00000234FF40072CDE9001017A11B4800F06D
:101AD000DBFF1B4804210023CA01CDE9001019A136
:101AE0001D4800F0D1FF1D48052100234FF400726E
:101AF000CDE900101AA11F4800F0C6FF1E4800687B
:101B000000F02CFA00F0C6F87CBD000014000020A4
:101B1000040000206C6564315F7461736B00000029
:101B2000590E0008080000204C6F775072696F72E0
:101B30006974795F5461736B00000000B50400089C
:101B40000C0000204D69645072696F726974795F8E
:101B50005461736B00000000A9050008100000200C
:101B6000486967685072696F726974795F5461730C
:101B70006B000000990300080000002001460A697C
:101B8000D1E901309860D1E901035860506888427A
:101B900001D188685060002008611068401E106004
:101BA0001068704700F1080141604FF0FF3181601B
:101BB00000F10801C160016100210160704700214E
:101BC0000161704710B502460B685C1C0CB91069C6
:101BD00007E002F1080000E04068446824689C4285
:101BE000FAD944684C604C68A160886041600A6121
:101BF0001468641C146010BD42684A6093688B606E
:101C0000936859609160086103685B1C03607047CA
:101C100010B500BF502080F31188BFF34F8FBFF382
:101C20006F8F00BF0B480068401C0A4908600846D7
:101C3000006801280DD108480068C0B208B9012029
:101C400000E0002028B94FF4BD7204A10DA0FEF7FA
:101C5000F5FF10BDB400002004ED00E0467265659C
:101C600052544F535C706F727461626C655C525673
:101C700044535C41524D5F434D335C706F72742E20
:101C8000630000004572726F723A25732C25640D53
:101C90000A00000010B50B48006828B940F2811214
:101CA00009A113A0FEF7CAFF06480068401E0549B7
:101CB00008600846006820B9002080F3118800BF42
:101CC00000BF10BDB40000204672656552544F53EA
:101CD0005C706F727461626C655C525644535C4117
:101CE000524D5F434D335C706F72742E6300000081
:101CF0004572726F723A25732C25640D0A0000003C
:101D000070B506463546002E35D0083D2C461A499A
:101D100060680968084008B1012000E0002028B987
:101D20004FF4A07215A11EA0FEF788FF206808B925
:101D3000012000E0002028B940F241120FA118A0B4
:101D4000FEF77CFF0C4960680968084098B120687C
:101D500088B90949606809688843606000F0B6FA8C
:101D60001349606809680844114908602046FFF774
:101D700037FB01F045F870BDB00000204672656584
:101D800052544F535C706F727461626C655C4D6548
:101D90006D4D616E675C686561705F342E63000035
:101DA0004572726F723A25732C25640D0A0000008B
:101DB000A8000020064800684FF47A71B0FBF1F0EB
:101DC000401E4FF0E0214861072008617047000085
:101DD0003000002070B5FEF7FDF90546102D11D337
:101DE00005F1E02090F8F04310480078844201DBD0
:101DF000012000E0002028B94FF42A720CA116A09F
:101E0000FEF71CFF1848006800F4E06017490968F5
:101E1000884201D8012000E0002028B94FF42E723A
:101E200003A10DA0FEF70AFF70BD0000B80000205E
:101E30004672656552544F535C706F727461626C88
:101E4000655C525644535C41524D5F434D335C7068
:101E50006F72742E630000004572726F723A2573C0
:101E60002C25640D0A0000000CED00E0BC000020F1
:101E7000024600200BE0084B53F8303033B9064BD4
:101E800043F8301003EBC0035A6002E0401C0A28FC
:101E9000F1D300BF704700008C0100202DE9F04114
:101EA00005460E4617462C46FFF7B2FE94F944004D
:101EB000401C10B9002084F8440094F94500401CEF
:101EC00010B9002084F84500FFF7E4FEA06B28B9A4
:101ED0003A46314604F1240000F0F6F82046FFF7B8
:101EE000C6FCBDE8F081000070B504460025ACB129
:101EF0000F48006808B9012000E0002028B940F22E
:101F0000CF420CA110A0FEF799FE00F0DFF90021EE
:101F10002046FEF7EFFF00F073FF05463DB94FF096
:101F200080500D490860BFF34F8FBFF36F8F70BDB6
:101F3000840000204672656552544F535C7461738F
:101F40006B732E63000000004572726F723A257346
:101F50002C25640D0A00000004ED00E070B5054674
:101F6000FFF756FE15B92D48006800E028460446E4
:101F7000201DFFF703FE78B9E06A00EB80002849D6
:101F800051F8200040B994F82C10012088402549D0
:101F90000968814323480160A06A18B104F1180060
:101FA000FFF7ECFD20480068401C1F4908601B48F3
:101FB0000068844209D1211D1C48FFF71DFE1C4802
:101FC0000068401C1A49086009E01A480068401E71
:101FD000184908602046FFF7EAF8FFF779FBFFF79A
:101FE00059FE15480068C0B10C480068844214D1FD
:101FF0001248006808B9012000E0002028B940F22A
:1020000065420FA113A0FEF719FE4FF0805015494D
:102010000860BFF34F8FBFF36F8F70BD4C0000207F
:10202000DC010020640000207800002098040020DB
:10203000580000205C000020680000208400002080
:102040004672656552544F535C7461736B732E63B3
:10205000000000004572726F723A25732C25640DE2
:102060000A00000004ED00E001200149086070470B
:102070007000002070B504460D462CB940F60632BB
:1020800007A10CA0FEF7DAFD0E48016818312046C2
:10209000FFF798FD01212846FEF72CFF70BD0000D8
:1020A0004672656552544F535C7461736B732E6353
:1020B000000000004572726F723A25732C25640D82
:1020C0000A0000004C00002070B505460E4614467C
:1020D0002DB940F6313209A10DA0FEF7AFFD104831
:1020E000016818312846FFF787FD0CB14FF0FF3625
:1020F00021463046FEF7FEFE70BD00004672656563
:1021000052544F535C7461736B732E630000000074
:102110004572726F723A25732C25640D0A00000017
:102120004C00002070B505462C46002D4BD02649AA
:10213000E06A0968C96A884245D2A06900F0004097
:1021400028B921480068C06AC0F12000A061E16A96
:1021500001EB81011D4A02EB81016069884201D1D6
:10216000012000E0002050B3201DFFF707FD78B9E3
:10217000E06A00EB8000154951F8200040B994F85E
:102180002C100120884012490968814310480160E1
:102190000D480068C06AE06294F82C100120884065
:1021A0000B49096808430A490860E16A01EB8101AB
:1021B000064A02EB8100211DFFF71EFD03E00248E5
:1021C0000068C06AE06270BD4C000020DC010020A5
:1021D0006400002010B504462CB940F6C13205A1B8
:1021E00009A0FEF72BFD0C48006820600B48006832
:1021F000606010BD4672656552544F535C746173E4
:102200006B732E63000000004572726F723A257383
:102210002C25640D0A0000007400002060000020DE
:102220001CB51A4800210B468022CDE9001018A1E8
:10223000194800F029FC0446012C02D100F070FE80
:102240000446012C15D100BF502080F31188BFF344
:102250004F8FBFF36F8F00BF4FF0FF300F49086003
:1022600001200F49086000200E49086000F08AF83C
:102270000BE0601C08B1012000E0002028B940F20A
:10228000847209A10DA0FEF7D9FC1CBD80000020BE
:1022900049444C4500000000651200087C00002005
:1022A00068000020600000204672656552544F535C
:1022B0005C7461736B732E63000000004572726F73
:1022C000723A25732C25640D0A000000024800684C
:1022D000401C0149086070478400002010B51B486D
:1022E000006818B101201A4908602DE00020184943
:1022F000086018480068B0FA80F0C0F11F0404EBD1
:102300008400154951F8200008B1012000E00020A8
:1023100028B940F6F62211A115A0FEF78FFC04EBB8
:1023200084010D4A02EB810041684968416000F177
:10233000080142688A4202D14168496841604168A7
:10234000C9680F4A116000BF10BD00008400002062
:102350007000002064000020DC01002046726565EA
:1023600052544F535C7461736B732E630000000012
:102370004572726F723A25732C25640D0A000000B5
:102380004C0000201CB52248014609780191FF212C
:10239000024611700146097800919DF8001001F085
:1023A00050011C4A117007211B4A116009E01A49AB
:1023B0000968491E184A11609DF800104906090E67
:1023C00000919DF8001001F080018029EFD01249A2
:1023D00009680902104A11601146098801F4E06198
:1023E00011600B4A019911700C48006840F47000AC
:1023F0000A4908600846006840F070400860FFF72E
:10240000D9FC002006490860FDF7AEFE00201CBD87
:1024100000E400E0B8000020BC00002020ED00E057
:10242000B400002010B500BF502080F31188BFF326
:102430004F8FBFF36F8F00BF00F06CFB18B14FF0F0
:1024400080500449086000BF002080F3118800BF5D
:1024500010BD000004ED00E02DE9F84305460E46EE
:1024600090460DB1012000E0002028B94FF4C4725D
:102470000DA112A0FEF7E2FB0EB9002701E005FB5B
:1024800006F707F14800FFF731FA044644B104F1BA
:10249000480943464A46314628460094FEF7F6FE70
:1024A0002046BDE8F88300004672656552544F53DC
:1024B0005C71756575652E63000000004572726F72
:1024C000723A25732C25640D0A0000002DE9FF47A0
:1024D00082B005460E461F464FF0000A2C462CB926
:1024E00040F2DC4261A166A0FEF7A8FB0EB9206CA9
:1024F00008B9012000E0002028B940F2DD425BA1CC
:102500005FA0FEF79BFB00F0EFFA08B9049808B94A
:10251000012000E0002028B94FF49C6253A158A08C
:10252000FEF78CFB00BFFFF773FBD4F83890B9F1CE
:10253000000F3DD0D4F80C8031462046FEF7E4FD74
:10254000DFB9A9F10100A063206810B9FFF776FA9E
:102550006060206908B9012000E0002010BB04F190
:10256000100000F0F3FBE8B14FF0805048490860DC
:10257000BFF34F8FBFF36F8F14E0C4F80C80606A15
:1025800008B9012000E0002060B904F1240000F047
:10259000DDFB38B14FF080503D490860BFF34F8FED
:1025A000BFF36F8FFFF776FB012006B0BDE8F08721
:1025B000049818B9FFF76EFB0020F6E7BAF1000F98
:1025C00004D16846FFF706FE4FF0010AFFF762FBF1
:1025D000FFF77CFEFFF71CFB94F94400401C10B988
:1025E000002084F8440094F94500401C10B90020F4
:1025F00084F84500FFF74EFB04A9684600F0F4F9A3
:1026000040BB2046FEF74CFFF0B1206830B9FFF721
:10261000FFFA6068FFF786FDFFF73CFB04F124003A
:102620000499FFF727FD2046FFF721F900F0E8FBAA
:1026300000287FF478AF4FF0805015490860BFF351
:102640004F8FBFF36F8F6EE72046FFF710F900F052
:10265000D7FB68E72046FFF70AF900F0D1FB2046D8
:10266000FEF71EFF0028EED000209EE7467265654B
:1026700052544F535C71756575652E630000000000
:102680004572726F723A25732C25640D0A000000A2
:1026900004ED00E070B505460E462C462CB940F21C
:1026A0001B121EA122A0FEF7C9FAFFF7B1FAD4E966
:1026B0000F12206801FB020060600020A063206808
:1026C000A060E06B401E226C216800FB0210E060FD
:1026D000FF2084F8440084F845009EB9206908B9B9
:1026E000012000E00020A8B904F1100000F02EFB4A
:1026F00080B14FF0805012490860BFF34F8FBFF395
:102700006F8F07E004F11000FFF74CFA04F124008A
:10271000FFF748FAFFF7BEFA012070BD4672656503
:1027200052544F535C71756575652E63000000004F
:102730004572726F723A25732C25640D0A000000F1
:1027400004ED00E02DE9FF4383B0064688461D46B0
:102750004FF0000934462CB940F2D92258A15DA0AF
:10276000FEF76CFAB8F1000F01D1206C08B9012016
:1027700000E0002028B940F2DA2251A155A0FEF76E
:102780005DFA022D02D1E06B012801D1012000E0A9
:10279000002028B940F2DB2249A14EA0FEF74EFAF4
:1027A00000F0A2F908B9059808B9012000E000205E
:1027B00028B940F2DE2242A146A0FEF73FFA00BF50
:1027C000FFF726FAA06BE16B884201D3022D28D1D6
:1027D0002A4641462046FEF7ACFC0746606A08B927
:1027E000012000E0002068B904F1240000F0AEFAF6
:1027F00088B14FF080503B490860BFF34F8FBFF363
:102800006F8F08E03FB14FF0805036490860BFF34A
:102810004F8FBFF36F8FFFF73DFA012007B0BDE880
:10282000F083059818B9FFF735FA0020F6E7B9F1FB
:10283000000F04D101A8FFF7CDFC4FF00109FFF70D
:1028400029FAFFF743FDFFF7E3F994F94400401C30
:1028500010B9002084F8440094F94500401C10B9D8
:10286000002084F84500FFF715FA05A901A800F03B
:10287000BBF8F0B92046FEF720FEA0B104F110002D
:102880000599FFF7F7FB2046FEF7F1FF00F0B8FAD5
:10289000002895D14FF0805012490860BFF34F8F48
:1028A000BFF36F8F8CE72046FEF7E1FF00F0A8FA38
:1028B00086E72046FEF7DBFF00F0A2FA0020ADE736
:1028C0004672656552544F535C71756575652E632C
:1028D000000000004572726F723A25732C25640D5A
:1028E0000A00000004ED00E02DE9F05F07468A468B
:1028F00090461E463C462CB940F29F3231A136A08C
:10290000FEF79CF9BAF1000F01D1206C08B9012043
:1029100000E0002028B94FF468722AA12EA0FEF72B
:102920008DF9022E02D1E06B012801D1012000E0D7
:10293000002028B940F2A13222A127A0FEF77EF99B
:10294000FFF748FA00BF5021EFF3118081F311889F
:10295000BFF34F8FBFF36F8F00BF0546A06BE16BD6
:10296000884201D3022E23D194F945B03246514614
:102970002046FEF7DEFB0BF1010088B9606A08B95A
:10298000012000E0002080B904F1240000F0DEF90D
:1029900058B1B8F1000F08D00120C8F8000004E0D9
:1029A0000BF1010040B284F845004FF0010901E04D
:1029B0004FF0000900BF85F3118800BF4846BDE80D
:1029C000F09F00004672656552544F535C71756507
:1029D00075652E63000000004572726F723A2573B0
:1029E0002C25640D0A0000002DE9F04104460D4637
:1029F0002CB940F6CB3219A11DA0FEF71FF92DB955
:102A000040F6CC3215A11AA0FEF718F9FFF700F92D
:102A10001B4807682868401C08B9002619E01949B6
:102A200020680968884204D06068B84201D801264D
:102A30000FE06068381A2968884209D228686168FE
:102A4000791A401A28602046FFF7C4FB002600E0F0
:102A50000126FFF71FF93046BDE8F0814672656533
:102A600052544F535C7461736B732E63000000000B
:102A70004572726F723A25732C25640D0A000000AE
:102A800060000020740000202DE9FF4F85B08046D3
:102A900089461746DDE912ABB800FEF727FF064668
:102AA00056B15420FEF722FF04460CB1266304E021
:102AB0003046FFF725F900E000247CB10020CDE985
:102AC00000ABCDE902403A4649464046089BFEF736
:102AD000F1FB2046FEF75AFA012501E04FF0FF35E1
:102AE000284609B0BDE8F08F0549096809B90120F9
:102AF00005E00449096809B9022000E00020704798
:102B00006800002084000020014908687047000028
:102B1000600000202DE9F0414FF0000841480068B6
:102B2000002872D140480068451C3F480560EDB957
:102B30003E480068006808B9012000E0002028B97C
:102B400040F6D9123AA13FA0FEF778F83748076857
:102B500040480068354908603E4807603E480068C4
:102B6000401C3D490860FEF7B3FD00BF3B480068CC
:102B700085423CD300BF2D480068006808B9012099
:102B800000E0002020B14FF0FF30344908602DE014
:102B900026480068C068C4686668B54202D22F48FB
:102BA000066023E0201DFEF7E9FFA06A18B104F1DA
:102BB0001800FEF7E3FF94F82C1001208840284904
:102BC0000968084326490860E16A01EB8101254A4A
:102BD00002EB8100211DFFF70FF82349E06A096825
:102BE000C96A8842C7D34FF00108C4E700BF1E4836
:102BF0000068C06A00EB80001A4951F820000128E3
:102C000001D94FF0010805E0FFE718480068401CB3
:102C1000164908601648006808B14FF001084046A0
:102C2000BDE8F081840000206000002050000020FA
:102C30004672656552544F535C7461736B732E63B7
:102C4000000000004572726F723A25732C25640DE6
:102C50000A00000054000020740000207C000020C6
:102C600064000020DC0100204C0000206C000020EB
:102C70007000002070B505462C460026002D4BD074
:102C800026480068844201D1012000E0002028B9D4
:102C900040F6C76222A127A0FDF7D0FFA06C28B99B
:102CA00040F6C9621EA123A0FDF7C8FFA06C401E1C
:102CB000A064616CE06A88422ED0A06C60BB201DCD
:102CC000FEF75CFF78B9E06A00EB80001D4951F81F
:102CD000200040B994F82C10012088401A49096856
:102CE000814319480160606CE062E06AC0F1200035
:102CF000A06194F82C10012088401349096808430A
:102D000011490860E16A01EB81010E4A02EB810082
:102D1000211DFEF771FF0126304670BD4C000020DA
:102D20004672656552544F535C7461736B732E63C6
:102D3000000000004572726F723A25732C25640DF5
:102D40000A000000DC0100206400002070B5064687
:102D5000F068C4682CB940F661321AA11EA0FDF7D4
:102D60006DFF04F11800FEF709FF1F480068A8B9BD
:102D7000201DFEF703FF94F82C10012088401B490A
:102D80000968084319490860E16A01EB8101184AA2
:102D900002EB8100211DFEF72FFF04E004F1180172
:102DA0001448FEF729FF1449E06A0968C96A884295
:102DB00004D9012501201149086000E000252846BA
:102DC00070BD00004672656552544F535C74617368
:102DD0006B732E63000000004572726F723A2573A8
:102DE0002C25640D0A0000008400002064000020EF
:102DF000DC010020840400204C0000207000002032
:102E000070B5002400263448006828B94FF4FD62EC
:102E100032A137A0FDF712FFFEF7FAFE2E48006838
:102E2000401E2D4908600846006800284FD13448EC
:102E3000006800284BD024E03248C068C46804F120
:102E40001800FEF79BFE201DFEF798FE94F82C104C
:102E5000012088402C49096808432B490860E16A31
:102E600001EB8101294A02EB8100211DFEF7C4FE1E
:102E70002749E06A0968C96A884202D301202549C6
:102E800008602048006808B9012000E00020002800
:102E9000D2D00CB1FEF71CFC1F48056865B100BF1D
:102EA000FFF738FE10B101201A4908606D1E002D91
:102EB000F6D10020184908601648006838B101268C
:102EC000300716490860BFF34F8FBFF36F8FFEF7CF
:102ED000E1FE304670BD000084000020467265654A
:102EE00052544F535C7461736B732E630000000087
:102EF0004572726F723A25732C25640D0A0000002A
:102F00005C0000208404002064000020DC0100201C
:102F10004C000020700000206C00002004ED00E058
:102F20001CB50024FEF78CF80B48006858B10B481C
:102F30001F2100234FF48072CDE9001008A10A4838
:102F4000FFF7A2FD04462CB940F2331207A10CA0F2
:102F5000FDF774FE20461CBD900000209400002068
:102F6000546D7220537663005518000846726565EB
:102F700052544F535C74696D6572732E6300000088
:102F80004572726F723A25732C25640D0A00000099
:102F90002DE9FE4304460D4616461F46DDF82880FF
:102FA0004FF000092CB94FF4D37216A11AA0FDF707
:102FB00045FE1D48006810B3009501960294062D49
:102FC00015DAFFF791FD022808D100234246694631
:102FD00015480068FFF7B6FB814610E000231A464B
:102FE000694611480068FFF7ADFB814607E0002302
:102FF0003A4669460C480068FFF776FC8146484629
:10300000BDE8FE834672656552544F535C74696D2A
:103010006572732E630000004572726F723A2573F9
:103020002C25640D0A000000900000204C300008A0
:1030300000000020C40000005C0C000810310008F3
:10304000C4000020249800006C0C00080000000060
:103050000000000000000000000000000000000070
:103060000000000000000000000000000102030456
:1030700001020304060708090204060800A24A0424
:103080000000000000000000010203040607080918
:103090000000000000000000000000000000000030
:1030A0000000000000000000000000000000000020
:1030B0000000000000000000000000000000000010
:1030C0000000000000000000000000000000000000
:1030D00000000000000000000000000000000000F0
:1030E00000000000000000000000000000000000E0
:1030F00000000000000000000000000000000000D0
:10310000AAAAAAAA00000000000000000000000017
:0400000508000131BD
:00000001FF
