:020000040800F2
:10000000E0980020DD0100083D0500080B04000811
:1000100039050008EB0200089B0B000800000000F7
:100020000000000000000000000000004501000882
:10003000EF0200080000000089010008C90700085D
:10004000F7010008F7010008F7010008F7010008B0
:10005000F7010008F7010008F7010008F7010008A0
:10006000F7010008F7010008F7010008F701000890
:10007000F7010008F7010008F7010008F701000880
:10008000F7010008F7010008F7010008F701000870
:10009000F7010008F7010008F7010008F701000860
:1000A000F7010008F7010008F7010008F701000850
:1000B000F7010008F7010008F7010008F701000840
:1000C000F7010008F7010008F7010008F701000830
:1000D000F701000895080008F7010008F70100087B
:1000E000F7010008F7010008F7010008F701000810
:1000F000F7010008F7010008F7010008F701000800
:10010000F7010008F7010008F7010008F7010008EF
:10011000F7010008F7010008F7010008F7010008DF
:10012000F7010008F7010008F7010008F7010008CF
:10013000DFF80CD000F0A8F800480047750F000861
:10014000E0980020224B19680868B0E8F00F80F3AF
:100150000988BFF36F8F4FF0000080F311884EF0D5
:100160000D0E70470000000006480068006880F32C
:10017000088862B661B6BFF34F8FBFF36F8F00DFA1
:1001800000BF00BF08ED00E0EFF30980BFF36F8F01
:100190000F4B1A6820E9F00F106008B54FF05000BF
:1001A00080F31188BFF34F8FBFF36F8F02F03CF9DC
:1001B0004FF0000080F31188BDE808401968086816
:1001C000B0E8F00F80F30988BFF36F8F704700BF6E
:1001D00044000020EFF30580704700000648804788
:1001E00006480047FEE7FEE7FEE7FEE7FEE7FEE71C
:1001F000FEE7FEE7FEE7FEE73508000831010008EC
:1002000040EA01039B0703D009E008C9121F08C098
:10021000042AFAD203E011F8013B00F8013B521E18
:10022000F9D270472DE9F05F0546002092469B46C3
:1002300088460646814640241BE0284641464746FC
:10024000224600F042F853465A46C01A914110D354
:1002500011461846224600F029F82D1A67EB0108CE
:100260004F4622460120002100F020F817EB00093C
:100270004E41201EA4F10104DFDC484631462A46E7
:100280004346BDE8F09F0000064C074D06E0E068DD
:1002900040F0010394E8070098471034AC42F6D3CD
:1002A000FFF74AFF84300008A4300008202A04DB4E
:1002B000203A00FA02F1002070479140C2F1200379
:1002C00020FA03F3194390407047202A04DB203AB8
:1002D00021FA02F00021704721FA02F3D040C2F166
:1002E0002002914008431946704700BFFEE770475F
:1002F0002DE9F041024600250026002000230024BD
:10030000002791F803C00CF00F0591F803C00CF022
:10031000100CBCF1000F03D091F802C04CEA0505A7
:1003200091F800C0BCF1000F31D0146800202BE020
:100330004FF0010C0CFA00F3B1F800C00CEA030610
:100340009E4220D183004FF00F0C0CFA03F7BC4300
:1003500005FA03FC4CEA040491F803C0BCF1280F31
:1003600006D14FF0010C0CFA00FCC2F814C00AE0F0
:1003700091F803C0BCF1480F05D14FF0010C0CFA05
:1003800000FCC2F810C0401C0828D1D31460B1F89A
:1003900000C0BCF1FF0F34DD546800202EE000F1F6
:1003A000080C4FF0010808FA0CF3B1F800C00CEA91
:1003B00003069E4221D183004FF00F0C0CFA03F785
:1003C000BC4305FA03FC4CEA040491F803C0BCF1F9
:1003D000280F05D100F1080C08FA0CF8C2F81480B7
:1003E00091F803C0BCF1480F07D100F1080C4FF0A1
:1003F000010808FA0CF8C2F81080401C0828CED377
:100400005460BDE8F0810161704700BFFEE7000065
:1004100008B50121442000F0D5F80120ADF8000016
:1004200028208DF8030069460648FFF761FF1C206D
:10043000ADF8000048208DF8030069460248FFF738
:1004400057FF08BD000801400018014010B50446E0
:10045000012C01D1224908702148007801282AD1B5
:100460002048006801280AD01F48006838B11E489B
:10047000001F006818B11C4808380068D8B90A2065
:1004800000F00EFD0020164908701648006801288B
:1004900000D110BD1448006808B90220F9E71248DD
:1004A000001F006808B90320F3E70F480838006808
:1004B000A0B90420EDE70B48006878B90A48006845
:1004C00001280BD10848001F0068012806D1064802
:1004D00008380068012801D1014908700020D8E7D8
:1004E0003C000020000121421001234208B50121F7
:1004F000482000F067F82020ADF8000010208DF8AB
:10050000030003208DF8020069460948FFF7F0FE5A
:1005100020210748FFF777FF2020ADF8000069464B
:100520000448FFF7E5FE20210248FFF76CFF08BDF5
:10053000000C01400018014000BFFEE770470000BA
:1005400070B5002100230F22C47804B3154C246831
:1005500004F4E064C4F5E064210AC1F10403CA4074
:10056000447804FA03F184781440214309010E4CC5
:100570000678A155047804F01F050124AC400578E5
:100580006D11AD0005F1E025C5F8004109E00478E2
:1005900004F01F050124AC40044D0678761145F89F
:1005A000264070BD0CED00E000E400E080E100E0DA
:1005B00002490143024A1160704700000000FA0539
:1005C0000CED00E029B1064A92690243044B9A619E
:1005D00004E0034A92698243014B9A61704700002C
:1005E0000010024030B500210022002400232D4DD0
:1005F0006D6805F00C0121B1042905D0082923D12B
:1006000005E0294D056022E0274D05601FE0254DDE
:100610006D6805F47012234D6D6805F48034022571
:1006200005EB92421CB9214D554305600BE01D4D71
:100630006D6805F400351DB11C4D5543056002E0A1
:10064000194D5543056002E0174D056000BF00BF1E
:10065000144D6D6805F0F0010909154D6B5C0568D6
:10066000DD4045600F4D6D6805F4E061090A104DED
:100670006B5C4568DD4085600A4D6D6805F460512E
:10068000C90A0B4D6B5C4568DD40C560054D6D6862
:1006900005F44041890B074D6B5CC568B5FBF3F56C
:1006A000056130BD0010024000127A0000093D00D3
:1006B000140000202400002010B500F001F810BD47
:1006C0000CB50020019000903348006840F4803061
:1006D0003149086000BF3048006800F400300090E5
:1006E0000198401C0190009818B90198B0F5A06FCE
:1006F000F1D12948006800F4003010B101200090C9
:1007000001E0002000900098012843D123480068B0
:1007100040F01000214908600846006820F00300FE
:1007200008600846006840F0020008601A48406807
:10073000194948600846406848600846406840F4E7
:10074000806048600846406820F47C104860084695
:10075000406840F4E81048600846006840F0807047
:10076000086000BF0C48006800F000700028F9D055
:100770000948406820F0030007494860084640687F
:1007800040F00200486000BF0348406800F00C00E1
:100790000828F9D10CBD00000010024000200240E2
:1007A000042808D14FF0E021096941F004014FF01D
:1007B000E022116107E04FF0E021096921F0040116
:1007C0004FF0E0221161704710B502F025FA0128C0
:1007D00001D001F0CDFE10BD70B505460420FFF735
:1007E000DFFF104800681049B0FBF1F00F490870B6
:1007F0000C4800680C49B0FBF1F44FF47A704443A4
:1008000001200B4908804FF0E020006940F0020011
:100810004FF0E021086108464461006940F00100A2
:10082000086170BD2800002040420F003E000020FB
:100830004000002010B51348006840F00100114945
:10084000086008464068104908400E49486008465C
:1008500000680E4908400B4908600846006820F40B
:10086000802008600846406820F4FE0048604FF48D
:100870001F008860FFF720FF4FF000600449086008
:1008800010BD0000001002400000FFF8FFFFF6FE60
:1008900008ED00E010B540F225511D4800F0B8F811
:1008A00010B31B4800F070F9C4B21A48008800F475
:1008B0000040C8B91748008800F4804060B10A2C95
:1008C00003D000201349088020E01248008840F43B
:1008D00000401049088019E00D2C06D10D48008811
:1008E00040F480400B49088010E00A480088C0F3BB
:1008F0000D0009490C5407480088401C0549088030
:1009000008460088C72801DD0020088010BD0000CF
:100910000038014042000020BC00002010B586B025
:10092000044601210420FFF74DFE01218803FFF753
:1009300049FE4FF40070ADF8140003208DF8160046
:1009400018208DF8170005A91E48FFF7D1FC4FF4B9
:100950008060ADF8140004208DF8170005A919482F
:10096000FFF7C6FC01940020ADF80800ADF80A00BE
:10097000ADF80C00ADF810000C20ADF80E0001A988
:10098000114800F095F801210F4800F028F84021A7
:100990000D4800F01BF8012240F225510A4800F0F2
:1009A00061F825208DF8000003208DF801008DF8F6
:1009B000020001208DF803006846FFF7C1FD06B074
:1009C00010BD0000000801400038014001F4007231
:1009D000B2F5007F00D100BFCA430280704721B149
:1009E000828942F40052828104E082894DF6FF73CD
:1009F0001A408281704702460020B1F5007F00D185
:100A000000BF13880B400BB1012000E000207047AD
:100A100070B50246002400230025002040F66A1627
:100A2000B14200D100BFC1F3421501F01F030126FE
:100A300006FA03F3012D02D19689334006E0022D18
:100A400002D1168A334001E0968A33400C12012607
:100A500006FA04F41688344013B10CB1012000E00A
:100A6000002070BDF0B503460024002600250020BC
:100A700040F66A17B94200D100BF1846C1F34214CC
:100A800001F01F06012707FA06F5012C01D10C30F1
:100A900004E0022C01D1103000E014301AB10768D4
:100AA0002F43076002E00768AF430760F0BD000016
:100AB0002DE9F04786B005460E460024A24600BF49
:100AC000A1460027B08900B100BF2F462C8A4CF602
:100AD000FF700440F08804432C82AC894EF6F3107A
:100AE0000440B08831890843718908430443AC81CC
:100AF000AC8A4FF6FF400440B0890443AC8201A8A1
:100B0000FFF770FD1F48874202D1DDF810A001E019
:100B1000DDF80CA0A88900F4004040B10AEBCA003F
:100B200000EB0A1031684900B0FBF1F807E00AEB6E
:100B3000CA0000EB0A1031688900B0FBF1F86420AC
:100B4000B8FBF0F004012009642101FB1089A88999
:100B500000F4004040B1322000EBC900B0FBF1F0DE
:100B600000F00700044308E0322000EB0910642184
:100B7000B0FBF1F000F00F0004432C8106B0BDE89B
:100B8000F08700000038014001468888C0F3080063
:100B90007047C1F308028280704700BFFEE7000083
:100BA0000FB4054B10B503A9044A029800F018F8D9
:100BB00010BC5DF814FB0000290F0008B8000020ED
:100BC00002E008C8121F08C1002AFAD17047704716
:100BD000002001E001C1121F002AFBD17047000074
:100BE0002DE9FF4F8DB09B460F460446002606E0D8
:100BF00025280BD05A460F999047641C761C207804
:100C00000028F5D111B03046BDE8F08F0025A84688
:100C10000122984900E0054314F8013F203B02FA05
:100C200003F00842F7D120782E2817D114F8010FCD
:100C300045F004052A280ED06FF02F022078A0F18D
:100C4000300109290AD808EB880102EB410100EBC9
:100C50000108641CF2E757F8048B641C20786C28A8
:100C60000DD004DC4C2812D06A2811D104E074287D
:100C70000DD07A280CD10AE045F4001507E0617820
:100C800045F48015814202D1641C05F58015641C71
:100C90002278692A45D008DC002AB3D0582A69D0C6
:100CA000632A10D0642A08D13BE0702A67D0732AE7
:100CB00013D0752A5CD0782A5CD010465A460F991A
:100CC0009047761CD3E017F8040B8DF80000002045
:100CD0008DF80100E946012003E057F8049B4FF02E
:100CE000FF3069074FF0000501D40AE06D1C45454F
:100CF0000DDA8542FADB19F805100029F6D106E075
:100D00006D1C8542FCDB19F805100029F8D12E4432
:100D100004E019F8010B5A460F9990476D1EF8D25E
:100D2000A5E00A200021CDE90801C5F30250022800
:100D30000DD001CFC117031E71F100030DDA4FF082
:100D4000000CD0EB0C006CEB01012D2308E0FF1D23
:100D500027F00707F7E80201EDE72B0504D52B2361
:100D60008DF8283001233BE0EB0739D02023F7E74B
:100D70000A2000E010200021CDE9080107E0102042
:100D8000002145F00405CDE908014FF00808C5F33E
:100D9000025002280FD001CF00214FF0000A2B078C
:100DA0001FD5702A0DD0DDE908C38CF0100C5CEA69
:100DB000030C0CD015E0FF1D27F00707F7E8020130
:100DC000EBE740228DF828204FF0010A0BE050EAB3
:100DD000010306D030238DF828308DF82920022316
:100DE0009A46582A04D024A20DF120090B9209E05A
:100DF00026A2F9E7DDE90823FFF714FA0B9B9B5CB9
:100E000009F8013D50EA0102F4D1ADEB09002030B0
:100E10000890680701D44FF001080899884502DD61
:100E2000A8EB010000E000208046002506E00AA8AB
:100E30005A46405D0F9990476D1C761C5545F6DB70
:100E400004E030205A460F999047761CB8F1000113
:100E5000A8F10108F5DC05E019F8010B5A460F99D5
:100E60009047761C0899481E08900029F4DC641C01
:100E7000C5E60000092801003031323334353637F9
:100E800038396162636465660000000030313233D6
:100E90003435363738394142434445460000000076
:100EA00070B5044601F0B8FE012810D00B48008848
:100EB000844206D309480088B4FBF0F5284601F0C7
:100EC00011F906480088B4FBF0F100FB11444FF41F
:100ED0007A7104FB01F000F003F870BD40000020BF
:100EE00070B5034600224FF0E02675690D4E367846
:100EF00003FB06F44FF0E026B16910E04FF0E02666
:100F0000B06988420BD0884202D20E1A324402E005
:100F10002E1A0E4432440146A24200D300E0EDE70F
:100F200000BF70BD3E00002070B504460D46E1B222
:100F30000548FFF72EFE00BF80210348FFF75BFD49
:100F40000028F9D0204670BD003801400DE0002097
:100F500006490860C82001F0C5F801200449C1F81D
:100F600094014FF4487001F0BDF8F0E794812142FC
:100F7000008021421CB54820FFF72EFC4FF4407042
:100F8000FFF716FBFFF7B2FAFFF742FA4FF4E13032
:100F9000FFF7C4FC0BA0FFF703FE10A0FFF700FE55
:100FA00017A0FFF7FDFD1F48012100238022CDE996
:100FB00000101DA11F4801F0FFFD01F0D7F900202E
:100FC0001CBD00004672656552544F53CFFBCFA243
:100FD000B6D3C1D0CAB5D1E90D0A0000B0B4CFC2B2
:100FE0004B45595F5550BBF2D5DF4B455931B7A240
:100FF000CBCDB6D3C1D0CFFBCFA20D0A00000000ED
:1010000052656365697665C8CECEF1BDD3CAD5B5E4
:10101000BDCFFBCFA2D4DAB4AEBFDABBD8CFD40DEC
:101020000A0000000000002073746172745F746134
:10103000736B0000D11C00082DE9F04105460E46F7
:101040001C4807681C480068001D00F095FE50B958
:101050001948006890F82C10012088401749096849
:10106000814316480160681C38B936B112480168DE
:10107000091D134800F0BEFE1AE07C190E480068F6
:101080004460BC4207D20C480168091D0D48006845
:1010900000F096FE0CE008480168091D0A48006847
:1010A00000F08EFE09480068844201D207480460BF
:1010B000BDE8F08158000020440000205C000020C2
:1010C000A40400204C0000204800002074000020F0
:1010D00010B5044600F09AFE23480068401C2249DF
:1010E00008602248006840B920480460084600684B
:1010F00001280DD100F0D8F90AE01D48006838B980
:101100001A480068C06AE16A884201D8174804603A
:1011100018480068401C1749086094F82C100120FA
:10112000884015490968084313490860E16A01EBE2
:101130008101124A02EB8100211D00F05BFE00F0EC
:10114000A7FE0B48006868B108480068C06AE16AF9
:10115000884207D24FF0805009490860BFF34F8F93
:10116000BFF36F8F10BD000054000020440000202A
:1011700060000020700000205C000020D4010020EE
:1011800004ED00E010B500F041FE10480068D0B951
:101190000F4800F005FE0F4800F002FE0C480E4913
:1011A00008600C480D49086000220C210A2001F05B
:1011B000F9F9064908600846006820B108A103480B
:1011C000006800F053FF00F063FE10BD88000020AF
:1011D000B8040020CC0400208000002084000020FF
:1011E000546D72510000000070B523E001F014F955
:1011F0001348006808B9012000E00020054601F00E
:101200002BFEBDB900F002FE0D48C068C468201D69
:1012100000F0B2FD0B480068401E0A4908600A4809
:101220000068401E0849086000F032FE204600F0C9
:1012300057F800BF044800680028D7D170BD0000EF
:1012400090040020540000205000002070B5044697
:101250000D46206C70B1216CE0680844E060616864
:10126000E068884201D32068E0602846226CE1688B
:10127000FEF7C6FF70BD2DE9F04104460F46154646
:101280004FF00008A66B206C28B37DB93946226C5C
:10129000A068FEF7B5FF216CA0680844A060D4E9FF
:1012A0000110884217D32068A06014E03946226CF0
:1012B000E068FEF7A5FF216CE068401AE060216855
:1012C000E068884203D2216C6068401AE060022D19
:1012D00001D106B1761E701CA0634046BDE8F081C6
:1012E00010B50446206B00F009FE204600F006FE13
:1012F00010BD00000146084A126812680AB90122AE
:1013000000E000220A600A6822B9034A1268D26823
:10131000106800E0002070478000002030B54FF4D6
:101320001043174800F007042CB1C01D20F007003F
:10133000134C041B1B1B0246124C22600024114D4F
:101340006C60D018083820F007000F4C2060002493
:101350000D4D2D686C600C4D2D682C601146441AA3
:101360004C60094C24680C60084D4C682C60084D9A
:101370004C682C604FF00044064D2C6030BD0000DE
:10138000E0040020940000209C000020A400002025
:10139000A0000020A800002000BFFFF725FF06489E
:1013A00000680128F9D94FF0805004490860BFF364
:1013B0004F8FBFF36F8FF0E7D401002004ED00E002
:1013C0002DE9F04106460D4617469846069C0DB994
:1013D000246000E02760E66325640121204601F0D7
:1013E000F1F9BDE8F08100002DE9FF5F81460E466E
:1013F0009246DDE90E7B109CAAF10100216B01EB06
:10140000800828F0070808F0070008B9012000E06C
:10141000002028B940F22B321AA11FA0FFF7C0FB11
:10142000002507E0715D04F134004155705D00B99D
:1014300002E06D1C102DF5D300BF002143200155A3
:10144000202F00D31F27E762201D00F0B6FC04F117
:10145000180000F0B2FC2461C7F12000A0616462B2
:101460000020606484F8480049464046039A00F032
:101470007DFB2060BBF1000F01D0CBF80040BDE840
:10148000FF9F00004672656552544F535C74617350
:101490006B732E63000000004572726F723A257301
:1014A0002C25640D0A00000010B5002407E004EBB1
:1014B00084010F4A02EB810000F072FC641C202CB6
:1014C000F5D30C4800F06CFC0B4800F069FC0B48AD
:1014D00000F066FC0A4800F063FC0A4800F060FC7B
:1014E00004480949086004480849086010BD000024
:1014F000D401002054040020680400207C04002053
:1015000090040020A4040020480000204C0000208B
:1015100010B50146164800E0006803688B42FBD313
:101520000246436813448B4204D143684C68234409
:10153000436001460A464B6813440468A34211D134
:101540000C4C03682468A34208D04B6804686468A4
:1015500023444B6003681B680B6005E0054B1B6868
:101560000B6001E003680B60884200D0016010BD91
:10157000940000209C0000202DE9F04104460D4617
:1015800016461F464FF0000865602461B5420CD82E
:10159000F01BA169884202D34FF0010811E0211D20
:1015A0000948006800F00CFC0BE0BE4204D2BD42CA
:1015B00002D34FF0010804E0211D0448006800F048
:1015C000FFFB4046BDE8F081840000208000002041
:1015D00070B5054600F01AFCA86B08B9012400E0BC
:1015E000002400F055FC204670BD70B5054600F0A3
:1015F0000DFCA86BE96B884201D1012400E00024B6
:1016000000F046FC204670BDF8B505460F4613486D
:101610000068C068C468201D00F0AEFBE0690128C6
:1016200018D1A06941192B463A462046FFF7A4FF7E
:1016300080B1002003462A4601460090204601F072
:10164000D3FC06462EB94FF4027205A109A0FFF79C
:10165000A7FA00BF2046616A8847F8BD80000020D5
:101660004672656552544F535C74696D6572732E92
:10167000630000004572726F723A25732C25640D69
:101680000A00000070B586B060E0039800285DDBBA
:10169000059C606908B9012000E0002010B9201DF8
:1016A00000F06AFB02A800F0C5F8054603980A2876
:1016B0004AD2DFE800F00905072C2E4506082D2F39
:1016C00000BF00BF00BF00BF0498A2698118034695
:1016D0002A462046FFF750FFC0B12046616A88477E
:1016E000E069012812D1002000900498A1694218F5
:1016F00000231946204601F077FC06462EB940F239
:10170000213218A11CA0FFF74BFA00BF1DE000BF5B
:101710001BE000BF0498A061A06908B1012000E0AF
:10172000002028B94FF44E720EA113A0FFF738FA2B
:10173000A06941192B462A462046FFF71DFF04E009
:10174000204600F0DBFB00E000BF00BF00231A468C
:1017500003A90D48006800F05FFF002895D106B08E
:1017600070BD00004672656552544F535C74696DDC
:101770006572732E630000004572726F723A2573B2
:101780002C25640D0A00000088000020F8B50546ED
:101790000C4600F041FE684600F04CF80646009802
:1017A00020BB44B9B54206D801F056FB3146284665
:1017B000FFF72AFF1CE03CB10E480068006808B93A
:1017C000012000E000200446A91B22460A480068C8
:1017D00000F062FC01F040FB50B94FF08050074927
:1017E0000860BFF34F8FBFF36F8F01E001F034FB50
:1017F000F8BD0000840000208800002004ED00E017
:101800000A490968096809B9012100E0002121B1EC
:101810004FF0FF31064A116006E004490968C968C3
:10182000C868034A41681160704700004800002002
:101830007400002070B5044601F0FEF90546074823
:101840000068854204D200F00BF80120206001E01E
:101850000020206001480560284670BD90000020EF
:101860002DE9F8432DE021480068C06805681F484D
:101870000068C068C468201D00F07EFA2046616AD6
:101880008847E06901281CD1A0694619AE4207D9F2
:1018900066602461211D1548006800F091FA10E08F
:1018A000002003462A4601460090204601F09CFB9A
:1018B00007462FB940F292320DA112A0FFF770F93E
:1018C00000BF0A480068006808B9012000E0002055
:1018D0000028C8D00548D0F800800E4800680349A9
:1018E00008600C48C0F80080BDE8F8838000002044
:1018F0004672656552544F535C74696D6572732E00
:10190000630000004572726F723A25732C25640DD6
:101910000A000000840000200B480068401C08B941
:10192000012000E0002020B9F42208A111A0FFF757
:1019300037F900BF502080F31188BFF34F8FBFF3FA
:101940006F8F00BF00BFFEE7AC00002046726565E8
:1019500052544F535C706F727461626C655C525686
:1019600044535C41524D5F434D335C706F72742E33
:10197000630000004572726F723A25732C25640D66
:101980000A00000008B500BF6846FFF7B3FC044634
:1019900020460099FFF7FAFEFFF774FEF4E770B5F2
:1019A000044600F033FA94F9455010E0606A08B933
:1019B000012000E0002038B904F1240001F0F2F920
:1019C00018B100F04FFC00E003E0681E45B2002DA6
:1019D000ECDC00BFFF2084F8450000F059FA00F06D
:1019E00015FA94F9445010E0206908B9012000E08C
:1019F000002048B904F1100001F0D4F908B100F05A
:101A000031FC681E45B200E001E0002DECDC00BFB7
:101A1000FF2084F8440000F03BFA70BD2DE9F0414E
:101A200004464FF0000800F0F7FC3E48006808B993
:101A3000FFF774FC3C480068204000285FD1A4B147
:101A4000083404F0070080B104F00700C0F108007A
:101A5000044404F0070008B9012000E0002020B988
:101A6000BF2232A13AA0FFF79BF8002C47D03C4898
:101A70000068844243D83B4E3046056801E02E465C
:101A80002D686868A04202D228680028F7D125484E
:101A90000068854233D0306800F10808286830605B
:101AA0006868001B102813D92F1907F0070008B920
:101AB000012000E0002020B9EC221CA124A0FFF7A7
:101AC0006FF86868001B78606C603846FFF720FD8F
:101AD000234968680968081A2149086008460068AF
:101AE00021490968884203D21D4800681E490860E0
:101AF0000D4968680968084368600020286001F0A3
:101B0000ABF908F0070008B9012000E0002028B96F
:101B10004FF4967205A10EA0FFF742F84046BDE8CB
:101B2000F08100009C000020A8000020467265653E
:101B300052544F535C706F727461626C655C4D659A
:101B40006D4D616E675C686561705F342E63000087
:101B50004572726F723A25732C25640D0A000000DD
:101B6000A000002094000020A4000020001F4FF0DF
:101B700080730360001F21F001030360001F034B0B
:101B800003601438026020387047000019190008FB
:101B900008B5012412E000235A1E6946084800686F
:101BA00000F03AFD0446012C04D106A00099FEF78E
:101BB000F7FF03E0214609A0FEF7F2FFEBE7000084
:101BC00010000020B1BEB4CEBDD3CAD5B5BDB5C4DA
:101BD000CAFDBEDDCAC725640A0A0000CAFDBEDD13
:101BE000BDD3CAD5B3F6B4ED2CB4EDCEF3B4FAC27E
:101BF000EB3078256C780A001CB501240120019097
:101C00000220009000252BE00020FEF71FFC054677
:101C1000012D10D113A0FEF7C3FF00231A4601A91E
:101C20001648006800F026FE0446012C15D114A0C9
:101C3000FEF7B6FF11E0032D0FD118A0FEF7B0FF9D
:101C400000231A4669460D48006800F013FE04465A
:101C5000012C02D117A0FEF7A3FF142000F042FAD6
:101C6000D2E70000B7A2CBCDCFFBCFA273656E64E5
:101C70005F6461746131A3A10A00000010000020BC
:101C8000CFFBCFA273656E645F6461746131B7A2EC
:101C9000CBCDB3C9B9A6210A0A000000B7A2CBCDAB
:101CA000CFFBCFA273656E645F6461746132A3A1E0
:101CB0000A000000CFFBCFA273656E645F6461749D
:101CC0006132B7A2CBCDB3C9B9A6210A0A00000080
:101CD0001CB5044600F09AF800220421084600F0E2
:101CE00061FC134908601348022100233222CDE928
:101CF000001011A1134800F05FFF134803210023D7
:101D00003222CDE9001011A1144800F055FF14480B
:101D1000042100233222CDE9001012A1144800F062
:101D20004BFF1448006800F017FA00F0B1F81CBD32
:101D300010000020040000206C6564315F74617342
:101D40006B0000004D0F00080800002072656365FD
:101D50006976655F7461736B00000000911B000879
:101D60000C00002073656E645F7461736B0000008B
:101D7000F91B00080000002001460A69D1E9013082
:101D80009860D1E9010358605068884201D18868A1
:101D90005060002008611068401E10601068704795
:101DA00000F1080141604FF0FF31816000F108014E
:101DB000C16001610021016070470021016170472D
:101DC00010B502460B685C1C0CB9106907E002F103
:101DD000080000E04068446824689C42FAD94468DE
:101DE0004C604C68A160886041600A611468641CA2
:101DF000146010BD42684A6093688B6093685960B4
:101E00009160086103685B1C0360704710B500BFF8
:101E1000502080F31188BFF34F8FBFF36F8F00BF47
:101E20000B480068401C0A49086008460068012801
:101E30000DD108480068C0B208B9012000E00020B8
:101E400028B94FF4BD7204A10DA0FEF7A9FE10BD84
:101E5000AC00002004ED00E04672656552544F531B
:101E60005C706F727461626C655C525644535C4185
:101E7000524D5F434D335C706F72742E63000000EF
:101E80004572726F723A25732C25640D0A000000AA
:101E900010B50B48006828B940F2811209A113A0BF
:101EA000FEF77EFE06480068401E054908600846A9
:101EB000006820B9002080F3118800BF00BF10BD6A
:101EC000AC0000204672656552544F535C706F72CF
:101ED0007461626C655C525644535C41524D5F4381
:101EE0004D335C706F72742E630000004572726F28
:101EF000723A25732C25640D0A00000070B5064661
:101F00003546002E35D0083D2C461A4960680968D0
:101F1000084008B1012000E0002028B94FF4A07269
:101F200015A11EA0FEF73CFE206808B9012000E0C4
:101F3000002028B940F241120FA118A0FEF730FE90
:101F40000C4960680968084098B1206888B9094957
:101F5000606809688843606000F05EFA1349606851
:101F600009680844114908602046FFF7D1FA00F0DB
:101F700073FF70BDA80000204672656552544F5330
:101F80005C706F727461626C655C4D656D4D616E05
:101F9000675C686561705F342E6300004572726F24
:101FA000723A25732C25640D0A000000A000002061
:101FB000064800684FF47A71B0FBF1F0401E4FF014
:101FC000E0214861072008617047000028000020D8
:101FD00070B5FEF7FFF80546102D11D305F1E0208E
:101FE00090F8F04310480078844201DB012000E0C3
:101FF000002028B94FF42A720CA116A0FEF7D0FDDC
:102000001848006800F4E06017490968884201D860
:10201000012000E0002028B94FF42E7203A10DA08A
:10202000FEF7BEFD70BD0000B00000204672656581
:1020300052544F535C706F727461626C655C52569F
:1020400044535C41524D5F434D335C706F72742E4C
:10205000630000004572726F723A25732C25640D7F
:102060000A0000000CED00E0B40000200246002051
:102070000BE0084B53F8303033B9064B43F83010BF
:1020800003EBC0035A6002E0401C0A28F1D300BFF2
:1020900070470000840100202DE9F04105460E46FE
:1020A00017462C46FFF7B2FE94F94400401C10B9C5
:1020B000002084F8440094F94500401C10B9002029
:1020C00084F84500FFF7E4FEA06B28B93A46314694
:1020D00004F1240000F0F6F82046FFF760FCBDE8AC
:1020E000F081000070B504460025ACB10F480068CF
:1020F00008B9012000E0002028B940F2CF420CA12D
:1021000010A0FEF74DFD00F087F900212046FEF7F4
:1021100093FF00F0A1FE05463DB94FF080500D49F8
:102120000860BFF34F8FBFF36F8F70BD7C0000203E
:102130004672656552544F535C7461736B732E63C2
:10214000000000004572726F723A25732C25640DF1
:102150000A00000004ED00E070B50546FFF756FEEA
:1021600015B92D48006800E028460446201DFFF7F9
:1021700003FE78B9E06A00EB8000284951F820009E
:1021800040B994F82C100120884025490968814302
:1021900023480160A06A18B104F11800FFF7ECFDB4
:1021A00020480068401C1F4908601B4800688442A2
:1021B00009D1211D1C48FFF71DFE1C480068401C6A
:1021C0001A49086009E01A480068401E184908606A
:1021D0002046FFF785F8FFF713FBFFF759FE154878
:1021E0000068C0B10C480068844214D112480068ED
:1021F00008B9012000E0002028B940F265420FA193
:1022000013A0FEF7CDFC4FF0805015490860BFF3D6
:102210004F8FBFF36F8F70BD44000020D4010020AA
:102220005C0000207000002090040020500000207E
:1022300054000020600000207C000020467265658C
:1022400052544F535C7461736B732E630000000033
:102250004572726F723A25732C25640D0A000000D6
:1022600004ED00E00120014908607047680000208B
:1022700070B504460D462CB940F6063207A10CA0F5
:10228000FEF78EFC0E48016818312046FFF798FDD6
:1022900001212846FEF7D0FE70BD0000467265653C
:1022A00052544F535C7461736B732E6300000000D3
:1022B0004572726F723A25732C25640D0A00000076
:1022C0004400002070B505460E4614462DB940F670
:1022D000313209A10DA0FEF763FC104801681831E6
:1022E0002846FFF787FD0CB14FF0FF3621463046F8
:1022F000FEF7A2FE70BD00004672656552544F5352
:102300005C7461736B732E63000000004572726F22
:10231000723A25732C25640D0A0000004400002049
:1023200010B504462CB940F6C13205A109A0FEF74C
:1023300037FC0C48006820600B480068606010BDE6
:102340004672656552544F535C7461736B732E63B0
:10235000000000004572726F723A25732C25640DDF
:102360000A0000006C000020580000201CB51A482C
:1023700000210B468022CDE9001018A1194800F079
:102380001BFC0446012C02D100F0F6FD0446012C92
:1023900015D100BF502080F31188BFF34F8FBFF3DA
:1023A0006F8F00BF4FF0FF300F49086001200F49C9
:1023B000086000200E49086000F08AF80BE0601CFD
:1023C00008B1012000E0002028B940F2847209A180
:1023D0000DA0FEF7E5FB1CBD7800002049444C45EC
:1023E0000000000099130008740000206000002025
:1023F000580000204672656552544F535C746173F7
:102400006B732E63000000004572726F723A257381
:102410002C25640D0A00000002480068401C014998
:10242000086070477C00002010B51B48006818B198
:1024300001201A4908602DE000201849086018485A
:102440000068B0FA80F0C0F11F0404EB8400154965
:1024500051F8200008B1012000E0002028B940F622
:10246000F62211A115A0FEF79BFB04EB84010D4A97
:1024700002EB810041684968416000F1080142684F
:102480008A4202D14168496841604168C9680F4A7F
:10249000116000BF10BD00007C000020680000201B
:1024A0005C000020D40100204672656552544F53F1
:1024B0005C7461736B732E63000000004572726F71
:1024C000723A25732C25640D0A0000004400002098
:1024D0001CB52248014609780191FF21024611707E
:1024E0000146097800919DF8001001F050011C4A46
:1024F000117007211B4A116009E01A490968491E39
:10250000184A11609DF800104906090E00919DF8C7
:10251000001001F080018029EFD0124909680902FA
:10252000104A11601146098801F4E06111600B4AFC
:10253000019911700C48006840F470000A49086065
:102540000846006840F070400860FFF731FD002049
:1025500006490860FDF708FE00201CBD00E400E00D
:10256000B0000020B400002020ED00E0AC0000200E
:1025700010B500BF502080F31188BFF34F8FBFF319
:102580006F8F00BF00F05EFB18B14FF08050044920
:10259000086000BF002080F3118800BF10BD00005C
:1025A00004ED00E02DE9F84305460E4690460DB1D6
:1025B000012000E0002028B94FF4C4720DA112A040
:1025C000FEF7EEFA0EB9002701E005FB06F707F16A
:1025D0004800FFF723FA044644B104F14809434692
:1025E0004A46314628460094FEF7EAFE2046BDE8FA
:1025F000F88300004672656552544F535C717565EF
:1026000075652E63000000004572726F723A257383
:102610002C25640D0A0000002DE9FF4782B0054615
:102620000E461F464FF0000A2C462CB940F2DC4201
:102630005AA15FA0FEF7B4FA0EB9206C08B90120C8
:1026400000E0002028B940F2DD4254A158A0FEF776
:10265000A7FA00F0E1FA08B9049808B9012000E0EF
:10266000002028B94FF49C624CA151A0FEF798FAC3
:1026700000BFFFF7CBFBD4F83890B9F1000F38D08A
:10268000D4F80C8031462046FEF7E0FDB7B9A9F139
:102690000100A063206908B9012000E0002010BB00
:1026A00004F1100000F07EFBE8B14FF08050444987
:1026B0000860BFF34F8FBFF36F8F14E0C4F80C8036
:1026C000606A08B9012000E0002060B904F124002C
:1026D00000F068FB38B14FF0805039490860BFF313
:1026E0004F8FBFF36F8FFFF7D3FB012006B0BDE81C
:1026F000F087049818B9FFF7CBFB0020F6E7BAF192
:10270000000F04D16846FFF70BFE4FF0010AFFF7F8
:10271000BFFBFFF781FEFFF779FB94F94400401CF3
:1027200010B9002084F8440094F94500401C10B909
:10273000002084F84500FFF7ABFB04A9684600F0D1
:10274000EBF9F0B92046FEF743FFA0B104F12400F5
:102750000499FFF78DFD2046FFF721F900F07CFB7F
:10276000002886D14FF0805015490860BFF34F8F85
:10277000BFF36F8F7DE72046FFF711F900F06CFB88
:1027800077E72046FFF70BF900F066FB2046FEF7DF
:102790001FFF0028EED00020A8E700004672656504
:1027A00052544F535C71756575652E6300000000CF
:1027B0004572726F723A25732C25640D0A00000071
:1027C00004ED00E070B505460E462C462CB940F2EB
:1027D0001B121EA122A0FEF7E3F9FFF717FBD4E9B5
:1027E0000F12206801FB020060600020A0632068D7
:1027F000A060E06B401E226C216800FB0210E060CC
:10280000FF2084F8440084F845009EB9206908B987
:10281000012000E00020A8B904F1100000F0C2FA85
:1028200080B14FF0805012490860BFF34F8FBFF363
:102830006F8F07E004F11000FFF7B2FA04F12400F3
:10284000FFF7AEFAFFF724FB012070BD4672656505
:1028500052544F535C71756575652E63000000001E
:102860004572726F723A25732C25640D0A000000C0
:1028700004ED00E02DE9FF4383B0064688461D467F
:102880004FF0000934462CB940F2D92258A15DA07E
:10289000FEF786F9B8F1000F01D1206C08B90120CC
:1028A00000E0002028B940F2DA2251A155A0FEF73D
:1028B00077F9022D02D1E06B012801D1012000E05F
:1028C000002028B940F2DB2249A14EA0FEF768F9AA
:1028D00000F0A2F908B9059808B9012000E000202D
:1028E00028B940F2DE2242A146A0FEF759F900BF06
:1028F000FFF78CFAA06BE16B884201D3022D28D13F
:102900002A4641462046FEF7B6FC0746606A08B9EB
:10291000012000E0002068B904F1240000F042FA30
:1029200088B14FF080503B490860BFF34F8FBFF331
:102930006F8F08E03FB14FF0805036490860BFF319
:102940004F8FBFF36F8FFFF7A3FA012007B0BDE8E9
:10295000F083059818B9FFF79BFA0020F6E7B9F164
:10296000000F04D101A8FFF7DBFC4FF00109FFF7CE
:102970008FFAFFF751FDFFF749FA94F94400401C24
:1029800010B9002084F8440094F94500401C10B9A7
:10299000002084F84500FFF77BFA05A901A800F0A4
:1029A000BBF8F0B92046FEF720FEA0B104F11000FC
:1029B0000599FFF75DFC2046FEF7F1FF00F04CFAA9
:1029C000002895D14FF0805012490860BFF34F8F17
:1029D000BFF36F8F8CE72046FEF7E1FF00F03CFA73
:1029E00086E72046FEF7DBFF00F036FA0020ADE771
:1029F0004672656552544F535C71756575652E63FB
:102A0000000000004572726F723A25732C25640D28
:102A10000A00000004ED00E02DE9F05F07468A4659
:102A200090461E463C462CB940F29F3231A136A05A
:102A3000FEF7B6F8BAF1000F01D1206C08B90120F9
:102A400000E0002028B94FF468722AA12EA0FEF7FA
:102A5000A7F8022E02D1E06B012801D1012000E08D
:102A6000002028B940F2A13222A127A0FEF798F851
:102A7000FFF7AEFA00BF5021EFF3118081F3118808
:102A8000BFF34F8FBFF36F8F00BF0546A06BE16BA5
:102A9000884201D3022E23D194F945B032465146E3
:102AA0002046FEF7E8FB0BF1010088B9606A08B91F
:102AB000012000E0002080B904F1240000F072F948
:102AC00058B1B8F1000F08D00120C8F8000004E0A8
:102AD0000BF1010040B284F845004FF0010901E01C
:102AE0004FF0000900BF85F3118800BF4846BDE8DC
:102AF000F09F00004672656552544F535C717565D6
:102B000075652E63000000004572726F723A25737E
:102B10002C25640D0A0000002DE9F04104460D4605
:102B20002CB940F6CB3219A11DA0FEF739F82DB90A
:102B300040F6CC3215A11AA0FEF732F8FFF766F97D
:102B40001B4807682868401C08B9002619E0194985
:102B500020680968884204D06068B84201D801261C
:102B60000FE06068381A2968884209D228686168CD
:102B7000791A401A28602046FFF7D2FB002600E0B1
:102B80000126FFF785F93046BDE8F081467265659C
:102B900052544F535C7461736B732E6300000000DA
:102BA0004572726F723A25732C25640D0A0000007D
:102BB000580000206C0000202DE9FF4F85B08046B2
:102BC00089461746DDE912ABB800FEF727FF064637
:102BD00056B14C20FEF722FF04460CB1266304E0F8
:102BE0003046FFF78BF900E000247CB10020CDE9EE
:102BF00000ABCDE902403A4649464046089BFEF705
:102C0000F3FB2046FEF764FA012501E04FF0FF35A3
:102C1000284609B0BDE8F08F0549096809B90120C7
:102C200005E00449096809B9022000E00020704766
:102C3000600000207C000020014908687047000007
:102C4000580000202DE9F0414FF00008414800688D
:102C5000002872D140480068451C3F480560EDB926
:102C60003E480068006808B9012000E0002028B94B
:102C700040F6D9123AA13FA0FDF792FF3748076806
:102C800040480068354908603E4807603E48006893
:102C9000401C3D490860FEF7B3FD00BF3B4800689B
:102CA00085423CD300BF2D480068006808B9012068
:102CB00000E0002020B14FF0FF30344908602DE0E3
:102CC00026480068C068C4686668B54202D22F48CA
:102CD000066023E0201DFFF74FF8A06A18B104F149
:102CE0001800FFF749F894F82C1001208840284973
:102CF0000968084326490860E16A01EB8101254A19
:102D000002EB8100211DFFF775F82349E06A09688D
:102D1000C96A8842C7D34FF00108C4E700BF1E4804
:102D20000068C06A00EB80001A4951F820000128B1
:102D300001D94FF0010805E0FFE718480068401C82
:102D4000164908601648006808B14FF0010840466F
:102D5000BDE8F0817C0000205800002048000020E1
:102D60004672656552544F535C7461736B732E6386
:102D7000000000004572726F723A25732C25640DB5
:102D80000A0000004C0000206C00002074000020AD
:102D90005C000020D40100204400002064000020DA
:102DA0006800002070B50646F068C4682CB940F68B
:102DB00061321AA11EA0FDF7F3FE04F11800FEF720
:102DC000DBFF1F480068A8B9201DFEF7D5FF94F867
:102DD0002C10012088401B490968084319490860E4
:102DE000E16A01EB8101184A02EB8100211DFFF726
:102DF00001F804E004F118011448FEF7FBFF144940
:102E0000E06A0968C96A884204D90125012011498C
:102E1000086000E00025284670BD00004672656528
:102E200052544F535C7461736B732E630000000047
:102E30004572726F723A25732C25640D0A000000EA
:102E40007C0000205C000020D40100207C040020D5
:102E5000440000206800002070B50024002634489B
:102E6000006828B94FF4FD6232A137A0FDF798FE43
:102E7000FEF7CCFF2E480068401E2D49086008462A
:102E8000006800284FD13448006800284BD024E067
:102E90003248C068C46804F11800FEF76DFF201DB9
:102EA000FEF76AFF94F82C10012088402C4909682D
:102EB00008432B490860E16A01EB8101294A02EBD2
:102EC0008100211DFEF796FF2749E06A0968C96A5B
:102ED000884202D30120254908602048006808B9CB
:102EE000012000E000200028D2D00CB1FEF788FCC1
:102EF0001F48056865B100BFFFF7A4FE10B10120AF
:102F00001A4908606D1E002DF6D10020184908608E
:102F10001648006838B10126300716490860BFF32B
:102F20004F8FBFF36F8FFEF7B3FF304670BD0000C9
:102F30007C0000204672656552544F535C74617387
:102F40006B732E63000000004572726F723A257336
:102F50002C25640D0A000000540000207C04002091
:102F60005C000020D4010020440000206800002004
:102F70006400002004ED00E01CB50024FEF702F917
:102F80000B48006858B10B481F2100234FF4807292
:102F9000CDE9001008A10A48FFF70EFE04462CB93F
:102FA00040F2331207A10CA0FDF7FAFD20461CBD2C
:102FB000880000208C000020546D7220537663003E
:102FC000851900084672656552544F535C74696DEB
:102FD0006572732E630000004572726F723A25733A
:102FE0002C25640D0A0000002DE9FE4304460D4621
:102FF00016461F46DDF828804FF000092CB94FF423
:10300000D37216A11AA0FDF7CBFD1D48006810B3BE
:10301000009501960294062D15DAFFF7FDFD0228B2
:1030200008D100234246694615480068FFF722FC94
:10303000814610E000231A46694611480068FFF7F0
:1030400019FC814607E000233A4669460C480068AF
:10305000FFF7E2FC81464846BDE8FE83467265659F
:1030600052544F535C74696D6572732E6300000097
:103070004572726F723A25732C25640D0A000000A8
:1030800088000020A430000800000020BC000000E0
:10309000C00B000860310008BC000020249800002C
:1030A000D00B00080000000000000000000000003D
:1030B0000000000000000000000000000102030406
:1030C00001020304060708090204060800A24A04D4
:1030D00000000000000000000102030406070809C8
:1030E00001000000000000000000000000000000DF
:1030F00000000000000000000000000000000000D0
:1031000000000000000000000000000000000000BF
:1031100000000000000000000000000000000000AF
:10312000000000000000000000000000000000009F
:10313000000000000000000000000000000000008F
:10314000000000000000000000000000000000007F
:10315000AAAAAAAA000000000000000000000000C7
:0400000508000131BD
:00000001FF
