:020000040800F2
:10000000E0980020DD0100081D050008ED03000850
:100010001905000875020008130C00080000000014
:100020000000000000000000000000004501000882
:10003000790200080000000089010008A9070008F3
:10004000F7010008F7010008F7010008F7010008B0
:10005000F7010008F7010008F7010008F7010008A0
:10006000F7010008F7010008F7010008F701000890
:10007000F7010008F7010008F7010008F701000880
:10008000F7010008F7010008F7010008F701000870
:10009000F7010008F7010008F7010008F701000860
:1000A000F7010008F7010008F7010008F701000850
:1000B000F7010008F7010008F7010008F701000840
:1000C000F7010008F7010008F7010008F701000830
:1000D000F70100080D090008F7010008F701000802
:1000E000F7010008F7010008F7010008F701000810
:1000F000F7010008F7010008F7010008F701000800
:10010000F7010008F7010008F7010008F7010008EF
:10011000F7010008F7010008F7010008F7010008DF
:10012000F7010008F7010008F7010008F7010008CF
:10013000DFF80CD000F08CF800480047E50E00080E
:10014000E0980020224B19680868B0E8F00F80F3AF
:100150000988BFF36F8F4FF0000080F311884EF0D5
:100160000D0E70470000000006480068006880F32C
:10017000088862B661B6BFF34F8FBFF36F8F00DFA1
:1001800000BF00BF08ED00E0EFF30980BFF36F8F01
:100190000F4B1A6820E9F00F106008B54FF05000BF
:1001A00080F31188BFF34F8FBFF36F8F02F0F2F827
:1001B0004FF0000080F31188BDE808401968086816
:1001C000B0E8F00F80F30988BFF36F8F704700BF6E
:1001D00040000020EFF3058070470000064880478C
:1001E00006480047FEE7FEE7FEE7FEE7FEE7FEE71C
:1001F000FEE7FEE7FEE7FEE715080008310100080C
:1002000040EA01039B0703D009E008C9121F08C098
:10021000042AFAD203E011F8013B00F8013B521E18
:10022000F9D2704730B50B46014600202022012448
:1002300009E021FA02F59D4205D303FA02F5491BB4
:1002400004FA02F52844151EA2F10102F1DC30BDCA
:10025000064C074D06E0E06840F0010394E8070013
:1002600098471034AC42F6D3FFF766FFF831000828
:100270001832000800BFFEE770472DE9F041024642
:1002800000250026002000230024002791F803C049
:100290000CF00F0591F803C00CF0100CBCF1000F2E
:1002A00003D091F802C04CEA050591F800C0BCF1FA
:1002B000000F31D0146800202BE04FF0010C0CFA35
:1002C00000F3B1F800C00CEA03069E4220D183007F
:1002D0004FF00F0C0CFA03F7BC4305FA03FC4CEA91
:1002E000040491F803C0BCF1280F06D14FF0010CB3
:1002F0000CFA00FCC2F814C00AE091F803C0BCF18B
:10030000480F05D14FF0010C0CFA00FCC2F810C0E8
:10031000401C0828D1D31460B1F800C0BCF1FF0F15
:1003200034DD546800202EE000F1080C4FF0010885
:1003300008FA0CF3B1F800C00CEA03069E4221D182
:1003400083004FF00F0C0CFA03F7BC4305FA03FCD3
:100350004CEA040491F803C0BCF1280F05D100F168
:10036000080C08FA0CF8C2F8148091F803C0BCF12C
:10037000480F07D100F1080C4FF0010808FA0CF8FB
:10038000C2F81080401C0828CED35460BDE8F0812C
:10039000016170470124002514E0002000F046F8B8
:1003A0000546042D0BD10023022219460648006899
:1003B00002F0F6FB012C02D104A000F02DFC142069
:1003C00001F0EEFDE9E70000080000204B4559323E
:1003D000B1BBB0B4CFC2A3ACCACDB7C531B8F6CDAE
:1003E000A3B3B5CEBBA1A30A0000000000BFFEE787
:1003F00008B50121442000F0D5F80120ADF8000037
:1004000028208DF8030069460648FFF736FF1C20B8
:10041000ADF8000048208DF8030069460248FFF758
:100420002CFF08BD000801400018014010B504462B
:10043000012C01D1224908702148007801282AD1D5
:100440002048006801280AD01F48006838B11E48BB
:10045000001F006818B11C4808380068D8B90A2085
:1004600000F0D6FC002016490870164800680128E4
:1004700000D110BD1448006808B90220F9E71248FD
:10048000001F006808B90320F3E70F480838006828
:10049000A0B90420EDE70B48006878B90A48006865
:1004A00001280BD10848001F0068012806D1064822
:1004B00008380068012801D1014908700020D8E7F8
:1004C00038000020000121421001234208B501211B
:1004D000482000F067F82020ADF8000010208DF8CB
:1004E000030003208DF8020069460948FFF7C5FEA6
:1004F00020210748FFF74CFF2020ADF80000694697
:100500000448FFF7BAFE20210248FFF741FF08BD6B
:10051000000C01400018014000BFFEE770470000DA
:1005200070B5002100230F22C47804B3154C246851
:1005300004F4E064C4F5E064210AC1F10403CA4094
:10054000447804FA03F184781440214309010E4CE5
:100550000678A155047804F01F050124AC40057805
:100560006D11AD0005F1E025C5F8004109E0047802
:1005700004F01F050124AC40044D0678761145F8BF
:10058000264070BD0CED00E000E400E080E100E0FA
:1005900002490143024A1160704700000000FA0559
:1005A0000CED00E029B1064A92690243044B9A61BE
:1005B00004E0034A92698243014B9A61704700004C
:1005C0000010024030B500210022002400232D4DF0
:1005D0006D6805F00C0121B1042905D0082923D14B
:1005E00005E0294D056022E0274D05601FE0254DFF
:1005F0006D6805F47012234D6D6805F48034022592
:1006000005EB92421CB9214D554305600BE01D4D91
:100610006D6805F400351DB11C4D5543056002E0C1
:10062000194D5543056002E0174D056000BF00BF3E
:10063000144D6D6805F0F0010909154D6B5C0568F6
:10064000DD4045600F4D6D6805F4E061090A104D0D
:100650006B5C4568DD4085600A4D6D6805F460514E
:10066000C90A0B4D6B5C4568DD40C560054D6D6882
:1006700005F44041890B074D6B5CC568B5FBF3F58C
:10068000056130BD0010024000127A0000093D00F3
:10069000100000202000002010B500F001F810BD6F
:1006A0000CB50020019000903348006840F4803081
:1006B0003149086000BF3048006800F40030009005
:1006C0000198401C0190009818B90198B0F5A06FEE
:1006D000F1D12948006800F4003010B101200090E9
:1006E00001E0002000900098012843D123480068D1
:1006F00040F01000214908600846006820F003001F
:1007000008600846006840F0020008601A48406827
:10071000194948600846406848600846406840F407
:10072000806048600846406820F47C1048600846B5
:10073000406840F4E81048600846006840F0807067
:10074000086000BF0C48006800F000700028F9D075
:100750000948406820F0030007494860084640689F
:1007600040F00200486000BF0348406800F00C0001
:100770000828F9D10CBD0000001002400020024002
:10078000042808D14FF0E021096941F004014FF03D
:10079000E022116107E04FF0E021096921F0040136
:1007A0004FF0E0221161704710B502F083FA012882
:1007B00001D001F093FE10BD70B505460420FFF78F
:1007C000DFFF104800681049B0FBF1F00F490870D6
:1007D0000C4800680C49B0FBF1F44FF47A704443C4
:1007E00001200B4908804FF0E020006940F0020032
:1007F0004FF0E021086108464461006940F00100C3
:10080000086170BD2400002040420F003A00002023
:100810003C00002010B51348006840F00100114969
:10082000086008464068104908400E49486008467C
:1008300000680E4908400B4908600846006820F42B
:10084000802008600846406820F4FE0048604FF4AD
:100850001F008860FFF720FF4FF000600449086028
:1008600010BD0000001002400000FFF8FFFFF6FE80
:1008700008ED00E00124002516E00020FFF7D6FD7A
:100880000546032D0DD10021084601F099F90446D3
:1008900024B1611E05A000F0BFF902E00FA000F036
:1008A000BBF9142001F07CFBE7E700004B45593110
:1008B000B1BBB0B4CFC2A3ACB3C9B9A6C9EAC7EB48
:1008C000B5BDCDA3B3B5CEBBA3ACB5B1C7B0B3B5C1
:1008D000CEBBCEAA202564200A0000004B4559312A
:1008E000B1BBB0B4CFC2A3ACB3B5CEBBD2D1BEAD59
:1008F000C3BBD3D0C1CBA3ACC7EBB0B44B455932CB
:10090000CACDB7C5B3B5CEBB0A00000010B540F2E2
:1009100025511D4800F0B8F810B31B4800F070F9DD
:10092000C4B21A48008800F40040C8B917480088CB
:1009300000F4804060B10A2C03D0002013490880E5
:1009400020E01248008840F400401049088019E077
:100950000D2C06D10D48008840F480400B490880DA
:1009600010E00A480088C0F30D0009490C540748FC
:100970000088401C0549088008460088C72801DD1A
:100980000020088010BD0000003801403E0000201B
:10099000B800002010B586B0044601210420FFF7FE
:1009A00001FE01218803FFF7FDFD4FF40070ADF853
:1009B000140003208DF8160018208DF8170005A9E3
:1009C0001E48FFF75AFC4FF48060ADF81400042075
:1009D0008DF8170005A91948FFF74FFC0194002076
:1009E000ADF80800ADF80A00ADF80C00ADF8100045
:1009F0000C20ADF80E0001A9114800F095F8012176
:100A00000F4800F028F840210D4800F01BF80122A3
:100A100040F225510A4800F061F825208DF80000C9
:100A200003208DF801008DF8020001208DF80300ED
:100A30006846FFF775FD06B010BD000000080140D4
:100A40000038014001F40072B2F5007F00D100BF10
:100A5000CA430280704721B1828942F400528281E8
:100A600004E082894DF6FF731A4082817047024686
:100A70000020B1F5007F00D100BF13880B400BB1FF
:100A8000012000E00020704770B5024600240023DA
:100A90000025002040F66A16B14200D100BFC1F324
:100AA000421501F01F03012606FA03F3012D02D1BE
:100AB0009689334006E0022D02D1168A334001E0C8
:100AC000968A33400C12012606FA04F41688344044
:100AD00013B10CB1012000E0002070BDF0B5034659
:100AE000002400260025002040F66A17B94200D1F4
:100AF00000BF1846C1F3421401F01F06012707FA90
:100B000006F5012C01D10C3004E0022C01D110308B
:100B100000E014301AB107682F43076002E007684D
:100B2000AF430760F0BD00002DE9F04786B00546F1
:100B30000E460024A24600BFA1460027B08900B19E
:100B400000BF2F462C8A4CF6FF700440F088044307
:100B50002C82AC894EF6F3100440B08831890843EA
:100B6000718908430443AC81AC8A4FF6FF400440CE
:100B7000B0890443AC8201A8FFF724FD1F488742D7
:100B800002D1DDF810A001E0DDF80CA0A88900F486
:100B9000004040B10AEBCA0000EB0A10316849007E
:100BA000B0FBF1F807E00AEBCA0000EB0A1031686D
:100BB0008900B0FBF1F86420B8FBF0F004012009D3
:100BC000642101FB1089A88900F4004040B1322063
:100BD00000EBC900B0FBF1F000F00700044308E0AF
:100BE000322000EB09106421B0FBF1F000F00F009F
:100BF00004432C8106B0BDE8F087000000380140B6
:100C000001468888C0F308007047C1F3080282805B
:100C1000704700BFFEE700000FB4054B10B503A9F5
:100C2000044A029800F018F810BC5DF814FB0000AC
:100C3000990E0008B400002002E008C8121F08C185
:100C4000002AFAD170477047002001E001C1121F4D
:100C5000002AFBD1704700002DE9FF4F8BB09A4668
:100C60000F460546002606E025280BD052460D9972
:100C700090476D1C761C28780028F5D10FB03046BF
:100C8000BDE8F08F0024A0460122604900E0044343
:100C900015F8013F203B02FA03F00842F7D128780B
:100CA0002E2817D115F8010F44F004042A280ED07D
:100CB0006FF02F022878A0F1300109290AD808EB3B
:100CC000880102EB410100EB01086D1CF2E757F8C7
:100CD000048B6D1C287869283ED006DC0028CDD016
:100CE00063280BD0642804D136E0732810D075280F
:100CF0004BD052460D999047761C85E017F8040BAF
:100D00008DF8000000208DF80100E946012003E085
:100D100057F8049B4FF0FF3061074FF0000401D4F7
:100D20000AE0641C44450DDA8442FADB19F8041029
:100D30000029F6D106E0641C8442FCDB19F804109B
:100D40000029F8D1264404E019F8010B52460D9908
:100D50009047641EF8D257E001CF4FF00A0B0028ED
:100D600002DA40422D2102E0210504D52B218DF825
:100D70002410012103E0E10705D02021F7E70DF160
:100D8000200908910CE00021F9E701CF4FF00A0B90
:100D9000F9E75946FFF746FA01F1300209F8012D4B
:100DA0000028F6D1ADEB090000F1200B600701D45B
:100DB0004FF00108D84502DDA8EB0B0000E0002051
:100DC0008046002406E009A85246005D0D99904730
:100DD000641C761C08988442F5DB04E030205246FF
:100DE0000D999047761CB8F10001A8F10108F5DCD7
:100DF00005E019F8010B52460D999047761CBBF19E
:100E00000001ABF1010BF4DC6D1C34E70928010093
:100E100070B5044601F04EFF012810D00B48008841
:100E2000844206D309480088B4FBF0F5284601F057
:100E3000B7F806480088B4FBF0F100FB11444FF40A
:100E40007A7104FB01F000F003F870BD3C00002053
:100E500070B5034600224FF0E02675690D4E3678D6
:100E600003FB06F44FF0E026B16910E04FF0E026F6
:100E7000B06988420BD0884202D20E1A324402E096
:100E80002E1A0E4432440146A24200D300E0EDE7A0
:100E900000BF70BD3A00002070B504460D46E1B2B7
:100EA0000548FFF7B2FE00BF80210348FFF7DFFDD2
:100EB0000028F9D0204670BD003801400DE0002028
:100EC00006490860C82001F06BF801200449C1F808
:100ED00094014FF4487001F063F8F0E794812142E7
:100EE000008021421CB54820FFF766FC4FF440709B
:100EF000FFF74EFBFFF7EAFAFFF77AFA4FF4E1301B
:100F0000FFF748FD09A0FFF787FE12A0FFF784FE58
:100F10001E48012100238022CDE900101CA11F489A
:100F200001F00EFE01F0D8F900201CBD4672656587
:100F300052544F53C8CECEF1CDA8D6AAB4FACCE6BF
:100F4000BCC6CAFDD0C5BAC5C1BFCAB5D1E90D0A74
:100F500000000000B3B5CEBBC4ACC8CFD6B5CEAA96
:100F600030B8F6A3ACB0B4CFC24B455931C9EAC7CB
:100F7000EBB3B5CEBBA3ACB0B4CFC24B455932CA6C
:100F8000CDB7C5B3B5CEBBA3A10A0A0000000020AF
:100F900073746172745F7461736B00002D1B0008C1
:100FA0002DE9F04105460E461C4807681C480068BC
:100FB000001D00F03FFE50B91948006890F82C1051
:100FC0000120884017490968814316480160681C60
:100FD00038B936B112480168091D134800F068FE9F
:100FE0001AE07C190E4800684460BC4207D20C48E5
:100FF0000168091D0D48006800F040FE0CE008483B
:101000000168091D0A48006800F038FE09480068B8
:10101000844201D207480460BDE8F08154000020FA
:101020004000002058000020A004002048000020BC
:10103000440000207000002010B5044600F044FE7B
:1010400023480068401C224908602248006840B9D3
:10105000204804600846006801280DD100F0E2F93C
:101060000AE01D48006838B91A480068C06AE16A99
:10107000884201D81748046018480068401C174986
:10108000086094F82C10012088401549096808432D
:1010900013490860E16A01EB8101124A02EB810009
:1010A000211D00F005FE00F051FE0B48006868B1FC
:1010B00008480068C06AE16A884207D24FF0805051
:1010C00009490860BFF34F8FBFF36F8F10BD000059
:1010D00050000020400000205C0000206C00002038
:1010E00058000020D001002004ED00E010B500F011
:1010F000EBFD10480068D0B90F4800F0AFFD0F4875
:1011000000F0ACFD0C480E4908600C480D49086021
:1011100000220C210A2001F0FBF90649086008466C
:10112000006820B108A10348006800F0FDFE00F04F
:101130000DFE10BD84000020B4040020C80400206F
:101140007C00002080000020546D725100000000DF
:1011500070B523E001F016F91348006808B90120C2
:1011600000E00020054601F031FFBDB900F0ACFD04
:101170000D48C068C468201D00F05CFD0B48006885
:10118000401E0A4908600A480068401E0849086075
:1011900000F0DCFD204600F060F800BF0448006865
:1011A0000028D7D170BD00008C0400205000002022
:1011B0004C00002070B504460D46206C70B1216CC7
:1011C000E0680844E0606168E068884201D3206814
:1011D000E0602846226CE168FFF712F870BD2DE947
:1011E000F04104460F4615464FF00008A66B206CF0
:1011F00040B9206860BB606801F022FE8046002094
:10120000606025E07DB93946226CA068FEF7F8FFE2
:10121000216CA0680844A060D4E90110884217D36B
:101220002068A06014E03946226CE068FEF7E8FF11
:10123000216CE068401AE0602168E068884203D2CF
:10124000216C6068401AE060022D01D106B1761E63
:10125000701CA0634046BDE8F08110B50446206BC9
:1012600000F0AAFD204600F0A7FD10BD0146084A87
:10127000126812680AB9012200E000220A600A68B6
:1012800022B9034A1268D268106800E00020704753
:101290007C00002030B54FF41043174800F00704DD
:1012A0002CB1C01D20F00700134C041B1B1B024671
:1012B000124C22600024114D6C60D018083820F0C8
:1012C00007000F4C206000240D4D2D686C600C4D04
:1012D0002D682C601146441A4C60094C24680C603F
:1012E000084D4C682C60084D4C682C604FF0004451
:1012F000064D2C6030BD0000DC0400209000002072
:1013000098000020A00000209C000020A4000020E5
:1013100000BFFFF71DFF064800680128F9D94FF00C
:10132000805004490860BFF34F8FBFF36F8FF0E721
:10133000D001002004ED00E02DE9F04106460D4605
:1013400017469846069C0DB9246000E02760E663C6
:1013500025640121204601F0F9F9BDE8F081000083
:101360002DE9FF5F81460F469246DDE90E6B109C2A
:10137000AAF10100216B01EB800828F0070808F0B2
:10138000070008B9012000E0002028B940F22B3204
:101390001BA120A0FFF740FC002507E0795D04F1C8
:1013A00034004155785D00B902E06D1C102DF5D375
:1013B00000BF002143200155202E00D31F26E662E6
:1013C00066640020A064201D00F055FC04F11800A4
:1013D00000F051FC2461C6F12000A061646200208D
:1013E000E06484F8500049464046039A00F08CFBC4
:1013F0002060BBF1000F01D0CBF80040BDE8FF9F9B
:101400004672656552544F535C7461736B732E63FF
:10141000000000004572726F723A25732C25640D2E
:101420000A00000010B5002407E004EB84010F4A15
:1014300002EB810000F012FC641C202CF5D30C4858
:1014400000F00CFC0B4800F009FC0B4800F006FC17
:101450000A4800F003FC0A4800F000FC044809496F
:10146000086004480849086010BD0000D001002051
:101470005004002064040020780400208C04002024
:10148000A0040020440000204800002010B50146C0
:10149000164800E0006803688B42FBD302464368AD
:1014A00013448B4204D143684C6823444360014693
:1014B0000A464B6813440468A34211D10C4C0368DC
:1014C0002468A34208D04B680468646823444B60D6
:1014D00003681B680B6005E0054B1B680B6001E0AF
:1014E00003680B60884200D0016010BD90000020AE
:1014F000980000202DE9F04104460D4616461F468F
:101500004FF0000865602461B5420CD8F01BA1695A
:10151000884202D34FF0010811E0211D09480068FC
:1015200000F0ACFB0BE0BE4204D2BD4202D34FF050
:10153000010804E0211D0448006800F09FFB4046BC
:10154000BDE8F081800000207C00002070B50546D9
:1015500000F0BAFBA86B08B9012400E0002400F0F9
:10156000F5FB204670BD70B5054600F0ADFBA86BDD
:10157000E96B884201D1012400E0002400F0E6FB81
:10158000204670BDF8B505460F4613480068C06890
:10159000C468201D00F04EFBE069012818D1A06945
:1015A00041192B463A462046FFF7A4FF80B10020A0
:1015B00003462A4601460090204601F0CFFD06462C
:1015C0002EB94FF4027205A109A0FFF725FB00BF59
:1015D0002046616A8847F8BD7C0000204672656538
:1015E00052544F535C74696D6572732E6300000032
:1015F0004572726F723A25732C25640D0A00000043
:1016000070B586B060E0039800285DDB059C6069DA
:1016100008B9012000E0002010B9201D00F00AFBED
:1016200002A800F0C5F8054603980A284AD2DFE868
:1016300000F00905072C2E4506082D2F00BF00BF1E
:1016400000BF00BF0498A269811803462A462046BD
:10165000FFF750FFC0B12046616A8847E069012862
:1016600012D1002000900498A16942180023194665
:10167000204601F073FD06462EB940F2213218A132
:101680001CA0FFF7C9FA00BF1DE000BF1BE000BFB0
:101690000498A061A06908B1012000E0002028B9E9
:1016A0004FF44E720EA113A0FFF7B6FAA0694119CC
:1016B0002B462A462046FFF71DFF04E0204600F097
:1016C0007BFB00E000BF00BF00231A4603A90D48C2
:1016D000006800F057FF002895D106B070BD0000EB
:1016E0004672656552544F535C74696D6572732E12
:1016F000630000004572726F723A25732C25640DE9
:101700000A00000084000020F8B505460C4600F0F1
:1017100039FE684600F04CF80646009820BB44B9F4
:10172000B54206D801F052FC31462846FFF72AFFA1
:101730001CE03CB10E480068006808B9012000E0D8
:1017400000200446A91B22460A48006800F002FC5B
:1017500001F03CFC50B94FF0805007490860BFF3DE
:101760004F8FBFF36F8F01E001F030FCF8BD000038
:10177000800000208400002004ED00E00A49096890
:10178000096809B9012100E0002121B14FF0FF31C2
:10179000064A116006E004490968C968C868034A36
:1017A0004168116070470000440000207000002074
:1017B00070B5044601F08EFA054607480068854278
:1017C00004D200F00BF80120206001E0002020602E
:1017D00001480560284670BD8C0000202DE9F843C3
:1017E0002DE021480068C06805681F480068C0688F
:1017F000C468201D00F01EFA2046616A8847E0692F
:1018000001281CD1A0694619AE4207D9666024613F
:10181000211D1548006800F031FA10E00020034651
:101820002A4601460090204601F098FC07462FB951
:1018300040F292320DA112A0FFF7EEF900BF0A4864
:101840000068006808B9012000E000200028C8D026
:101850000548D0F800800E480068034908600C482D
:10186000C0F80080BDE8F8837C0000204672656502
:1018700052544F535C74696D6572732E630000009F
:101880004572726F723A25732C25640D0A000000B0
:10189000800000200B480068401C08B9012000E0CF
:1018A000002020B9F42208A111A0FFF7B5F900BF6C
:1018B000502080F31188BFF34F8FBFF36F8F00BFAD
:1018C00000BFFEE7A80000204672656552544F53E2
:1018D0005C706F727461626C655C525644535C411B
:1018E000524D5F434D335C706F72742E6300000085
:1018F0004572726F723A25732C25640D0A00000040
:1019000008B500BF6846FFF7B1FC044620460099C1
:10191000FFF7FAFEFFF774FEF4E770B5044600F037
:10192000D3F994F9455010E0606A08B9012000E04D
:10193000002038B904F1240001F0EEFA18B100F0EB
:10194000EFFB00E003E0681E45B2002DECDC00BFB9
:10195000FF2084F8450000F0F9F900F0B5F994F99A
:10196000445010E0206908B9012000E0002048B987
:1019700004F1100001F0D0FA08B100F0D1FB681EAC
:1019800045B200E001E0002DECDC00BFFF2084F850
:10199000440000F0DBF970BD2DE9F04104464FF042
:1019A000000800F0EFFC3E48006808B9FFF772FC41
:1019B0003C480068204000285FD1A4B1083404F0FE
:1019C000070080B104F00700C0F10800044404F0EF
:1019D000070008B9012000E0002020B9BF2232A191
:1019E0003AA0FFF719F9002C47D03C480068844220
:1019F00043D83B4E3046056801E02E462D686868A6
:101A0000A04202D228680028F7D125480068854204
:101A100033D0306800F10808286830606868001B1F
:101A2000102813D92F1907F0070008B9012000E08A
:101A3000002020B9EC221CA124A0FFF7EDF8686873
:101A4000001B78606C603846FFF720FD234968680A
:101A50000968081A21490860084600682149096890
:101A6000884203D21D4800681E4908600D49686815
:101A70000968084368600020286001F0A7FA08F0B0
:101A8000070008B9012000E0002028B94FF4967241
:101A900005A10EA0FFF7C0F84046BDE8F0810000A8
:101AA00098000020A40000204672656552544F53F0
:101AB0005C706F727461626C655C4D656D4D616EDA
:101AC000675C686561705F342E6300004572726FF9
:101AD000723A25732C25640D0A0000009C0000203A
:101AE00090000020A00000200648006830B10549A1
:101AF000096801F14800896C491C016001480068CF
:101B00007047000040000020001F4FF0807303600A
:101B1000001F21F001030360001F034B0360143812
:101B20000260203870470000951800081CB5044674
:101B300000F0CAF81248022100233222CDE9001039
:101B400010A1134800F0FCFF1248032100234FF4BA
:101B50000072CDE9001010A1124800F0F1FF124808
:101B600004210023CA01CDE9001010A1124800F0A1
:101B7000E7FF1248006800F04DFA00F0E7F81CBDDE
:101B8000040000206C6564315F7461736B000000B9
:101B9000BD0E00080800002054616B655F7461731E
:101BA0006B000000750800080C000020476976658E
:101BB0005F7461736B000000950300080000002053
:101BC00070B506460D4600F07FF818480068C06CF6
:101BD00088B901201549096881F850005DB10121DB
:101BE0002846FFF7DDF94FF0805011490860BFF338
:101BF0004F8FBFF36F8F00F0A9F800F065F80B4826
:101C00000068C46C4CB126B1002008490968C8645A
:101C100003E0601E05490968C8640020034909689B
:101C200081F8500000F092F8204670BD400000207E
:101C300004ED00E001460A69D1E901309860D1E97C
:101C4000010358605068884201D1886850600020C4
:101C500008611068401E10601068704700F10801AC
:101C600041604FF0FF31816000F10801C160016106
:101C700000210160704700210161704710B50246E4
:101C80000B685C1C0CB9106907E002F1080000E069
:101C90004068446824689C42FAD944684C604C68A7
:101CA000A160886041600A611468641C146010BD02
:101CB00042684A6093688B609368596091600861DC
:101CC00003685B1C0360704710B500BF502080F3B1
:101CD0001188BFF34F8FBFF36F8F00BF0B480068B1
:101CE000401C0A4908600846006801280DD10848D0
:101CF0000068C0B208B9012000E0002028B94FF404
:101D0000BD7204A10DA0FEF787FF10BDA800002042
:101D100004ED00E04672656552544F535C706F727B
:101D20007461626C655C525644535C41524D5F4332
:101D30004D335C706F72742E630000004572726FD9
:101D4000723A25732C25640D0A00000010B50B486B
:101D5000006828B940F2811209A113A0FEF75CFFC8
:101D600006480068401E054908600846006820B91A
:101D7000002080F3118800BF00BF10BDA800002024
:101D80004672656552544F535C706F727461626C39
:101D9000655C525644535C41524D5F434D335C7019
:101DA0006F72742E630000004572726F723A257371
:101DB0002C25640D0A00000070B506463546002E3D
:101DC00035D0083D2C461A4960680968084008B1BA
:101DD000012000E0002028B94FF4A07215A11EA038
:101DE000FEF71AFF206808B9012000E0002028B99A
:101DF00040F241120FA118A0FEF70EFF0C496068D7
:101E00000968084098B1206888B90949606809687C
:101E10008843606000F0B6FA1349606809680844B6
:101E2000114908602046FFF731FB01F0CFF870BD83
:101E3000A40000204672656552544F535C706F7267
:101E40007461626C655C4D656D4D616E675C686563
:101E500061705F342E6300004572726F723A2573B1
:101E60002C25640D0A0000009C0000200648006834
:101E70004FF47A71B0FBF1F0401E4FF0E021486161
:101E800007200861704700002400002070B5FEF7AD
:101E9000A1F90546102D11D305F1E02090F8F0438B
:101EA00010480078844201DB012000E0002028B9BE
:101EB0004FF42A720CA116A0FEF7AEFE1848006877
:101EC00000F4E06017490968884201D8012000E069
:101ED000002028B94FF42E7203A10DA0FEF79CFE3E
:101EE00070BD0000AC0000204672656552544F532F
:101EF0005C706F727461626C655C525644535C41F5
:101F0000524D5F434D335C706F72742E630000005E
:101F10004572726F723A25732C25640D0A00000019
:101F20000CED00E0B0000020024600200BE0084B62
:101F300053F8303033B9064B43F8301003EBC0038D
:101F40005A6002E0401C0A28F1D300BF704700002D
:101F5000800100202DE9F04105460E4617462C462B
:101F6000FFF7B2FE94F94400401C10B9002084F839
:101F7000440094F94500401C10B9002084F8450045
:101F8000FFF7E4FEA06B28B93A46314604F124007D
:101F900000F0F6F82046FFF7C0FCBDE8F081000035
:101FA00070B504460025ACB10F48006808B901209F
:101FB00000E0002028B940F2CF420CA110A0FEF7AB
:101FC0002BFE00F0DFF900212046FEF7E9FF00F0CC
:101FD000FDFF05463DB94FF080500D490860BFF345
:101FE0004F8FBFF36F8F70BD78000020467265651C
:101FF00052544F535C7461736B732E630000000086
:102000004572726F723A25732C25640D0A00000028
:1020100004ED00E070B50546FFF756FE15B92D48F2
:10202000006800E028460446201DFFF703FE78B94B
:10203000E06A00EB8000284951F8200040B994F88C
:102040002C100120884025490968814323480160FC
:10205000A06A18B104F11800FFF7ECFD20480068F1
:10206000401C1F4908601B480068844209D1211D9B
:102070001C48FFF71DFE1C480068401C1A490860F8
:1020800009E01A480068401E184908602046FFF71A
:10209000E4F8FFF773FBFFF759FE15480068C0B17D
:1020A0000C480068844214D11248006808B9012025
:1020B00000E0002028B940F265420FA113A0FEF70E
:1020C000ABFD4FF0805015490860BFF34F8FBFF351
:1020D0006F8F70BD40000020D0010020580000200C
:1020E0006C0000208C0400204C00002050000020D8
:1020F0005C000020780000204672656552544F5302
:102100005C7461736B732E63000000004572726F24
:10211000723A25732C25640D0A00000004ED00E0DE
:1021200001200149086070476400002070B5044632
:102130000D462CB940F6063207A10CA0FEF76CFD47
:102140000E48016818312046FFF798FD0121284606
:10215000FEF726FF70BD00004672656552544F536E
:102160005C7461736B732E63000000004572726FC4
:10217000723A25732C25640D0A00000040000020EF
:1021800070B505460E4614462DB940F6313209A108
:102190000DA0FEF741FD1048016818312846FFF7F1
:1021A00087FD0CB14FF0FF3621463046FEF7F8FEB2
:1021B00070BD00004672656552544F535C74617384
:1021C0006B732E63000000004572726F723A2573C4
:1021D0002C25640D0A0000004000002070B5054663
:1021E0002C46002D4BD02649E06A0968C96A88420E
:1021F00045D2A06900F0004028B921480068C06AB3
:10220000C0F12000A061E16A01EB81011D4A02EBEF
:1022100081016069884201D1012000E0002050B3B3
:10222000201DFFF707FD78B9E06A00EB8000154933
:1022300051F8200040B994F82C1001208840124930
:1022400009688143104801600D480068C06AE06277
:1022500094F82C10012088400B49096808430A496A
:102260000860E16A01EB8101064A02EB8100211D51
:10227000FFF71EFD03E002480068C06AE06270BD1F
:1022800040000020D00100205800002010B5044676
:102290002CB940F6C13205A109A0FEF7BDFC0C48DF
:1022A000006820600B480068606010BD467265657C
:1022B00052544F535C7461736B732E6300000000C3
:1022C0004572726F723A25732C25640D0A00000066
:1022D00068000020540000201CB51A4800210B465D
:1022E0008022CDE9001018A1194800F029FC04460D
:1022F000012C02D100F0FAFE0446012C15D100BFDA
:10230000502080F31188BFF34F8FBFF36F8F00BF52
:102310004FF0FF300F49086001200F49086000208E
:102320000E49086000F08AF80BE0601C08B101203B
:1023300000E0002028B940F2847209A10DA0FEF748
:102340006BFC1CBD7400002049444C45000000009B
:1023500011130008700000205C00002054000020D1
:102360004672656552544F535C7461736B732E6390
:10237000000000004572726F723A25732C25640DBF
:102380000A00000002480068401C014908607047CC
:102390007800002010B51B48006818B101201A49C8
:1023A00008602DE000201849086018480068B0FA5D
:1023B00080F0C0F11F0404EB8400154951F820009F
:1023C00008B1012000E0002028B940F6F62211A152
:1023D00015A0FEF721FC04EB84010D4A02EB8100FD
:1023E00041684968416000F1080142688A4202D1AF
:1023F0004168496841604168C9680F4A116000BF7F
:1024000010BD00007800002064000020580000206B
:10241000D00100204672656552544F535C7461735D
:102420006B732E63000000004572726F723A257361
:102430002C25640D0A000000400000201CB5224835
:10244000014609780191FF21024611700146097881
:1024500000919DF8001001F050011C4A11700721F5
:102460001B4A116009E01A490968491E184A11609F
:102470009DF800104906090E00919DF8001001F02A
:1024800080018029EFD0124909680902104A1160C1
:102490001146098801F4E06111600B4A019911703D
:1024A0000C48006840F470000A490860084600685B
:1024B00040F070400860FFF7D9FC00200649086032
:1024C000FDF752FE00201CBD00E400E0AC0000203F
:1024D000B000002020ED00E0A800002010B500BFF3
:1024E000502080F31188BFF34F8FBFF36F8F00BF71
:1024F00000F0F6FB18B14FF080500449086000BFAF
:10250000002080F3118800BF10BD000004ED00E042
:102510002DE9F84305460E4690460DB1012000E036
:10252000002028B94FF4C4720DA112A0FEF774FB6D
:102530000EB9002701E005FB06F707F14800FFF799
:102540002BFA044644B104F1480943464A46314651
:1025500028460094FEF7F0FE2046BDE8F883000010
:102560004672656552544F535C71756575652E638F
:10257000000000004572726F723A25732C25640DBD
:102580000A0000002DE9FF4782B005460E461F46AF
:102590004FF0000A2C462CB940F2DC4261A166A043
:1025A000FEF73AFB0EB9206C08B9012000E00020CC
:1025B00028B940F2DD425BA15FA0FEF72DFB00F0E1
:1025C00079FB08B9049808B9012000E0002028B977
:1025D0004FF49C6253A158A0FEF71EFB00BFFFF70B
:1025E00073FBD4F83890B9F1000F3DD0D4F80C80CB
:1025F00031462046FEF7DEFDDFB9A9F10100A063F8
:10260000206810B9FFF770FA6060206908B90120EE
:1026100000E0002010BB04F1100000F07DFCE8B1E8
:102620004FF0805048490860BFF34F8FBFF36F8F62
:1026300014E0C4F80C80606A08B9012000E00020B2
:1026400060B904F1240000F067FC38B14FF080500D
:102650003D490860BFF34F8FBFF36F8FFFF776FBE5
:10266000012006B0BDE8F087049818B9FFF76EFBAB
:102670000020F6E7BAF1000F04D16846FFF706FE26
:102680004FF0010AFFF762FBFFF77CFEFFF71CFB30
:1026900094F94400401C10B9002084F8440094F9D7
:1026A0004500401C10B9002084F84500FFF74EFBA0
:1026B00004A9684600F0F4F940BB2046FEF746FF47
:1026C000F0B1206830B9FFF7FFFA6068FFF786FDC8
:1026D000FFF73CFB04F124000499FFF727FD204697
:1026E000FFF71BF900F072FC00287FF478AF4FF081
:1026F000805015490860BFF34F8FBFF36F8F6EE7AF
:102700002046FFF70AF900F061FC68E72046FFF772
:1027100004F900F05BFC2046FEF718FF0028EED01D
:1027200000209EE74672656552544F535C71756593
:1027300075652E63000000004572726F723A257352
:102740002C25640D0A00000004ED00E070B505467C
:102750000E462C462CB940F21B121EA122A0FEF7F9
:102760005BFAFFF7B1FAD4E90F12206801FB02000F
:1027700060600020A0632068A060E06B401E226CB7
:10278000216800FB0210E060FF2084F8440084F818
:1027900045009EB9206908B9012000E00020A8B9D1
:1027A00004F1100000F0B8FB80B14FF080501249E6
:1027B0000860BFF34F8FBFF36F8F07E004F1100085
:1027C000FFF74CFA04F12400FFF748FAFFF7BEFACE
:1027D000012070BD4672656552544F535C7175653A
:1027E00075652E63000000004572726F723A2573A2
:1027F0002C25640D0A00000004ED00E02DE9FF43E4
:1028000083B0064688461D464FF0000934462CB971
:1028100040F2D92258A15DA0FEF7FEF9B8F1000FF1
:1028200001D1206C08B9012000E0002028B940F255
:10283000DA2251A155A0FEF7EFF9022D02D1E06B8B
:10284000012801D1012000E0002028B940F2DB225C
:1028500049A14EA0FEF7E0F900F02CFA08B905985E
:1028600008B9012000E0002028B940F2DE2242A190
:1028700046A0FEF7D1F900BFFFF726FAA06BE16B87
:10288000884201D3022D28D12A4641462046FEF730
:10289000A6FC0746606A08B9012000E0002068B97C
:1028A00004F1240000F038FB88B14FF080503B4920
:1028B0000860BFF34F8FBFF36F8F08E03FB14FF059
:1028C000805036490860BFF34F8FBFF36F8FFFF71B
:1028D0003DFA012007B0BDE8F083059818B9FFF76D
:1028E00035FA0020F6E7B9F1000F04D101A8FFF78F
:1028F000CDFC4FF00109FFF729FAFFF743FDFFF781
:10290000E3F994F94400401C10B9002084F8440015
:1029100094F94500401C10B9002084F84500FFF7E9
:1029200015FA05A901A800F0BBF8F0B92046FEF79A
:102930001AFEA0B104F110000599FFF7F7FB20463D
:10294000FEF7EBFF00F042FB002895D14FF08050DE
:1029500012490860BFF34F8FBFF36F8F8CE720469B
:10296000FEF7DBFF00F032FB86E72046FEF7D5FFDF
:1029700000F02CFB0020ADE74672656552544F53C2
:102980005C71756575652E63000000004572726F9D
:10299000723A25732C25640D0A00000004ED00E056
:1029A0002DE9F05F07468A4690461E463C462CB904
:1029B00040F29F3231A136A0FEF72EF9BAF1000F96
:1029C00001D1206C08B9012000E0002028B94FF4A3
:1029D00068722AA12EA0FEF71FF9022E02D1E06B29
:1029E000012801D1012000E0002028B940F2A132E5
:1029F00022A127A0FEF710F9FFF748FA00BF5021E7
:102A0000EFF3118081F31188BFF34F8FBFF36F8F06
:102A100000BF0546A06BE16B884201D3022E23D193
:102A200094F945B0324651462046FEF7D8FB0BF1EB
:102A3000010088B9606A08B9012000E0002080B96F
:102A400004F1240000F068FA58B1B8F1000F08D082
:102A50000120C8F8000004E00BF1010040B284F846
:102A600045004FF0010901E04FF0000900BF85F378
:102A7000118800BF4846BDE8F09F000046726565BA
:102A800052544F535C71756575652E6300000000EC
:102A90004572726F723A25732C25640D0A0000008E
:102AA0002DE9F04104460D462CB940F6CB3219A170
:102AB0001DA0FEF7B1F82DB940F6CC3215A11AA031
:102AC000FEF7AAF8FFF700F91B4807682868401CC2
:102AD00008B9002619E0194920680968884204D01D
:102AE0006068B84201D801260FE06068381A29688A
:102AF000884209D228686168791A401A28602046FD
:102B0000FFF7C4FB002600E00126FFF71FF930465F
:102B1000BDE8F0814672656552544F535C74617331
:102B20006B732E63000000004572726F723A25735A
:102B30002C25640D0A0000005400002068000020CD
:102B40002DE9FF4F85B0804689461746DDE912AB77
:102B5000B800FEF721FF064656B15420FEF71CFFD1
:102B600004460CB1266304E03046FFF725F900E087
:102B700000247CB10020CDE900ABCDE902403A460B
:102B800049464046089BFEF7EBFB2046FEF754FA09
:102B9000012501E04FF0FF35284609B0BDE8F08F70
:102BA0002DE9F04706460D46174698464FF0010AB4
:102BB0002EB941F2FD0232A136A0FEF72DF83446BF
:102BC000FFF782F8B8F1000F02D0E06CC8F80000FF
:102BD00094F85090022084F85000052F17D2DFE8B7
:102BE00007F01503070B0D00E06C2843E0640EE0CE
:102BF000E06C401CE0640AE0E56408E0B9F1020F13
:102C000001D0E56401E04FF0000A00E000BF00BF22
:102C1000B9F1010F2ED1201DFFF70CF894F82C10FC
:102C2000012088401F49096808431E490860E16A7D
:102C300001EB81011C4A02EB8100211DFFF738F8EE
:102C4000A06A08B9012000E0002028B941F235123D
:102C50000BA110A0FDF7E0FF1449E06A0968C96AFA
:102C6000884207D94FF0805011490860BFF34F8F59
:102C7000BFF36F8FFFF76AF85046BDE8F08700009A
:102C80004672656552544F535C7461736B732E6367
:102C9000000000004572726F723A25732C25640D96
:102CA0000A00000058000020D00100204000002051
:102CB00004ED00E00549096809B9012005E004496F
:102CC000096809B9022000E0002070475C0000207C
:102CD0007800002001490868704700005400002077
:102CE0002DE9F0414FF0000841480068002872D1FA
:102CF00040480068451C3F480560EDB93E48006803
:102D0000006808B9012000E0002028B940F6D91277
:102D10003AA13FA0FDF780FF3748076840480068A8
:102D2000354908603E4807603E480068401C3D4900
:102D30000860FEF723FD00BF3B48006885423CD396
:102D400000BF2D480068006808B9012000E000209D
:102D500020B14FF0FF30344908602DE0264800686C
:102D6000C068C4686668B54202D22F48066023E096
:102D7000201DFEF75FFFA06A18B104F11800FEF7EE
:102D800059FF94F82C10012088402849096808430D
:102D900026490860E16A01EB8101254A02EB8100C6
:102DA000211DFEF785FF2349E06A0968C96A884248
:102DB000C7D34FF00108C4E700BF1E480068C06ACF
:102DC00000EB80001A4951F82000012801D94FF08A
:102DD000010805E0FFE718480068401C1649086034
:102DE0001648006808B14FF001084046BDE8F08180
:102DF00078000020540000204400002046726565E1
:102E000052544F535C7461736B732E630000000067
:102E10004572726F723A25732C25640D0A0000000A
:102E200048000020680000207000002058000020AA
:102E3000D00100204000002060000020640000203D
:102E400070B505462C460026002D4BD0264800685C
:102E5000844201D1012000E0002028B940F6C76279
:102E600022A127A0FDF7D8FEA06C28B940F6C962C0
:102E70001EA123A0FDF7D0FEA06C401EA064616CD3
:102E8000E06A88422ED0A06C60BB201DFEF7D2FE07
:102E900078B9E06A00EB80001D4951F8200040B984
:102EA00094F82C10012088401A4909688143194878
:102EB0000160606CE062E06AC0F12000A06194F8FB
:102EC0002C10012088401349096808431149086003
:102ED000E16A01EB81010E4A02EB8100211DFEF740
:102EE000E7FE0126304670BD400000204672656551
:102EF00052544F535C7461736B732E630000000077
:102F00004572726F723A25732C25640D0A00000019
:102F1000D00100205800002070B50646F068C46853
:102F20002CB940F661321AA11EA0FDF775FE04F11E
:102F30001800FEF77FFE1F480068A8B9201DFEF7A5
:102F400079FE94F82C10012088401B490968084339
:102F500019490860E16A01EB8101184A02EB81001E
:102F6000211DFEF7A5FE04E004F118011448FEF748
:102F70009FFE1449E06A0968C96A884204D901259C
:102F800001201149086000E00025284670BD0000BE
:102F90004672656552544F535C7461736B732E6354
:102FA000000000004572726F723A25732C25640D83
:102FB0000A0000007800002058000020D001002006
:102FC00078040020400000206400002070B5002438
:102FD00000263448006828B94FF4FD6232A137A0BA
:102FE000FDF71AFEFEF770FE2E480068401E2D49C0
:102FF00008600846006800284FD13448006800285F
:103000004BD024E03248C068C46804F11800FEF7D1
:1030100011FE201DFEF70EFE94F82C1001208840B2
:103020002C49096808432B490860E16A01EB8101DA
:10303000294A02EB8100211DFEF73AFE2749E06A8A
:103040000968C96A884202D30120254908602048DE
:10305000006808B9012000E000200028D2D00CB19F
:10306000FEF78CFB1F48056865B100BFFFF738FE0F
:1030700010B101201A4908606D1E002DF6D1002004
:10308000184908601648006838B10126300716490B
:103090000860BFF34F8FBFF36F8FFEF757FE3046C8
:1030A00070BD0000780000204672656552544F5391
:1030B0005C7461736B732E63000000004572726F65
:1030C000723A25732C25640D0A0000005000002080
:1030D0007804002058000020D0010020400000208B
:1030E000640000206000002004ED00E01CB5002416
:1030F000FDF7FCFF0B48006858B10B481F21002367
:103100004FF48072CDE9001008A10A48FFF718FDBE
:1031100004462CB940F2331207A10CA0FDF77CFD48
:1031200020461CBD8400002088000020546D7220C1
:1031300053766300011900084672656552544F5377
:103140005C74696D6572732E630000004572726F66
:10315000723A25732C25640D0A0000002DE9FE4308
:1031600004460D4616461F46DDF828804FF000093C
:103170002CB94FF4D37216A11AA0FDF74DFD1D48CE
:10318000006810B3009501960294062D15DAFFF73A
:1031900091FD022808D1002342466946154800687F
:1031A000FFF72CFB814610E000231A4669461148C0
:1031B0000068FFF723FB814607E000233A46694693
:1031C0000C480068FFF7ECFB81464846BDE8FE83EB
:1031D0004672656552544F535C74696D6572732E07
:1031E000630000004572726F723A25732C25640DDE
:1031F0000A000000840000201832000800000020AF
:10320000B8000000380C0008D0320008B8000020D8
:1032100028980000480C0008000000000000000092
:103220000000000000000000000000000102030494
:1032300001020304060708090204060800A24A0462
:103240000000000000000000010203040607080956
:10325000010000000000000000000000000000006D
:10326000000000000000000000000000000000005E
:10327000000000000000000000000000000000004E
:10328000000000000000000000000000000000003E
:10329000000000000000000000000000000000002E
:1032A000000000000000000000000000000000001E
:1032B000000000000000000000000000000000000E
:1032C000AAAAAAAA00000000000000000000000056
:0400000508000131BD
:00000001FF
